{
  "contractName": "EocDonor",
  "abi": [
    {
      "anonymous": false,
      "inputs": [
        {
          "indexed": false,
          "internalType": "uint256",
          "name": "_donorId",
          "type": "uint256"
        },
        {
          "indexed": false,
          "internalType": "address",
          "name": "_donorErc20Address",
          "type": "address"
        },
        {
          "indexed": false,
          "internalType": "string",
          "name": "_donorName",
          "type": "string"
        }
      ],
      "name": "DonorAdded",
      "type": "event"
    },
    {
      "inputs": [
        {
          "internalType": "address",
          "name": "",
          "type": "address"
        }
      ],
      "name": "donorAddresses",
      "outputs": [
        {
          "internalType": "uint256",
          "name": "donorId",
          "type": "uint256"
        },
        {
          "internalType": "address",
          "name": "donorErc20Address",
          "type": "address"
        },
        {
          "internalType": "string",
          "name": "name",
          "type": "string"
        },
        {
          "internalType": "string",
          "name": "surName",
          "type": "string"
        },
        {
          "internalType": "string",
          "name": "postalAddress",
          "type": "string"
        }
      ],
      "stateMutability": "view",
      "type": "function",
      "constant": true
    },
    {
      "inputs": [
        {
          "internalType": "address",
          "name": "_donorErc20Address",
          "type": "address"
        },
        {
          "internalType": "string",
          "name": "_name",
          "type": "string"
        },
        {
          "internalType": "string",
          "name": "_surName",
          "type": "string"
        },
        {
          "internalType": "string",
          "name": "_postalAddress",
          "type": "string"
        }
      ],
      "name": "addDonor",
      "outputs": [],
      "stateMutability": "nonpayable",
      "type": "function"
    },
    {
      "inputs": [
        {
          "internalType": "address",
          "name": "_donorErc20Address",
          "type": "address"
        }
      ],
      "name": "getDonor",
      "outputs": [
        {
          "components": [
            {
              "internalType": "uint256",
              "name": "donorId",
              "type": "uint256"
            },
            {
              "internalType": "address",
              "name": "donorErc20Address",
              "type": "address"
            },
            {
              "internalType": "string",
              "name": "name",
              "type": "string"
            },
            {
              "internalType": "string",
              "name": "surName",
              "type": "string"
            },
            {
              "internalType": "string",
              "name": "postalAddress",
              "type": "string"
            },
            {
              "internalType": "uint256[]",
              "name": "donationIds",
              "type": "uint256[]"
            }
          ],
          "internalType": "struct EocDonor.Donor",
          "name": "",
          "type": "tuple"
        }
      ],
      "stateMutability": "view",
      "type": "function",
      "constant": true
    },
    {
      "inputs": [],
      "name": "getDonors",
      "outputs": [
        {
          "components": [
            {
              "internalType": "uint256",
              "name": "donorId",
              "type": "uint256"
            },
            {
              "internalType": "address",
              "name": "donorErc20Address",
              "type": "address"
            },
            {
              "internalType": "string",
              "name": "name",
              "type": "string"
            },
            {
              "internalType": "string",
              "name": "surName",
              "type": "string"
            },
            {
              "internalType": "string",
              "name": "postalAddress",
              "type": "string"
            },
            {
              "internalType": "uint256[]",
              "name": "donationIds",
              "type": "uint256[]"
            }
          ],
          "internalType": "struct EocDonor.Donor[]",
          "name": "",
          "type": "tuple[]"
        }
      ],
      "stateMutability": "view",
      "type": "function",
      "constant": true
    }
  ],
  "bytecode": "0x608060405234801561001057600080fd5b50611679806100206000396000f3fe608060405234801561001057600080fd5b506004361061004c5760003560e01c806319ccf9ed1461005157806362e13e7d1461006d57806396c59043146100a157806396f300d4146100d1575b600080fd5b61006b60048036038101906100669190610ea6565b6100ef565b005b61008760048036038101906100829190610f61565b6103bb565b60405161009895949392919061103e565b60405180910390f35b6100bb60048036038101906100b69190610f61565b6105a9565b6040516100c8919061125b565b60405180910390f35b6100d961086f565b6040516100e691906113dd565b60405180910390f35b600073ffffffffffffffffffffffffffffffffffffffff168473ffffffffffffffffffffffffffffffffffffffff161161015e576040517f08c379a000000000000000000000000000000000000000000000000000000000815260040161015590611471565b60405180910390fd5b600073ffffffffffffffffffffffffffffffffffffffff166000808673ffffffffffffffffffffffffffffffffffffffff1673ffffffffffffffffffffffffffffffffffffffff16815260200190815260200160002060010160009054906101000a900473ffffffffffffffffffffffffffffffffffffffff1673ffffffffffffffffffffffffffffffffffffffff161461022e576040517f08c379a0000000000000000000000000000000000000000000000000000000008152600401610225906114dd565b60405180910390fd5b60008060008673ffffffffffffffffffffffffffffffffffffffff1673ffffffffffffffffffffffffffffffffffffffff1681526020019081526020016000209050600254816000018190555083816002019080519060200190610293929190610bff565b50828160030190805190602001906102ac929190610bff565b50848160010160006101000a81548173ffffffffffffffffffffffffffffffffffffffff021916908373ffffffffffffffffffffffffffffffffffffffff16021790555081816004019080519060200190610308929190610bff565b508460016000600254815260200190815260200160002060006101000a81548173ffffffffffffffffffffffffffffffffffffffff021916908373ffffffffffffffffffffffffffffffffffffffff160217905550600260008154809291906103709061152c565b91905055507ff1a73eeb2b4ddced9fb956e389a13618a37205f30bf1694dbf5ba71b1bbfc25c816000015486866040516103ac93929190611575565b60405180910390a15050505050565b60006020528060005260406000206000915090508060000154908060010160009054906101000a900473ffffffffffffffffffffffffffffffffffffffff169080600201805461040a906115e2565b80601f0160208091040260200160405190810160405280929190818152602001828054610436906115e2565b80156104835780601f1061045857610100808354040283529160200191610483565b820191906000526020600020905b81548152906001019060200180831161046657829003601f168201915b505050505090806003018054610498906115e2565b80601f01602080910402602001604051908101604052809291908181526020018280546104c4906115e2565b80156105115780601f106104e657610100808354040283529160200191610511565b820191906000526020600020905b8154815290600101906020018083116104f457829003601f168201915b505050505090806004018054610526906115e2565b80601f0160208091040260200160405190810160405280929190818152602001828054610552906115e2565b801561059f5780601f106105745761010080835404028352916020019161059f565b820191906000526020600020905b81548152906001019060200180831161058257829003601f168201915b5050505050905085565b6105b1610c85565b6000808373ffffffffffffffffffffffffffffffffffffffff1673ffffffffffffffffffffffffffffffffffffffff1681526020019081526020016000206040518060c0016040529081600082015481526020016001820160009054906101000a900473ffffffffffffffffffffffffffffffffffffffff1673ffffffffffffffffffffffffffffffffffffffff1673ffffffffffffffffffffffffffffffffffffffff16815260200160028201805461066a906115e2565b80601f0160208091040260200160405190810160405280929190818152602001828054610696906115e2565b80156106e35780601f106106b8576101008083540402835291602001916106e3565b820191906000526020600020905b8154815290600101906020018083116106c657829003601f168201915b505050505081526020016003820180546106fc906115e2565b80601f0160208091040260200160405190810160405280929190818152602001828054610728906115e2565b80156107755780601f1061074a57610100808354040283529160200191610775565b820191906000526020600020905b81548152906001019060200180831161075857829003601f168201915b5050505050815260200160048201805461078e906115e2565b80601f01602080910402602001604051908101604052809291908181526020018280546107ba906115e2565b80156108075780601f106107dc57610100808354040283529160200191610807565b820191906000526020600020905b8154815290600101906020018083116107ea57829003601f168201915b505050505081526020016005820180548060200260200160405190810160405280929190818152602001828054801561085f57602002820191906000526020600020905b81548152602001906001019080831161084b575b5050505050815250509050919050565b60606000600254905060008167ffffffffffffffff81111561089457610893610d7b565b5b6040519080825280602002602001820160405280156108cd57816020015b6108ba610c85565b8152602001906001900390816108b25790505b50905060005b82811015610bf6576000806001600084815260200190815260200160002060009054906101000a900473ffffffffffffffffffffffffffffffffffffffff1673ffffffffffffffffffffffffffffffffffffffff1673ffffffffffffffffffffffffffffffffffffffff1681526020019081526020016000206040518060c0016040529081600082015481526020016001820160009054906101000a900473ffffffffffffffffffffffffffffffffffffffff1673ffffffffffffffffffffffffffffffffffffffff1673ffffffffffffffffffffffffffffffffffffffff1681526020016002820180546109c7906115e2565b80601f01602080910402602001604051908101604052809291908181526020018280546109f3906115e2565b8015610a405780601f10610a1557610100808354040283529160200191610a40565b820191906000526020600020905b815481529060010190602001808311610a2357829003601f168201915b50505050508152602001600382018054610a59906115e2565b80601f0160208091040260200160405190810160405280929190818152602001828054610a85906115e2565b8015610ad25780601f10610aa757610100808354040283529160200191610ad2565b820191906000526020600020905b815481529060010190602001808311610ab557829003601f168201915b50505050508152602001600482018054610aeb906115e2565b80601f0160208091040260200160405190810160405280929190818152602001828054610b17906115e2565b8015610b645780601f10610b3957610100808354040283529160200191610b64565b820191906000526020600020905b815481529060010190602001808311610b4757829003601f168201915b5050505050815260200160058201805480602002602001604051908101604052809291908181526020018280548015610bbc57602002820191906000526020600020905b815481526020019060010190808311610ba8575b505050505081525050828281518110610bd857610bd7611614565b5b60200260200101819052508080610bee9061152c565b9150506108d3565b50809250505090565b828054610c0b906115e2565b90600052602060002090601f016020900481019282610c2d5760008555610c74565b82601f10610c4657805160ff1916838001178555610c74565b82800160010185558215610c74579182015b82811115610c73578251825591602001919060010190610c58565b5b509050610c819190610cd1565b5090565b6040518060c0016040528060008152602001600073ffffffffffffffffffffffffffffffffffffffff168152602001606081526020016060815260200160608152602001606081525090565b5b80821115610cea576000816000905550600101610cd2565b5090565b6000604051905090565b600080fd5b600080fd5b600073ffffffffffffffffffffffffffffffffffffffff82169050919050565b6000610d2d82610d02565b9050919050565b610d3d81610d22565b8114610d4857600080fd5b50565b600081359050610d5a81610d34565b92915050565b600080fd5b600080fd5b6000601f19601f8301169050919050565b7f4e487b7100000000000000000000000000000000000000000000000000000000600052604160045260246000fd5b610db382610d6a565b810181811067ffffffffffffffff82111715610dd257610dd1610d7b565b5b80604052505050565b6000610de5610cee565b9050610df18282610daa565b919050565b600067ffffffffffffffff821115610e1157610e10610d7b565b5b610e1a82610d6a565b9050602081019050919050565b82818337600083830152505050565b6000610e49610e4484610df6565b610ddb565b905082815260208101848484011115610e6557610e64610d65565b5b610e70848285610e27565b509392505050565b600082601f830112610e8d57610e8c610d60565b5b8135610e9d848260208601610e36565b91505092915050565b60008060008060808587031215610ec057610ebf610cf8565b5b6000610ece87828801610d4b565b945050602085013567ffffffffffffffff811115610eef57610eee610cfd565b5b610efb87828801610e78565b935050604085013567ffffffffffffffff811115610f1c57610f1b610cfd565b5b610f2887828801610e78565b925050606085013567ffffffffffffffff811115610f4957610f48610cfd565b5b610f5587828801610e78565b91505092959194509250565b600060208284031215610f7757610f76610cf8565b5b6000610f8584828501610d4b565b91505092915050565b6000819050919050565b610fa181610f8e565b82525050565b610fb081610d22565b82525050565b600081519050919050565b600082825260208201905092915050565b60005b83811015610ff0578082015181840152602081019050610fd5565b83811115610fff576000848401525b50505050565b600061101082610fb6565b61101a8185610fc1565b935061102a818560208601610fd2565b61103381610d6a565b840191505092915050565b600060a0820190506110536000830188610f98565b6110606020830187610fa7565b81810360408301526110728186611005565b905081810360608301526110868185611005565b9050818103608083015261109a8184611005565b90509695505050505050565b6110af81610f8e565b82525050565b6110be81610d22565b82525050565b600082825260208201905092915050565b60006110e082610fb6565b6110ea81856110c4565b93506110fa818560208601610fd2565b61110381610d6a565b840191505092915050565b600081519050919050565b600082825260208201905092915050565b6000819050602082019050919050565b600061114683836110a6565b60208301905092915050565b6000602082019050919050565b600061116a8261110e565b6111748185611119565b935061117f8361112a565b8060005b838110156111b0578151611197888261113a565b97506111a283611152565b925050600181019050611183565b5085935050505092915050565b600060c0830160008301516111d560008601826110a6565b5060208301516111e860208601826110b5565b506040830151848203604086015261120082826110d5565b9150506060830151848203606086015261121a82826110d5565b9150506080830151848203608086015261123482826110d5565b91505060a083015184820360a086015261124e828261115f565b9150508091505092915050565b6000602082019050818103600083015261127581846111bd565b905092915050565b600081519050919050565b600082825260208201905092915050565b6000819050602082019050919050565b600060c0830160008301516112c160008601826110a6565b5060208301516112d460208601826110b5565b50604083015184820360408601526112ec82826110d5565b9150506060830151848203606086015261130682826110d5565b9150506080830151848203608086015261132082826110d5565b91505060a083015184820360a086015261133a828261115f565b9150508091505092915050565b600061135383836112a9565b905092915050565b6000602082019050919050565b60006113738261127d565b61137d8185611288565b93508360208202850161138f85611299565b8060005b858110156113cb57848403895281516113ac8582611347565b94506113b78361135b565b925060208a01995050600181019050611393565b50829750879550505050505092915050565b600060208201905081810360008301526113f78184611368565b905092915050565b7f4c276164726573736520647520646f6e617465757220646f697420c3aa74726560008201527f2064696666c3a972656e7465206465207ac3a9726f0000000000000000000000602082015250565b600061145b603583610fc1565b9150611466826113ff565b604082019050919050565b6000602082019050818103600083015261148a8161144e565b9050919050565b7f446f6e6f722064c3a96ac3a020656e72656769737472c3a90000000000000000600082015250565b60006114c7601883610fc1565b91506114d282611491565b602082019050919050565b600060208201905081810360008301526114f6816114ba565b9050919050565b7f4e487b7100000000000000000000000000000000000000000000000000000000600052601160045260246000fd5b600061153782610f8e565b91507fffffffffffffffffffffffffffffffffffffffffffffffffffffffffffffffff82141561156a576115696114fd565b5b600182019050919050565b600060608201905061158a6000830186610f98565b6115976020830185610fa7565b81810360408301526115a98184611005565b9050949350505050565b7f4e487b7100000000000000000000000000000000000000000000000000000000600052602260045260246000fd5b600060028204905060018216806115fa57607f821691505b6020821081141561160e5761160d6115b3565b5b50919050565b7f4e487b7100000000000000000000000000000000000000000000000000000000600052603260045260246000fdfea264697066735822122045e0f7776ad765ece730be7dba913e0e5de80f1b28a0f74240c02a4e97c086b664736f6c634300080b0033",
  "immutableReferences": {},
  "source": "// SPDX-License-Identifier: MIT\r\npragma solidity 0.8.11;\r\n\r\n/// @title EocDonor \r\n/// @author Lahcen E. Dev / Jrme Gauthier\r\n/// @notice Contract to manage NPOs (= non profit organisations)\r\ncontract EocDonor {\r\n    \r\n    struct Donor {\r\n        uint donorId;\r\n        address donorErc20Address;\r\n        string name;\r\n        string surName;\r\n        string postalAddress;\r\n        uint[] donationIds;\r\n    }\r\n\r\n    // Donors\r\n    mapping (address => Donor) public donorAddresses; //Mapping of all donors \r\n    mapping (uint => address) private donorMap;\r\n    uint private donorCount; \r\n    \r\n    event DonorAdded(uint _donorId, address _donorErc20Address, string _donorName);\r\n\r\n    /// @dev The administrator/contract can add a new Donor\r\n    /// @param _donorErc20Address ERC20 address of the donor\r\n    /// @param _name Name of the Donor\r\n    /// @param _surName Surname of the Donor\r\n    /// @param _postalAddress postal address of the donor\r\n    function addDonor(\r\n        address _donorErc20Address,\r\n        string memory _name,\r\n        string memory _surName,\r\n        string memory _postalAddress) public {\r\n        // Mandatory fields\r\n        require(_donorErc20Address > address(0), unicode\"L'adresse du donateur doit tre diffrente de zro\");\r\n        require(donorAddresses[_donorErc20Address].donorErc20Address == address(0), unicode\"Donor dj enregistr\");\r\n\r\n        Donor storage newDonor = donorAddresses[_donorErc20Address];\r\n        newDonor.donorId = donorCount;\r\n        newDonor.name = _name;\r\n        newDonor.surName = _surName;\r\n        newDonor.donorErc20Address=_donorErc20Address;\r\n        newDonor.postalAddress = _postalAddress;\r\n        donorMap[donorCount] = _donorErc20Address;\r\n        donorCount++;\r\n        emit DonorAdded(newDonor.donorId, _donorErc20Address, _name);\r\n    }\r\n\r\n    /// @dev  get a Donor via its erc20 address\r\n    /// @param _donorErc20Address erc20 address of the Donor\r\n    /// @return returns the corresponding Donor struct\r\n    function getDonor(address _donorErc20Address) public view returns(Donor memory) {\r\n        return donorAddresses[_donorErc20Address];\r\n    }\r\n\r\n    /// @dev  get a Donor via its id\r\n    /// @param _donorId id of the Donor\r\n    /// @return returns the corresponding Donor struct\r\n    function getDonorByIndex(uint _donorId) internal view returns(Donor memory) {\r\n        return donorAddresses[donorMap[_donorId]];\r\n    }\r\n\r\n    /// @dev  get all Donors\r\n    /// @return returns an array of all Donors\r\n    function getDonors() public view returns(Donor [] memory) {\r\n        uint arraySize = donorCount;\r\n        Donor [] memory result = new Donor[](arraySize);\r\n        for(uint i; i < arraySize; i++) {\r\n            result[i] = donorAddresses[donorMap[i]];\r\n        }\r\n        return result;\r\n    }\r\n\r\n}",
  "sourcePath": "C:\\Appli.crypto\\ethic-on-chain\\contracts\\EocDonor.sol",
  "compiler": {
    "name": "solc",
    "version": "0.8.11+commit.d7f03943.Emscripten.clang"
  },
  "schemaVersion": "3.4.4",
  "updatedAt": "2022-01-11T06:53:14.312Z",
  "networkType": "ethereum",
  "devdoc": {
    "author": "Lahcen E. Dev / Jrme Gauthier",
    "kind": "dev",
    "methods": {
      "addDonor(address,string,string,string)": {
        "details": "The administrator/contract can add a new Donor",
        "params": {
          "_donorErc20Address": "ERC20 address of the donor",
          "_name": "Name of the Donor",
          "_postalAddress": "postal address of the donor",
          "_surName": "Surname of the Donor"
        }
      },
      "getDonor(address)": {
        "details": "get a Donor via its erc20 address",
        "params": {
          "_donorErc20Address": "erc20 address of the Donor"
        },
        "returns": {
          "_0": "returns the corresponding Donor struct"
        }
      },
      "getDonors()": {
        "details": "get all Donors",
        "returns": {
          "_0": "returns an array of all Donors"
        }
      }
    },
    "title": "EocDonor ",
    "version": 1
  },
  "userdoc": {
    "kind": "user",
    "methods": {},
    "notice": "Contract to manage NPOs (= non profit organisations)",
    "version": 1
  }
}