{
  "contractName": "EocDonor",
  "abi": [
    {
      "inputs": [
        {
          "internalType": "address",
          "name": "",
          "type": "address"
        }
      ],
      "name": "donorAddresses",
      "outputs": [
        {
          "internalType": "uint256",
          "name": "donorId",
          "type": "uint256"
        },
        {
          "internalType": "address",
          "name": "donorErc20Address",
          "type": "address"
        },
        {
          "internalType": "string",
          "name": "name",
          "type": "string"
        },
        {
          "internalType": "string",
          "name": "surName",
          "type": "string"
        },
        {
          "internalType": "string",
          "name": "postalAddress",
          "type": "string"
        }
      ],
      "stateMutability": "view",
      "type": "function"
    },
    {
      "inputs": [
        {
          "internalType": "address",
          "name": "_donorErc20Address",
          "type": "address"
        },
        {
          "internalType": "string",
          "name": "_name",
          "type": "string"
        },
        {
          "internalType": "string",
          "name": "_surName",
          "type": "string"
        },
        {
          "internalType": "string",
          "name": "_postalAddress",
          "type": "string"
        }
      ],
      "name": "addDonor",
      "outputs": [
        {
          "internalType": "uint256",
          "name": "_donorId",
          "type": "uint256"
        }
      ],
      "stateMutability": "nonpayable",
      "type": "function"
    },
    {
      "inputs": [
        {
          "internalType": "address",
          "name": "_donorErc20Address",
          "type": "address"
        }
      ],
      "name": "getDonor",
      "outputs": [
        {
          "components": [
            {
              "internalType": "uint256",
              "name": "donorId",
              "type": "uint256"
            },
            {
              "internalType": "address",
              "name": "donorErc20Address",
              "type": "address"
            },
            {
              "internalType": "string",
              "name": "name",
              "type": "string"
            },
            {
              "internalType": "string",
              "name": "surName",
              "type": "string"
            },
            {
              "internalType": "string",
              "name": "postalAddress",
              "type": "string"
            },
            {
              "internalType": "uint256[]",
              "name": "donationIds",
              "type": "uint256[]"
            }
          ],
          "internalType": "struct EocDonor.Donor",
          "name": "",
          "type": "tuple"
        }
      ],
      "stateMutability": "view",
      "type": "function"
    },
    {
      "inputs": [
        {
          "internalType": "uint256",
          "name": "_donorId",
          "type": "uint256"
        }
      ],
      "name": "getDonorByIndex",
      "outputs": [
        {
          "components": [
            {
              "internalType": "uint256",
              "name": "donorId",
              "type": "uint256"
            },
            {
              "internalType": "address",
              "name": "donorErc20Address",
              "type": "address"
            },
            {
              "internalType": "string",
              "name": "name",
              "type": "string"
            },
            {
              "internalType": "string",
              "name": "surName",
              "type": "string"
            },
            {
              "internalType": "string",
              "name": "postalAddress",
              "type": "string"
            },
            {
              "internalType": "uint256[]",
              "name": "donationIds",
              "type": "uint256[]"
            }
          ],
          "internalType": "struct EocDonor.Donor",
          "name": "",
          "type": "tuple"
        }
      ],
      "stateMutability": "view",
      "type": "function"
    },
    {
      "inputs": [],
      "name": "getDonors",
      "outputs": [
        {
          "components": [
            {
              "internalType": "uint256",
              "name": "donorId",
              "type": "uint256"
            },
            {
              "internalType": "address",
              "name": "donorErc20Address",
              "type": "address"
            },
            {
              "internalType": "string",
              "name": "name",
              "type": "string"
            },
            {
              "internalType": "string",
              "name": "surName",
              "type": "string"
            },
            {
              "internalType": "string",
              "name": "postalAddress",
              "type": "string"
            },
            {
              "internalType": "uint256[]",
              "name": "donationIds",
              "type": "uint256[]"
            }
          ],
          "internalType": "struct EocDonor.Donor[]",
          "name": "",
          "type": "tuple[]"
        }
      ],
      "stateMutability": "view",
      "type": "function"
    }
  ],
  "bytecode": "0x608060405234801561001057600080fd5b506119c2806100206000396000f3fe608060405234801561001057600080fd5b50600436106100575760003560e01c806319ccf9ed1461005c578063570752571461008c57806362e13e7d146100bc57806396c59043146100f057806396f300d414610120575b600080fd5b610076600480360381019061007191906111b9565b61013e565b604051610083919061128d565b60405180910390f35b6100a660048036038101906100a191906112d4565b6103d5565b6040516100b391906114f4565b60405180910390f35b6100d660048036038101906100d19190611516565b6106ce565b6040516100e795949392919061159c565b60405180910390f35b61010a60048036038101906101059190611516565b6108bc565b60405161011791906114f4565b60405180910390f35b610128610b82565b6040516101359190611764565b60405180910390f35b60008073ffffffffffffffffffffffffffffffffffffffff168573ffffffffffffffffffffffffffffffffffffffff16116101ae576040517f08c379a00000000000000000000000000000000000000000000000000000000081526004016101a5906117f8565b60405180910390fd5b600073ffffffffffffffffffffffffffffffffffffffff166000808773ffffffffffffffffffffffffffffffffffffffff1673ffffffffffffffffffffffffffffffffffffffff16815260200190815260200160002060010160009054906101000a900473ffffffffffffffffffffffffffffffffffffffff1673ffffffffffffffffffffffffffffffffffffffff161461027e576040517f08c379a000000000000000000000000000000000000000000000000000000000815260040161027590611864565b60405180910390fd5b60008060008773ffffffffffffffffffffffffffffffffffffffff1673ffffffffffffffffffffffffffffffffffffffff16815260200190815260200160002090506002548160000181905550848160020190805190602001906102e3929190610f12565b50838160030190805190602001906102fc929190610f12565b50858160010160006101000a81548173ffffffffffffffffffffffffffffffffffffffff021916908373ffffffffffffffffffffffffffffffffffffffff16021790555082816004019080519060200190610358929190610f12565b508560016000600254815260200190815260200160002060006101000a81548173ffffffffffffffffffffffffffffffffffffffff021916908373ffffffffffffffffffffffffffffffffffffffff160217905550600260008154809291906103c0906118b3565b91905055508060000154915050949350505050565b6103dd610f98565b6000806001600085815260200190815260200160002060009054906101000a900473ffffffffffffffffffffffffffffffffffffffff1673ffffffffffffffffffffffffffffffffffffffff1673ffffffffffffffffffffffffffffffffffffffff1681526020019081526020016000206040518060c0016040529081600082015481526020016001820160009054906101000a900473ffffffffffffffffffffffffffffffffffffffff1673ffffffffffffffffffffffffffffffffffffffff1673ffffffffffffffffffffffffffffffffffffffff1681526020016002820180546104c99061192b565b80601f01602080910402602001604051908101604052809291908181526020018280546104f59061192b565b80156105425780601f1061051757610100808354040283529160200191610542565b820191906000526020600020905b81548152906001019060200180831161052557829003601f168201915b5050505050815260200160038201805461055b9061192b565b80601f01602080910402602001604051908101604052809291908181526020018280546105879061192b565b80156105d45780601f106105a9576101008083540402835291602001916105d4565b820191906000526020600020905b8154815290600101906020018083116105b757829003601f168201915b505050505081526020016004820180546105ed9061192b565b80601f01602080910402602001604051908101604052809291908181526020018280546106199061192b565b80156106665780601f1061063b57610100808354040283529160200191610666565b820191906000526020600020905b81548152906001019060200180831161064957829003601f168201915b50505050508152602001600582018054806020026020016040519081016040528092919081815260200182805480156106be57602002820191906000526020600020905b8154815260200190600101908083116106aa575b5050505050815250509050919050565b60006020528060005260406000206000915090508060000154908060010160009054906101000a900473ffffffffffffffffffffffffffffffffffffffff169080600201805461071d9061192b565b80601f01602080910402602001604051908101604052809291908181526020018280546107499061192b565b80156107965780601f1061076b57610100808354040283529160200191610796565b820191906000526020600020905b81548152906001019060200180831161077957829003601f168201915b5050505050908060030180546107ab9061192b565b80601f01602080910402602001604051908101604052809291908181526020018280546107d79061192b565b80156108245780601f106107f957610100808354040283529160200191610824565b820191906000526020600020905b81548152906001019060200180831161080757829003601f168201915b5050505050908060040180546108399061192b565b80601f01602080910402602001604051908101604052809291908181526020018280546108659061192b565b80156108b25780601f10610887576101008083540402835291602001916108b2565b820191906000526020600020905b81548152906001019060200180831161089557829003601f168201915b5050505050905085565b6108c4610f98565b6000808373ffffffffffffffffffffffffffffffffffffffff1673ffffffffffffffffffffffffffffffffffffffff1681526020019081526020016000206040518060c0016040529081600082015481526020016001820160009054906101000a900473ffffffffffffffffffffffffffffffffffffffff1673ffffffffffffffffffffffffffffffffffffffff1673ffffffffffffffffffffffffffffffffffffffff16815260200160028201805461097d9061192b565b80601f01602080910402602001604051908101604052809291908181526020018280546109a99061192b565b80156109f65780601f106109cb576101008083540402835291602001916109f6565b820191906000526020600020905b8154815290600101906020018083116109d957829003601f168201915b50505050508152602001600382018054610a0f9061192b565b80601f0160208091040260200160405190810160405280929190818152602001828054610a3b9061192b565b8015610a885780601f10610a5d57610100808354040283529160200191610a88565b820191906000526020600020905b815481529060010190602001808311610a6b57829003601f168201915b50505050508152602001600482018054610aa19061192b565b80601f0160208091040260200160405190810160405280929190818152602001828054610acd9061192b565b8015610b1a5780601f10610aef57610100808354040283529160200191610b1a565b820191906000526020600020905b815481529060010190602001808311610afd57829003601f168201915b5050505050815260200160058201805480602002602001604051908101604052809291908181526020018280548015610b7257602002820191906000526020600020905b815481526020019060010190808311610b5e575b5050505050815250509050919050565b60606000600254905060008167ffffffffffffffff811115610ba757610ba661108e565b5b604051908082528060200260200182016040528015610be057816020015b610bcd610f98565b815260200190600190039081610bc55790505b50905060005b82811015610f09576000806001600084815260200190815260200160002060009054906101000a900473ffffffffffffffffffffffffffffffffffffffff1673ffffffffffffffffffffffffffffffffffffffff1673ffffffffffffffffffffffffffffffffffffffff1681526020019081526020016000206040518060c0016040529081600082015481526020016001820160009054906101000a900473ffffffffffffffffffffffffffffffffffffffff1673ffffffffffffffffffffffffffffffffffffffff1673ffffffffffffffffffffffffffffffffffffffff168152602001600282018054610cda9061192b565b80601f0160208091040260200160405190810160405280929190818152602001828054610d069061192b565b8015610d535780601f10610d2857610100808354040283529160200191610d53565b820191906000526020600020905b815481529060010190602001808311610d3657829003601f168201915b50505050508152602001600382018054610d6c9061192b565b80601f0160208091040260200160405190810160405280929190818152602001828054610d989061192b565b8015610de55780601f10610dba57610100808354040283529160200191610de5565b820191906000526020600020905b815481529060010190602001808311610dc857829003601f168201915b50505050508152602001600482018054610dfe9061192b565b80601f0160208091040260200160405190810160405280929190818152602001828054610e2a9061192b565b8015610e775780601f10610e4c57610100808354040283529160200191610e77565b820191906000526020600020905b815481529060010190602001808311610e5a57829003601f168201915b5050505050815260200160058201805480602002602001604051908101604052809291908181526020018280548015610ecf57602002820191906000526020600020905b815481526020019060010190808311610ebb575b505050505081525050828281518110610eeb57610eea61195d565b5b60200260200101819052508080610f01906118b3565b915050610be6565b50809250505090565b828054610f1e9061192b565b90600052602060002090601f016020900481019282610f405760008555610f87565b82601f10610f5957805160ff1916838001178555610f87565b82800160010185558215610f87579182015b82811115610f86578251825591602001919060010190610f6b565b5b509050610f949190610fe4565b5090565b6040518060c0016040528060008152602001600073ffffffffffffffffffffffffffffffffffffffff168152602001606081526020016060815260200160608152602001606081525090565b5b80821115610ffd576000816000905550600101610fe5565b5090565b6000604051905090565b600080fd5b600080fd5b600073ffffffffffffffffffffffffffffffffffffffff82169050919050565b600061104082611015565b9050919050565b61105081611035565b811461105b57600080fd5b50565b60008135905061106d81611047565b92915050565b600080fd5b600080fd5b6000601f19601f8301169050919050565b7f4e487b7100000000000000000000000000000000000000000000000000000000600052604160045260246000fd5b6110c68261107d565b810181811067ffffffffffffffff821117156110e5576110e461108e565b5b80604052505050565b60006110f8611001565b905061110482826110bd565b919050565b600067ffffffffffffffff8211156111245761112361108e565b5b61112d8261107d565b9050602081019050919050565b82818337600083830152505050565b600061115c61115784611109565b6110ee565b90508281526020810184848401111561117857611177611078565b5b61118384828561113a565b509392505050565b600082601f8301126111a05761119f611073565b5b81356111b0848260208601611149565b91505092915050565b600080600080608085870312156111d3576111d261100b565b5b60006111e18782880161105e565b945050602085013567ffffffffffffffff81111561120257611201611010565b5b61120e8782880161118b565b935050604085013567ffffffffffffffff81111561122f5761122e611010565b5b61123b8782880161118b565b925050606085013567ffffffffffffffff81111561125c5761125b611010565b5b6112688782880161118b565b91505092959194509250565b6000819050919050565b61128781611274565b82525050565b60006020820190506112a2600083018461127e565b92915050565b6112b181611274565b81146112bc57600080fd5b50565b6000813590506112ce816112a8565b92915050565b6000602082840312156112ea576112e961100b565b5b60006112f8848285016112bf565b91505092915050565b61130a81611274565b82525050565b61131981611035565b82525050565b600081519050919050565b600082825260208201905092915050565b60005b8381101561135957808201518184015260208101905061133e565b83811115611368576000848401525b50505050565b60006113798261131f565b611383818561132a565b935061139381856020860161133b565b61139c8161107d565b840191505092915050565b600081519050919050565b600082825260208201905092915050565b6000819050602082019050919050565b60006113df8383611301565b60208301905092915050565b6000602082019050919050565b6000611403826113a7565b61140d81856113b2565b9350611418836113c3565b8060005b8381101561144957815161143088826113d3565b975061143b836113eb565b92505060018101905061141c565b5085935050505092915050565b600060c08301600083015161146e6000860182611301565b5060208301516114816020860182611310565b5060408301518482036040860152611499828261136e565b915050606083015184820360608601526114b3828261136e565b915050608083015184820360808601526114cd828261136e565b91505060a083015184820360a08601526114e782826113f8565b9150508091505092915050565b6000602082019050818103600083015261150e8184611456565b905092915050565b60006020828403121561152c5761152b61100b565b5b600061153a8482850161105e565b91505092915050565b61154c81611035565b82525050565b600082825260208201905092915050565b600061156e8261131f565b6115788185611552565b935061158881856020860161133b565b6115918161107d565b840191505092915050565b600060a0820190506115b1600083018861127e565b6115be6020830187611543565b81810360408301526115d08186611563565b905081810360608301526115e48185611563565b905081810360808301526115f88184611563565b90509695505050505050565b600081519050919050565b600082825260208201905092915050565b6000819050602082019050919050565b600060c0830160008301516116486000860182611301565b50602083015161165b6020860182611310565b5060408301518482036040860152611673828261136e565b9150506060830151848203606086015261168d828261136e565b915050608083015184820360808601526116a7828261136e565b91505060a083015184820360a08601526116c182826113f8565b9150508091505092915050565b60006116da8383611630565b905092915050565b6000602082019050919050565b60006116fa82611604565b611704818561160f565b93508360208202850161171685611620565b8060005b85811015611752578484038952815161173385826116ce565b945061173e836116e2565b925060208a0199505060018101905061171a565b50829750879550505050505092915050565b6000602082019050818103600083015261177e81846116ef565b905092915050565b7f4c276164726573736520647520646f6e617465757220646f697420c3aa74726560008201527f2064696666c3a972656e7465206465207ac3a9726f0000000000000000000000602082015250565b60006117e2603583611552565b91506117ed82611786565b604082019050919050565b60006020820190508181036000830152611811816117d5565b9050919050565b7f446f6e6f722064c3a96ac3a020656e72656769737472c3a90000000000000000600082015250565b600061184e601883611552565b915061185982611818565b602082019050919050565b6000602082019050818103600083015261187d81611841565b9050919050565b7f4e487b7100000000000000000000000000000000000000000000000000000000600052601160045260246000fd5b60006118be82611274565b91507fffffffffffffffffffffffffffffffffffffffffffffffffffffffffffffffff8214156118f1576118f0611884565b5b600182019050919050565b7f4e487b7100000000000000000000000000000000000000000000000000000000600052602260045260246000fd5b6000600282049050600182168061194357607f821691505b60208210811415611957576119566118fc565b5b50919050565b7f4e487b7100000000000000000000000000000000000000000000000000000000600052603260045260246000fdfea264697066735822122046c7a78065a4843f7cbf3d5b477cf3ecdf362671de2ff155afce25c16417941064736f6c634300080b0033",
  "immutableReferences": {},
  "source": "// SPDX-License-Identifier: MIT\r\npragma solidity 0.8.11;\r\n\r\n/// @title EocDonor \r\n/// @author Lahcen E. Dev / Jrme Gauthier\r\n/// @notice Contract to manage NPOs (= non profit organisations)\r\ncontract EocDonor {\r\n    \r\n    struct Donor {\r\n        uint donorId;\r\n        address donorErc20Address;\r\n        string name;\r\n        string surName;\r\n        string postalAddress;\r\n        uint[] donationIds;\r\n    }\r\n\r\n    // Donors\r\n    mapping (address => Donor) public donorAddresses; //Mapping of all donors \r\n    mapping (uint => address) private donorMap;\r\n    uint private donorCount; \r\n    \r\n    /// @dev The administrator/contract can add a new Donor\r\n    /// @param _donorErc20Address ERC20 address of the donor\r\n    /// @param _name Name of the Donor\r\n    /// @param _surName Surname of the Donor\r\n    /// @param _postalAddress postal address of the donor\r\n    function addDonor(\r\n        address _donorErc20Address,\r\n        string memory _name,\r\n        string memory _surName,\r\n        string memory _postalAddress) public  returns (uint _donorId) {\r\n        // Mandatory fields\r\n        require(_donorErc20Address > address(0), unicode\"L'adresse du donateur doit tre diffrente de zro\");\r\n        require(donorAddresses[_donorErc20Address].donorErc20Address == address(0), unicode\"Donor dj enregistr\");\r\n\r\n        Donor storage newDonor = donorAddresses[_donorErc20Address];\r\n        newDonor.donorId = donorCount;\r\n        newDonor.name = _name;\r\n        newDonor.surName = _surName;\r\n        newDonor.donorErc20Address=_donorErc20Address;\r\n        newDonor.postalAddress = _postalAddress;\r\n        donorMap[donorCount] = _donorErc20Address;\r\n        donorCount++;\r\n        return newDonor.donorId;\r\n    }\r\n\r\n    /// @dev  get a Donor via its erc20 address\r\n    /// @param _donorErc20Address erc20 address of the Donor\r\n    /// @return returns the corresponding Donor struct\r\n    function getDonor(address _donorErc20Address) public view returns (Donor memory) {\r\n        return donorAddresses[_donorErc20Address];\r\n    }\r\n\r\n    /// @dev  get a Donor via its id\r\n    /// @param _donorId id of the Donor\r\n    /// @return returns the corresponding Donor struct\r\n    function getDonorByIndex(uint _donorId) public view returns (Donor memory) {\r\n        return donorAddresses[donorMap[_donorId]];\r\n    }\r\n\r\n    /// @dev  get all Donors\r\n    /// @return returns an array of all Donors\r\n    function getDonors() public view returns (Donor [] memory) {\r\n        uint arraySize = donorCount;\r\n        Donor [] memory result = new Donor[](arraySize);\r\n        for(uint i; i < arraySize; i++) {\r\n            result[i] = donorAddresses[donorMap[i]];\r\n        }\r\n        return result;\r\n    }\r\n\r\n}",
  "sourcePath": "C:\\Appli.crypto\\ethic-on-chain\\contracts\\EocDonor.sol",
  "compiler": {
    "name": "solc",
    "version": "0.8.11+commit.d7f03943.Emscripten.clang"
  },
  "schemaVersion": "3.4.4",
  "updatedAt": "2022-01-12T06:34:30.229Z",
  "devdoc": {
    "author": "Lahcen E. Dev / Jrme Gauthier",
    "kind": "dev",
    "methods": {
      "addDonor(address,string,string,string)": {
        "details": "The administrator/contract can add a new Donor",
        "params": {
          "_donorErc20Address": "ERC20 address of the donor",
          "_name": "Name of the Donor",
          "_postalAddress": "postal address of the donor",
          "_surName": "Surname of the Donor"
        }
      },
      "getDonor(address)": {
        "details": "get a Donor via its erc20 address",
        "params": {
          "_donorErc20Address": "erc20 address of the Donor"
        },
        "returns": {
          "_0": "returns the corresponding Donor struct"
        }
      },
      "getDonorByIndex(uint256)": {
        "details": "get a Donor via its id",
        "params": {
          "_donorId": "id of the Donor"
        },
        "returns": {
          "_0": "returns the corresponding Donor struct"
        }
      },
      "getDonors()": {
        "details": "get all Donors",
        "returns": {
          "_0": "returns an array of all Donors"
        }
      }
    },
    "title": "EocDonor ",
    "version": 1
  },
  "userdoc": {
    "kind": "user",
    "methods": {},
    "notice": "Contract to manage NPOs (= non profit organisations)",
    "version": 1
  }
}