{
  "contractName": "EocDonor",
  "abi": [
    {
      "anonymous": false,
      "inputs": [
        {
          "indexed": false,
          "internalType": "uint256",
          "name": "_donorId",
          "type": "uint256"
        },
        {
          "indexed": false,
          "internalType": "address",
          "name": "_donorErc20Address",
          "type": "address"
        },
        {
          "indexed": false,
          "internalType": "string",
          "name": "_donorName",
          "type": "string"
        }
      ],
      "name": "DonorAdded",
      "type": "event"
    },
    {
      "anonymous": false,
      "inputs": [
        {
          "indexed": true,
          "internalType": "address",
          "name": "previousOwner",
          "type": "address"
        },
        {
          "indexed": true,
          "internalType": "address",
          "name": "newOwner",
          "type": "address"
        }
      ],
      "name": "OwnershipTransferred",
      "type": "event"
    },
    {
      "inputs": [
        {
          "internalType": "address",
          "name": "",
          "type": "address"
        }
      ],
      "name": "donorAddresses",
      "outputs": [
        {
          "internalType": "uint256",
          "name": "donorId",
          "type": "uint256"
        },
        {
          "internalType": "address",
          "name": "donorErc20Address",
          "type": "address"
        },
        {
          "internalType": "string",
          "name": "name",
          "type": "string"
        },
        {
          "internalType": "string",
          "name": "surName",
          "type": "string"
        },
        {
          "internalType": "string",
          "name": "postalAddress",
          "type": "string"
        }
      ],
      "stateMutability": "view",
      "type": "function"
    },
    {
      "inputs": [],
      "name": "owner",
      "outputs": [
        {
          "internalType": "address",
          "name": "",
          "type": "address"
        }
      ],
      "stateMutability": "view",
      "type": "function"
    },
    {
      "inputs": [],
      "name": "renounceOwnership",
      "outputs": [],
      "stateMutability": "nonpayable",
      "type": "function"
    },
    {
      "inputs": [
        {
          "internalType": "address",
          "name": "newOwner",
          "type": "address"
        }
      ],
      "name": "transferOwnership",
      "outputs": [],
      "stateMutability": "nonpayable",
      "type": "function"
    },
    {
      "inputs": [
        {
          "internalType": "address",
          "name": "_donorErc20Address",
          "type": "address"
        },
        {
          "internalType": "string",
          "name": "_name",
          "type": "string"
        },
        {
          "internalType": "string",
          "name": "_surName",
          "type": "string"
        },
        {
          "internalType": "string",
          "name": "_postalAddress",
          "type": "string"
        }
      ],
      "name": "addDonor",
      "outputs": [],
      "stateMutability": "nonpayable",
      "type": "function"
    },
    {
      "inputs": [
        {
          "internalType": "address",
          "name": "_donorErc20Address",
          "type": "address"
        }
      ],
      "name": "getDonor",
      "outputs": [
        {
          "components": [
            {
              "internalType": "uint256",
              "name": "donorId",
              "type": "uint256"
            },
            {
              "internalType": "address",
              "name": "donorErc20Address",
              "type": "address"
            },
            {
              "internalType": "string",
              "name": "name",
              "type": "string"
            },
            {
              "internalType": "string",
              "name": "surName",
              "type": "string"
            },
            {
              "internalType": "string",
              "name": "postalAddress",
              "type": "string"
            },
            {
              "internalType": "uint256[]",
              "name": "donationIds",
              "type": "uint256[]"
            }
          ],
          "internalType": "struct EocDonor.Donor",
          "name": "",
          "type": "tuple"
        }
      ],
      "stateMutability": "view",
      "type": "function"
    },
    {
      "inputs": [],
      "name": "getDonors",
      "outputs": [
        {
          "components": [
            {
              "internalType": "uint256",
              "name": "donorId",
              "type": "uint256"
            },
            {
              "internalType": "address",
              "name": "donorErc20Address",
              "type": "address"
            },
            {
              "internalType": "string",
              "name": "name",
              "type": "string"
            },
            {
              "internalType": "string",
              "name": "surName",
              "type": "string"
            },
            {
              "internalType": "string",
              "name": "postalAddress",
              "type": "string"
            },
            {
              "internalType": "uint256[]",
              "name": "donationIds",
              "type": "uint256[]"
            }
          ],
          "internalType": "struct EocDonor.Donor[]",
          "name": "",
          "type": "tuple[]"
        }
      ],
      "stateMutability": "view",
      "type": "function"
    }
  ],
  "bytecode": "0x608060405234801561001057600080fd5b5061002d61002261003260201b60201c565b61003a60201b60201c565b6100fe565b600033905090565b60008060009054906101000a900473ffffffffffffffffffffffffffffffffffffffff169050816000806101000a81548173ffffffffffffffffffffffffffffffffffffffff021916908373ffffffffffffffffffffffffffffffffffffffff1602179055508173ffffffffffffffffffffffffffffffffffffffff168173ffffffffffffffffffffffffffffffffffffffff167f8be0079c531659141344cd1fd0a4f28419497f9722a3daafe3b4186f6b6457e060405160405180910390a35050565b611afc8061010d6000396000f3fe608060405234801561001057600080fd5b506004361061007d5760003560e01c80638da5cb5b1161005b5780638da5cb5b146100dc57806396c59043146100fa57806396f300d41461012a578063f2fde38b146101485761007d565b806319ccf9ed1461008257806362e13e7d1461009e578063715018a6146100d2575b600080fd5b61009c60048036038101906100979190611210565b610164565b005b6100b860048036038101906100b391906112cb565b6104ae565b6040516100c99594939291906113a8565b60405180910390f35b6100da61069c565b005b6100e4610724565b6040516100f19190611410565b60405180910390f35b610114600480360381019061010f91906112cb565b61074d565b60405161012191906115e0565b60405180910390f35b610132610a14565b60405161013f9190611762565b60405180910390f35b610162600480360381019061015d91906112cb565b610da5565b005b61016c610e9d565b73ffffffffffffffffffffffffffffffffffffffff1661018a610724565b73ffffffffffffffffffffffffffffffffffffffff16146101e0576040517f08c379a00000000000000000000000000000000000000000000000000000000081526004016101d7906117d0565b60405180910390fd5b600073ffffffffffffffffffffffffffffffffffffffff168473ffffffffffffffffffffffffffffffffffffffff161161024f576040517f08c379a000000000000000000000000000000000000000000000000000000000815260040161024690611862565b60405180910390fd5b600073ffffffffffffffffffffffffffffffffffffffff16600160008673ffffffffffffffffffffffffffffffffffffffff1673ffffffffffffffffffffffffffffffffffffffff16815260200190815260200160002060010160009054906101000a900473ffffffffffffffffffffffffffffffffffffffff1673ffffffffffffffffffffffffffffffffffffffff1614610320576040517f08c379a0000000000000000000000000000000000000000000000000000000008152600401610317906118ce565b60405180910390fd5b6000600160008673ffffffffffffffffffffffffffffffffffffffff1673ffffffffffffffffffffffffffffffffffffffff1681526020019081526020016000209050600354816000018190555083816002019080519060200190610386929190610f69565b508281600301908051906020019061039f929190610f69565b50848160010160006101000a81548173ffffffffffffffffffffffffffffffffffffffff021916908373ffffffffffffffffffffffffffffffffffffffff160217905550818160040190805190602001906103fb929190610f69565b508460026000600354815260200190815260200160002060006101000a81548173ffffffffffffffffffffffffffffffffffffffff021916908373ffffffffffffffffffffffffffffffffffffffff160217905550600360008154809291906104639061191d565b91905055507ff1a73eeb2b4ddced9fb956e389a13618a37205f30bf1694dbf5ba71b1bbfc25c8160000154868660405161049f93929190611966565b60405180910390a15050505050565b60016020528060005260406000206000915090508060000154908060010160009054906101000a900473ffffffffffffffffffffffffffffffffffffffff16908060020180546104fd906119d3565b80601f0160208091040260200160405190810160405280929190818152602001828054610529906119d3565b80156105765780601f1061054b57610100808354040283529160200191610576565b820191906000526020600020905b81548152906001019060200180831161055957829003601f168201915b50505050509080600301805461058b906119d3565b80601f01602080910402602001604051908101604052809291908181526020018280546105b7906119d3565b80156106045780601f106105d957610100808354040283529160200191610604565b820191906000526020600020905b8154815290600101906020018083116105e757829003601f168201915b505050505090806004018054610619906119d3565b80601f0160208091040260200160405190810160405280929190818152602001828054610645906119d3565b80156106925780601f1061066757610100808354040283529160200191610692565b820191906000526020600020905b81548152906001019060200180831161067557829003601f168201915b5050505050905085565b6106a4610e9d565b73ffffffffffffffffffffffffffffffffffffffff166106c2610724565b73ffffffffffffffffffffffffffffffffffffffff1614610718576040517f08c379a000000000000000000000000000000000000000000000000000000000815260040161070f906117d0565b60405180910390fd5b6107226000610ea5565b565b60008060009054906101000a900473ffffffffffffffffffffffffffffffffffffffff16905090565b610755610fef565b600160008373ffffffffffffffffffffffffffffffffffffffff1673ffffffffffffffffffffffffffffffffffffffff1681526020019081526020016000206040518060c0016040529081600082015481526020016001820160009054906101000a900473ffffffffffffffffffffffffffffffffffffffff1673ffffffffffffffffffffffffffffffffffffffff1673ffffffffffffffffffffffffffffffffffffffff16815260200160028201805461080f906119d3565b80601f016020809104026020016040519081016040528092919081815260200182805461083b906119d3565b80156108885780601f1061085d57610100808354040283529160200191610888565b820191906000526020600020905b81548152906001019060200180831161086b57829003601f168201915b505050505081526020016003820180546108a1906119d3565b80601f01602080910402602001604051908101604052809291908181526020018280546108cd906119d3565b801561091a5780601f106108ef5761010080835404028352916020019161091a565b820191906000526020600020905b8154815290600101906020018083116108fd57829003601f168201915b50505050508152602001600482018054610933906119d3565b80601f016020809104026020016040519081016040528092919081815260200182805461095f906119d3565b80156109ac5780601f10610981576101008083540402835291602001916109ac565b820191906000526020600020905b81548152906001019060200180831161098f57829003601f168201915b5050505050815260200160058201805480602002602001604051908101604052809291908181526020018280548015610a0457602002820191906000526020600020905b8154815260200190600101908083116109f0575b5050505050815250509050919050565b60606000600354905060008167ffffffffffffffff811115610a3957610a386110e5565b5b604051908082528060200260200182016040528015610a7257816020015b610a5f610fef565b815260200190600190039081610a575790505b50905060005b82811015610d9c57600160006002600084815260200190815260200160002060009054906101000a900473ffffffffffffffffffffffffffffffffffffffff1673ffffffffffffffffffffffffffffffffffffffff1673ffffffffffffffffffffffffffffffffffffffff1681526020019081526020016000206040518060c0016040529081600082015481526020016001820160009054906101000a900473ffffffffffffffffffffffffffffffffffffffff1673ffffffffffffffffffffffffffffffffffffffff1673ffffffffffffffffffffffffffffffffffffffff168152602001600282018054610b6d906119d3565b80601f0160208091040260200160405190810160405280929190818152602001828054610b99906119d3565b8015610be65780601f10610bbb57610100808354040283529160200191610be6565b820191906000526020600020905b815481529060010190602001808311610bc957829003601f168201915b50505050508152602001600382018054610bff906119d3565b80601f0160208091040260200160405190810160405280929190818152602001828054610c2b906119d3565b8015610c785780601f10610c4d57610100808354040283529160200191610c78565b820191906000526020600020905b815481529060010190602001808311610c5b57829003601f168201915b50505050508152602001600482018054610c91906119d3565b80601f0160208091040260200160405190810160405280929190818152602001828054610cbd906119d3565b8015610d0a5780601f10610cdf57610100808354040283529160200191610d0a565b820191906000526020600020905b815481529060010190602001808311610ced57829003601f168201915b5050505050815260200160058201805480602002602001604051908101604052809291908181526020018280548015610d6257602002820191906000526020600020905b815481526020019060010190808311610d4e575b505050505081525050828281518110610d7e57610d7d611a05565b5b60200260200101819052508080610d949061191d565b915050610a78565b50809250505090565b610dad610e9d565b73ffffffffffffffffffffffffffffffffffffffff16610dcb610724565b73ffffffffffffffffffffffffffffffffffffffff1614610e21576040517f08c379a0000000000000000000000000000000000000000000000000000000008152600401610e18906117d0565b60405180910390fd5b600073ffffffffffffffffffffffffffffffffffffffff168173ffffffffffffffffffffffffffffffffffffffff161415610e91576040517f08c379a0000000000000000000000000000000000000000000000000000000008152600401610e8890611aa6565b60405180910390fd5b610e9a81610ea5565b50565b600033905090565b60008060009054906101000a900473ffffffffffffffffffffffffffffffffffffffff169050816000806101000a81548173ffffffffffffffffffffffffffffffffffffffff021916908373ffffffffffffffffffffffffffffffffffffffff1602179055508173ffffffffffffffffffffffffffffffffffffffff168173ffffffffffffffffffffffffffffffffffffffff167f8be0079c531659141344cd1fd0a4f28419497f9722a3daafe3b4186f6b6457e060405160405180910390a35050565b828054610f75906119d3565b90600052602060002090601f016020900481019282610f975760008555610fde565b82601f10610fb057805160ff1916838001178555610fde565b82800160010185558215610fde579182015b82811115610fdd578251825591602001919060010190610fc2565b5b509050610feb919061103b565b5090565b6040518060c0016040528060008152602001600073ffffffffffffffffffffffffffffffffffffffff168152602001606081526020016060815260200160608152602001606081525090565b5b8082111561105457600081600090555060010161103c565b5090565b6000604051905090565b600080fd5b600080fd5b600073ffffffffffffffffffffffffffffffffffffffff82169050919050565b60006110978261106c565b9050919050565b6110a78161108c565b81146110b257600080fd5b50565b6000813590506110c48161109e565b92915050565b600080fd5b600080fd5b6000601f19601f8301169050919050565b7f4e487b7100000000000000000000000000000000000000000000000000000000600052604160045260246000fd5b61111d826110d4565b810181811067ffffffffffffffff8211171561113c5761113b6110e5565b5b80604052505050565b600061114f611058565b905061115b8282611114565b919050565b600067ffffffffffffffff82111561117b5761117a6110e5565b5b611184826110d4565b9050602081019050919050565b82818337600083830152505050565b60006111b36111ae84611160565b611145565b9050828152602081018484840111156111cf576111ce6110cf565b5b6111da848285611191565b509392505050565b600082601f8301126111f7576111f66110ca565b5b81356112078482602086016111a0565b91505092915050565b6000806000806080858703121561122a57611229611062565b5b6000611238878288016110b5565b945050602085013567ffffffffffffffff81111561125957611258611067565b5b611265878288016111e2565b935050604085013567ffffffffffffffff81111561128657611285611067565b5b611292878288016111e2565b925050606085013567ffffffffffffffff8111156112b3576112b2611067565b5b6112bf878288016111e2565b91505092959194509250565b6000602082840312156112e1576112e0611062565b5b60006112ef848285016110b5565b91505092915050565b6000819050919050565b61130b816112f8565b82525050565b61131a8161108c565b82525050565b600081519050919050565b600082825260208201905092915050565b60005b8381101561135a57808201518184015260208101905061133f565b83811115611369576000848401525b50505050565b600061137a82611320565b611384818561132b565b935061139481856020860161133c565b61139d816110d4565b840191505092915050565b600060a0820190506113bd6000830188611302565b6113ca6020830187611311565b81810360408301526113dc818661136f565b905081810360608301526113f0818561136f565b90508181036080830152611404818461136f565b90509695505050505050565b60006020820190506114256000830184611311565b92915050565b611434816112f8565b82525050565b6114438161108c565b82525050565b600082825260208201905092915050565b600061146582611320565b61146f8185611449565b935061147f81856020860161133c565b611488816110d4565b840191505092915050565b600081519050919050565b600082825260208201905092915050565b6000819050602082019050919050565b60006114cb838361142b565b60208301905092915050565b6000602082019050919050565b60006114ef82611493565b6114f9818561149e565b9350611504836114af565b8060005b8381101561153557815161151c88826114bf565b9750611527836114d7565b925050600181019050611508565b5085935050505092915050565b600060c08301600083015161155a600086018261142b565b50602083015161156d602086018261143a565b5060408301518482036040860152611585828261145a565b9150506060830151848203606086015261159f828261145a565b915050608083015184820360808601526115b9828261145a565b91505060a083015184820360a08601526115d382826114e4565b9150508091505092915050565b600060208201905081810360008301526115fa8184611542565b905092915050565b600081519050919050565b600082825260208201905092915050565b6000819050602082019050919050565b600060c083016000830151611646600086018261142b565b506020830151611659602086018261143a565b5060408301518482036040860152611671828261145a565b9150506060830151848203606086015261168b828261145a565b915050608083015184820360808601526116a5828261145a565b91505060a083015184820360a08601526116bf82826114e4565b9150508091505092915050565b60006116d8838361162e565b905092915050565b6000602082019050919050565b60006116f882611602565b611702818561160d565b9350836020820285016117148561161e565b8060005b85811015611750578484038952815161173185826116cc565b945061173c836116e0565b925060208a01995050600181019050611718565b50829750879550505050505092915050565b6000602082019050818103600083015261177c81846116ed565b905092915050565b7f4f776e61626c653a2063616c6c6572206973206e6f7420746865206f776e6572600082015250565b60006117ba60208361132b565b91506117c582611784565b602082019050919050565b600060208201905081810360008301526117e9816117ad565b9050919050565b7f4c276164726573736520647520646f6e617465757220646f697420c3aa74726560008201527f2064696666c3a972656e7465206465207ac3a9726f0000000000000000000000602082015250565b600061184c60358361132b565b9150611857826117f0565b604082019050919050565b6000602082019050818103600083015261187b8161183f565b9050919050565b7f446f6e6f722064c3a96ac3a020656e72656769737472c3a90000000000000000600082015250565b60006118b860188361132b565b91506118c382611882565b602082019050919050565b600060208201905081810360008301526118e7816118ab565b9050919050565b7f4e487b7100000000000000000000000000000000000000000000000000000000600052601160045260246000fd5b6000611928826112f8565b91507fffffffffffffffffffffffffffffffffffffffffffffffffffffffffffffffff82141561195b5761195a6118ee565b5b600182019050919050565b600060608201905061197b6000830186611302565b6119886020830185611311565b818103604083015261199a818461136f565b9050949350505050565b7f4e487b7100000000000000000000000000000000000000000000000000000000600052602260045260246000fd5b600060028204905060018216806119eb57607f821691505b602082108114156119ff576119fe6119a4565b5b50919050565b7f4e487b7100000000000000000000000000000000000000000000000000000000600052603260045260246000fd5b7f4f776e61626c653a206e6577206f776e657220697320746865207a65726f206160008201527f6464726573730000000000000000000000000000000000000000000000000000602082015250565b6000611a9060268361132b565b9150611a9b82611a34565b604082019050919050565b60006020820190508181036000830152611abf81611a83565b905091905056fea264697066735822122028d7e6b12bbcdc6f0ae6fb9274a5428c9d187784e00bf5d096426d12e02afae364736f6c634300080b0033",
  "immutableReferences": {},
  "source": "// SPDX-License-Identifier: MIT\r\npragma solidity 0.8.11;\r\n\r\nimport \"@openzeppelin/contracts/access/Ownable.sol\";\r\n\r\n/// @title EocDonor \r\n/// @author Lahcen E. Dev / Jrme Gauthier\r\n/// @notice Contract to manage NPOs (= non profit organisations)\r\ncontract EocDonor is Ownable {\r\n    \r\n    struct Donor {\r\n        uint donorId;\r\n        address donorErc20Address;\r\n        string name;\r\n        string surName;\r\n        string postalAddress;\r\n        uint[] donationIds;\r\n    }\r\n\r\n    // Donors\r\n    mapping (address => Donor) public donorAddresses; //Mapping of all donors \r\n    mapping (uint => address) private donorMap;\r\n    uint private donorCount; \r\n    \r\n    event DonorAdded(uint _donorId, address _donorErc20Address, string _donorName);\r\n\r\n    /// @dev The administrator/contract can add a new Donor\r\n    /// @param _donorErc20Address ERC20 address of the donor\r\n    /// @param _name Name of the Donor\r\n    /// @param _surName Surname of the Donor\r\n    /// @param _postalAddress postal address of the donor\r\n    function addDonor(\r\n        address _donorErc20Address,\r\n        string memory _name,\r\n        string memory _surName,\r\n        string memory _postalAddress) public onlyOwner {\r\n        // Mandatory fields\r\n        require(_donorErc20Address > address(0), unicode\"L'adresse du donateur doit tre diffrente de zro\");\r\n        require(donorAddresses[_donorErc20Address].donorErc20Address == address(0), unicode\"Donor dj enregistr\");\r\n\r\n        Donor storage newDonor = donorAddresses[_donorErc20Address];\r\n        newDonor.donorId = donorCount;\r\n        newDonor.name = _name;\r\n        newDonor.surName = _surName;\r\n        newDonor.donorErc20Address=_donorErc20Address;\r\n        newDonor.postalAddress = _postalAddress;\r\n        donorMap[donorCount] = _donorErc20Address;\r\n        donorCount++;\r\n        emit DonorAdded(newDonor.donorId, _donorErc20Address, _name);\r\n    }\r\n\r\n    /// @dev  get a Donor via its erc20 address\r\n    /// @param _donorErc20Address erc20 address of the Donor\r\n    /// @return returns the corresponding Donor struct\r\n    function getDonor(address _donorErc20Address) public view returns(Donor memory) {\r\n        return donorAddresses[_donorErc20Address];\r\n    }\r\n\r\n    /// @dev  get a Donor via its id\r\n    /// @param _donorId id of the Donor\r\n    /// @return returns the corresponding Donor struct\r\n    function getDonorByIndex(uint _donorId) internal view returns(Donor memory) {\r\n        return donorAddresses[donorMap[_donorId]];\r\n    }\r\n\r\n    /// @dev  get all Donors\r\n    /// @return returns an array of all Donors\r\n    function getDonors() public view returns(Donor [] memory) {\r\n        uint arraySize = donorCount;\r\n        Donor [] memory result = new Donor[](arraySize);\r\n        for(uint i; i < arraySize; i++) {\r\n            result[i] = donorAddresses[donorMap[i]];\r\n        }\r\n        return result;\r\n    }\r\n\r\n}",
  "sourcePath": "C:\\Appli.crypto\\ethic-on-chain\\contracts\\EocDonor.sol",
  "compiler": {
    "name": "solc",
    "version": "0.8.11+commit.d7f03943.Emscripten.clang"
  },
  "schemaVersion": "3.4.4",
  "updatedAt": "2022-01-10T18:23:41.350Z",
  "devdoc": {
    "author": "Lahcen E. Dev / Jrme Gauthier",
    "kind": "dev",
    "methods": {
      "addDonor(address,string,string,string)": {
        "details": "The administrator/contract can add a new Donor",
        "params": {
          "_donorErc20Address": "ERC20 address of the donor",
          "_name": "Name of the Donor",
          "_postalAddress": "postal address of the donor",
          "_surName": "Surname of the Donor"
        }
      },
      "getDonor(address)": {
        "details": "get a Donor via its erc20 address",
        "params": {
          "_donorErc20Address": "erc20 address of the Donor"
        },
        "returns": {
          "_0": "returns the corresponding Donor struct"
        }
      },
      "getDonors()": {
        "details": "get all Donors",
        "returns": {
          "_0": "returns an array of all Donors"
        }
      },
      "owner()": {
        "details": "Returns the address of the current owner."
      },
      "renounceOwnership()": {
        "details": "Leaves the contract without owner. It will not be possible to call `onlyOwner` functions anymore. Can only be called by the current owner. NOTE: Renouncing ownership will leave the contract without an owner, thereby removing any functionality that is only available to the owner."
      },
      "transferOwnership(address)": {
        "details": "Transfers ownership of the contract to a new account (`newOwner`). Can only be called by the current owner."
      }
    },
    "title": "EocDonor ",
    "version": 1
  },
  "userdoc": {
    "kind": "user",
    "methods": {},
    "notice": "Contract to manage NPOs (= non profit organisations)",
    "version": 1
  }
}