{
  "contractName": "EocNpo",
  "abi": [
    {
      "inputs": [
        {
          "internalType": "address",
          "name": "",
          "type": "address"
        }
      ],
      "name": "npoAddresses",
      "outputs": [
        {
          "internalType": "uint256",
          "name": "npoId",
          "type": "uint256"
        },
        {
          "internalType": "address",
          "name": "npoErc20Address",
          "type": "address"
        },
        {
          "internalType": "string",
          "name": "denomination",
          "type": "string"
        },
        {
          "internalType": "string",
          "name": "postalAddress",
          "type": "string"
        },
        {
          "internalType": "string",
          "name": "object",
          "type": "string"
        },
        {
          "internalType": "string",
          "name": "npoType",
          "type": "string"
        }
      ],
      "stateMutability": "view",
      "type": "function"
    },
    {
      "inputs": [
        {
          "internalType": "address",
          "name": "_npoErc20Address",
          "type": "address"
        },
        {
          "internalType": "string",
          "name": "_denomination",
          "type": "string"
        },
        {
          "internalType": "string",
          "name": "_postalAddress",
          "type": "string"
        },
        {
          "internalType": "string",
          "name": "_object",
          "type": "string"
        },
        {
          "internalType": "string",
          "name": "_npoType",
          "type": "string"
        }
      ],
      "name": "addNpo",
      "outputs": [
        {
          "internalType": "uint256",
          "name": "_npoId",
          "type": "uint256"
        }
      ],
      "stateMutability": "nonpayable",
      "type": "function"
    },
    {
      "inputs": [
        {
          "internalType": "address",
          "name": "_npoErc20Address",
          "type": "address"
        },
        {
          "internalType": "uint256",
          "name": "_projectId",
          "type": "uint256"
        }
      ],
      "name": "addProjectIdsItem",
      "outputs": [],
      "stateMutability": "nonpayable",
      "type": "function"
    },
    {
      "inputs": [
        {
          "internalType": "address",
          "name": "_npoErc20Address",
          "type": "address"
        }
      ],
      "name": "getNpo",
      "outputs": [
        {
          "components": [
            {
              "internalType": "uint256",
              "name": "npoId",
              "type": "uint256"
            },
            {
              "internalType": "address",
              "name": "npoErc20Address",
              "type": "address"
            },
            {
              "internalType": "string",
              "name": "denomination",
              "type": "string"
            },
            {
              "internalType": "string",
              "name": "postalAddress",
              "type": "string"
            },
            {
              "internalType": "string",
              "name": "object",
              "type": "string"
            },
            {
              "internalType": "string",
              "name": "npoType",
              "type": "string"
            },
            {
              "internalType": "uint256[]",
              "name": "projectIds",
              "type": "uint256[]"
            },
            {
              "internalType": "uint256[]",
              "name": "withdrawalIds",
              "type": "uint256[]"
            }
          ],
          "internalType": "struct EocNpo.NPO",
          "name": "",
          "type": "tuple"
        }
      ],
      "stateMutability": "view",
      "type": "function"
    },
    {
      "inputs": [
        {
          "internalType": "uint256",
          "name": "_npoId",
          "type": "uint256"
        }
      ],
      "name": "getNpoByIndex",
      "outputs": [
        {
          "components": [
            {
              "internalType": "uint256",
              "name": "npoId",
              "type": "uint256"
            },
            {
              "internalType": "address",
              "name": "npoErc20Address",
              "type": "address"
            },
            {
              "internalType": "string",
              "name": "denomination",
              "type": "string"
            },
            {
              "internalType": "string",
              "name": "postalAddress",
              "type": "string"
            },
            {
              "internalType": "string",
              "name": "object",
              "type": "string"
            },
            {
              "internalType": "string",
              "name": "npoType",
              "type": "string"
            },
            {
              "internalType": "uint256[]",
              "name": "projectIds",
              "type": "uint256[]"
            },
            {
              "internalType": "uint256[]",
              "name": "withdrawalIds",
              "type": "uint256[]"
            }
          ],
          "internalType": "struct EocNpo.NPO",
          "name": "",
          "type": "tuple"
        }
      ],
      "stateMutability": "view",
      "type": "function"
    },
    {
      "inputs": [],
      "name": "libGetNpos",
      "outputs": [
        {
          "components": [
            {
              "internalType": "uint256",
              "name": "npoId",
              "type": "uint256"
            },
            {
              "internalType": "address",
              "name": "npoErc20Address",
              "type": "address"
            },
            {
              "internalType": "string",
              "name": "denomination",
              "type": "string"
            },
            {
              "internalType": "string",
              "name": "postalAddress",
              "type": "string"
            },
            {
              "internalType": "string",
              "name": "object",
              "type": "string"
            },
            {
              "internalType": "string",
              "name": "npoType",
              "type": "string"
            },
            {
              "internalType": "uint256[]",
              "name": "projectIds",
              "type": "uint256[]"
            },
            {
              "internalType": "uint256[]",
              "name": "withdrawalIds",
              "type": "uint256[]"
            }
          ],
          "internalType": "struct EocNpo.NPO[]",
          "name": "",
          "type": "tuple[]"
        }
      ],
      "stateMutability": "view",
      "type": "function"
    }
  ],
  "bytecode": "0x608060405234801561001057600080fd5b50611d71806100206000396000f3fe608060405234801561001057600080fd5b50600436106100625760003560e01c80633f9754c9146100675780634913cdb014610097578063665d08a2146100cc5780639e5ad502146100ea578063f10a6ac314610106578063ff6d56ef14610136575b600080fd5b610081600480360381019061007c91906112c9565b610166565b60405161008e91906113cd565b60405180910390f35b6100b160048036038101906100ac91906113e8565b6104e7565b6040516100c3969594939291906114ac565b60405180910390f35b6100d4610763565b6040516100e191906117d5565b60405180910390f35b61010460048036038101906100ff9190611823565b610812565b005b610120600480360381019061011b9190611863565b61087e565b60405161012d9190611963565b60405180910390f35b610150600480360381019061014b91906113e8565b610c62565b60405161015d9190611963565b60405180910390f35b60008073ffffffffffffffffffffffffffffffffffffffff168673ffffffffffffffffffffffffffffffffffffffff16116101d6576040517f08c379a00000000000000000000000000000000000000000000000000000000081526004016101cd906119f7565b60405180910390fd5b600085511161021a576040517f08c379a000000000000000000000000000000000000000000000000000000000815260040161021190611a63565b60405180910390fd5b600084511161025e576040517f08c379a000000000000000000000000000000000000000000000000000000000815260040161025590611acf565b60405180910390fd5b60008351116102a2576040517f08c379a000000000000000000000000000000000000000000000000000000000815260040161029990611b3b565b60405180910390fd5b60008251116102e6576040517f08c379a00000000000000000000000000000000000000000000000000000000081526004016102dd90611ba7565b60405180910390fd5b60008060008873ffffffffffffffffffffffffffffffffffffffff1673ffffffffffffffffffffffffffffffffffffffff168152602001908152602001600020600201805461033490611bf6565b905014610376576040517f08c379a000000000000000000000000000000000000000000000000000000000815260040161036d90611c74565b60405180910390fd5b60008060008873ffffffffffffffffffffffffffffffffffffffff1673ffffffffffffffffffffffffffffffffffffffff16815260200190815260200160002090506002548160000181905550868160010160006101000a81548173ffffffffffffffffffffffffffffffffffffffff021916908373ffffffffffffffffffffffffffffffffffffffff1602179055508581600201908051906020019061041e929190611013565b5084816003019080519060200190610437929190611013565b5083816004019080519060200190610450929190611013565b5082816005019080519060200190610469929190611013565b508660016000600254815260200190815260200160002060006101000a81548173ffffffffffffffffffffffffffffffffffffffff021916908373ffffffffffffffffffffffffffffffffffffffff160217905550600260008154809291906104d190611cc3565b9190505550806000015491505095945050505050565b60006020528060005260406000206000915090508060000154908060010160009054906101000a900473ffffffffffffffffffffffffffffffffffffffff169080600201805461053690611bf6565b80601f016020809104026020016040519081016040528092919081815260200182805461056290611bf6565b80156105af5780601f10610584576101008083540402835291602001916105af565b820191906000526020600020905b81548152906001019060200180831161059257829003601f168201915b5050505050908060030180546105c490611bf6565b80601f01602080910402602001604051908101604052809291908181526020018280546105f090611bf6565b801561063d5780601f106106125761010080835404028352916020019161063d565b820191906000526020600020905b81548152906001019060200180831161062057829003601f168201915b50505050509080600401805461065290611bf6565b80601f016020809104026020016040519081016040528092919081815260200182805461067e90611bf6565b80156106cb5780601f106106a0576101008083540402835291602001916106cb565b820191906000526020600020905b8154815290600101906020018083116106ae57829003601f168201915b5050505050908060050180546106e090611bf6565b80601f016020809104026020016040519081016040528092919081815260200182805461070c90611bf6565b80156107595780601f1061072e57610100808354040283529160200191610759565b820191906000526020600020905b81548152906001019060200180831161073c57829003601f168201915b5050505050905086565b60606000600254905060008167ffffffffffffffff8111156107885761078761119e565b5b6040519080825280602002602001820160405280156107c157816020015b6107ae611099565b8152602001906001900390816107a65790505b50905060005b82811015610809576107d88161087e565b8282815181106107eb576107ea611d0c565b5b6020026020010181905250808061080190611cc3565b9150506107c7565b50809250505090565b6000808373ffffffffffffffffffffffffffffffffffffffff1673ffffffffffffffffffffffffffffffffffffffff1681526020019081526020016000206006018190806001815401808255809150506001900390600052602060002001600090919091909150555050565b610886611099565b6000806001600085815260200190815260200160002060009054906101000a900473ffffffffffffffffffffffffffffffffffffffff1673ffffffffffffffffffffffffffffffffffffffff1673ffffffffffffffffffffffffffffffffffffffff16815260200190815260200160002060405180610100016040529081600082015481526020016001820160009054906101000a900473ffffffffffffffffffffffffffffffffffffffff1673ffffffffffffffffffffffffffffffffffffffff1673ffffffffffffffffffffffffffffffffffffffff16815260200160028201805461097390611bf6565b80601f016020809104026020016040519081016040528092919081815260200182805461099f90611bf6565b80156109ec5780601f106109c1576101008083540402835291602001916109ec565b820191906000526020600020905b8154815290600101906020018083116109cf57829003601f168201915b50505050508152602001600382018054610a0590611bf6565b80601f0160208091040260200160405190810160405280929190818152602001828054610a3190611bf6565b8015610a7e5780601f10610a5357610100808354040283529160200191610a7e565b820191906000526020600020905b815481529060010190602001808311610a6157829003601f168201915b50505050508152602001600482018054610a9790611bf6565b80601f0160208091040260200160405190810160405280929190818152602001828054610ac390611bf6565b8015610b105780601f10610ae557610100808354040283529160200191610b10565b820191906000526020600020905b815481529060010190602001808311610af357829003601f168201915b50505050508152602001600582018054610b2990611bf6565b80601f0160208091040260200160405190810160405280929190818152602001828054610b5590611bf6565b8015610ba25780601f10610b7757610100808354040283529160200191610ba2565b820191906000526020600020905b815481529060010190602001808311610b8557829003601f168201915b5050505050815260200160068201805480602002602001604051908101604052809291908181526020018280548015610bfa57602002820191906000526020600020905b815481526020019060010190808311610be6575b5050505050815260200160078201805480602002602001604051908101604052809291908181526020018280548015610c5257602002820191906000526020600020905b815481526020019060010190808311610c3e575b5050505050815250509050919050565b610c6a611099565b6000808373ffffffffffffffffffffffffffffffffffffffff1673ffffffffffffffffffffffffffffffffffffffff16815260200190815260200160002060405180610100016040529081600082015481526020016001820160009054906101000a900473ffffffffffffffffffffffffffffffffffffffff1673ffffffffffffffffffffffffffffffffffffffff1673ffffffffffffffffffffffffffffffffffffffff168152602001600282018054610d2490611bf6565b80601f0160208091040260200160405190810160405280929190818152602001828054610d5090611bf6565b8015610d9d5780601f10610d7257610100808354040283529160200191610d9d565b820191906000526020600020905b815481529060010190602001808311610d8057829003601f168201915b50505050508152602001600382018054610db690611bf6565b80601f0160208091040260200160405190810160405280929190818152602001828054610de290611bf6565b8015610e2f5780601f10610e0457610100808354040283529160200191610e2f565b820191906000526020600020905b815481529060010190602001808311610e1257829003601f168201915b50505050508152602001600482018054610e4890611bf6565b80601f0160208091040260200160405190810160405280929190818152602001828054610e7490611bf6565b8015610ec15780601f10610e9657610100808354040283529160200191610ec1565b820191906000526020600020905b815481529060010190602001808311610ea457829003601f168201915b50505050508152602001600582018054610eda90611bf6565b80601f0160208091040260200160405190810160405280929190818152602001828054610f0690611bf6565b8015610f535780601f10610f2857610100808354040283529160200191610f53565b820191906000526020600020905b815481529060010190602001808311610f3657829003601f168201915b5050505050815260200160068201805480602002602001604051908101604052809291908181526020018280548015610fab57602002820191906000526020600020905b815481526020019060010190808311610f97575b505050505081526020016007820180548060200260200160405190810160405280929190818152602001828054801561100357602002820191906000526020600020905b815481526020019060010190808311610fef575b5050505050815250509050919050565b82805461101f90611bf6565b90600052602060002090601f0160209004810192826110415760008555611088565b82601f1061105a57805160ff1916838001178555611088565b82800160010185558215611088579182015b8281111561108757825182559160200191906001019061106c565b5b50905061109591906110f4565b5090565b60405180610100016040528060008152602001600073ffffffffffffffffffffffffffffffffffffffff1681526020016060815260200160608152602001606081526020016060815260200160608152602001606081525090565b5b8082111561110d5760008160009055506001016110f5565b5090565b6000604051905090565b600080fd5b600080fd5b600073ffffffffffffffffffffffffffffffffffffffff82169050919050565b600061115082611125565b9050919050565b61116081611145565b811461116b57600080fd5b50565b60008135905061117d81611157565b92915050565b600080fd5b600080fd5b6000601f19601f8301169050919050565b7f4e487b7100000000000000000000000000000000000000000000000000000000600052604160045260246000fd5b6111d68261118d565b810181811067ffffffffffffffff821117156111f5576111f461119e565b5b80604052505050565b6000611208611111565b905061121482826111cd565b919050565b600067ffffffffffffffff8211156112345761123361119e565b5b61123d8261118d565b9050602081019050919050565b82818337600083830152505050565b600061126c61126784611219565b6111fe565b90508281526020810184848401111561128857611287611188565b5b61129384828561124a565b509392505050565b600082601f8301126112b0576112af611183565b5b81356112c0848260208601611259565b91505092915050565b600080600080600060a086880312156112e5576112e461111b565b5b60006112f38882890161116e565b955050602086013567ffffffffffffffff81111561131457611313611120565b5b6113208882890161129b565b945050604086013567ffffffffffffffff81111561134157611340611120565b5b61134d8882890161129b565b935050606086013567ffffffffffffffff81111561136e5761136d611120565b5b61137a8882890161129b565b925050608086013567ffffffffffffffff81111561139b5761139a611120565b5b6113a78882890161129b565b9150509295509295909350565b6000819050919050565b6113c7816113b4565b82525050565b60006020820190506113e260008301846113be565b92915050565b6000602082840312156113fe576113fd61111b565b5b600061140c8482850161116e565b91505092915050565b61141e81611145565b82525050565b600081519050919050565b600082825260208201905092915050565b60005b8381101561145e578082015181840152602081019050611443565b8381111561146d576000848401525b50505050565b600061147e82611424565b611488818561142f565b9350611498818560208601611440565b6114a18161118d565b840191505092915050565b600060c0820190506114c160008301896113be565b6114ce6020830188611415565b81810360408301526114e08187611473565b905081810360608301526114f48186611473565b905081810360808301526115088185611473565b905081810360a083015261151c8184611473565b9050979650505050505050565b600081519050919050565b600082825260208201905092915050565b6000819050602082019050919050565b61155e816113b4565b82525050565b61156d81611145565b82525050565b600082825260208201905092915050565b600061158f82611424565b6115998185611573565b93506115a9818560208601611440565b6115b28161118d565b840191505092915050565b600081519050919050565b600082825260208201905092915050565b6000819050602082019050919050565b60006115f58383611555565b60208301905092915050565b6000602082019050919050565b6000611619826115bd565b61162381856115c8565b935061162e836115d9565b8060005b8381101561165f57815161164688826115e9565b975061165183611601565b925050600181019050611632565b5085935050505092915050565b6000610100830160008301516116856000860182611555565b5060208301516116986020860182611564565b50604083015184820360408601526116b08282611584565b915050606083015184820360608601526116ca8282611584565b915050608083015184820360808601526116e48282611584565b91505060a083015184820360a08601526116fe8282611584565b91505060c083015184820360c0860152611718828261160e565b91505060e083015184820360e0860152611732828261160e565b9150508091505092915050565b600061174b838361166c565b905092915050565b6000602082019050919050565b600061176b82611529565b6117758185611534565b93508360208202850161178785611545565b8060005b858110156117c357848403895281516117a4858261173f565b94506117af83611753565b925060208a0199505060018101905061178b565b50829750879550505050505092915050565b600060208201905081810360008301526117ef8184611760565b905092915050565b611800816113b4565b811461180b57600080fd5b50565b60008135905061181d816117f7565b92915050565b6000806040838503121561183a5761183961111b565b5b60006118488582860161116e565b92505060206118598582860161180e565b9150509250929050565b6000602082840312156118795761187861111b565b5b60006118878482850161180e565b91505092915050565b6000610100830160008301516118a96000860182611555565b5060208301516118bc6020860182611564565b50604083015184820360408601526118d48282611584565b915050606083015184820360608601526118ee8282611584565b915050608083015184820360808601526119088282611584565b91505060a083015184820360a08601526119228282611584565b91505060c083015184820360c086015261193c828261160e565b91505060e083015184820360e0860152611956828261160e565b9150508091505092915050565b6000602082019050818103600083015261197d8184611890565b905092915050565b7f4c2761647265737365206475204e504f20646f697420c3aa747265206469666660008201527fc3a972656e7465206465207ac3a9726f00000000000000000000000000000000602082015250565b60006119e160308361142f565b91506119ec82611985565b604082019050919050565b60006020820190508181036000830152611a10816119d4565b9050919050565b7f4c612064c3a96e6f6d696e6174696f6e20657374206f626c696761746f697265600082015250565b6000611a4d60208361142f565b9150611a5882611a17565b602082019050919050565b60006020820190508181036000830152611a7c81611a40565b9050919050565b7f4c276164726573736520657374206f626c696761746f69726500000000000000600082015250565b6000611ab960198361142f565b9150611ac482611a83565b602082019050919050565b60006020820190508181036000830152611ae881611aac565b9050919050565b7f4c276f626a657420657374206f626c696761746f697265000000000000000000600082015250565b6000611b2560178361142f565b9150611b3082611aef565b602082019050919050565b60006020820190508181036000830152611b5481611b18565b9050919050565b7f4c65207479706520657374206f626c696761746f697265000000000000000000600082015250565b6000611b9160178361142f565b9150611b9c82611b5b565b602082019050919050565b60006020820190508181036000830152611bc081611b84565b9050919050565b7f4e487b7100000000000000000000000000000000000000000000000000000000600052602260045260246000fd5b60006002820490506001821680611c0e57607f821691505b60208210811415611c2257611c21611bc7565b5b50919050565b7f4e504f2064c3a96ac3a020656e72656769737472c3a900000000000000000000600082015250565b6000611c5e60168361142f565b9150611c6982611c28565b602082019050919050565b60006020820190508181036000830152611c8d81611c51565b9050919050565b7f4e487b7100000000000000000000000000000000000000000000000000000000600052601160045260246000fd5b6000611cce826113b4565b91507fffffffffffffffffffffffffffffffffffffffffffffffffffffffffffffffff821415611d0157611d00611c94565b5b600182019050919050565b7f4e487b7100000000000000000000000000000000000000000000000000000000600052603260045260246000fdfea26469706673582212200eae9286632e40948e7b534971a837127854d5fc58ff3f8c3782d26fc25e59e264736f6c634300080b0033",
  "immutableReferences": {},
  "source": "// SPDX-License-Identifier: MIT\r\npragma solidity 0.8.11;\r\n\r\n/// @title EocNpo \r\n/// @author Lahcen E. Dev / Jrme Gauthier\r\n/// @notice Contract to manage NPOs (= non profit organisations)\r\ncontract EocNpo {\r\n\r\n    struct NPO {\r\n        uint npoId;\r\n        address npoErc20Address;\r\n        string denomination;\r\n        string postalAddress;\r\n        string object;\r\n        string npoType;\r\n        uint[] projectIds;\r\n        uint[] withdrawalIds;\r\n    }\r\n\r\n    // NPOs\r\n    mapping (address => NPO) public npoAddresses; //Mapping of all NPO \r\n    mapping (uint => address) private npoMap;\r\n    uint private npoCount; \r\n\r\n    /// @dev The administrator can add a new NPO\r\n    /// @param _npoErc20Address the ERC20 address of the npo\r\n    /// @param _denomination Demonination of the NPO\r\n    /// @param _postalAddress Postal address of the NPO\r\n    /// @param _object object of NPO\r\n    /// @param _npoType Type of npo organization\r\n    function addNpo(\r\n        address _npoErc20Address,\r\n        string memory _denomination,\r\n        string memory _postalAddress,\r\n        string memory _object,\r\n        string memory _npoType) public returns (uint _npoId) {\r\n        // Mandatory fields\r\n        require(_npoErc20Address > address(0), unicode\"L'adresse du NPO doit tre diffrente de zro\");\r\n        require(bytes(_denomination).length > 0, unicode\"La dnomination est obligatoire\");\r\n        require(bytes(_postalAddress).length > 0, \"L'adresse est obligatoire\");\r\n        require(bytes(_object).length > 0, \"L'objet est obligatoire\");\r\n        require(bytes(_npoType).length > 0, \"Le type est obligatoire\");\r\n        require(bytes(npoAddresses[_npoErc20Address].denomination).length == 0, unicode\"NPO dj enregistr\");\r\n        \r\n        NPO storage newNpo = npoAddresses[_npoErc20Address];\r\n        newNpo.npoId = npoCount;\r\n        newNpo.npoErc20Address = _npoErc20Address;\r\n        newNpo.denomination = _denomination;\r\n        newNpo.postalAddress = _postalAddress;\r\n        newNpo.object = _object;\r\n        newNpo.npoType = _npoType;\r\n        npoMap[npoCount] = _npoErc20Address;\r\n        npoCount++;\r\n        return newNpo.npoId;\r\n    }\r\n\r\n    /// @dev Adds an item in the projectIds array of the NPO\r\n    /// @param _npoErc20Address erc20 address of the NPO Struct\r\n    /// @param _projectId project id of the project to be added\r\n    function addProjectIdsItem(address _npoErc20Address,uint _projectId) public {\r\n        npoAddresses[_npoErc20Address].projectIds.push(_projectId);\r\n    }\r\n    /// @dev Get an NPO via its erc20 address\r\n    /// @param _npoErc20Address erc20 address of the NPO Struct\r\n    /// @return returns the corresponding NPO struct\r\n    function getNpo(address _npoErc20Address) public view returns(NPO memory) {\r\n        return npoAddresses[_npoErc20Address];\r\n    }\r\n    \r\n    /// @dev Get an NPO via its id\r\n    /// @param _npoId id of the NPO\r\n    /// @return returns the corresponding NPO struct\r\n    function getNpoByIndex(uint _npoId) public view returns(NPO memory) {\r\n        return npoAddresses[npoMap[_npoId]];\r\n    }\r\n\r\n    /// @dev Get all NPOs\r\n    /// @return returns an array of all NPOs\r\n    function libGetNpos() public view returns(NPO [] memory) {\r\n        uint arraySize = npoCount;\r\n        NPO [] memory result= new NPO[](arraySize);\r\n        for(uint i; i < arraySize; i++) {\r\n            result[i] = getNpoByIndex(i);     \r\n        }\r\n        return result;\r\n    }\r\n\r\n}",
  "sourcePath": "C:\\Appli.crypto\\ethic-on-chain\\contracts\\EocNpo.sol",
  "compiler": {
    "name": "solc",
    "version": "0.8.11+commit.d7f03943.Emscripten.clang"
  },
  "schemaVersion": "3.4.4",
  "updatedAt": "2022-01-12T06:34:30.280Z",
  "devdoc": {
    "author": "Lahcen E. Dev / Jrme Gauthier",
    "kind": "dev",
    "methods": {
      "addNpo(address,string,string,string,string)": {
        "details": "The administrator can add a new NPO",
        "params": {
          "_denomination": "Demonination of the NPO",
          "_npoErc20Address": "the ERC20 address of the npo",
          "_npoType": "Type of npo organization",
          "_object": "object of NPO",
          "_postalAddress": "Postal address of the NPO"
        }
      },
      "addProjectIdsItem(address,uint256)": {
        "details": "Adds an item in the projectIds array of the NPO",
        "params": {
          "_npoErc20Address": "erc20 address of the NPO Struct",
          "_projectId": "project id of the project to be added"
        }
      },
      "getNpo(address)": {
        "details": "Get an NPO via its erc20 address",
        "params": {
          "_npoErc20Address": "erc20 address of the NPO Struct"
        },
        "returns": {
          "_0": "returns the corresponding NPO struct"
        }
      },
      "getNpoByIndex(uint256)": {
        "details": "Get an NPO via its id",
        "params": {
          "_npoId": "id of the NPO"
        },
        "returns": {
          "_0": "returns the corresponding NPO struct"
        }
      },
      "libGetNpos()": {
        "details": "Get all NPOs",
        "returns": {
          "_0": "returns an array of all NPOs"
        }
      }
    },
    "title": "EocNpo ",
    "version": 1
  },
  "userdoc": {
    "kind": "user",
    "methods": {},
    "notice": "Contract to manage NPOs (= non profit organisations)",
    "version": 1
  }
}