{
  "contractName": "EocNpo",
  "abi": [
    {
      "anonymous": false,
      "inputs": [
        {
          "indexed": false,
          "internalType": "uint256",
          "name": "_poId",
          "type": "uint256"
        },
        {
          "indexed": false,
          "internalType": "address",
          "name": "_npoErc20Address",
          "type": "address"
        },
        {
          "indexed": false,
          "internalType": "string",
          "name": "_denomination",
          "type": "string"
        }
      ],
      "name": "NpoAdded",
      "type": "event"
    },
    {
      "inputs": [
        {
          "internalType": "address",
          "name": "",
          "type": "address"
        }
      ],
      "name": "npoAddresses",
      "outputs": [
        {
          "internalType": "uint256",
          "name": "npoId",
          "type": "uint256"
        },
        {
          "internalType": "address",
          "name": "npoErc20Address",
          "type": "address"
        },
        {
          "internalType": "string",
          "name": "denomination",
          "type": "string"
        },
        {
          "internalType": "string",
          "name": "postalAddress",
          "type": "string"
        },
        {
          "internalType": "string",
          "name": "object",
          "type": "string"
        },
        {
          "internalType": "string",
          "name": "npoType",
          "type": "string"
        }
      ],
      "stateMutability": "view",
      "type": "function",
      "constant": true
    },
    {
      "inputs": [
        {
          "internalType": "address",
          "name": "_npoErc20Address",
          "type": "address"
        },
        {
          "internalType": "string",
          "name": "_denomination",
          "type": "string"
        },
        {
          "internalType": "string",
          "name": "_postalAddress",
          "type": "string"
        },
        {
          "internalType": "string",
          "name": "_object",
          "type": "string"
        },
        {
          "internalType": "string",
          "name": "_npoType",
          "type": "string"
        }
      ],
      "name": "addNpo",
      "outputs": [],
      "stateMutability": "nonpayable",
      "type": "function"
    }
  ],
  "bytecode": "0x608060405234801561001057600080fd5b50610f59806100206000396000f3fe608060405234801561001057600080fd5b50600436106100365760003560e01c80633f9754c91461003b5780634913cdb014610057575b600080fd5b61005560048036038101906100509190610919565b61008c565b005b610071600480360381019061006c9190610a04565b610442565b60405161008396959493929190610ae1565b60405180910390f35b600073ffffffffffffffffffffffffffffffffffffffff168573ffffffffffffffffffffffffffffffffffffffff16116100fb576040517f08c379a00000000000000000000000000000000000000000000000000000000081526004016100f290610bd0565b60405180910390fd5b600084511161013f576040517f08c379a000000000000000000000000000000000000000000000000000000000815260040161013690610c3c565b60405180910390fd5b6000835111610183576040517f08c379a000000000000000000000000000000000000000000000000000000000815260040161017a90610ca8565b60405180910390fd5b60008251116101c7576040517f08c379a00000000000000000000000000000000000000000000000000000000081526004016101be90610d14565b60405180910390fd5b600081511161020b576040517f08c379a000000000000000000000000000000000000000000000000000000000815260040161020290610d80565b60405180910390fd5b60008060008773ffffffffffffffffffffffffffffffffffffffff1673ffffffffffffffffffffffffffffffffffffffff168152602001908152602001600020600201805461025990610dcf565b90501461029b576040517f08c379a000000000000000000000000000000000000000000000000000000000815260040161029290610e4d565b60405180910390fd5b60008060008773ffffffffffffffffffffffffffffffffffffffff1673ffffffffffffffffffffffffffffffffffffffff16815260200190815260200160002090506002548160000181905550858160010160006101000a81548173ffffffffffffffffffffffffffffffffffffffff021916908373ffffffffffffffffffffffffffffffffffffffff160217905550848160020190805190602001906103439291906106be565b508381600301908051906020019061035c9291906106be565b50828160040190805190602001906103759291906106be565b508181600501908051906020019061038e9291906106be565b508560016000600254815260200190815260200160002060006101000a81548173ffffffffffffffffffffffffffffffffffffffff021916908373ffffffffffffffffffffffffffffffffffffffff160217905550600260008154809291906103f690610e9c565b91905055507f1a9e41b629a15a636da77b06f2707c109021423f307b3f34f33ded411423ef148160000154878760405161043293929190610ee5565b60405180910390a1505050505050565b60006020528060005260406000206000915090508060000154908060010160009054906101000a900473ffffffffffffffffffffffffffffffffffffffff169080600201805461049190610dcf565b80601f01602080910402602001604051908101604052809291908181526020018280546104bd90610dcf565b801561050a5780601f106104df5761010080835404028352916020019161050a565b820191906000526020600020905b8154815290600101906020018083116104ed57829003601f168201915b50505050509080600301805461051f90610dcf565b80601f016020809104026020016040519081016040528092919081815260200182805461054b90610dcf565b80156105985780601f1061056d57610100808354040283529160200191610598565b820191906000526020600020905b81548152906001019060200180831161057b57829003601f168201915b5050505050908060040180546105ad90610dcf565b80601f01602080910402602001604051908101604052809291908181526020018280546105d990610dcf565b80156106265780601f106105fb57610100808354040283529160200191610626565b820191906000526020600020905b81548152906001019060200180831161060957829003601f168201915b50505050509080600501805461063b90610dcf565b80601f016020809104026020016040519081016040528092919081815260200182805461066790610dcf565b80156106b45780601f10610689576101008083540402835291602001916106b4565b820191906000526020600020905b81548152906001019060200180831161069757829003601f168201915b5050505050905086565b8280546106ca90610dcf565b90600052602060002090601f0160209004810192826106ec5760008555610733565b82601f1061070557805160ff1916838001178555610733565b82800160010185558215610733579182015b82811115610732578251825591602001919060010190610717565b5b5090506107409190610744565b5090565b5b8082111561075d576000816000905550600101610745565b5090565b6000604051905090565b600080fd5b600080fd5b600073ffffffffffffffffffffffffffffffffffffffff82169050919050565b60006107a082610775565b9050919050565b6107b081610795565b81146107bb57600080fd5b50565b6000813590506107cd816107a7565b92915050565b600080fd5b600080fd5b6000601f19601f8301169050919050565b7f4e487b7100000000000000000000000000000000000000000000000000000000600052604160045260246000fd5b610826826107dd565b810181811067ffffffffffffffff82111715610845576108446107ee565b5b80604052505050565b6000610858610761565b9050610864828261081d565b919050565b600067ffffffffffffffff821115610884576108836107ee565b5b61088d826107dd565b9050602081019050919050565b82818337600083830152505050565b60006108bc6108b784610869565b61084e565b9050828152602081018484840111156108d8576108d76107d8565b5b6108e384828561089a565b509392505050565b600082601f830112610900576108ff6107d3565b5b81356109108482602086016108a9565b91505092915050565b600080600080600060a086880312156109355761093461076b565b5b6000610943888289016107be565b955050602086013567ffffffffffffffff81111561096457610963610770565b5b610970888289016108eb565b945050604086013567ffffffffffffffff81111561099157610990610770565b5b61099d888289016108eb565b935050606086013567ffffffffffffffff8111156109be576109bd610770565b5b6109ca888289016108eb565b925050608086013567ffffffffffffffff8111156109eb576109ea610770565b5b6109f7888289016108eb565b9150509295509295909350565b600060208284031215610a1a57610a1961076b565b5b6000610a28848285016107be565b91505092915050565b6000819050919050565b610a4481610a31565b82525050565b610a5381610795565b82525050565b600081519050919050565b600082825260208201905092915050565b60005b83811015610a93578082015181840152602081019050610a78565b83811115610aa2576000848401525b50505050565b6000610ab382610a59565b610abd8185610a64565b9350610acd818560208601610a75565b610ad6816107dd565b840191505092915050565b600060c082019050610af66000830189610a3b565b610b036020830188610a4a565b8181036040830152610b158187610aa8565b90508181036060830152610b298186610aa8565b90508181036080830152610b3d8185610aa8565b905081810360a0830152610b518184610aa8565b9050979650505050505050565b7f4c2761647265737365206475204e504f20646f697420c3aa747265206469666660008201527fc3a972656e7465206465207ac3a9726f00000000000000000000000000000000602082015250565b6000610bba603083610a64565b9150610bc582610b5e565b604082019050919050565b60006020820190508181036000830152610be981610bad565b9050919050565b7f4c612064c3a96e6f6d696e6174696f6e20657374206f626c696761746f697265600082015250565b6000610c26602083610a64565b9150610c3182610bf0565b602082019050919050565b60006020820190508181036000830152610c5581610c19565b9050919050565b7f4c276164726573736520657374206f626c696761746f69726500000000000000600082015250565b6000610c92601983610a64565b9150610c9d82610c5c565b602082019050919050565b60006020820190508181036000830152610cc181610c85565b9050919050565b7f4c276f626a657420657374206f626c696761746f697265000000000000000000600082015250565b6000610cfe601783610a64565b9150610d0982610cc8565b602082019050919050565b60006020820190508181036000830152610d2d81610cf1565b9050919050565b7f4c65207479706520657374206f626c696761746f697265000000000000000000600082015250565b6000610d6a601783610a64565b9150610d7582610d34565b602082019050919050565b60006020820190508181036000830152610d9981610d5d565b9050919050565b7f4e487b7100000000000000000000000000000000000000000000000000000000600052602260045260246000fd5b60006002820490506001821680610de757607f821691505b60208210811415610dfb57610dfa610da0565b5b50919050565b7f4e504f2064c3a96ac3a020656e72656769737472c3a900000000000000000000600082015250565b6000610e37601683610a64565b9150610e4282610e01565b602082019050919050565b60006020820190508181036000830152610e6681610e2a565b9050919050565b7f4e487b7100000000000000000000000000000000000000000000000000000000600052601160045260246000fd5b6000610ea782610a31565b91507fffffffffffffffffffffffffffffffffffffffffffffffffffffffffffffffff821415610eda57610ed9610e6d565b5b600182019050919050565b6000606082019050610efa6000830186610a3b565b610f076020830185610a4a565b8181036040830152610f198184610aa8565b905094935050505056fea264697066735822122043bbd7d230e2e51c235aa67391fb541b046a50e0f11a95ebd4310f49f9736c1e64736f6c634300080b0033",
  "immutableReferences": {},
  "source": "// SPDX-License-Identifier: MIT\r\npragma solidity 0.8.11;\r\n\r\n/// @title EocNpo \r\n/// @author Lahcen E. Dev / Jrme Gauthier\r\n/// @notice Contract to manage NPOs (= non profit organisations)\r\ncontract EocNpo {\r\n\r\n    struct NPO {\r\n        uint npoId;\r\n        address npoErc20Address;\r\n        string denomination;\r\n        string postalAddress;\r\n        string object;\r\n        string npoType;\r\n        uint[] projectIds;\r\n        uint[] withdrawalIds;\r\n    }\r\n\r\n    // NPOs\r\n    mapping (address => NPO) public npoAddresses; //Mapping of all NPO \r\n    mapping (uint => address) private npoMap;\r\n    uint private npoCount; \r\n\r\n    event NpoAdded(uint _poId, address _npoErc20Address, string _denomination);\r\n\r\n    /// @dev The administrator can add a new NPO\r\n    /// @param _npoErc20Address the ERC20 address of the npo\r\n    /// @param _denomination Demonination of the NPO\r\n    /// @param _postalAddress Postal address of the NPO\r\n    /// @param _object object of NPO\r\n    /// @param _npoType Type of npo organization\r\n    function addNpo(\r\n        address _npoErc20Address,\r\n        string memory _denomination,\r\n        string memory _postalAddress,\r\n        string memory _object,\r\n        string memory _npoType) public {\r\n        // Mandatory fields\r\n        require(_npoErc20Address > address(0), unicode\"L'adresse du NPO doit tre diffrente de zro\");\r\n        require(bytes(_denomination).length > 0, unicode\"La dnomination est obligatoire\");\r\n        require(bytes(_postalAddress).length > 0, \"L'adresse est obligatoire\");\r\n        require(bytes(_object).length > 0, \"L'objet est obligatoire\");\r\n        require(bytes(_npoType).length > 0, \"Le type est obligatoire\");\r\n        require(bytes(npoAddresses[_npoErc20Address].denomination).length == 0, unicode\"NPO dj enregistr\");\r\n        \r\n        NPO storage newNpo = npoAddresses[_npoErc20Address];\r\n        newNpo.npoId = npoCount;\r\n        newNpo.npoErc20Address = _npoErc20Address;\r\n        newNpo.denomination = _denomination;\r\n        newNpo.postalAddress = _postalAddress;\r\n        newNpo.object = _object;\r\n        newNpo.npoType = _npoType;\r\n        npoMap[npoCount] = _npoErc20Address;\r\n        npoCount++;\r\n        emit NpoAdded(newNpo.npoId, _npoErc20Address, _denomination);\r\n    }\r\n\r\n    /// @dev Get an NPO via its erc20 address\r\n    /// @param _npoErc20Address erc20 address of the NPO Struct\r\n    /// @return returns the corresponding NPO struct\r\n    function getNpo(address _npoErc20Address) internal view returns(NPO memory) {\r\n        return npoAddresses[_npoErc20Address];\r\n    }\r\n    \r\n    /// @dev Get an NPO via its id\r\n    /// @param _npoId id of the NPO\r\n    /// @return returns the corresponding NPO struct\r\n    function getNpoByIndex(uint _npoId) internal view returns(NPO memory) {\r\n        return npoAddresses[npoMap[_npoId]];\r\n    }\r\n\r\n    /// @dev Get all NPOs\r\n    /// @return returns an array of all NPOs\r\n    function libGetNpos() internal view returns(NPO [] memory) {\r\n        uint arraySize = npoCount;\r\n        NPO [] memory result= new NPO[](arraySize);\r\n        for(uint i; i < arraySize; i++) {\r\n            result[i] = getNpoByIndex(i);     \r\n        }\r\n        return result;\r\n    }\r\n\r\n}",
  "sourcePath": "C:\\Appli.crypto\\ethic-on-chain\\contracts\\EocNpo.sol",
  "compiler": {
    "name": "solc",
    "version": "0.8.11+commit.d7f03943.Emscripten.clang"
  },
  "schemaVersion": "3.4.4",
  "updatedAt": "2022-01-11T06:53:14.276Z",
  "networkType": "ethereum",
  "devdoc": {
    "author": "Lahcen E. Dev / Jrme Gauthier",
    "kind": "dev",
    "methods": {
      "addNpo(address,string,string,string,string)": {
        "details": "The administrator can add a new NPO",
        "params": {
          "_denomination": "Demonination of the NPO",
          "_npoErc20Address": "the ERC20 address of the npo",
          "_npoType": "Type of npo organization",
          "_object": "object of NPO",
          "_postalAddress": "Postal address of the NPO"
        }
      }
    },
    "title": "EocNpo ",
    "version": 1
  },
  "userdoc": {
    "kind": "user",
    "methods": {},
    "notice": "Contract to manage NPOs (= non profit organisations)",
    "version": 1
  }
}