{
  "contractName": "EocProject",
  "abi": [
    {
      "inputs": [
        {
          "internalType": "address",
          "name": "_eocNpoAddress",
          "type": "address"
        }
      ],
      "stateMutability": "nonpayable",
      "type": "constructor"
    },
    {
      "anonymous": false,
      "inputs": [
        {
          "indexed": false,
          "internalType": "uint256",
          "name": "_projectId",
          "type": "uint256"
        },
        {
          "indexed": false,
          "internalType": "string",
          "name": "_title",
          "type": "string"
        },
        {
          "indexed": false,
          "internalType": "uint256",
          "name": "_startDate",
          "type": "uint256"
        },
        {
          "indexed": false,
          "internalType": "uint256",
          "name": "_endDate",
          "type": "uint256"
        },
        {
          "indexed": false,
          "internalType": "uint256",
          "name": "_minAmount",
          "type": "uint256"
        },
        {
          "indexed": false,
          "internalType": "uint256",
          "name": "_maxAmount",
          "type": "uint256"
        }
      ],
      "name": "ProjectAdded",
      "type": "event"
    },
    {
      "inputs": [
        {
          "internalType": "string",
          "name": "_title",
          "type": "string"
        },
        {
          "internalType": "string",
          "name": "_description",
          "type": "string"
        },
        {
          "internalType": "string",
          "name": "_geographicalArea",
          "type": "string"
        },
        {
          "internalType": "uint256",
          "name": "_startDate",
          "type": "uint256"
        },
        {
          "internalType": "uint256",
          "name": "_endDate",
          "type": "uint256"
        },
        {
          "internalType": "uint256",
          "name": "_campaignStartDate",
          "type": "uint256"
        },
        {
          "internalType": "uint256",
          "name": "_campaignDurationInDays",
          "type": "uint256"
        },
        {
          "internalType": "uint256",
          "name": "_minAmount",
          "type": "uint256"
        },
        {
          "internalType": "uint256",
          "name": "_maxAmount",
          "type": "uint256"
        }
      ],
      "name": "addProject",
      "outputs": [],
      "stateMutability": "nonpayable",
      "type": "function"
    },
    {
      "inputs": [
        {
          "internalType": "uint256",
          "name": "_projectId",
          "type": "uint256"
        }
      ],
      "name": "getProject",
      "outputs": [
        {
          "components": [
            {
              "internalType": "uint256",
              "name": "projectId",
              "type": "uint256"
            },
            {
              "internalType": "uint256",
              "name": "startDate",
              "type": "uint256"
            },
            {
              "internalType": "uint256",
              "name": "endDate",
              "type": "uint256"
            },
            {
              "internalType": "uint256",
              "name": "campaignStartDate",
              "type": "uint256"
            },
            {
              "internalType": "uint256",
              "name": "campaignDurationInDays",
              "type": "uint256"
            },
            {
              "internalType": "uint256",
              "name": "minAmount",
              "type": "uint256"
            },
            {
              "internalType": "uint256",
              "name": "maxAmount",
              "type": "uint256"
            },
            {
              "internalType": "uint256",
              "name": "projectBalance",
              "type": "uint256"
            },
            {
              "internalType": "address",
              "name": "npoErc20Address",
              "type": "address"
            },
            {
              "internalType": "enum EocProject.ProjectCause",
              "name": "cause",
              "type": "uint8"
            },
            {
              "internalType": "string",
              "name": "title",
              "type": "string"
            },
            {
              "internalType": "string",
              "name": "description",
              "type": "string"
            },
            {
              "internalType": "string",
              "name": "geographicalArea",
              "type": "string"
            },
            {
              "internalType": "uint256[]",
              "name": "donationIds",
              "type": "uint256[]"
            },
            {
              "internalType": "uint256[]",
              "name": "withdrawalIds",
              "type": "uint256[]"
            }
          ],
          "internalType": "struct EocProject.Project",
          "name": "",
          "type": "tuple"
        }
      ],
      "stateMutability": "view",
      "type": "function"
    },
    {
      "inputs": [],
      "name": "getProjects",
      "outputs": [
        {
          "components": [
            {
              "internalType": "uint256",
              "name": "projectId",
              "type": "uint256"
            },
            {
              "internalType": "uint256",
              "name": "startDate",
              "type": "uint256"
            },
            {
              "internalType": "uint256",
              "name": "endDate",
              "type": "uint256"
            },
            {
              "internalType": "uint256",
              "name": "campaignStartDate",
              "type": "uint256"
            },
            {
              "internalType": "uint256",
              "name": "campaignDurationInDays",
              "type": "uint256"
            },
            {
              "internalType": "uint256",
              "name": "minAmount",
              "type": "uint256"
            },
            {
              "internalType": "uint256",
              "name": "maxAmount",
              "type": "uint256"
            },
            {
              "internalType": "uint256",
              "name": "projectBalance",
              "type": "uint256"
            },
            {
              "internalType": "address",
              "name": "npoErc20Address",
              "type": "address"
            },
            {
              "internalType": "enum EocProject.ProjectCause",
              "name": "cause",
              "type": "uint8"
            },
            {
              "internalType": "string",
              "name": "title",
              "type": "string"
            },
            {
              "internalType": "string",
              "name": "description",
              "type": "string"
            },
            {
              "internalType": "string",
              "name": "geographicalArea",
              "type": "string"
            },
            {
              "internalType": "uint256[]",
              "name": "donationIds",
              "type": "uint256[]"
            },
            {
              "internalType": "uint256[]",
              "name": "withdrawalIds",
              "type": "uint256[]"
            }
          ],
          "internalType": "struct EocProject.Project[]",
          "name": "",
          "type": "tuple[]"
        }
      ],
      "stateMutability": "view",
      "type": "function"
    }
  ],
  "bytecode": "0x60806040523480156200001157600080fd5b50604051620023e2380380620023e28339818101604052810190620000379190620000e9565b80600260006101000a81548173ffffffffffffffffffffffffffffffffffffffff021916908373ffffffffffffffffffffffffffffffffffffffff160217905550506200011b565b600080fd5b600073ffffffffffffffffffffffffffffffffffffffff82169050919050565b6000620000b18262000084565b9050919050565b620000c381620000a4565b8114620000cf57600080fd5b50565b600081519050620000e381620000b8565b92915050565b6000602082840312156200010257620001016200007f565b5b60006200011284828501620000d2565b91505092915050565b6122b7806200012b6000396000f3fe608060405234801561001057600080fd5b50600436106100415760003560e01c80631f1ffb1c14610046578063dcc6012814610062578063f0f3f2c814610080575b600080fd5b610060600480360381019061005b9190611092565b6100b0565b005b61006a610642565b60405161007791906115cf565b60405180910390f35b61009a600480360381019061009591906115f1565b610a4d565b6040516100a7919061177d565b60405180910390f35b6000600260009054906101000a900473ffffffffffffffffffffffffffffffffffffffff1673ffffffffffffffffffffffffffffffffffffffff1663ff6d56ef336040518263ffffffff1660e01b815260040161010d91906117ae565b600060405180830381865afa15801561012a573d6000803e3d6000fd5b505050506040513d6000823e3d601f19601f820116820180604052508101906101539190611abe565b90506000816040015151141561019e576040517f08c379a000000000000000000000000000000000000000000000000000000000815260040161019590611b8a565b60405180910390fd5b60008a51116101e2576040517f08c379a00000000000000000000000000000000000000000000000000000000081526004016101d990611bf6565b60405180910390fd5b6000895111610226576040517f08c379a000000000000000000000000000000000000000000000000000000000815260040161021d90611c62565b60405180910390fd5b60008711610269576040517f08c379a000000000000000000000000000000000000000000000000000000000815260040161026090611cf4565b60405180910390fd5b600086116102ac576040517f08c379a00000000000000000000000000000000000000000000000000000000081526004016102a390611d86565b60405180910390fd5b600083116102ef576040517f08c379a00000000000000000000000000000000000000000000000000000000081526004016102e690611df2565b60405180910390fd5b60008211610332576040517f08c379a000000000000000000000000000000000000000000000000000000000815260040161032990611e5e565b60405180910390fd5b60008511610375576040517f08c379a000000000000000000000000000000000000000000000000000000000815260040161036c90611ef0565b60405180910390fd5b600084116103b8576040517f08c379a00000000000000000000000000000000000000000000000000000000081526004016103af90611f5c565b60405180910390fd5b8587106103fa576040517f08c379a00000000000000000000000000000000000000000000000000000000081526004016103f190611fee565b60405180910390fd5b81831061043c576040517f08c379a000000000000000000000000000000000000000000000000000000000815260040161043390612080565b60405180910390fd5b6000806000600154815260200190815260200160002090506001548160000181905550338160080160006101000a81548173ffffffffffffffffffffffffffffffffffffffff021916908373ffffffffffffffffffffffffffffffffffffffff1602179055508a8160090190805190602001906104ba929190610dc1565b508981600a0190805190602001906104d3929190610dc1565b508881600b0190805190602001906104ec929190610dc1565b50878160010181905550868160020181905550858160030181905550848160040181905550838160050181905550828160060181905550600260009054906101000a900473ffffffffffffffffffffffffffffffffffffffff1673ffffffffffffffffffffffffffffffffffffffff16639e5ad5028260080160009054906101000a900473ffffffffffffffffffffffffffffffffffffffff166001546040518363ffffffff1660e01b81526004016105a69291906120af565b600060405180830381600087803b1580156105c057600080fd5b505af11580156105d4573d6000803e3d6000fd5b50505050600160008154809291906105eb90612107565b91905055507ff9702874e260ae597ee7c3acbf77aad0ce01f26c14650d5afbc5b43a62b34af381600001548c8a8a888860405161062d96959493929190612189565b60405180910390a15050505050505050505050565b60606000600154905060008167ffffffffffffffff81111561066757610666610f31565b5b6040519080825280602002602001820160405280156106a057816020015b61068d610e47565b8152602001906001900390816106855790505b50905060005b82811015610a4457600080828152602001908152602001600020604051806101e001604052908160008201548152602001600182015481526020016002820154815260200160038201548152602001600482015481526020016005820154815260200160068201548152602001600782015481526020016008820160009054906101000a900473ffffffffffffffffffffffffffffffffffffffff1673ffffffffffffffffffffffffffffffffffffffff1673ffffffffffffffffffffffffffffffffffffffff1681526020016008820160149054906101000a900460ff1660068111156107975761079661122c565b5b60068111156107a9576107a861122c565b5b81526020016009820180546107bd90612220565b80601f01602080910402602001604051908101604052809291908181526020018280546107e990612220565b80156108365780601f1061080b57610100808354040283529160200191610836565b820191906000526020600020905b81548152906001019060200180831161081957829003601f168201915b50505050508152602001600a8201805461084f90612220565b80601f016020809104026020016040519081016040528092919081815260200182805461087b90612220565b80156108c85780601f1061089d576101008083540402835291602001916108c8565b820191906000526020600020905b8154815290600101906020018083116108ab57829003601f168201915b50505050508152602001600b820180546108e190612220565b80601f016020809104026020016040519081016040528092919081815260200182805461090d90612220565b801561095a5780601f1061092f5761010080835404028352916020019161095a565b820191906000526020600020905b81548152906001019060200180831161093d57829003601f168201915b50505050508152602001600c82018054806020026020016040519081016040528092919081815260200182805480156109b257602002820191906000526020600020905b81548152602001906001019080831161099e575b50505050508152602001600d8201805480602002602001604051908101604052809291908181526020018280548015610a0a57602002820191906000526020600020905b8154815260200190600101908083116109f6575b505050505081525050828281518110610a2657610a25612252565b5b60200260200101819052508080610a3c90612107565b9150506106a6565b50809250505090565b610a55610e47565b600080838152602001908152602001600020604051806101e001604052908160008201548152602001600182015481526020016002820154815260200160038201548152602001600482015481526020016005820154815260200160068201548152602001600782015481526020016008820160009054906101000a900473ffffffffffffffffffffffffffffffffffffffff1673ffffffffffffffffffffffffffffffffffffffff1673ffffffffffffffffffffffffffffffffffffffff1681526020016008820160149054906101000a900460ff166006811115610b3e57610b3d61122c565b5b6006811115610b5057610b4f61122c565b5b8152602001600982018054610b6490612220565b80601f0160208091040260200160405190810160405280929190818152602001828054610b9090612220565b8015610bdd5780601f10610bb257610100808354040283529160200191610bdd565b820191906000526020600020905b815481529060010190602001808311610bc057829003601f168201915b50505050508152602001600a82018054610bf690612220565b80601f0160208091040260200160405190810160405280929190818152602001828054610c2290612220565b8015610c6f5780601f10610c4457610100808354040283529160200191610c6f565b820191906000526020600020905b815481529060010190602001808311610c5257829003601f168201915b50505050508152602001600b82018054610c8890612220565b80601f0160208091040260200160405190810160405280929190818152602001828054610cb490612220565b8015610d015780601f10610cd657610100808354040283529160200191610d01565b820191906000526020600020905b815481529060010190602001808311610ce457829003601f168201915b50505050508152602001600c8201805480602002602001604051908101604052809291908181526020018280548015610d5957602002820191906000526020600020905b815481526020019060010190808311610d45575b50505050508152602001600d8201805480602002602001604051908101604052809291908181526020018280548015610db157602002820191906000526020600020905b815481526020019060010190808311610d9d575b5050505050815250509050919050565b828054610dcd90612220565b90600052602060002090601f016020900481019282610def5760008555610e36565b82601f10610e0857805160ff1916838001178555610e36565b82800160010185558215610e36579182015b82811115610e35578251825591602001919060010190610e1a565b5b509050610e439190610ee5565b5090565b604051806101e001604052806000815260200160008152602001600081526020016000815260200160008152602001600081526020016000815260200160008152602001600073ffffffffffffffffffffffffffffffffffffffff16815260200160006006811115610ebc57610ebb61122c565b5b815260200160608152602001606081526020016060815260200160608152602001606081525090565b5b80821115610efe576000816000905550600101610ee6565b5090565b6000604051905090565b600080fd5b600080fd5b600080fd5b600080fd5b6000601f19601f8301169050919050565b7f4e487b7100000000000000000000000000000000000000000000000000000000600052604160045260246000fd5b610f6982610f20565b810181811067ffffffffffffffff82111715610f8857610f87610f31565b5b80604052505050565b6000610f9b610f02565b9050610fa78282610f60565b919050565b600067ffffffffffffffff821115610fc757610fc6610f31565b5b610fd082610f20565b9050602081019050919050565b82818337600083830152505050565b6000610fff610ffa84610fac565b610f91565b90508281526020810184848401111561101b5761101a610f1b565b5b611026848285610fdd565b509392505050565b600082601f83011261104357611042610f16565b5b8135611053848260208601610fec565b91505092915050565b6000819050919050565b61106f8161105c565b811461107a57600080fd5b50565b60008135905061108c81611066565b92915050565b60008060008060008060008060006101208a8c0312156110b5576110b4610f0c565b5b60008a013567ffffffffffffffff8111156110d3576110d2610f11565b5b6110df8c828d0161102e565b99505060208a013567ffffffffffffffff811115611100576110ff610f11565b5b61110c8c828d0161102e565b98505060408a013567ffffffffffffffff81111561112d5761112c610f11565b5b6111398c828d0161102e565b975050606061114a8c828d0161107d565b965050608061115b8c828d0161107d565b95505060a061116c8c828d0161107d565b94505060c061117d8c828d0161107d565b93505060e061118e8c828d0161107d565b9250506101006111a08c828d0161107d565b9150509295985092959850929598565b600081519050919050565b600082825260208201905092915050565b6000819050602082019050919050565b6111e58161105c565b82525050565b600073ffffffffffffffffffffffffffffffffffffffff82169050919050565b6000611216826111eb565b9050919050565b6112268161120b565b82525050565b7f4e487b7100000000000000000000000000000000000000000000000000000000600052602160045260246000fd5b6007811061126c5761126b61122c565b5b50565b600081905061127d8261125b565b919050565b600061128d8261126f565b9050919050565b61129d81611282565b82525050565b600081519050919050565b600082825260208201905092915050565b60005b838110156112dd5780820151818401526020810190506112c2565b838111156112ec576000848401525b50505050565b60006112fd826112a3565b61130781856112ae565b93506113178185602086016112bf565b61132081610f20565b840191505092915050565b600081519050919050565b600082825260208201905092915050565b6000819050602082019050919050565b600061136383836111dc565b60208301905092915050565b6000602082019050919050565b60006113878261132b565b6113918185611336565b935061139c83611347565b8060005b838110156113cd5781516113b48882611357565b97506113bf8361136f565b9250506001810190506113a0565b5085935050505092915050565b60006101e0830160008301516113f360008601826111dc565b50602083015161140660208601826111dc565b50604083015161141960408601826111dc565b50606083015161142c60608601826111dc565b50608083015161143f60808601826111dc565b5060a083015161145260a08601826111dc565b5060c083015161146560c08601826111dc565b5060e083015161147860e08601826111dc565b5061010083015161148d61010086018261121d565b506101208301516114a2610120860182611294565b506101408301518482036101408601526114bc82826112f2565b9150506101608301518482036101608601526114d882826112f2565b9150506101808301518482036101808601526114f482826112f2565b9150506101a08301518482036101a0860152611510828261137c565b9150506101c08301518482036101c086015261152c828261137c565b9150508091505092915050565b600061154583836113da565b905092915050565b6000602082019050919050565b6000611565826111b0565b61156f81856111bb565b935083602082028501611581856111cc565b8060005b858110156115bd578484038952815161159e8582611539565b94506115a98361154d565b925060208a01995050600181019050611585565b50829750879550505050505092915050565b600060208201905081810360008301526115e9818461155a565b905092915050565b60006020828403121561160757611606610f0c565b5b60006116158482850161107d565b91505092915050565b60006101e08301600083015161163760008601826111dc565b50602083015161164a60208601826111dc565b50604083015161165d60408601826111dc565b50606083015161167060608601826111dc565b50608083015161168360808601826111dc565b5060a083015161169660a08601826111dc565b5060c08301516116a960c08601826111dc565b5060e08301516116bc60e08601826111dc565b506101008301516116d161010086018261121d565b506101208301516116e6610120860182611294565b5061014083015184820361014086015261170082826112f2565b91505061016083015184820361016086015261171c82826112f2565b91505061018083015184820361018086015261173882826112f2565b9150506101a08301518482036101a0860152611754828261137c565b9150506101c08301518482036101c0860152611770828261137c565b9150508091505092915050565b60006020820190508181036000830152611797818461161e565b905092915050565b6117a88161120b565b82525050565b60006020820190506117c3600083018461179f565b92915050565b600080fd5b600080fd5b6000815190506117e281611066565b92915050565b6117f18161120b565b81146117fc57600080fd5b50565b60008151905061180e816117e8565b92915050565b600061182761182284610fac565b610f91565b90508281526020810184848401111561184357611842610f1b565b5b61184e8482856112bf565b509392505050565b600082601f83011261186b5761186a610f16565b5b815161187b848260208601611814565b91505092915050565b600067ffffffffffffffff82111561189f5761189e610f31565b5b602082029050602081019050919050565b600080fd5b60006118c86118c384611884565b610f91565b905080838252602082019050602084028301858111156118eb576118ea6118b0565b5b835b81811015611914578061190088826117d3565b8452602084019350506020810190506118ed565b5050509392505050565b600082601f83011261193357611932610f16565b5b81516119438482602086016118b5565b91505092915050565b60006101008284031215611963576119626117c9565b5b61196e610100610f91565b9050600061197e848285016117d3565b6000830152506020611992848285016117ff565b602083015250604082015167ffffffffffffffff8111156119b6576119b56117ce565b5b6119c284828501611856565b604083015250606082015167ffffffffffffffff8111156119e6576119e56117ce565b5b6119f284828501611856565b606083015250608082015167ffffffffffffffff811115611a1657611a156117ce565b5b611a2284828501611856565b60808301525060a082015167ffffffffffffffff811115611a4657611a456117ce565b5b611a5284828501611856565b60a08301525060c082015167ffffffffffffffff811115611a7657611a756117ce565b5b611a828482850161191e565b60c08301525060e082015167ffffffffffffffff811115611aa657611aa56117ce565b5b611ab28482850161191e565b60e08301525092915050565b600060208284031215611ad457611ad3610f0c565b5b600082015167ffffffffffffffff811115611af257611af1610f11565b5b611afe8482850161194c565b91505092915050565b600082825260208201905092915050565b7f566f7573206e27c3aa7465732070617320656e72656769737472c3a920656e2060008201527f74616e7420717565204e504f0000000000000000000000000000000000000000602082015250565b6000611b74602c83611b07565b9150611b7f82611b18565b604082019050919050565b60006020820190508181036000830152611ba381611b67565b9050919050565b7f4c6520746974726520657374206f626c696761746f6972650000000000000000600082015250565b6000611be0601883611b07565b9150611beb82611baa565b602082019050919050565b60006020820190508181036000830152611c0f81611bd3565b9050919050565b7f4c61206465736372697074696f6e20657374206f626c696761746f6972650000600082015250565b6000611c4c601e83611b07565b9150611c5782611c16565b602082019050919050565b60006020820190508181036000830152611c7b81611c3f565b9050919050565b7f446174652064652064c3a96275742064652070726f6a6574206f626c6967617460008201527f6f69726500000000000000000000000000000000000000000000000000000000602082015250565b6000611cde602483611b07565b9150611ce982611c82565b604082019050919050565b60006020820190508181036000830152611d0d81611cd1565b9050919050565b7f446174652064652066696e2064652070726f6a6574206f626c696761746f697260008201527f6500000000000000000000000000000000000000000000000000000000000000602082015250565b6000611d70602183611b07565b9150611d7b82611d14565b604082019050919050565b60006020820190508181036000830152611d9f81611d63565b9050919050565b7f4d6f6e74616e74206d696e696d616c206f626c696761746f6972650000000000600082015250565b6000611ddc601b83611b07565b9150611de782611da6565b602082019050919050565b60006020820190508181036000830152611e0b81611dcf565b9050919050565b7f4d6f6e74616e74206d6178696d616c206f626c696761746f6972650000000000600082015250565b6000611e48601b83611b07565b9150611e5382611e12565b602082019050919050565b60006020820190508181036000830152611e7781611e3b565b9050919050565b7f446174652064652064c3a96275742064652063616d7061676e65206f626c696760008201527f61746f6972650000000000000000000000000000000000000000000000000000602082015250565b6000611eda602683611b07565b9150611ee582611e7e565b604082019050919050565b60006020820190508181036000830152611f0981611ecd565b9050919050565b7f447572c3a9652064652063616d7061676e65206f626c696761746f6972650000600082015250565b6000611f46601e83611b07565b9150611f5182611f10565b602082019050919050565b60006020820190508181036000830152611f7581611f39565b9050919050565b7f4c6120646174652064c3a96275742064652070726f6a657420646f697420c3aa60008201527f747265206176616e74206c612066696e00000000000000000000000000000000602082015250565b6000611fd8603083611b07565b9150611fe382611f7c565b604082019050919050565b6000602082019050818103600083015261200781611fcb565b9050919050565b7f4c65206d6f6e74616e74206d696e696d616c20646f697420c3aa74726520696e60008201527f66c3a97269657572206175206d6f6e74616e74206d6178696d616c0000000000602082015250565b600061206a603b83611b07565b91506120758261200e565b604082019050919050565b600060208201905081810360008301526120998161205d565b9050919050565b6120a98161105c565b82525050565b60006040820190506120c4600083018561179f565b6120d160208301846120a0565b9392505050565b7f4e487b7100000000000000000000000000000000000000000000000000000000600052601160045260246000fd5b60006121128261105c565b91507fffffffffffffffffffffffffffffffffffffffffffffffffffffffffffffffff821415612145576121446120d8565b5b600182019050919050565b600061215b826112a3565b6121658185611b07565b93506121758185602086016112bf565b61217e81610f20565b840191505092915050565b600060c08201905061219e60008301896120a0565b81810360208301526121b08188612150565b90506121bf60408301876120a0565b6121cc60608301866120a0565b6121d960808301856120a0565b6121e660a08301846120a0565b979650505050505050565b7f4e487b7100000000000000000000000000000000000000000000000000000000600052602260045260246000fd5b6000600282049050600182168061223857607f821691505b6020821081141561224c5761224b6121f1565b5b50919050565b7f4e487b7100000000000000000000000000000000000000000000000000000000600052603260045260246000fdfea2646970667358221220902761af99c1b6e247ef65c0b653350d47a7f64630b46df73e5779bee926089d64736f6c634300080b0033",
  "immutableReferences": {},
  "source": "// SPDX-License-Identifier: MIT\r\npragma solidity 0.8.11;\r\n\r\nimport \"@openzeppelin/contracts/access/Ownable.sol\";\r\nimport \"./IEocNpo.sol\";\r\n\r\n/// @title EocDonor \r\n/// @author Lahcen E. Dev / Jrme Gauthier\r\n/// @notice Contract to manage NPOs (= non profit organisations)\r\ncontract EocProject  {\r\n    \r\n    struct Project {\r\n        uint projectId; // cl primaire\r\n        uint startDate;\r\n        uint endDate;\r\n        uint campaignStartDate;\r\n        uint campaignDurationInDays;\r\n        uint minAmount;\r\n        uint maxAmount;\r\n        uint projectBalance;\r\n        address npoErc20Address;\r\n        ProjectCause cause;\r\n        string title;\r\n        string description;\r\n        string geographicalArea;\r\n        uint[] donationIds;\r\n        uint[] withdrawalIds;\r\n    } \r\n\r\n    enum ProjectCause {\r\n        LutteContreLaPauvreteEtExclusion,\r\n        EnvironnementEtLesAnimaux,\r\n        Education,\r\n        ArtEtLaCulture,\r\n        SanteEtLaRecherche,\r\n        DroitsDeLHomme,\r\n        InfrastructureRoutiere\r\n    }\r\n\r\n    // Projects\r\n    mapping (uint => Project) projectMap;\r\n    uint projectCount;\r\n\r\n    // NPO deployed contract address\r\n    address eocNpoAddress;\r\n\r\n    /// @dev Initialise the deployed EOC token address for swap\r\n    /// @param _eocNpoAddress EOC Token address\r\n    constructor(address _eocNpoAddress) {\r\n       eocNpoAddress = _eocNpoAddress;\r\n    }\r\n    event ProjectAdded(uint _projectId, string _title, uint _startDate, uint _endDate, uint _minAmount, uint _maxAmount);\r\n\r\n    /// @dev This function will allow to add a project, the owner will be the one who calls the function. \r\n    /// @param _title The title of the project\r\n    /// @param _description description of the project\r\n    /// @param _geographicalArea the geographical area where the project will be located.\r\n    /// @param _startDate The start date of the project\r\n    /// @param _endDate The end of the project\r\n    /// @param _campaignStartDate the beginning of the collection of funds\r\n    /// @param _campaignDurationInDays the duration of the collection of funds\r\n    /// @param _minAmount The minimum price for the project to be valid\r\n    /// @param _maxAmount The maximum price to make the project a success \r\n    function addProject(\r\n        string memory _title,\r\n        string memory _description,\r\n        string memory _geographicalArea,\r\n        uint _startDate,\r\n        uint _endDate,\r\n        uint _campaignStartDate,\r\n        uint _campaignDurationInDays,\r\n        uint _minAmount,\r\n        uint _maxAmount\r\n    ) public {\r\n        IEocNpo.NPO memory projectNpo = IEocNpo(eocNpoAddress).getNpo(msg.sender);\r\n        require(bytes(projectNpo.denomination).length != 0, unicode\"Vous n'tes pas enregistr en tant que NPO\");\r\n        // Mandatory fields\r\n        require(bytes(_title).length > 0, \"Le titre est obligatoire\");\r\n        require(bytes(_description).length > 0, \"La description est obligatoire\");\r\n        require(_startDate > 0, unicode\"Date de dbut de projet obligatoire\");\r\n        require(_endDate > 0, \"Date de fin de projet obligatoire\");\r\n        require(_minAmount > 0, \"Montant minimal obligatoire\");\r\n        require(_maxAmount > 0, \"Montant maximal obligatoire\");\r\n        require(_campaignStartDate > 0, unicode\"Date de dbut de campagne obligatoire\");\r\n        require(_campaignDurationInDays > 0, unicode\"Dure de campagne obligatoire\");\r\n        // Comparisons\r\n        require(_startDate < _endDate, unicode\"La date dbut de projet doit tre avant la fin\");\r\n        require(_minAmount < _maxAmount, unicode\"Le montant minimal doit tre infrieur au montant maximal\");\r\n\r\n        Project storage newProject = projectMap[projectCount];\r\n        newProject.projectId = projectCount;\r\n        newProject.npoErc20Address = msg.sender;\r\n        newProject.title = _title;\r\n        // TODO = voir comment grer le Project Cause en fonction de son enum\r\n        newProject.description = _description;\r\n        newProject.geographicalArea = _geographicalArea;\r\n        newProject.startDate = _startDate;\r\n        newProject.endDate = _endDate;\r\n        newProject.campaignStartDate = _campaignStartDate;\r\n        newProject.campaignDurationInDays = _campaignDurationInDays;\r\n        newProject.minAmount = _minAmount;\r\n        newProject.maxAmount = _maxAmount;\r\n        IEocNpo(eocNpoAddress).addProjectIdsItem(newProject.npoErc20Address, projectCount);\r\n\r\n        projectCount++;\r\n        emit ProjectAdded(newProject.projectId, _title,  _startDate, _endDate, _minAmount, _maxAmount);\r\n    } \r\n\r\n    /// @dev Returns a single Project\r\n    /// @param _projectId project unique id\r\n    /// @return the Project struct instance corresponding to _projectId\r\n    function getProject(uint _projectId) public view returns(Project memory) {\r\n        return projectMap[_projectId];\r\n    }\r\n\r\n    \r\n\r\n    /// @dev  get all projects\r\n    /// @return returns an array of all Project\r\n    function getProjects() public view returns(Project [] memory) {\r\n        uint arraySize = projectCount;\r\n        Project [] memory result = new Project[](arraySize);\r\n        for(uint i; i < arraySize; i++) {\r\n            result[i] = projectMap[i];\r\n        }\r\n        return result;\r\n    }\r\n\r\n}",
  "sourcePath": "C:\\Appli.crypto\\ethic-on-chain\\contracts\\EocProject.sol",
  "compiler": {
    "name": "solc",
    "version": "0.8.11+commit.d7f03943.Emscripten.clang"
  },
  "schemaVersion": "3.4.4",
  "updatedAt": "2022-01-11T17:56:45.104Z",
  "devdoc": {
    "author": "Lahcen E. Dev / Jrme Gauthier",
    "kind": "dev",
    "methods": {
      "addProject(string,string,string,uint256,uint256,uint256,uint256,uint256,uint256)": {
        "details": "This function will allow to add a project, the owner will be the one who calls the function. ",
        "params": {
          "_campaignDurationInDays": "the duration of the collection of funds",
          "_campaignStartDate": "the beginning of the collection of funds",
          "_description": "description of the project",
          "_endDate": "The end of the project",
          "_geographicalArea": "the geographical area where the project will be located.",
          "_maxAmount": "The maximum price to make the project a success ",
          "_minAmount": "The minimum price for the project to be valid",
          "_startDate": "The start date of the project",
          "_title": "The title of the project"
        }
      },
      "constructor": {
        "details": "Initialise the deployed EOC token address for swap",
        "params": {
          "_eocNpoAddress": "EOC Token address"
        }
      },
      "getProject(uint256)": {
        "details": "Returns a single Project",
        "params": {
          "_projectId": "project unique id"
        },
        "returns": {
          "_0": "the Project struct instance corresponding to _projectId"
        }
      },
      "getProjects()": {
        "details": "get all projects",
        "returns": {
          "_0": "returns an array of all Project"
        }
      }
    },
    "title": "EocDonor ",
    "version": 1
  },
  "userdoc": {
    "kind": "user",
    "methods": {},
    "notice": "Contract to manage NPOs (= non profit organisations)",
    "version": 1
  }
}