{
  "contractName": "EocProject",
  "abi": [
    {
      "anonymous": false,
      "inputs": [
        {
          "indexed": false,
          "internalType": "uint256",
          "name": "_projectId",
          "type": "uint256"
        },
        {
          "indexed": false,
          "internalType": "string",
          "name": "_title",
          "type": "string"
        },
        {
          "indexed": false,
          "internalType": "uint256",
          "name": "_startDate",
          "type": "uint256"
        },
        {
          "indexed": false,
          "internalType": "uint256",
          "name": "_endDate",
          "type": "uint256"
        },
        {
          "indexed": false,
          "internalType": "uint256",
          "name": "_minAmount",
          "type": "uint256"
        },
        {
          "indexed": false,
          "internalType": "uint256",
          "name": "_maxAmount",
          "type": "uint256"
        }
      ],
      "name": "ProjectAdded",
      "type": "event"
    },
    {
      "inputs": [
        {
          "internalType": "string",
          "name": "_title",
          "type": "string"
        },
        {
          "internalType": "string",
          "name": "_description",
          "type": "string"
        },
        {
          "internalType": "string",
          "name": "_geographicalArea",
          "type": "string"
        },
        {
          "internalType": "uint256",
          "name": "_startDate",
          "type": "uint256"
        },
        {
          "internalType": "uint256",
          "name": "_endDate",
          "type": "uint256"
        },
        {
          "internalType": "uint256",
          "name": "_campaignStartDate",
          "type": "uint256"
        },
        {
          "internalType": "uint256",
          "name": "_campaignDurationInDays",
          "type": "uint256"
        },
        {
          "internalType": "uint256",
          "name": "_minAmount",
          "type": "uint256"
        },
        {
          "internalType": "uint256",
          "name": "_maxAmount",
          "type": "uint256"
        }
      ],
      "name": "addProject",
      "outputs": [],
      "stateMutability": "nonpayable",
      "type": "function"
    },
    {
      "inputs": [
        {
          "internalType": "uint256",
          "name": "_projectId",
          "type": "uint256"
        }
      ],
      "name": "getProject",
      "outputs": [
        {
          "components": [
            {
              "internalType": "uint256",
              "name": "projectId",
              "type": "uint256"
            },
            {
              "internalType": "uint256",
              "name": "startDate",
              "type": "uint256"
            },
            {
              "internalType": "uint256",
              "name": "endDate",
              "type": "uint256"
            },
            {
              "internalType": "uint256",
              "name": "campaignStartDate",
              "type": "uint256"
            },
            {
              "internalType": "uint256",
              "name": "campaignDurationInDays",
              "type": "uint256"
            },
            {
              "internalType": "uint256",
              "name": "minAmount",
              "type": "uint256"
            },
            {
              "internalType": "uint256",
              "name": "maxAmount",
              "type": "uint256"
            },
            {
              "internalType": "uint256",
              "name": "projectBalance",
              "type": "uint256"
            },
            {
              "internalType": "address",
              "name": "npoErc20Address",
              "type": "address"
            },
            {
              "internalType": "enum EocProject.ProjectCause",
              "name": "cause",
              "type": "uint8"
            },
            {
              "internalType": "string",
              "name": "title",
              "type": "string"
            },
            {
              "internalType": "string",
              "name": "description",
              "type": "string"
            },
            {
              "internalType": "string",
              "name": "geographicalArea",
              "type": "string"
            },
            {
              "internalType": "uint256[]",
              "name": "donationIds",
              "type": "uint256[]"
            },
            {
              "internalType": "uint256[]",
              "name": "withdrawalIds",
              "type": "uint256[]"
            }
          ],
          "internalType": "struct EocProject.Project",
          "name": "",
          "type": "tuple"
        }
      ],
      "stateMutability": "view",
      "type": "function"
    },
    {
      "inputs": [],
      "name": "getProjects",
      "outputs": [
        {
          "components": [
            {
              "internalType": "uint256",
              "name": "projectId",
              "type": "uint256"
            },
            {
              "internalType": "uint256",
              "name": "startDate",
              "type": "uint256"
            },
            {
              "internalType": "uint256",
              "name": "endDate",
              "type": "uint256"
            },
            {
              "internalType": "uint256",
              "name": "campaignStartDate",
              "type": "uint256"
            },
            {
              "internalType": "uint256",
              "name": "campaignDurationInDays",
              "type": "uint256"
            },
            {
              "internalType": "uint256",
              "name": "minAmount",
              "type": "uint256"
            },
            {
              "internalType": "uint256",
              "name": "maxAmount",
              "type": "uint256"
            },
            {
              "internalType": "uint256",
              "name": "projectBalance",
              "type": "uint256"
            },
            {
              "internalType": "address",
              "name": "npoErc20Address",
              "type": "address"
            },
            {
              "internalType": "enum EocProject.ProjectCause",
              "name": "cause",
              "type": "uint8"
            },
            {
              "internalType": "string",
              "name": "title",
              "type": "string"
            },
            {
              "internalType": "string",
              "name": "description",
              "type": "string"
            },
            {
              "internalType": "string",
              "name": "geographicalArea",
              "type": "string"
            },
            {
              "internalType": "uint256[]",
              "name": "donationIds",
              "type": "uint256[]"
            },
            {
              "internalType": "uint256[]",
              "name": "withdrawalIds",
              "type": "uint256[]"
            }
          ],
          "internalType": "struct EocProject.Project[]",
          "name": "",
          "type": "tuple[]"
        }
      ],
      "stateMutability": "view",
      "type": "function"
    }
  ],
  "bytecode": "0x608060405234801561001057600080fd5b50611cf0806100206000396000f3fe608060405234801561001057600080fd5b50600436106100415760003560e01c80631f1ffb1c14610046578063dcc6012814610062578063f0f3f2c814610080575b600080fd5b610060600480360381019061005b9190610eee565b6100b0565b005b61006a61049e565b604051610077919061142b565b60405180910390f35b61009a6004803603810190610095919061144d565b6108a9565b6040516100a791906115d9565b60405180910390f35b60008951116100f4576040517f08c379a00000000000000000000000000000000000000000000000000000000081526004016100eb90611658565b60405180910390fd5b6000885111610138576040517f08c379a000000000000000000000000000000000000000000000000000000000815260040161012f906116c4565b60405180910390fd5b6000861161017b576040517f08c379a000000000000000000000000000000000000000000000000000000000815260040161017290611756565b60405180910390fd5b600085116101be576040517f08c379a00000000000000000000000000000000000000000000000000000000081526004016101b5906117e8565b60405180910390fd5b60008211610201576040517f08c379a00000000000000000000000000000000000000000000000000000000081526004016101f890611854565b60405180910390fd5b60008111610244576040517f08c379a000000000000000000000000000000000000000000000000000000000815260040161023b906118c0565b60405180910390fd5b60008411610287576040517f08c379a000000000000000000000000000000000000000000000000000000000815260040161027e90611952565b60405180910390fd5b600083116102ca576040517f08c379a00000000000000000000000000000000000000000000000000000000081526004016102c1906119be565b60405180910390fd5b84861061030c576040517f08c379a000000000000000000000000000000000000000000000000000000000815260040161030390611a50565b60405180910390fd5b80821061034e576040517f08c379a000000000000000000000000000000000000000000000000000000000815260040161034590611ae2565b60405180910390fd5b6000806000600154815260200190815260200160002090506001548160000181905550338160080160006101000a81548173ffffffffffffffffffffffffffffffffffffffff021916908373ffffffffffffffffffffffffffffffffffffffff160217905550898160090190805190602001906103cc929190610c1d565b508881600a0190805190602001906103e5929190610c1d565b508781600b0190805190602001906103fe929190610c1d565b508681600101819055508581600201819055508481600301819055508381600401819055508281600501819055508181600601819055506001600081548092919061044890611b31565b91905055507ff9702874e260ae597ee7c3acbf77aad0ce01f26c14650d5afbc5b43a62b34af381600001548b8989878760405161048a96959493929190611bc2565b60405180910390a150505050505050505050565b60606000600154905060008167ffffffffffffffff8111156104c3576104c2610d8d565b5b6040519080825280602002602001820160405280156104fc57816020015b6104e9610ca3565b8152602001906001900390816104e15790505b50905060005b828110156108a057600080828152602001908152602001600020604051806101e001604052908160008201548152602001600182015481526020016002820154815260200160038201548152602001600482015481526020016005820154815260200160068201548152602001600782015481526020016008820160009054906101000a900473ffffffffffffffffffffffffffffffffffffffff1673ffffffffffffffffffffffffffffffffffffffff1673ffffffffffffffffffffffffffffffffffffffff1681526020016008820160149054906101000a900460ff1660068111156105f3576105f2611088565b5b600681111561060557610604611088565b5b815260200160098201805461061990611c59565b80601f016020809104026020016040519081016040528092919081815260200182805461064590611c59565b80156106925780601f1061066757610100808354040283529160200191610692565b820191906000526020600020905b81548152906001019060200180831161067557829003601f168201915b50505050508152602001600a820180546106ab90611c59565b80601f01602080910402602001604051908101604052809291908181526020018280546106d790611c59565b80156107245780601f106106f957610100808354040283529160200191610724565b820191906000526020600020905b81548152906001019060200180831161070757829003601f168201915b50505050508152602001600b8201805461073d90611c59565b80601f016020809104026020016040519081016040528092919081815260200182805461076990611c59565b80156107b65780601f1061078b576101008083540402835291602001916107b6565b820191906000526020600020905b81548152906001019060200180831161079957829003601f168201915b50505050508152602001600c820180548060200260200160405190810160405280929190818152602001828054801561080e57602002820191906000526020600020905b8154815260200190600101908083116107fa575b50505050508152602001600d820180548060200260200160405190810160405280929190818152602001828054801561086657602002820191906000526020600020905b815481526020019060010190808311610852575b50505050508152505082828151811061088257610881611c8b565b5b6020026020010181905250808061089890611b31565b915050610502565b50809250505090565b6108b1610ca3565b600080838152602001908152602001600020604051806101e001604052908160008201548152602001600182015481526020016002820154815260200160038201548152602001600482015481526020016005820154815260200160068201548152602001600782015481526020016008820160009054906101000a900473ffffffffffffffffffffffffffffffffffffffff1673ffffffffffffffffffffffffffffffffffffffff1673ffffffffffffffffffffffffffffffffffffffff1681526020016008820160149054906101000a900460ff16600681111561099a57610999611088565b5b60068111156109ac576109ab611088565b5b81526020016009820180546109c090611c59565b80601f01602080910402602001604051908101604052809291908181526020018280546109ec90611c59565b8015610a395780601f10610a0e57610100808354040283529160200191610a39565b820191906000526020600020905b815481529060010190602001808311610a1c57829003601f168201915b50505050508152602001600a82018054610a5290611c59565b80601f0160208091040260200160405190810160405280929190818152602001828054610a7e90611c59565b8015610acb5780601f10610aa057610100808354040283529160200191610acb565b820191906000526020600020905b815481529060010190602001808311610aae57829003601f168201915b50505050508152602001600b82018054610ae490611c59565b80601f0160208091040260200160405190810160405280929190818152602001828054610b1090611c59565b8015610b5d5780601f10610b3257610100808354040283529160200191610b5d565b820191906000526020600020905b815481529060010190602001808311610b4057829003601f168201915b50505050508152602001600c8201805480602002602001604051908101604052809291908181526020018280548015610bb557602002820191906000526020600020905b815481526020019060010190808311610ba1575b50505050508152602001600d8201805480602002602001604051908101604052809291908181526020018280548015610c0d57602002820191906000526020600020905b815481526020019060010190808311610bf9575b5050505050815250509050919050565b828054610c2990611c59565b90600052602060002090601f016020900481019282610c4b5760008555610c92565b82601f10610c6457805160ff1916838001178555610c92565b82800160010185558215610c92579182015b82811115610c91578251825591602001919060010190610c76565b5b509050610c9f9190610d41565b5090565b604051806101e001604052806000815260200160008152602001600081526020016000815260200160008152602001600081526020016000815260200160008152602001600073ffffffffffffffffffffffffffffffffffffffff16815260200160006006811115610d1857610d17611088565b5b815260200160608152602001606081526020016060815260200160608152602001606081525090565b5b80821115610d5a576000816000905550600101610d42565b5090565b6000604051905090565b600080fd5b600080fd5b600080fd5b600080fd5b6000601f19601f8301169050919050565b7f4e487b7100000000000000000000000000000000000000000000000000000000600052604160045260246000fd5b610dc582610d7c565b810181811067ffffffffffffffff82111715610de457610de3610d8d565b5b80604052505050565b6000610df7610d5e565b9050610e038282610dbc565b919050565b600067ffffffffffffffff821115610e2357610e22610d8d565b5b610e2c82610d7c565b9050602081019050919050565b82818337600083830152505050565b6000610e5b610e5684610e08565b610ded565b905082815260208101848484011115610e7757610e76610d77565b5b610e82848285610e39565b509392505050565b600082601f830112610e9f57610e9e610d72565b5b8135610eaf848260208601610e48565b91505092915050565b6000819050919050565b610ecb81610eb8565b8114610ed657600080fd5b50565b600081359050610ee881610ec2565b92915050565b60008060008060008060008060006101208a8c031215610f1157610f10610d68565b5b60008a013567ffffffffffffffff811115610f2f57610f2e610d6d565b5b610f3b8c828d01610e8a565b99505060208a013567ffffffffffffffff811115610f5c57610f5b610d6d565b5b610f688c828d01610e8a565b98505060408a013567ffffffffffffffff811115610f8957610f88610d6d565b5b610f958c828d01610e8a565b9750506060610fa68c828d01610ed9565b9650506080610fb78c828d01610ed9565b95505060a0610fc88c828d01610ed9565b94505060c0610fd98c828d01610ed9565b93505060e0610fea8c828d01610ed9565b925050610100610ffc8c828d01610ed9565b9150509295985092959850929598565b600081519050919050565b600082825260208201905092915050565b6000819050602082019050919050565b61104181610eb8565b82525050565b600073ffffffffffffffffffffffffffffffffffffffff82169050919050565b600061107282611047565b9050919050565b61108281611067565b82525050565b7f4e487b7100000000000000000000000000000000000000000000000000000000600052602160045260246000fd5b600781106110c8576110c7611088565b5b50565b60008190506110d9826110b7565b919050565b60006110e9826110cb565b9050919050565b6110f9816110de565b82525050565b600081519050919050565b600082825260208201905092915050565b60005b8381101561113957808201518184015260208101905061111e565b83811115611148576000848401525b50505050565b6000611159826110ff565b611163818561110a565b935061117381856020860161111b565b61117c81610d7c565b840191505092915050565b600081519050919050565b600082825260208201905092915050565b6000819050602082019050919050565b60006111bf8383611038565b60208301905092915050565b6000602082019050919050565b60006111e382611187565b6111ed8185611192565b93506111f8836111a3565b8060005b8381101561122957815161121088826111b3565b975061121b836111cb565b9250506001810190506111fc565b5085935050505092915050565b60006101e08301600083015161124f6000860182611038565b5060208301516112626020860182611038565b5060408301516112756040860182611038565b5060608301516112886060860182611038565b50608083015161129b6080860182611038565b5060a08301516112ae60a0860182611038565b5060c08301516112c160c0860182611038565b5060e08301516112d460e0860182611038565b506101008301516112e9610100860182611079565b506101208301516112fe6101208601826110f0565b50610140830151848203610140860152611318828261114e565b915050610160830151848203610160860152611334828261114e565b915050610180830151848203610180860152611350828261114e565b9150506101a08301518482036101a086015261136c82826111d8565b9150506101c08301518482036101c086015261138882826111d8565b9150508091505092915050565b60006113a18383611236565b905092915050565b6000602082019050919050565b60006113c18261100c565b6113cb8185611017565b9350836020820285016113dd85611028565b8060005b8581101561141957848403895281516113fa8582611395565b9450611405836113a9565b925060208a019950506001810190506113e1565b50829750879550505050505092915050565b6000602082019050818103600083015261144581846113b6565b905092915050565b60006020828403121561146357611462610d68565b5b600061147184828501610ed9565b91505092915050565b60006101e0830160008301516114936000860182611038565b5060208301516114a66020860182611038565b5060408301516114b96040860182611038565b5060608301516114cc6060860182611038565b5060808301516114df6080860182611038565b5060a08301516114f260a0860182611038565b5060c083015161150560c0860182611038565b5060e083015161151860e0860182611038565b5061010083015161152d610100860182611079565b506101208301516115426101208601826110f0565b5061014083015184820361014086015261155c828261114e565b915050610160830151848203610160860152611578828261114e565b915050610180830151848203610180860152611594828261114e565b9150506101a08301518482036101a08601526115b082826111d8565b9150506101c08301518482036101c08601526115cc82826111d8565b9150508091505092915050565b600060208201905081810360008301526115f3818461147a565b905092915050565b600082825260208201905092915050565b7f4c6520746974726520657374206f626c696761746f6972650000000000000000600082015250565b60006116426018836115fb565b915061164d8261160c565b602082019050919050565b6000602082019050818103600083015261167181611635565b9050919050565b7f4c61206465736372697074696f6e20657374206f626c696761746f6972650000600082015250565b60006116ae601e836115fb565b91506116b982611678565b602082019050919050565b600060208201905081810360008301526116dd816116a1565b9050919050565b7f446174652064652064c3a96275742064652070726f6a6574206f626c6967617460008201527f6f69726500000000000000000000000000000000000000000000000000000000602082015250565b60006117406024836115fb565b915061174b826116e4565b604082019050919050565b6000602082019050818103600083015261176f81611733565b9050919050565b7f446174652064652066696e2064652070726f6a6574206f626c696761746f697260008201527f6500000000000000000000000000000000000000000000000000000000000000602082015250565b60006117d26021836115fb565b91506117dd82611776565b604082019050919050565b60006020820190508181036000830152611801816117c5565b9050919050565b7f4d6f6e74616e74206d696e696d616c206f626c696761746f6972650000000000600082015250565b600061183e601b836115fb565b915061184982611808565b602082019050919050565b6000602082019050818103600083015261186d81611831565b9050919050565b7f4d6f6e74616e74206d6178696d616c206f626c696761746f6972650000000000600082015250565b60006118aa601b836115fb565b91506118b582611874565b602082019050919050565b600060208201905081810360008301526118d98161189d565b9050919050565b7f446174652064652064c3a96275742064652063616d7061676e65206f626c696760008201527f61746f6972650000000000000000000000000000000000000000000000000000602082015250565b600061193c6026836115fb565b9150611947826118e0565b604082019050919050565b6000602082019050818103600083015261196b8161192f565b9050919050565b7f447572c3a9652064652063616d7061676e65206f626c696761746f6972650000600082015250565b60006119a8601e836115fb565b91506119b382611972565b602082019050919050565b600060208201905081810360008301526119d78161199b565b9050919050565b7f4c6120646174652064c3a96275742064652070726f6a657420646f697420c3aa60008201527f747265206176616e74206c612066696e00000000000000000000000000000000602082015250565b6000611a3a6030836115fb565b9150611a45826119de565b604082019050919050565b60006020820190508181036000830152611a6981611a2d565b9050919050565b7f4c65206d6f6e74616e74206d696e696d616c20646f697420c3aa74726520696e60008201527f66c3a97269657572206175206d6f6e74616e74206d6178696d616c0000000000602082015250565b6000611acc603b836115fb565b9150611ad782611a70565b604082019050919050565b60006020820190508181036000830152611afb81611abf565b9050919050565b7f4e487b7100000000000000000000000000000000000000000000000000000000600052601160045260246000fd5b6000611b3c82610eb8565b91507fffffffffffffffffffffffffffffffffffffffffffffffffffffffffffffffff821415611b6f57611b6e611b02565b5b600182019050919050565b611b8381610eb8565b82525050565b6000611b94826110ff565b611b9e81856115fb565b9350611bae81856020860161111b565b611bb781610d7c565b840191505092915050565b600060c082019050611bd76000830189611b7a565b8181036020830152611be98188611b89565b9050611bf86040830187611b7a565b611c056060830186611b7a565b611c126080830185611b7a565b611c1f60a0830184611b7a565b979650505050505050565b7f4e487b7100000000000000000000000000000000000000000000000000000000600052602260045260246000fd5b60006002820490506001821680611c7157607f821691505b60208210811415611c8557611c84611c2a565b5b50919050565b7f4e487b7100000000000000000000000000000000000000000000000000000000600052603260045260246000fdfea2646970667358221220ebffb7485a2e71776c5f2e89c75fc6880ae79f8e94e891aad8b8852f144334f564736f6c634300080b0033",
  "immutableReferences": {},
  "source": "// SPDX-License-Identifier: MIT\r\npragma solidity 0.8.11;\r\n\r\nimport \"@openzeppelin/contracts/access/Ownable.sol\";\r\n\r\n/// @title EocDonor \r\n/// @author Lahcen E. Dev / Jrme Gauthier\r\n/// @notice Contract to manage NPOs (= non profit organisations)\r\ncontract EocProject  {\r\n    \r\n    struct Project {\r\n        uint projectId; // cl primaire\r\n        uint startDate;\r\n        uint endDate;\r\n        uint campaignStartDate;\r\n        uint campaignDurationInDays;\r\n        uint minAmount;\r\n        uint maxAmount;\r\n        uint projectBalance;\r\n        address npoErc20Address;\r\n        ProjectCause cause;\r\n        string title;\r\n        string description;\r\n        string geographicalArea;\r\n        uint[] donationIds;\r\n        uint[] withdrawalIds;\r\n    } \r\n\r\n    enum ProjectCause {\r\n        LutteContreLaPauvreteEtExclusion,\r\n        EnvironnementEtLesAnimaux,\r\n        Education,\r\n        ArtEtLaCulture,\r\n        SanteEtLaRecherche,\r\n        DroitsDeLHomme,\r\n        InfrastructureRoutiere\r\n    }\r\n\r\n    // Projects\r\n    mapping (uint => Project) projectMap;\r\n    uint projectCount;\r\n    \r\n    event ProjectAdded(uint _projectId, string _title, uint _startDate, uint _endDate, uint _minAmount, uint _maxAmount);\r\n\r\n    /// @dev This function will allow to add a project, the owner will be the one who calls the function. \r\n    /// @param _title The title of the project\r\n    /// @param _description description of the project\r\n    /// @param _geographicalArea the geographical area where the project will be located.\r\n    /// @param _startDate The start date of the project\r\n    /// @param _endDate The end of the project\r\n    /// @param _campaignStartDate the beginning of the collection of funds\r\n    /// @param _campaignDurationInDays the duration of the collection of funds\r\n    /// @param _minAmount The minimum price for the project to be valid\r\n    /// @param _maxAmount The maximum price to make the project a success \r\n    function addProject(\r\n        string memory _title,\r\n        string memory _description,\r\n        string memory _geographicalArea,\r\n        uint _startDate,\r\n        uint _endDate,\r\n        uint _campaignStartDate,\r\n        uint _campaignDurationInDays,\r\n        uint _minAmount,\r\n        uint _maxAmount\r\n    ) public {\r\n        //TODO j'ai du commenter les deux lignes suivante\r\n        //IEocNpo.NPO memory projectNpo = getNpo(msg.sender);\r\n        //require(bytes(projectNpo.denomination).length != 0, unicode\"Vous n'tes pas enregistr en tant que NPO\");\r\n        // Mandatory fields\r\n        require(bytes(_title).length > 0, \"Le titre est obligatoire\");\r\n        require(bytes(_description).length > 0, \"La description est obligatoire\");\r\n        require(_startDate > 0, unicode\"Date de dbut de projet obligatoire\");\r\n        require(_endDate > 0, \"Date de fin de projet obligatoire\");\r\n        require(_minAmount > 0, \"Montant minimal obligatoire\");\r\n        require(_maxAmount > 0, \"Montant maximal obligatoire\");\r\n        require(_campaignStartDate > 0, unicode\"Date de dbut de campagne obligatoire\");\r\n        require(_campaignDurationInDays > 0, unicode\"Dure de campagne obligatoire\");\r\n        // Comparisons\r\n        require(_startDate < _endDate, unicode\"La date dbut de projet doit tre avant la fin\");\r\n        require(_minAmount < _maxAmount, unicode\"Le montant minimal doit tre infrieur au montant maximal\");\r\n\r\n        Project storage newProject = projectMap[projectCount];\r\n        newProject.projectId = projectCount;\r\n        newProject.npoErc20Address = msg.sender;\r\n        newProject.title = _title;\r\n        // TODO = voir comment grer le Project Cause en fonction de son enum\r\n        newProject.description = _description;\r\n        newProject.geographicalArea = _geographicalArea;\r\n        newProject.startDate = _startDate;\r\n        newProject.endDate = _endDate;\r\n        newProject.campaignStartDate = _campaignStartDate;\r\n        newProject.campaignDurationInDays = _campaignDurationInDays;\r\n        newProject.minAmount = _minAmount;\r\n        newProject.maxAmount = _maxAmount;\r\n// TODO = create a new function into the future ProjectContract class\r\n//        projectNpo.projectIds.push(projectCount);\r\n\r\n        projectCount++;\r\n        emit ProjectAdded(newProject.projectId, _title,  _startDate, _endDate, _minAmount, _maxAmount);\r\n    } \r\n\r\n    /// @dev Returns a single Project\r\n    /// @param _projectId project unique id\r\n    /// @return the Project struct instance corresponding to _projectId\r\n    function getProject(uint _projectId) public view returns(Project memory) {\r\n        return projectMap[_projectId];\r\n    }\r\n\r\n    \r\n\r\n    /// @dev  get all projects\r\n    /// @return returns an array of all Project\r\n    function getProjects() public view returns(Project [] memory) {\r\n        uint arraySize = projectCount;\r\n        Project [] memory result = new Project[](arraySize);\r\n        for(uint i; i < arraySize; i++) {\r\n            result[i] = projectMap[i];\r\n        }\r\n        return result;\r\n    }\r\n\r\n}",
  "sourcePath": "C:\\Appli.crypto\\ethic-on-chain\\contracts\\EocProject.sol",
  "compiler": {
    "name": "solc",
    "version": "0.8.11+commit.d7f03943.Emscripten.clang"
  },
  "schemaVersion": "3.4.4",
  "updatedAt": "2022-01-11T16:35:12.208Z",
  "devdoc": {
    "author": "Lahcen E. Dev / Jrme Gauthier",
    "kind": "dev",
    "methods": {
      "addProject(string,string,string,uint256,uint256,uint256,uint256,uint256,uint256)": {
        "details": "This function will allow to add a project, the owner will be the one who calls the function. ",
        "params": {
          "_campaignDurationInDays": "the duration of the collection of funds",
          "_campaignStartDate": "the beginning of the collection of funds",
          "_description": "description of the project",
          "_endDate": "The end of the project",
          "_geographicalArea": "the geographical area where the project will be located.",
          "_maxAmount": "The maximum price to make the project a success ",
          "_minAmount": "The minimum price for the project to be valid",
          "_startDate": "The start date of the project",
          "_title": "The title of the project"
        }
      },
      "getProject(uint256)": {
        "details": "Returns a single Project",
        "params": {
          "_projectId": "project unique id"
        },
        "returns": {
          "_0": "the Project struct instance corresponding to _projectId"
        }
      },
      "getProjects()": {
        "details": "get all projects",
        "returns": {
          "_0": "returns an array of all Project"
        }
      }
    },
    "title": "EocDonor ",
    "version": 1
  },
  "userdoc": {
    "kind": "user",
    "methods": {},
    "notice": "Contract to manage NPOs (= non profit organisations)",
    "version": 1
  }
}