{
  "contractName": "EthicOnChain",
  "abi": [
    {
      "inputs": [
        {
          "internalType": "address",
          "name": "_eocTokenAddress",
          "type": "address"
        },
        {
          "internalType": "address",
          "name": "_npoContractAddress",
          "type": "address"
        }
      ],
      "stateMutability": "nonpayable",
      "type": "constructor"
    },
    {
      "anonymous": false,
      "inputs": [
        {
          "indexed": false,
          "internalType": "uint256",
          "name": "_donationId",
          "type": "uint256"
        },
        {
          "indexed": false,
          "internalType": "uint256",
          "name": "_projectId",
          "type": "uint256"
        },
        {
          "indexed": false,
          "internalType": "uint256",
          "name": "_donorId",
          "type": "uint256"
        },
        {
          "indexed": false,
          "internalType": "uint256",
          "name": "_donationDate",
          "type": "uint256"
        },
        {
          "indexed": false,
          "internalType": "uint256",
          "name": "donationAmount",
          "type": "uint256"
        }
      ],
      "name": "DonationAdded",
      "type": "event"
    },
    {
      "anonymous": false,
      "inputs": [
        {
          "indexed": false,
          "internalType": "uint256",
          "name": "_donorId",
          "type": "uint256"
        },
        {
          "indexed": false,
          "internalType": "address",
          "name": "_donorErc20Address",
          "type": "address"
        },
        {
          "indexed": false,
          "internalType": "string",
          "name": "_donorName",
          "type": "string"
        }
      ],
      "name": "DonorAdded",
      "type": "event"
    },
    {
      "anonymous": false,
      "inputs": [
        {
          "indexed": false,
          "internalType": "uint256",
          "name": "_poId",
          "type": "uint256"
        },
        {
          "indexed": false,
          "internalType": "address",
          "name": "_npoErc20Address",
          "type": "address"
        },
        {
          "indexed": false,
          "internalType": "string",
          "name": "_denomination",
          "type": "string"
        }
      ],
      "name": "NpoAdded",
      "type": "event"
    },
    {
      "anonymous": false,
      "inputs": [
        {
          "indexed": true,
          "internalType": "address",
          "name": "previousOwner",
          "type": "address"
        },
        {
          "indexed": true,
          "internalType": "address",
          "name": "newOwner",
          "type": "address"
        }
      ],
      "name": "OwnershipTransferred",
      "type": "event"
    },
    {
      "anonymous": false,
      "inputs": [
        {
          "indexed": false,
          "internalType": "uint256",
          "name": "_projectId",
          "type": "uint256"
        },
        {
          "indexed": false,
          "internalType": "string",
          "name": "_title",
          "type": "string"
        },
        {
          "indexed": false,
          "internalType": "uint256",
          "name": "_startDate",
          "type": "uint256"
        },
        {
          "indexed": false,
          "internalType": "uint256",
          "name": "_endDate",
          "type": "uint256"
        },
        {
          "indexed": false,
          "internalType": "uint256",
          "name": "_minAmount",
          "type": "uint256"
        },
        {
          "indexed": false,
          "internalType": "uint256",
          "name": "_maxAmount",
          "type": "uint256"
        }
      ],
      "name": "ProjectAdded",
      "type": "event"
    },
    {
      "anonymous": false,
      "inputs": [
        {
          "indexed": false,
          "internalType": "uint256",
          "name": "_withdrawalId",
          "type": "uint256"
        },
        {
          "indexed": false,
          "internalType": "uint256",
          "name": "_projectId",
          "type": "uint256"
        },
        {
          "indexed": false,
          "internalType": "uint256",
          "name": "_amount",
          "type": "uint256"
        },
        {
          "indexed": false,
          "internalType": "address",
          "name": "_addressRecipent",
          "type": "address"
        }
      ],
      "name": "WithdrawalAdded",
      "type": "event"
    },
    {
      "inputs": [
        {
          "internalType": "address",
          "name": "",
          "type": "address"
        }
      ],
      "name": "donorAddresses",
      "outputs": [
        {
          "internalType": "uint256",
          "name": "donorId",
          "type": "uint256"
        },
        {
          "internalType": "address",
          "name": "donorErc20Address",
          "type": "address"
        },
        {
          "internalType": "string",
          "name": "name",
          "type": "string"
        },
        {
          "internalType": "string",
          "name": "surName",
          "type": "string"
        },
        {
          "internalType": "string",
          "name": "postalAddress",
          "type": "string"
        }
      ],
      "stateMutability": "view",
      "type": "function"
    },
    {
      "inputs": [],
      "name": "owner",
      "outputs": [
        {
          "internalType": "address",
          "name": "",
          "type": "address"
        }
      ],
      "stateMutability": "view",
      "type": "function"
    },
    {
      "inputs": [],
      "name": "renounceOwnership",
      "outputs": [],
      "stateMutability": "nonpayable",
      "type": "function"
    },
    {
      "inputs": [
        {
          "internalType": "address",
          "name": "newOwner",
          "type": "address"
        }
      ],
      "name": "transferOwnership",
      "outputs": [],
      "stateMutability": "nonpayable",
      "type": "function"
    },
    {
      "inputs": [
        {
          "internalType": "address",
          "name": "_npoErc20Address",
          "type": "address"
        },
        {
          "internalType": "string",
          "name": "_denomination",
          "type": "string"
        },
        {
          "internalType": "string",
          "name": "_postalAddress",
          "type": "string"
        },
        {
          "internalType": "string",
          "name": "_object",
          "type": "string"
        },
        {
          "internalType": "string",
          "name": "_npoType",
          "type": "string"
        }
      ],
      "name": "addNpo",
      "outputs": [],
      "stateMutability": "nonpayable",
      "type": "function"
    },
    {
      "inputs": [
        {
          "internalType": "address",
          "name": "_npoErc20Address",
          "type": "address"
        }
      ],
      "name": "getNpo",
      "outputs": [
        {
          "components": [
            {
              "internalType": "uint256",
              "name": "npoId",
              "type": "uint256"
            },
            {
              "internalType": "address",
              "name": "npoErc20Address",
              "type": "address"
            },
            {
              "internalType": "string",
              "name": "denomination",
              "type": "string"
            },
            {
              "internalType": "string",
              "name": "postalAddress",
              "type": "string"
            },
            {
              "internalType": "string",
              "name": "object",
              "type": "string"
            },
            {
              "internalType": "string",
              "name": "npoType",
              "type": "string"
            },
            {
              "internalType": "uint256[]",
              "name": "projectIds",
              "type": "uint256[]"
            },
            {
              "internalType": "uint256[]",
              "name": "withdrawalIds",
              "type": "uint256[]"
            }
          ],
          "internalType": "struct IEocNpo.NPO",
          "name": "",
          "type": "tuple"
        }
      ],
      "stateMutability": "view",
      "type": "function"
    },
    {
      "inputs": [],
      "name": "getNpos",
      "outputs": [
        {
          "components": [
            {
              "internalType": "uint256",
              "name": "npoId",
              "type": "uint256"
            },
            {
              "internalType": "address",
              "name": "npoErc20Address",
              "type": "address"
            },
            {
              "internalType": "string",
              "name": "denomination",
              "type": "string"
            },
            {
              "internalType": "string",
              "name": "postalAddress",
              "type": "string"
            },
            {
              "internalType": "string",
              "name": "object",
              "type": "string"
            },
            {
              "internalType": "string",
              "name": "npoType",
              "type": "string"
            },
            {
              "internalType": "uint256[]",
              "name": "projectIds",
              "type": "uint256[]"
            },
            {
              "internalType": "uint256[]",
              "name": "withdrawalIds",
              "type": "uint256[]"
            }
          ],
          "internalType": "struct IEocNpo.NPO[]",
          "name": "",
          "type": "tuple[]"
        }
      ],
      "stateMutability": "view",
      "type": "function"
    },
    {
      "inputs": [
        {
          "internalType": "address",
          "name": "_donorErc20Address",
          "type": "address"
        },
        {
          "internalType": "string",
          "name": "_name",
          "type": "string"
        },
        {
          "internalType": "string",
          "name": "_surName",
          "type": "string"
        },
        {
          "internalType": "string",
          "name": "_postalAddress",
          "type": "string"
        }
      ],
      "name": "addDonor",
      "outputs": [],
      "stateMutability": "nonpayable",
      "type": "function"
    },
    {
      "inputs": [
        {
          "internalType": "string",
          "name": "_title",
          "type": "string"
        },
        {
          "internalType": "string",
          "name": "_description",
          "type": "string"
        },
        {
          "internalType": "string",
          "name": "_geographicalArea",
          "type": "string"
        },
        {
          "internalType": "uint256",
          "name": "_startDate",
          "type": "uint256"
        },
        {
          "internalType": "uint256",
          "name": "_endDate",
          "type": "uint256"
        },
        {
          "internalType": "uint256",
          "name": "_campaignStartDate",
          "type": "uint256"
        },
        {
          "internalType": "uint256",
          "name": "_campaignDurationInDays",
          "type": "uint256"
        },
        {
          "internalType": "uint256",
          "name": "_minAmount",
          "type": "uint256"
        },
        {
          "internalType": "uint256",
          "name": "_maxAmount",
          "type": "uint256"
        }
      ],
      "name": "addProject",
      "outputs": [],
      "stateMutability": "nonpayable",
      "type": "function"
    },
    {
      "inputs": [
        {
          "internalType": "uint256",
          "name": "_projectId",
          "type": "uint256"
        },
        {
          "internalType": "uint256",
          "name": "_donationAmount",
          "type": "uint256"
        }
      ],
      "name": "addDonation",
      "outputs": [],
      "stateMutability": "nonpayable",
      "type": "function"
    },
    {
      "inputs": [
        {
          "internalType": "uint256",
          "name": "_projectId",
          "type": "uint256"
        },
        {
          "internalType": "uint256",
          "name": "_amount",
          "type": "uint256"
        },
        {
          "internalType": "string",
          "name": "_title",
          "type": "string"
        },
        {
          "internalType": "string",
          "name": "_description",
          "type": "string"
        }
      ],
      "name": "withdrawTokens",
      "outputs": [],
      "stateMutability": "nonpayable",
      "type": "function"
    },
    {
      "inputs": [
        {
          "internalType": "address",
          "name": "_donorErc20Address",
          "type": "address"
        }
      ],
      "name": "getDonor",
      "outputs": [
        {
          "components": [
            {
              "internalType": "uint256",
              "name": "donorId",
              "type": "uint256"
            },
            {
              "internalType": "address",
              "name": "donorErc20Address",
              "type": "address"
            },
            {
              "internalType": "string",
              "name": "name",
              "type": "string"
            },
            {
              "internalType": "string",
              "name": "surName",
              "type": "string"
            },
            {
              "internalType": "string",
              "name": "postalAddress",
              "type": "string"
            },
            {
              "internalType": "uint256[]",
              "name": "donationIds",
              "type": "uint256[]"
            }
          ],
          "internalType": "struct EthicOnChainLib.Donor",
          "name": "",
          "type": "tuple"
        }
      ],
      "stateMutability": "view",
      "type": "function"
    },
    {
      "inputs": [],
      "name": "getDonors",
      "outputs": [
        {
          "components": [
            {
              "internalType": "uint256",
              "name": "donorId",
              "type": "uint256"
            },
            {
              "internalType": "address",
              "name": "donorErc20Address",
              "type": "address"
            },
            {
              "internalType": "string",
              "name": "name",
              "type": "string"
            },
            {
              "internalType": "string",
              "name": "surName",
              "type": "string"
            },
            {
              "internalType": "string",
              "name": "postalAddress",
              "type": "string"
            },
            {
              "internalType": "uint256[]",
              "name": "donationIds",
              "type": "uint256[]"
            }
          ],
          "internalType": "struct EthicOnChainLib.Donor[]",
          "name": "",
          "type": "tuple[]"
        }
      ],
      "stateMutability": "view",
      "type": "function"
    },
    {
      "inputs": [
        {
          "internalType": "uint256",
          "name": "_projectId",
          "type": "uint256"
        }
      ],
      "name": "getProject",
      "outputs": [
        {
          "components": [
            {
              "internalType": "uint256",
              "name": "projectId",
              "type": "uint256"
            },
            {
              "internalType": "uint256",
              "name": "startDate",
              "type": "uint256"
            },
            {
              "internalType": "uint256",
              "name": "endDate",
              "type": "uint256"
            },
            {
              "internalType": "uint256",
              "name": "campaignStartDate",
              "type": "uint256"
            },
            {
              "internalType": "uint256",
              "name": "campaignDurationInDays",
              "type": "uint256"
            },
            {
              "internalType": "uint256",
              "name": "minAmount",
              "type": "uint256"
            },
            {
              "internalType": "uint256",
              "name": "maxAmount",
              "type": "uint256"
            },
            {
              "internalType": "uint256",
              "name": "projectBalance",
              "type": "uint256"
            },
            {
              "internalType": "address",
              "name": "npoErc20Address",
              "type": "address"
            },
            {
              "internalType": "enum EthicOnChainLib.ProjectCause",
              "name": "cause",
              "type": "uint8"
            },
            {
              "internalType": "string",
              "name": "title",
              "type": "string"
            },
            {
              "internalType": "string",
              "name": "description",
              "type": "string"
            },
            {
              "internalType": "string",
              "name": "geographicalArea",
              "type": "string"
            },
            {
              "internalType": "uint256[]",
              "name": "donationIds",
              "type": "uint256[]"
            },
            {
              "internalType": "uint256[]",
              "name": "withdrawalIds",
              "type": "uint256[]"
            }
          ],
          "internalType": "struct EthicOnChainLib.Project",
          "name": "",
          "type": "tuple"
        }
      ],
      "stateMutability": "view",
      "type": "function"
    },
    {
      "inputs": [],
      "name": "getProjects",
      "outputs": [
        {
          "components": [
            {
              "internalType": "uint256",
              "name": "projectId",
              "type": "uint256"
            },
            {
              "internalType": "uint256",
              "name": "startDate",
              "type": "uint256"
            },
            {
              "internalType": "uint256",
              "name": "endDate",
              "type": "uint256"
            },
            {
              "internalType": "uint256",
              "name": "campaignStartDate",
              "type": "uint256"
            },
            {
              "internalType": "uint256",
              "name": "campaignDurationInDays",
              "type": "uint256"
            },
            {
              "internalType": "uint256",
              "name": "minAmount",
              "type": "uint256"
            },
            {
              "internalType": "uint256",
              "name": "maxAmount",
              "type": "uint256"
            },
            {
              "internalType": "uint256",
              "name": "projectBalance",
              "type": "uint256"
            },
            {
              "internalType": "address",
              "name": "npoErc20Address",
              "type": "address"
            },
            {
              "internalType": "enum EthicOnChainLib.ProjectCause",
              "name": "cause",
              "type": "uint8"
            },
            {
              "internalType": "string",
              "name": "title",
              "type": "string"
            },
            {
              "internalType": "string",
              "name": "description",
              "type": "string"
            },
            {
              "internalType": "string",
              "name": "geographicalArea",
              "type": "string"
            },
            {
              "internalType": "uint256[]",
              "name": "donationIds",
              "type": "uint256[]"
            },
            {
              "internalType": "uint256[]",
              "name": "withdrawalIds",
              "type": "uint256[]"
            }
          ],
          "internalType": "struct EthicOnChainLib.Project[]",
          "name": "",
          "type": "tuple[]"
        }
      ],
      "stateMutability": "view",
      "type": "function"
    },
    {
      "inputs": [
        {
          "internalType": "uint256",
          "name": "_id",
          "type": "uint256"
        }
      ],
      "name": "getDonation",
      "outputs": [
        {
          "components": [
            {
              "internalType": "uint256",
              "name": "donationId",
              "type": "uint256"
            },
            {
              "internalType": "uint256",
              "name": "projectId",
              "type": "uint256"
            },
            {
              "internalType": "uint256",
              "name": "donorId",
              "type": "uint256"
            },
            {
              "internalType": "uint256",
              "name": "donationDate",
              "type": "uint256"
            },
            {
              "internalType": "uint256",
              "name": "donationAmount",
              "type": "uint256"
            }
          ],
          "internalType": "struct EthicOnChainLib.Donation",
          "name": "",
          "type": "tuple"
        }
      ],
      "stateMutability": "view",
      "type": "function"
    },
    {
      "inputs": [
        {
          "internalType": "address",
          "name": "_addressNpo",
          "type": "address"
        }
      ],
      "name": "getDonationPerDonor",
      "outputs": [
        {
          "components": [
            {
              "internalType": "uint256",
              "name": "donationId",
              "type": "uint256"
            },
            {
              "internalType": "uint256",
              "name": "projectId",
              "type": "uint256"
            },
            {
              "internalType": "uint256",
              "name": "donorId",
              "type": "uint256"
            },
            {
              "internalType": "uint256",
              "name": "donationDate",
              "type": "uint256"
            },
            {
              "internalType": "uint256",
              "name": "donationAmount",
              "type": "uint256"
            }
          ],
          "internalType": "struct EthicOnChainLib.Donation[]",
          "name": "",
          "type": "tuple[]"
        }
      ],
      "stateMutability": "view",
      "type": "function"
    },
    {
      "inputs": [
        {
          "internalType": "uint256",
          "name": "_id",
          "type": "uint256"
        }
      ],
      "name": "getWithdrawal",
      "outputs": [
        {
          "components": [
            {
              "internalType": "uint256",
              "name": "withdrawalId",
              "type": "uint256"
            },
            {
              "internalType": "uint256",
              "name": "projectId",
              "type": "uint256"
            },
            {
              "internalType": "uint256",
              "name": "amount",
              "type": "uint256"
            },
            {
              "internalType": "uint256",
              "name": "withdrawalDate",
              "type": "uint256"
            },
            {
              "internalType": "string",
              "name": "title",
              "type": "string"
            },
            {
              "internalType": "string",
              "name": "description",
              "type": "string"
            }
          ],
          "internalType": "struct EthicOnChainLib.Withdrawal",
          "name": "",
          "type": "tuple"
        }
      ],
      "stateMutability": "view",
      "type": "function"
    }
  ],
  "bytecode": "0x60806040523480156200001157600080fd5b506040516200522738038062005227833981810160405281019062000037919062000217565b620000576200004b620000e160201b60201c565b620000e960201b60201c565b81600a60006101000a81548173ffffffffffffffffffffffffffffffffffffffff021916908373ffffffffffffffffffffffffffffffffffffffff16021790555080600b60006101000a81548173ffffffffffffffffffffffffffffffffffffffff021916908373ffffffffffffffffffffffffffffffffffffffff16021790555050506200025e565b600033905090565b60008060009054906101000a900473ffffffffffffffffffffffffffffffffffffffff169050816000806101000a81548173ffffffffffffffffffffffffffffffffffffffff021916908373ffffffffffffffffffffffffffffffffffffffff1602179055508173ffffffffffffffffffffffffffffffffffffffff168173ffffffffffffffffffffffffffffffffffffffff167f8be0079c531659141344cd1fd0a4f28419497f9722a3daafe3b4186f6b6457e060405160405180910390a35050565b600080fd5b600073ffffffffffffffffffffffffffffffffffffffff82169050919050565b6000620001df82620001b2565b9050919050565b620001f181620001d2565b8114620001fd57600080fd5b50565b6000815190506200021181620001e6565b92915050565b60008060408385031215620002315762000230620001ad565b5b6000620002418582860162000200565b9250506020620002548582860162000200565b9150509250929050565b614fb9806200026e6000396000f3fe608060405234801561001057600080fd5b50600436106101165760003560e01c806396c59043116100a2578063dcc6012811610071578063dcc60128146102cf578063ef07a81f146102ed578063f0f3f2c81461031d578063f2fde38b1461034d578063ff6d56ef1461036957610116565b806396c590431461023557806396f300d414610265578063a90f733314610283578063d87ffb70146102b357610116565b8063678f04cc116100e9578063678f04cc146101a3578063715018a6146101bf5780637d1887f8146101c95780638a4fb16a146101e75780638da5cb5b1461021757610116565b806319ccf9ed1461011b5780631f1ffb1c146101375780633f9754c91461015357806362e13e7d1461016f575b600080fd5b610135600480360381019061013091906120ef565b610399565b005b610151600480360381019061014c91906121e0565b6106e3565b005b61016d600480360381019061016891906122fe565b610b29565b005b610189600480360381019061018491906123e9565b610c41565b60405161019a9594939291906124bc565b60405180910390f35b6101bd60048036038101906101b89190612524565b610e2f565b005b6101c7611189565b005b6101d1611211565b6040516101de919061286f565b60405180910390f35b61020160048036038101906101fc9190612891565b6112ae565b60405161020e919061294e565b60405180910390f35b61021f61133d565b60405161022c9190612970565b60405180910390f35b61024f600480360381019061024a91906123e9565b611366565b60405161025c9190612a29565b60405180910390f35b61026d6113f5565b60405161027a9190612bab565b60405180910390f35b61029d600480360381019061029891906123e9565b611481565b6040516102aa9190612ce4565b60405180910390f35b6102cd60048036038101906102c89190612d06565b61150d565b005b6102d76118d4565b6040516102e49190612fde565b60405180910390f35b61030760048036038101906103029190612891565b61195d565b6040516103149190613068565b60405180910390f35b61033760048036038101906103329190612891565b6119e7565b60405161034491906131e2565b60405180910390f35b610367600480360381019061036291906123e9565b611a76565b005b610383600480360381019061037e91906123e9565b611b6e565b60405161039091906132d7565b60405180910390f35b6103a1611c1e565b73ffffffffffffffffffffffffffffffffffffffff166103bf61133d565b73ffffffffffffffffffffffffffffffffffffffff1614610415576040517f08c379a000000000000000000000000000000000000000000000000000000000815260040161040c90613345565b60405180910390fd5b600073ffffffffffffffffffffffffffffffffffffffff168473ffffffffffffffffffffffffffffffffffffffff1611610484576040517f08c379a000000000000000000000000000000000000000000000000000000000815260040161047b906133d7565b60405180910390fd5b600073ffffffffffffffffffffffffffffffffffffffff16600160008673ffffffffffffffffffffffffffffffffffffffff1673ffffffffffffffffffffffffffffffffffffffff16815260200190815260200160002060010160009054906101000a900473ffffffffffffffffffffffffffffffffffffffff1673ffffffffffffffffffffffffffffffffffffffff1614610555576040517f08c379a000000000000000000000000000000000000000000000000000000000815260040161054c90613443565b60405180910390fd5b6000600160008673ffffffffffffffffffffffffffffffffffffffff1673ffffffffffffffffffffffffffffffffffffffff16815260200190815260200160002090506003548160000181905550838160020190805190602001906105bb929190611cea565b50828160030190805190602001906105d4929190611cea565b50848160010160006101000a81548173ffffffffffffffffffffffffffffffffffffffff021916908373ffffffffffffffffffffffffffffffffffffffff16021790555081816004019080519060200190610630929190611cea565b508460026000600354815260200190815260200160002060006101000a81548173ffffffffffffffffffffffffffffffffffffffff021916908373ffffffffffffffffffffffffffffffffffffffff1602179055506003600081548092919061069890613492565b91905055507ff1a73eeb2b4ddced9fb956e389a13618a37205f30bf1694dbf5ba71b1bbfc25c816000015486866040516106d4939291906134db565b60405180910390a15050505050565b60006106ee33611b6e565b905060008160400151511415610739576040517f08c379a00000000000000000000000000000000000000000000000000000000081526004016107309061358b565b60405180910390fd5b60008a511161077d576040517f08c379a0000000000000000000000000000000000000000000000000000000008152600401610774906135f7565b60405180910390fd5b60008951116107c1576040517f08c379a00000000000000000000000000000000000000000000000000000000081526004016107b890613663565b60405180910390fd5b60008711610804576040517f08c379a00000000000000000000000000000000000000000000000000000000081526004016107fb906136f5565b60405180910390fd5b60008611610847576040517f08c379a000000000000000000000000000000000000000000000000000000000815260040161083e90613787565b60405180910390fd5b6000831161088a576040517f08c379a0000000000000000000000000000000000000000000000000000000008152600401610881906137f3565b60405180910390fd5b600082116108cd576040517f08c379a00000000000000000000000000000000000000000000000000000000081526004016108c49061385f565b60405180910390fd5b60008511610910576040517f08c379a0000000000000000000000000000000000000000000000000000000008152600401610907906138f1565b60405180910390fd5b60008411610953576040517f08c379a000000000000000000000000000000000000000000000000000000000815260040161094a9061395d565b60405180910390fd5b858710610995576040517f08c379a000000000000000000000000000000000000000000000000000000000815260040161098c906139ef565b60405180910390fd5b8183106109d7576040517f08c379a00000000000000000000000000000000000000000000000000000000081526004016109ce90613a81565b60405180910390fd5b600060046000600554815260200190815260200160002090506005548160000181905550338160080160006101000a81548173ffffffffffffffffffffffffffffffffffffffff021916908373ffffffffffffffffffffffffffffffffffffffff1602179055508a816009019080519060200190610a56929190611cea565b508981600a019080519060200190610a6f929190611cea565b508881600b019080519060200190610a88929190611cea565b5087816001018190555086816002018190555085816003018190555084816004018190555083816005018190555082816006018190555060056000815480929190610ad290613492565b91905055507ff9702874e260ae597ee7c3acbf77aad0ce01f26c14650d5afbc5b43a62b34af381600001548c8a8a8888604051610b1496959493929190613aa1565b60405180910390a15050505050505050505050565b610b31611c1e565b73ffffffffffffffffffffffffffffffffffffffff16610b4f61133d565b73ffffffffffffffffffffffffffffffffffffffff1614610ba5576040517f08c379a0000000000000000000000000000000000000000000000000000000008152600401610b9c90613345565b60405180910390fd5b600b60009054906101000a900473ffffffffffffffffffffffffffffffffffffffff1673ffffffffffffffffffffffffffffffffffffffff16633f9754c986868686866040518663ffffffff1660e01b8152600401610c08959493929190613b09565b600060405180830381600087803b158015610c2257600080fd5b505af1158015610c36573d6000803e3d6000fd5b505050505050505050565b60016020528060005260406000206000915090508060000154908060010160009054906101000a900473ffffffffffffffffffffffffffffffffffffffff1690806002018054610c9090613ba7565b80601f0160208091040260200160405190810160405280929190818152602001828054610cbc90613ba7565b8015610d095780601f10610cde57610100808354040283529160200191610d09565b820191906000526020600020905b815481529060010190602001808311610cec57829003601f168201915b505050505090806003018054610d1e90613ba7565b80601f0160208091040260200160405190810160405280929190818152602001828054610d4a90613ba7565b8015610d975780601f10610d6c57610100808354040283529160200191610d97565b820191906000526020600020905b815481529060010190602001808311610d7a57829003601f168201915b505050505090806004018054610dac90613ba7565b80601f0160208091040260200160405190810160405280929190818152602001828054610dd890613ba7565b8015610e255780601f10610dfa57610100808354040283529160200191610e25565b820191906000526020600020905b815481529060010190602001808311610e0857829003601f168201915b5050505050905085565b6000610e3a33611b6e565b905060008160400151511415610e85576040517f08c379a0000000000000000000000000000000000000000000000000000000008152600401610e7c9061358b565b60405180910390fd5b6000600460008781526020019081526020016000206009018054610ea890613ba7565b90501415610eeb576040517f08c379a0000000000000000000000000000000000000000000000000000000008152600401610ee290613c25565b60405180910390fd5b60006004600087815260200190815260200160002060070154905084811015610f49576040517f08c379a0000000000000000000000000000000000000000000000000000000008152600401610f4090613c91565b60405180910390fd5b60046000878152602001908152602001600020600301544211610fa1576040517f08c379a0000000000000000000000000000000000000000000000000000000008152600401610f9890613cfd565b60405180910390fd5b60006008600060095481526020019081526020016000209050600954816000018190555086816001018190555084816004019080519060200190610fe6929190611cea565b5085816002018190555042816003018190555083816005019080519060200190611011929190611cea565b50856004600089815260200190815260200160002060070160008282546110389190613d1d565b9250508190555060046000888152602001908152602001600020600d0160095490806001815401808255809150506001900390600052602060002001600090919091909150556009600081548092919061109190613492565b9190505550600a60009054906101000a900473ffffffffffffffffffffffffffffffffffffffff1673ffffffffffffffffffffffffffffffffffffffff1663a9059cbb33886040518363ffffffff1660e01b81526004016110f3929190613d51565b6020604051808303816000875af1158015611112573d6000803e3d6000fd5b505050506040513d601f19601f820116820180604052508101906111369190613db2565b507f38b2ce41ee33d013c6288339b87fd2c9f7af7d6881611651dbb6c2ba145d71d7816000015482600101548360020154336040516111789493929190613ddf565b60405180910390a150505050505050565b611191611c1e565b73ffffffffffffffffffffffffffffffffffffffff166111af61133d565b73ffffffffffffffffffffffffffffffffffffffff1614611205576040517f08c379a00000000000000000000000000000000000000000000000000000000081526004016111fc90613345565b60405180910390fd5b61120f6000611c26565b565b6060600b60009054906101000a900473ffffffffffffffffffffffffffffffffffffffff1673ffffffffffffffffffffffffffffffffffffffff16637d1887f86040518163ffffffff1660e01b8152600401600060405180830381865afa158015611280573d6000803e3d6000fd5b505050506040513d6000823e3d601f19601f820116820180604052508101906112a991906141e3565b905090565b6112b6611d70565b73__EthicOnChainLib_______________________635454999f6008846040518363ffffffff1660e01b81526004016112f0929190614242565b600060405180830381865af415801561130d573d6000803e3d6000fd5b505050506040513d6000823e3d601f19601f820116820180604052508101906113369190614343565b9050919050565b60008060009054906101000a900473ffffffffffffffffffffffffffffffffffffffff16905090565b61136e611da6565b73__EthicOnChainLib_______________________6357ee7aae6001846040518363ffffffff1660e01b81526004016113a89291906143a2565b600060405180830381865af41580156113c5573d6000803e3d6000fd5b505050506040513d6000823e3d601f19601f820116820180604052508101906113ee91906144db565b9050919050565b606073__EthicOnChainLib_______________________638d85a169600160026003546040518463ffffffff1660e01b81526004016114369392919061452b565b600060405180830381865af4158015611453573d6000803e3d6000fd5b505050506040513d6000823e3d601f19601f8201168201806040525081019061147c9190614643565b905090565b606073__EthicOnChainLib_______________________6381e9c89b60016006856040518463ffffffff1660e01b81526004016114c093929190614693565b600060405180830381865af41580156114dd573d6000803e3d6000fd5b505050506040513d6000823e3d601f19601f820116820180604052508101906115069190614819565b9050919050565b6000600160003373ffffffffffffffffffffffffffffffffffffffff1673ffffffffffffffffffffffffffffffffffffffff1681526020019081526020016000209050600073ffffffffffffffffffffffffffffffffffffffff168160010160009054906101000a900473ffffffffffffffffffffffffffffffffffffffff1673ffffffffffffffffffffffffffffffffffffffff1614156115e4576040517f08c379a00000000000000000000000000000000000000000000000000000000081526004016115db906148d4565b60405180910390fd5b6000600460008581526020019081526020016000209050600081600901805461160c90613ba7565b9050141561164f576040517f08c379a000000000000000000000000000000000000000000000000000000000815260040161164690613c25565b60405180910390fd5b600062015180826004015461166491906148f4565b8260030154611673919061494e565b9050816003015442116116bb576040517f08c379a00000000000000000000000000000000000000000000000000000000081526004016116b290613cfd565b60405180910390fd5b8042106116fd576040517f08c379a00000000000000000000000000000000000000000000000000000000081526004016116f4906149f0565b60405180910390fd5b600060066000600754815260200190815260200160002090506007548160000181905550858160010181905550836000015481600201819055504281600301819055508481600401819055508360050160075490806001815401808255809150506001900390600052602060002001600090919091909150558483600701600082825461178a919061494e565b9250508190555082600c016007549080600181540180825580915050600190039060005260206000200160009091909190915055600760008154809291906117d190613492565b9190505550600a60009054906101000a900473ffffffffffffffffffffffffffffffffffffffff1673ffffffffffffffffffffffffffffffffffffffff166323b872dd3330886040518463ffffffff1660e01b815260040161183593929190614a10565b6020604051808303816000875af1158015611854573d6000803e3d6000fd5b505050506040513d601f19601f820116820180604052508101906118789190613db2565b507f5b01b3cbb79f6d6de617795637d44cf4ec173dab689fb0804ab8dbbd88f4302b816000015482600101548360020154846003015485600401546040516118c4959493929190614a47565b60405180910390a1505050505050565b606073__EthicOnChainLib_______________________6388439ce460046005546040518363ffffffff1660e01b8152600401611912929190614aa1565b600060405180830381865af415801561192f573d6000803e3d6000fd5b505050506040513d6000823e3d601f19601f820116820180604052508101906119589190614dc0565b905090565b611965611df2565b73__EthicOnChainLib_______________________63599ed5916006846040518363ffffffff1660e01b815260040161199f929190614e09565b60a060405180830381865af41580156119bc573d6000803e3d6000fd5b505050506040513d601f19601f820116820180604052508101906119e09190614e32565b9050919050565b6119ef611e21565b73__EthicOnChainLib_______________________637f9824d06004846040518363ffffffff1660e01b8152600401611a29929190614aa1565b600060405180830381865af4158015611a46573d6000803e3d6000fd5b505050506040513d6000823e3d601f19601f82011682018060405250810190611a6f9190614e5f565b9050919050565b611a7e611c1e565b73ffffffffffffffffffffffffffffffffffffffff16611a9c61133d565b73ffffffffffffffffffffffffffffffffffffffff1614611af2576040517f08c379a0000000000000000000000000000000000000000000000000000000008152600401611ae990613345565b60405180910390fd5b600073ffffffffffffffffffffffffffffffffffffffff168173ffffffffffffffffffffffffffffffffffffffff161415611b62576040517f08c379a0000000000000000000000000000000000000000000000000000000008152600401611b5990614f1a565b60405180910390fd5b611b6b81611c26565b50565b611b76611ebf565b600b60009054906101000a900473ffffffffffffffffffffffffffffffffffffffff1673ffffffffffffffffffffffffffffffffffffffff1663ff6d56ef836040518263ffffffff1660e01b8152600401611bd19190612970565b600060405180830381865afa158015611bee573d6000803e3d6000fd5b505050506040513d6000823e3d601f19601f82011682018060405250810190611c179190614f3a565b9050919050565b600033905090565b60008060009054906101000a900473ffffffffffffffffffffffffffffffffffffffff169050816000806101000a81548173ffffffffffffffffffffffffffffffffffffffff021916908373ffffffffffffffffffffffffffffffffffffffff1602179055508173ffffffffffffffffffffffffffffffffffffffff168173ffffffffffffffffffffffffffffffffffffffff167f8be0079c531659141344cd1fd0a4f28419497f9722a3daafe3b4186f6b6457e060405160405180910390a35050565b828054611cf690613ba7565b90600052602060002090601f016020900481019282611d185760008555611d5f565b82601f10611d3157805160ff1916838001178555611d5f565b82800160010185558215611d5f579182015b82811115611d5e578251825591602001919060010190611d43565b5b509050611d6c9190611f1a565b5090565b6040518060c001604052806000815260200160008152602001600081526020016000815260200160608152602001606081525090565b6040518060c0016040528060008152602001600073ffffffffffffffffffffffffffffffffffffffff168152602001606081526020016060815260200160608152602001606081525090565b6040518060a0016040528060008152602001600081526020016000815260200160008152602001600081525090565b604051806101e001604052806000815260200160008152602001600081526020016000815260200160008152602001600081526020016000815260200160008152602001600073ffffffffffffffffffffffffffffffffffffffff16815260200160006006811115611e9657611e95612d72565b5b815260200160608152602001606081526020016060815260200160608152602001606081525090565b60405180610100016040528060008152602001600073ffffffffffffffffffffffffffffffffffffffff1681526020016060815260200160608152602001606081526020016060815260200160608152602001606081525090565b5b80821115611f33576000816000905550600101611f1b565b5090565b6000604051905090565b600080fd5b600080fd5b600073ffffffffffffffffffffffffffffffffffffffff82169050919050565b6000611f7682611f4b565b9050919050565b611f8681611f6b565b8114611f9157600080fd5b50565b600081359050611fa381611f7d565b92915050565b600080fd5b600080fd5b6000601f19601f8301169050919050565b7f4e487b7100000000000000000000000000000000000000000000000000000000600052604160045260246000fd5b611ffc82611fb3565b810181811067ffffffffffffffff8211171561201b5761201a611fc4565b5b80604052505050565b600061202e611f37565b905061203a8282611ff3565b919050565b600067ffffffffffffffff82111561205a57612059611fc4565b5b61206382611fb3565b9050602081019050919050565b82818337600083830152505050565b600061209261208d8461203f565b612024565b9050828152602081018484840111156120ae576120ad611fae565b5b6120b9848285612070565b509392505050565b600082601f8301126120d6576120d5611fa9565b5b81356120e684826020860161207f565b91505092915050565b6000806000806080858703121561210957612108611f41565b5b600061211787828801611f94565b945050602085013567ffffffffffffffff81111561213857612137611f46565b5b612144878288016120c1565b935050604085013567ffffffffffffffff81111561216557612164611f46565b5b612171878288016120c1565b925050606085013567ffffffffffffffff81111561219257612191611f46565b5b61219e878288016120c1565b91505092959194509250565b6000819050919050565b6121bd816121aa565b81146121c857600080fd5b50565b6000813590506121da816121b4565b92915050565b60008060008060008060008060006101208a8c03121561220357612202611f41565b5b60008a013567ffffffffffffffff81111561222157612220611f46565b5b61222d8c828d016120c1565b99505060208a013567ffffffffffffffff81111561224e5761224d611f46565b5b61225a8c828d016120c1565b98505060408a013567ffffffffffffffff81111561227b5761227a611f46565b5b6122878c828d016120c1565b97505060606122988c828d016121cb565b96505060806122a98c828d016121cb565b95505060a06122ba8c828d016121cb565b94505060c06122cb8c828d016121cb565b93505060e06122dc8c828d016121cb565b9250506101006122ee8c828d016121cb565b9150509295985092959850929598565b600080600080600060a0868803121561231a57612319611f41565b5b600061232888828901611f94565b955050602086013567ffffffffffffffff81111561234957612348611f46565b5b612355888289016120c1565b945050604086013567ffffffffffffffff81111561237657612375611f46565b5b612382888289016120c1565b935050606086013567ffffffffffffffff8111156123a3576123a2611f46565b5b6123af888289016120c1565b925050608086013567ffffffffffffffff8111156123d0576123cf611f46565b5b6123dc888289016120c1565b9150509295509295909350565b6000602082840312156123ff576123fe611f41565b5b600061240d84828501611f94565b91505092915050565b61241f816121aa565b82525050565b61242e81611f6b565b82525050565b600081519050919050565b600082825260208201905092915050565b60005b8381101561246e578082015181840152602081019050612453565b8381111561247d576000848401525b50505050565b600061248e82612434565b612498818561243f565b93506124a8818560208601612450565b6124b181611fb3565b840191505092915050565b600060a0820190506124d16000830188612416565b6124de6020830187612425565b81810360408301526124f08186612483565b905081810360608301526125048185612483565b905081810360808301526125188184612483565b90509695505050505050565b6000806000806080858703121561253e5761253d611f41565b5b600061254c878288016121cb565b945050602061255d878288016121cb565b935050604085013567ffffffffffffffff81111561257e5761257d611f46565b5b61258a878288016120c1565b925050606085013567ffffffffffffffff8111156125ab576125aa611f46565b5b6125b7878288016120c1565b91505092959194509250565b600081519050919050565b600082825260208201905092915050565b6000819050602082019050919050565b6125f8816121aa565b82525050565b61260781611f6b565b82525050565b600082825260208201905092915050565b600061262982612434565b612633818561260d565b9350612643818560208601612450565b61264c81611fb3565b840191505092915050565b600081519050919050565b600082825260208201905092915050565b6000819050602082019050919050565b600061268f83836125ef565b60208301905092915050565b6000602082019050919050565b60006126b382612657565b6126bd8185612662565b93506126c883612673565b8060005b838110156126f95781516126e08882612683565b97506126eb8361269b565b9250506001810190506126cc565b5085935050505092915050565b60006101008301600083015161271f60008601826125ef565b50602083015161273260208601826125fe565b506040830151848203604086015261274a828261261e565b91505060608301518482036060860152612764828261261e565b9150506080830151848203608086015261277e828261261e565b91505060a083015184820360a0860152612798828261261e565b91505060c083015184820360c08601526127b282826126a8565b91505060e083015184820360e08601526127cc82826126a8565b9150508091505092915050565b60006127e58383612706565b905092915050565b6000602082019050919050565b6000612805826125c3565b61280f81856125ce565b935083602082028501612821856125df565b8060005b8581101561285d578484038952815161283e85826127d9565b9450612849836127ed565b925060208a01995050600181019050612825565b50829750879550505050505092915050565b6000602082019050818103600083015261288981846127fa565b905092915050565b6000602082840312156128a7576128a6611f41565b5b60006128b5848285016121cb565b91505092915050565b600060c0830160008301516128d660008601826125ef565b5060208301516128e960208601826125ef565b5060408301516128fc60408601826125ef565b50606083015161290f60608601826125ef565b5060808301518482036080860152612927828261261e565b91505060a083015184820360a0860152612941828261261e565b9150508091505092915050565b6000602082019050818103600083015261296881846128be565b905092915050565b60006020820190506129856000830184612425565b92915050565b600060c0830160008301516129a360008601826125ef565b5060208301516129b660208601826125fe565b50604083015184820360408601526129ce828261261e565b915050606083015184820360608601526129e8828261261e565b91505060808301518482036080860152612a02828261261e565b91505060a083015184820360a0860152612a1c82826126a8565b9150508091505092915050565b60006020820190508181036000830152612a43818461298b565b905092915050565b600081519050919050565b600082825260208201905092915050565b6000819050602082019050919050565b600060c083016000830151612a8f60008601826125ef565b506020830151612aa260208601826125fe565b5060408301518482036040860152612aba828261261e565b91505060608301518482036060860152612ad4828261261e565b91505060808301518482036080860152612aee828261261e565b91505060a083015184820360a0860152612b0882826126a8565b9150508091505092915050565b6000612b218383612a77565b905092915050565b6000602082019050919050565b6000612b4182612a4b565b612b4b8185612a56565b935083602082028501612b5d85612a67565b8060005b85811015612b995784840389528151612b7a8582612b15565b9450612b8583612b29565b925060208a01995050600181019050612b61565b50829750879550505050505092915050565b60006020820190508181036000830152612bc58184612b36565b905092915050565b600081519050919050565b600082825260208201905092915050565b6000819050602082019050919050565b60a082016000820151612c0f60008501826125ef565b506020820151612c2260208501826125ef565b506040820151612c3560408501826125ef565b506060820151612c4860608501826125ef565b506080820151612c5b60808501826125ef565b50505050565b6000612c6d8383612bf9565b60a08301905092915050565b6000602082019050919050565b6000612c9182612bcd565b612c9b8185612bd8565b9350612ca683612be9565b8060005b83811015612cd7578151612cbe8882612c61565b9750612cc983612c79565b925050600181019050612caa565b5085935050505092915050565b60006020820190508181036000830152612cfe8184612c86565b905092915050565b60008060408385031215612d1d57612d1c611f41565b5b6000612d2b858286016121cb565b9250506020612d3c858286016121cb565b9150509250929050565b600081519050919050565b600082825260208201905092915050565b6000819050602082019050919050565b7f4e487b7100000000000000000000000000000000000000000000000000000000600052602160045260246000fd5b60078110612db257612db1612d72565b5b50565b6000819050612dc382612da1565b919050565b6000612dd382612db5565b9050919050565b612de381612dc8565b82525050565b60006101e083016000830151612e0260008601826125ef565b506020830151612e1560208601826125ef565b506040830151612e2860408601826125ef565b506060830151612e3b60608601826125ef565b506080830151612e4e60808601826125ef565b5060a0830151612e6160a08601826125ef565b5060c0830151612e7460c08601826125ef565b5060e0830151612e8760e08601826125ef565b50610100830151612e9c6101008601826125fe565b50610120830151612eb1610120860182612dda565b50610140830151848203610140860152612ecb828261261e565b915050610160830151848203610160860152612ee7828261261e565b915050610180830151848203610180860152612f03828261261e565b9150506101a08301518482036101a0860152612f1f82826126a8565b9150506101c08301518482036101c0860152612f3b82826126a8565b9150508091505092915050565b6000612f548383612de9565b905092915050565b6000602082019050919050565b6000612f7482612d46565b612f7e8185612d51565b935083602082028501612f9085612d62565b8060005b85811015612fcc5784840389528151612fad8582612f48565b9450612fb883612f5c565b925060208a01995050600181019050612f94565b50829750879550505050505092915050565b60006020820190508181036000830152612ff88184612f69565b905092915050565b60a08201600082015161301660008501826125ef565b50602082015161302960208501826125ef565b50604082015161303c60408501826125ef565b50606082015161304f60608501826125ef565b50608082015161306260808501826125ef565b50505050565b600060a08201905061307d6000830184613000565b92915050565b60006101e08301600083015161309c60008601826125ef565b5060208301516130af60208601826125ef565b5060408301516130c260408601826125ef565b5060608301516130d560608601826125ef565b5060808301516130e860808601826125ef565b5060a08301516130fb60a08601826125ef565b5060c083015161310e60c08601826125ef565b5060e083015161312160e08601826125ef565b506101008301516131366101008601826125fe565b5061012083015161314b610120860182612dda565b50610140830151848203610140860152613165828261261e565b915050610160830151848203610160860152613181828261261e565b91505061018083015184820361018086015261319d828261261e565b9150506101a08301518482036101a08601526131b982826126a8565b9150506101c08301518482036101c08601526131d582826126a8565b9150508091505092915050565b600060208201905081810360008301526131fc8184613083565b905092915050565b60006101008301600083015161321d60008601826125ef565b50602083015161323060208601826125fe565b5060408301518482036040860152613248828261261e565b91505060608301518482036060860152613262828261261e565b9150506080830151848203608086015261327c828261261e565b91505060a083015184820360a0860152613296828261261e565b91505060c083015184820360c08601526132b082826126a8565b91505060e083015184820360e08601526132ca82826126a8565b9150508091505092915050565b600060208201905081810360008301526132f18184613204565b905092915050565b7f4f776e61626c653a2063616c6c6572206973206e6f7420746865206f776e6572600082015250565b600061332f60208361243f565b915061333a826132f9565b602082019050919050565b6000602082019050818103600083015261335e81613322565b9050919050565b7f4c276164726573736520647520646f6e617465757220646f697420c3aa74726560008201527f2064696666c3a972656e7465206465207ac3a9726f0000000000000000000000602082015250565b60006133c160358361243f565b91506133cc82613365565b604082019050919050565b600060208201905081810360008301526133f0816133b4565b9050919050565b7f446f6e6f722064c3a96ac3a020656e72656769737472c3a90000000000000000600082015250565b600061342d60188361243f565b9150613438826133f7565b602082019050919050565b6000602082019050818103600083015261345c81613420565b9050919050565b7f4e487b7100000000000000000000000000000000000000000000000000000000600052601160045260246000fd5b600061349d826121aa565b91507fffffffffffffffffffffffffffffffffffffffffffffffffffffffffffffffff8214156134d0576134cf613463565b5b600182019050919050565b60006060820190506134f06000830186612416565b6134fd6020830185612425565b818103604083015261350f8184612483565b9050949350505050565b7f566f7573206e27c3aa7465732070617320656e72656769737472c3a920656e2060008201527f74616e7420717565204e504f0000000000000000000000000000000000000000602082015250565b6000613575602c8361243f565b915061358082613519565b604082019050919050565b600060208201905081810360008301526135a481613568565b9050919050565b7f4c6520746974726520657374206f626c696761746f6972650000000000000000600082015250565b60006135e160188361243f565b91506135ec826135ab565b602082019050919050565b60006020820190508181036000830152613610816135d4565b9050919050565b7f4c61206465736372697074696f6e20657374206f626c696761746f6972650000600082015250565b600061364d601e8361243f565b915061365882613617565b602082019050919050565b6000602082019050818103600083015261367c81613640565b9050919050565b7f446174652064652064c3a96275742064652070726f6a6574206f626c6967617460008201527f6f69726500000000000000000000000000000000000000000000000000000000602082015250565b60006136df60248361243f565b91506136ea82613683565b604082019050919050565b6000602082019050818103600083015261370e816136d2565b9050919050565b7f446174652064652066696e2064652070726f6a6574206f626c696761746f697260008201527f6500000000000000000000000000000000000000000000000000000000000000602082015250565b600061377160218361243f565b915061377c82613715565b604082019050919050565b600060208201905081810360008301526137a081613764565b9050919050565b7f4d6f6e74616e74206d696e696d616c206f626c696761746f6972650000000000600082015250565b60006137dd601b8361243f565b91506137e8826137a7565b602082019050919050565b6000602082019050818103600083015261380c816137d0565b9050919050565b7f4d6f6e74616e74206d6178696d616c206f626c696761746f6972650000000000600082015250565b6000613849601b8361243f565b915061385482613813565b602082019050919050565b600060208201905081810360008301526138788161383c565b9050919050565b7f446174652064652064c3a96275742064652063616d7061676e65206f626c696760008201527f61746f6972650000000000000000000000000000000000000000000000000000602082015250565b60006138db60268361243f565b91506138e68261387f565b604082019050919050565b6000602082019050818103600083015261390a816138ce565b9050919050565b7f447572c3a9652064652063616d7061676e65206f626c696761746f6972650000600082015250565b6000613947601e8361243f565b915061395282613911565b602082019050919050565b600060208201905081810360008301526139768161393a565b9050919050565b7f4c6120646174652064c3a96275742064652070726f6a657420646f697420c3aa60008201527f747265206176616e74206c612066696e00000000000000000000000000000000602082015250565b60006139d960308361243f565b91506139e48261397d565b604082019050919050565b60006020820190508181036000830152613a08816139cc565b9050919050565b7f4c65206d6f6e74616e74206d696e696d616c20646f697420c3aa74726520696e60008201527f66c3a97269657572206175206d6f6e74616e74206d6178696d616c0000000000602082015250565b6000613a6b603b8361243f565b9150613a7682613a0f565b604082019050919050565b60006020820190508181036000830152613a9a81613a5e565b9050919050565b600060c082019050613ab66000830189612416565b8181036020830152613ac88188612483565b9050613ad76040830187612416565b613ae46060830186612416565b613af16080830185612416565b613afe60a0830184612416565b979650505050505050565b600060a082019050613b1e6000830188612425565b8181036020830152613b308187612483565b90508181036040830152613b448186612483565b90508181036060830152613b588185612483565b90508181036080830152613b6c8184612483565b90509695505050505050565b7f4e487b7100000000000000000000000000000000000000000000000000000000600052602260045260246000fd5b60006002820490506001821680613bbf57607f821691505b60208210811415613bd357613bd2613b78565b5b50919050565b7f50726f6a657420696e636f6e6e75000000000000000000000000000000000000600082015250565b6000613c0f600e8361243f565b9150613c1a82613bd9565b602082019050919050565b60006020820190508181036000830152613c3e81613c02565b9050919050565b7f42616c616e636520696e737566666973616e7465000000000000000000000000600082015250565b6000613c7b60148361243f565b9150613c8682613c45565b602082019050919050565b60006020820190508181036000830152613caa81613c6e565b9050919050565b7f4c612063616d7061676e65206e276573742070617320636f6d6d656e63c3a965600082015250565b6000613ce760208361243f565b9150613cf282613cb1565b602082019050919050565b60006020820190508181036000830152613d1681613cda565b9050919050565b6000613d28826121aa565b9150613d33836121aa565b925082821015613d4657613d45613463565b5b828203905092915050565b6000604082019050613d666000830185612425565b613d736020830184612416565b9392505050565b60008115159050919050565b613d8f81613d7a565b8114613d9a57600080fd5b50565b600081519050613dac81613d86565b92915050565b600060208284031215613dc857613dc7611f41565b5b6000613dd684828501613d9d565b91505092915050565b6000608082019050613df46000830187612416565b613e016020830186612416565b613e0e6040830185612416565b613e1b6060830184612425565b95945050505050565b600067ffffffffffffffff821115613e3f57613e3e611fc4565b5b602082029050602081019050919050565b600080fd5b600080fd5b600080fd5b600081519050613e6e816121b4565b92915050565b600081519050613e8381611f7d565b92915050565b6000613e9c613e978461203f565b612024565b905082815260208101848484011115613eb857613eb7611fae565b5b613ec3848285612450565b509392505050565b600082601f830112613ee057613edf611fa9565b5b8151613ef0848260208601613e89565b91505092915050565b600067ffffffffffffffff821115613f1457613f13611fc4565b5b602082029050602081019050919050565b6000613f38613f3384613ef9565b612024565b90508083825260208201905060208402830185811115613f5b57613f5a613e50565b5b835b81811015613f845780613f708882613e5f565b845260208401935050602081019050613f5d565b5050509392505050565b600082601f830112613fa357613fa2611fa9565b5b8151613fb3848260208601613f25565b91505092915050565b60006101008284031215613fd357613fd2613e55565b5b613fde610100612024565b90506000613fee84828501613e5f565b600083015250602061400284828501613e74565b602083015250604082015167ffffffffffffffff81111561402657614025613e5a565b5b61403284828501613ecb565b604083015250606082015167ffffffffffffffff81111561405657614055613e5a565b5b61406284828501613ecb565b606083015250608082015167ffffffffffffffff81111561408657614085613e5a565b5b61409284828501613ecb565b60808301525060a082015167ffffffffffffffff8111156140b6576140b5613e5a565b5b6140c284828501613ecb565b60a08301525060c082015167ffffffffffffffff8111156140e6576140e5613e5a565b5b6140f284828501613f8e565b60c08301525060e082015167ffffffffffffffff81111561411657614115613e5a565b5b61412284828501613f8e565b60e08301525092915050565b600061414161413c84613e24565b612024565b9050808382526020820190506020840283018581111561416457614163613e50565b5b835b818110156141ab57805167ffffffffffffffff81111561418957614188611fa9565b5b8086016141968982613fbc565b85526020850194505050602081019050614166565b5050509392505050565b600082601f8301126141ca576141c9611fa9565b5b81516141da84826020860161412e565b91505092915050565b6000602082840312156141f9576141f8611f41565b5b600082015167ffffffffffffffff81111561421757614216611f46565b5b614223848285016141b5565b91505092915050565b8082525050565b61423c816121aa565b82525050565b6000604082019050614257600083018561422c565b6142646020830184614233565b9392505050565b600060c0828403121561428157614280613e55565b5b61428b60c0612024565b9050600061429b84828501613e5f565b60008301525060206142af84828501613e5f565b60208301525060406142c384828501613e5f565b60408301525060606142d784828501613e5f565b606083015250608082015167ffffffffffffffff8111156142fb576142fa613e5a565b5b61430784828501613ecb565b60808301525060a082015167ffffffffffffffff81111561432b5761432a613e5a565b5b61433784828501613ecb565b60a08301525092915050565b60006020828403121561435957614358611f41565b5b600082015167ffffffffffffffff81111561437757614376611f46565b5b6143838482850161426b565b91505092915050565b8082525050565b61439c81611f6b565b82525050565b60006040820190506143b7600083018561438c565b6143c46020830184614393565b9392505050565b600060c082840312156143e1576143e0613e55565b5b6143eb60c0612024565b905060006143fb84828501613e5f565b600083015250602061440f84828501613e74565b602083015250604082015167ffffffffffffffff81111561443357614432613e5a565b5b61443f84828501613ecb565b604083015250606082015167ffffffffffffffff81111561446357614462613e5a565b5b61446f84828501613ecb565b606083015250608082015167ffffffffffffffff81111561449357614492613e5a565b5b61449f84828501613ecb565b60808301525060a082015167ffffffffffffffff8111156144c3576144c2613e5a565b5b6144cf84828501613f8e565b60a08301525092915050565b6000602082840312156144f1576144f0611f41565b5b600082015167ffffffffffffffff81111561450f5761450e611f46565b5b61451b848285016143cb565b91505092915050565b8082525050565b6000606082019050614540600083018661438c565b61454d6020830185614524565b61455a6040830184614233565b949350505050565b600067ffffffffffffffff82111561457d5761457c611fc4565b5b602082029050602081019050919050565b60006145a161459c84614562565b612024565b905080838252602082019050602084028301858111156145c4576145c3613e50565b5b835b8181101561460b57805167ffffffffffffffff8111156145e9576145e8611fa9565b5b8086016145f689826143cb565b855260208501945050506020810190506145c6565b5050509392505050565b600082601f83011261462a57614629611fa9565b5b815161463a84826020860161458e565b91505092915050565b60006020828403121561465957614658611f41565b5b600082015167ffffffffffffffff81111561467757614676611f46565b5b61468384828501614615565b91505092915050565b8082525050565b60006060820190506146a8600083018661438c565b6146b5602083018561468c565b6146c26040830184614393565b949350505050565b600067ffffffffffffffff8211156146e5576146e4611fc4565b5b602082029050602081019050919050565b600060a0828403121561470c5761470b613e55565b5b61471660a0612024565b9050600061472684828501613e5f565b600083015250602061473a84828501613e5f565b602083015250604061474e84828501613e5f565b604083015250606061476284828501613e5f565b606083015250608061477684828501613e5f565b60808301525092915050565b6000614795614790846146ca565b612024565b90508083825260208201905060a084028301858111156147b8576147b7613e50565b5b835b818110156147e157806147cd88826146f6565b84526020840193505060a0810190506147ba565b5050509392505050565b600082601f830112614800576147ff611fa9565b5b8151614810848260208601614782565b91505092915050565b60006020828403121561482f5761482e611f41565b5b600082015167ffffffffffffffff81111561484d5761484c611f46565b5b614859848285016147eb565b91505092915050565b7f566f7573206e27c3aa7465732070617320656e72656769737472c3a920656e2060008201527f74616e742071756520646f6e6174657572000000000000000000000000000000602082015250565b60006148be60318361243f565b91506148c982614862565b604082019050919050565b600060208201905081810360008301526148ed816148b1565b9050919050565b60006148ff826121aa565b915061490a836121aa565b9250817fffffffffffffffffffffffffffffffffffffffffffffffffffffffffffffffff048311821515161561494357614942613463565b5b828202905092915050565b6000614959826121aa565b9150614964836121aa565b9250827fffffffffffffffffffffffffffffffffffffffffffffffffffffffffffffffff0382111561499957614998613463565b5b828201905092915050565b7f4c612063616d7061676e6520657374207465726d696ec3a96500000000000000600082015250565b60006149da60198361243f565b91506149e5826149a4565b602082019050919050565b60006020820190508181036000830152614a09816149cd565b9050919050565b6000606082019050614a256000830186612425565b614a326020830185612425565b614a3f6040830184612416565b949350505050565b600060a082019050614a5c6000830188612416565b614a696020830187612416565b614a766040830186612416565b614a836060830185612416565b614a906080830184612416565b9695505050505050565b8082525050565b6000604082019050614ab66000830185614a9a565b614ac36020830184614233565b9392505050565b600067ffffffffffffffff821115614ae557614ae4611fc4565b5b602082029050602081019050919050565b60078110614b0357600080fd5b50565b600081519050614b1581614af6565b92915050565b60006101e08284031215614b3257614b31613e55565b5b614b3d6101e0612024565b90506000614b4d84828501613e5f565b6000830152506020614b6184828501613e5f565b6020830152506040614b7584828501613e5f565b6040830152506060614b8984828501613e5f565b6060830152506080614b9d84828501613e5f565b60808301525060a0614bb184828501613e5f565b60a08301525060c0614bc584828501613e5f565b60c08301525060e0614bd984828501613e5f565b60e083015250610100614bee84828501613e74565b61010083015250610120614c0484828501614b06565b6101208301525061014082015167ffffffffffffffff811115614c2a57614c29613e5a565b5b614c3684828501613ecb565b6101408301525061016082015167ffffffffffffffff811115614c5c57614c5b613e5a565b5b614c6884828501613ecb565b6101608301525061018082015167ffffffffffffffff811115614c8e57614c8d613e5a565b5b614c9a84828501613ecb565b610180830152506101a082015167ffffffffffffffff811115614cc057614cbf613e5a565b5b614ccc84828501613f8e565b6101a0830152506101c082015167ffffffffffffffff811115614cf257614cf1613e5a565b5b614cfe84828501613f8e565b6101c08301525092915050565b6000614d1e614d1984614aca565b612024565b90508083825260208201905060208402830185811115614d4157614d40613e50565b5b835b81811015614d8857805167ffffffffffffffff811115614d6657614d65611fa9565b5b808601614d738982614b1b565b85526020850194505050602081019050614d43565b5050509392505050565b600082601f830112614da757614da6611fa9565b5b8151614db7848260208601614d0b565b91505092915050565b600060208284031215614dd657614dd5611f41565b5b600082015167ffffffffffffffff811115614df457614df3611f46565b5b614e0084828501614d92565b91505092915050565b6000604082019050614e1e600083018561468c565b614e2b6020830184614233565b9392505050565b600060a08284031215614e4857614e47611f41565b5b6000614e56848285016146f6565b91505092915050565b600060208284031215614e7557614e74611f41565b5b600082015167ffffffffffffffff811115614e9357614e92611f46565b5b614e9f84828501614b1b565b91505092915050565b7f4f776e61626c653a206e6577206f776e657220697320746865207a65726f206160008201527f6464726573730000000000000000000000000000000000000000000000000000602082015250565b6000614f0460268361243f565b9150614f0f82614ea8565b604082019050919050565b60006020820190508181036000830152614f3381614ef7565b9050919050565b600060208284031215614f5057614f4f611f41565b5b600082015167ffffffffffffffff811115614f6e57614f6d611f46565b5b614f7a84828501613fbc565b9150509291505056fea264697066735822122020f9a1d886ca4b098da615c5df1ca7eca5597d993e78f62de6b8d1e9848327b364736f6c634300080b0033",
  "immutableReferences": {},
  "source": "// SPDX-License-Identifier: MIT\r\npragma solidity 0.8.11;\r\n \r\nimport \"@openzeppelin/contracts/token/ERC20/ERC20.sol\";\r\nimport \"@openzeppelin/contracts/access/Ownable.sol\";\r\nimport \"./EthicOnChainLib.sol\";\r\nimport \"./IEocNpo.sol\";\r\n\r\n/// @title EthicOnChain \r\n/// @author Lahcen E. Dev / Jrme Gauthier\r\n/// @notice EthicOnChain contract to manage NPOs, Projects and Donors\r\ncontract EthicOnChain is Ownable {\r\n    \r\n    enum ProjectCause {\r\n        LutteContreLaPauvreteEtExclusion,\r\n        EnvironnementEtLesAnimaux,\r\n        Education,\r\n        ArtEtLaCulture,\r\n        SanteEtLaRecherche,\r\n        DroitsDeLHomme,\r\n        InfrastructureRoutiere\r\n    }\r\n\r\n    enum ProjectStatus {\r\n        ProjectProposal, \r\n        WaitingOpening,\r\n        OpenFundRaising,\r\n        CloseFundRaising\r\n    }\r\n\r\n    // Donors\r\n    mapping (address => EthicOnChainLib.Donor) public donorAddresses; //Mapping of all donors \r\n    mapping (uint => address) private donorMap;\r\n    uint private donorCount; \r\n    \r\n    // Projects\r\n    mapping (uint => EthicOnChainLib.Project) projectMap;\r\n    uint projectCount;\r\n    \r\n    // Donations\r\n    mapping (uint => EthicOnChainLib.Donation) private donationMap;\r\n    uint private donationCount;\r\n\r\n    // Withdrawal Informations\r\n    mapping (uint => EthicOnChainLib.Withdrawal) private withdrawalMap;\r\n    uint private withdrawalCount;\r\n\r\n    // EOC Token address\r\n    address eocTokenAddress;\r\n    // NPO deployed contract address\r\n    address npoContractAddress;\r\n\r\n    event NpoAdded(uint _poId, address _npoErc20Address, string _denomination);\r\n    event DonorAdded(uint _donorId, address _donorErc20Address, string _donorName);\r\n    event ProjectAdded(uint _projectId, string _title, uint _startDate, uint _endDate, uint _minAmount, uint _maxAmount);\r\n    event DonationAdded(uint _donationId, uint _projectId, uint _donorId, uint _donationDate, uint donationAmount);\r\n    event WithdrawalAdded(uint _withdrawalId ,uint _projectId, uint _amount, address _addressRecipent);\r\n    \r\n    /// @dev Initialise the deployed EOC token address for swap\r\n    /// @param _eocTokenAddress EOC Token address\r\n    constructor(address _eocTokenAddress, address _npoContractAddress) {\r\n       eocTokenAddress =  _eocTokenAddress;\r\n       npoContractAddress = _npoContractAddress;\r\n    }\r\n\r\n    /// @dev The administrator can add a new NPO\r\n    /// @param _npoErc20Address the ERC20 address of the npo\r\n    /// @param _denomination Demonination of the NPO\r\n    /// @param _postalAddress Postal address of the NPO\r\n    /// @param _object object of NPO\r\n    /// @param _npoType Type of npo organization\r\n    function addNpo(\r\n        address _npoErc20Address,\r\n        string memory _denomination,\r\n        string memory _postalAddress,\r\n        string memory _object,\r\n        string memory _npoType) public onlyOwner {\r\n        IEocNpo(npoContractAddress).addNpo(\r\n            _npoErc20Address,\r\n            _denomination,\r\n            _postalAddress,\r\n            _object,\r\n            _npoType\r\n        );\r\n    }\r\n \r\n    /// @dev  get an NPO via its erc20 address\r\n    /// @param _npoErc20Address erc20 address of the NPO\r\n    /// @return returns the corresponding NPO struct\r\n    function getNpo(address _npoErc20Address) public view returns(IEocNpo.NPO memory) {\r\n        return IEocNpo(npoContractAddress).getNpo(_npoErc20Address);\r\n    }\r\n\r\n    /// @dev  get an NPO via its id\r\n    /// @param _npoId id of the NPO\r\n    /// @return returns the corresponding NPO struct\r\n    function getNpoByIndex(uint _npoId) internal view returns(IEocNpo.NPO memory) {\r\n        return IEocNpo(npoContractAddress).getNpoByIndex(_npoId);\r\n    }\r\n\r\n    /// @dev  get all NPOs\r\n    /// @return returns an array of all NPOs\r\n    function getNpos() public view returns(IEocNpo.NPO [] memory) {\r\n        return IEocNpo(npoContractAddress).getNpos();\r\n    }\r\n\r\n    /// @dev The administrator/contract can add a new Donor\r\n    /// @param _donorErc20Address ERC20 address of the donor\r\n    /// @param _name Name of the Donor\r\n    /// @param _surName Surname of the Donor\r\n    /// @param _postalAddress postal address of the donor\r\n    function addDonor(\r\n        address _donorErc20Address,\r\n        string memory _name,\r\n        string memory _surName,\r\n        string memory _postalAddress) public onlyOwner {\r\n        // Mandatory fields\r\n        require(_donorErc20Address > address(0), unicode\"L'adresse du donateur doit tre diffrente de zro\");\r\n        require(donorAddresses[_donorErc20Address].donorErc20Address == address(0), unicode\"Donor dj enregistr\");\r\n\r\n        EthicOnChainLib.Donor storage newDonor = donorAddresses[_donorErc20Address];\r\n        newDonor.donorId = donorCount;\r\n        newDonor.name = _name;\r\n        newDonor.surName = _surName;\r\n        newDonor.donorErc20Address=_donorErc20Address;\r\n        newDonor.postalAddress = _postalAddress;\r\n        donorMap[donorCount] = _donorErc20Address;\r\n        donorCount++;\r\n        emit DonorAdded(newDonor.donorId, _donorErc20Address, _name);\r\n    }\r\n \r\n    /// @dev This function will allow to add a project, the owner will be the one who calls the function. \r\n    /// @param _title The title of the project\r\n    /// @param _description description of the project\r\n    /// @param _geographicalArea the geographical area where the project will be located.\r\n    /// @param _startDate The start date of the project\r\n    /// @param _endDate The end of the project\r\n    /// @param _campaignStartDate the beginning of the collection of funds\r\n    /// @param _campaignDurationInDays the duration of the collection of funds\r\n    /// @param _minAmount The minimum price for the project to be valid\r\n    /// @param _maxAmount The maximum price to make the project a success \r\n    function addProject(\r\n        string memory _title,\r\n        string memory _description,\r\n        string memory _geographicalArea,\r\n        uint _startDate,\r\n        uint _endDate,\r\n        uint _campaignStartDate,\r\n        uint _campaignDurationInDays,\r\n        uint _minAmount,\r\n        uint _maxAmount\r\n    ) public {\r\n        IEocNpo.NPO memory projectNpo = getNpo(msg.sender);\r\n        require(bytes(projectNpo.denomination).length != 0, unicode\"Vous n'tes pas enregistr en tant que NPO\");\r\n        // Mandatory fields\r\n        require(bytes(_title).length > 0, \"Le titre est obligatoire\");\r\n        require(bytes(_description).length > 0, \"La description est obligatoire\");\r\n        require(_startDate > 0, unicode\"Date de dbut de projet obligatoire\");\r\n        require(_endDate > 0, \"Date de fin de projet obligatoire\");\r\n        require(_minAmount > 0, \"Montant minimal obligatoire\");\r\n        require(_maxAmount > 0, \"Montant maximal obligatoire\");\r\n        require(_campaignStartDate > 0, unicode\"Date de dbut de campagne obligatoire\");\r\n        require(_campaignDurationInDays > 0, unicode\"Dure de campagne obligatoire\");\r\n        // Comparisons\r\n        require(_startDate < _endDate, unicode\"La date dbut de projet doit tre avant la fin\");\r\n        require(_minAmount < _maxAmount, unicode\"Le montant minimal doit tre infrieur au montant maximal\");\r\n\r\n        EthicOnChainLib.Project storage newProject = projectMap[projectCount];\r\n        newProject.projectId = projectCount;\r\n        newProject.npoErc20Address = msg.sender;\r\n        newProject.title = _title;\r\n        // TODO = voir comment grer le Project Cause en fonction de son enum\r\n        newProject.description = _description;\r\n        newProject.geographicalArea = _geographicalArea;\r\n        newProject.startDate = _startDate;\r\n        newProject.endDate = _endDate;\r\n        newProject.campaignStartDate = _campaignStartDate;\r\n        newProject.campaignDurationInDays = _campaignDurationInDays;\r\n        newProject.minAmount = _minAmount;\r\n        newProject.maxAmount = _maxAmount;\r\n// TODO = create a new function into the future ProjectContract class\r\n//        projectNpo.projectIds.push(projectCount);\r\n\r\n        projectCount++;\r\n        emit ProjectAdded(newProject.projectId, _title,  _startDate, _endDate, _minAmount, _maxAmount);\r\n    } \r\n\r\n    /// @dev Add a Donation struct in global donationMap\r\n    /// @param _projectId id of the project for which the donation is done\r\n    /// @param _donationAmount amount of the donation in EOC tokens\r\n    function addDonation(uint _projectId, uint _donationAmount) public {\r\n        EthicOnChainLib.Donor storage donationDonor = donorAddresses[msg.sender];\r\n        require(donationDonor.donorErc20Address != address(0), unicode\"Vous n'tes pas enregistr en tant que donateur\"); // concept de KYC\r\n        EthicOnChainLib.Project storage donationProject = projectMap[_projectId];\r\n        require(bytes(donationProject.title).length != 0, \"Projet inconnu\");\r\n        // donation possible seulement si dans priode de campagne\r\n        uint campaignEndDate = donationProject.campaignStartDate + donationProject.campaignDurationInDays * 1 days;\r\n        require(block.timestamp > donationProject.campaignStartDate, unicode\"La campagne n'est pas commence\");\r\n        require(block.timestamp < campaignEndDate, unicode\"La campagne est termine\");\r\n\r\n        EthicOnChainLib.Donation storage newDonation = donationMap[donationCount];\r\n        newDonation.donationId = donationCount;\r\n        newDonation.projectId = _projectId;\r\n        newDonation.donorId = donationDonor.donorId;\r\n        newDonation.donationDate = block.timestamp;\r\n        newDonation.donationAmount = _donationAmount;\r\n        \r\n        donationDonor.donationIds.push(donationCount); // mise  jour de l'historique des donations pour le donateur\r\n        \r\n        donationProject.projectBalance += _donationAmount; // mise  jour de la balance du projet\r\n        donationProject.donationIds.push(donationCount); // mise  jour de l'historique des donations pour le projet\r\n        donationCount++;\r\n        \r\n        // transfert de la donation du donateur vers le contrat\r\n        // le donateur devra avoir pralablement approuv (fonction approve du token - un minimum = le montant  transfrer)\r\n        // le contrat  transfrer les tokens de l'addresse du donateur vers l'adresse du contrat\r\n        IERC20(eocTokenAddress).transferFrom(msg.sender, address(this), _donationAmount);\r\n        //TODO PLUS TARD creation d'un escrow contract pour ne pas verser tous les tokens dans le mme contrat gnral\r\n        emit DonationAdded(newDonation.donationId, newDonation.projectId, newDonation.donorId, newDonation.donationDate, newDonation.donationAmount);\r\n    }\r\n\r\n    /// @dev Allows an NPO to withdraw funds from a project \r\n    /// @param _projectId project id \r\n    /// @param _amount Amount of withdrawal\r\n    /// @param _title title of the withdrawal\r\n    /// @param _description description of the withdrawal\r\n    function withdrawTokens (uint _projectId, uint _amount,string memory _title,string memory _description) public {\r\n        IEocNpo.NPO memory withdrawalNpo = getNpo(msg.sender);\r\n        require(bytes(withdrawalNpo.denomination).length != 0, unicode\"Vous n'tes pas enregistr en tant que NPO\");\r\n        require(bytes(projectMap[_projectId].title).length != 0, \"Projet inconnu\");\r\n        uint256 balance = projectMap[_projectId].projectBalance;\r\n        require(balance >= _amount, \"Balance insuffisante\");\r\n        // Widthdraw possible si seulement la campagne est termine\r\n        require(block.timestamp > projectMap[_projectId].campaignStartDate, unicode\"La campagne n'est pas commence\");\r\n        // TODO = uncomment below lines if it should not be possible to withdraw some amount before the end of the campaign\r\n        // uint campaignEndDate = projectMap[_projectId].campaignStartDate + projectMap[_projectId].campaignDurationInDays * 1 days;\r\n        // require(block.timestamp > campaignEndDate, unicode\"La campagne est toujours en cours\");\r\n\r\n        EthicOnChainLib.Withdrawal storage newWithdrawal = withdrawalMap[withdrawalCount];\r\n        newWithdrawal.withdrawalId = withdrawalCount;\r\n        newWithdrawal.projectId = _projectId;\r\n        newWithdrawal.title = _title;\r\n        newWithdrawal.amount = _amount;\r\n        newWithdrawal.withdrawalDate = block.timestamp;\r\n        newWithdrawal.description = _description;\r\n\r\n// TODO = create a new function into the future WithdrawalContract class\r\n//        withdrawalNpo.withdrawalIds.push(withdrawalCount); // mise  jour de l'historique des retraits pour le NPO\r\n        projectMap[_projectId].projectBalance -= _amount; // mise  jour de la balance du projet\r\n        projectMap[_projectId].withdrawalIds.push(withdrawalCount); // mise  jour de l'historique des retraits pour le projet\r\n        withdrawalCount++;\r\n        IERC20(eocTokenAddress).transfer(msg.sender,_amount);\r\n        emit WithdrawalAdded(newWithdrawal.withdrawalId,newWithdrawal.projectId,newWithdrawal.amount,msg.sender);\r\n    }\r\n\r\n    /// @dev  get a Donor via its erc20 address\r\n    /// @param _donorErc20Address erc20 address of the Donor\r\n    /// @return returns the corresponding Donor struct\r\n    function getDonor(address _donorErc20Address) public view returns(EthicOnChainLib.Donor memory) {\r\n        return EthicOnChainLib.libGetDonor(donorAddresses, _donorErc20Address);\r\n    }\r\n\r\n    /// @dev  get a Donor via its id\r\n    /// @param _donorId id of the Donor\r\n    /// @return returns the corresponding Donor struct\r\n    function getDonorByIndex(uint _donorId) internal view returns(EthicOnChainLib.Donor memory) {\r\n        return EthicOnChainLib.libGetDonorByIndex(donorAddresses, donorMap, _donorId);\r\n    }\r\n\r\n    /// @dev  get all Donors\r\n    /// @return returns an array of all Donors\r\n    function getDonors() public view returns(EthicOnChainLib.Donor [] memory) {\r\n        return EthicOnChainLib.libGetDonors(donorAddresses, donorMap, donorCount);\r\n    }\r\n\r\n    /// @dev Returns a single Project\r\n    /// @param _projectId project unique id\r\n    /// @return the Project struct instance corresponding to _projectId\r\n    function getProject(uint _projectId) public view returns(EthicOnChainLib.Project memory) {\r\n        return EthicOnChainLib.libGetProject(projectMap, _projectId);\r\n    }\r\n\r\n    /// @dev  get all projects\r\n    /// @return returns an array of all Project\r\n    function getProjects() public view returns(EthicOnChainLib.Project [] memory) {\r\n        return EthicOnChainLib.libGetProjects(projectMap, projectCount);\r\n    }\r\n    \r\n    /// @dev Allows to know all the projects of a single NPO\r\n    /// @param _addressNpo id which represents the index\r\n    /// @return Returns an array of all projects of a single NPO\r\n//    function getProjectsPerNpo(address _addressNpo) public view  returns(EthicOnChainLib.Project [] memory ) {\r\n//        return EthicOnChainLib.libGetProjectsPerNpo(npoAddresses, projectMap, _addressNpo);\r\n//    }\r\n\r\n    /// @dev  get Donation by id\r\n    /// param _id index pour retrouver la donation a retourner\r\n    /// @return a struct donation \r\n    function getDonation(uint _id) public view returns(EthicOnChainLib.Donation memory) {\r\n        return EthicOnChainLib.libGetDonation(donationMap, _id);\r\n    }\r\n\r\n    /// @dev Allows to know all the donations of a single donor\r\n    /// @param _addressNpo id which represents the index\r\n    /// @return Returns an array of all donation of a single donor\r\n    function getDonationPerDonor(address _addressNpo) public view  returns(EthicOnChainLib.Donation [] memory ) {\r\n        return EthicOnChainLib.libGetDonationPerDonor(donorAddresses, donationMap, _addressNpo);\r\n    }\r\n\r\n    /// @dev  get Withdrawal by id\r\n    /// param _id index pour retrouver le withdrawal a retourner\r\n    /// @return a struct retait \r\n    function getWithdrawal(uint _id) public view returns(EthicOnChainLib.Withdrawal memory) {\r\n        return EthicOnChainLib.libGetWithdrawal(withdrawalMap, _id);\r\n    }\r\n\r\n    /// @dev Allows to know all the donations of a single donor\r\n    /// @param _addressNpo id which represents the index\r\n    /// @return Returns an array of all donation of a single donor\r\n//    function getWithdrawalPerNpo(address _addressNpo) public view  returns(EthicOnChainLib.Withdrawal [] memory ) {\r\n//        return EthicOnChainLib.libGetWithdrawalPerNpo(npoAddresses, withdrawalMap, _addressNpo);\r\n//    }\r\n\r\n}",
  "sourcePath": "C:\\Appli.crypto\\ethic-on-chain\\contracts\\EthicOnChain.sol",
  "compiler": {
    "name": "solc",
    "version": "0.8.11+commit.d7f03943.Emscripten.clang"
  },
  "schemaVersion": "3.4.4",
  "updatedAt": "2022-01-10T07:33:28.375Z",
  "devdoc": {
    "author": "Lahcen E. Dev / Jrme Gauthier",
    "kind": "dev",
    "methods": {
      "addDonation(uint256,uint256)": {
        "details": "Add a Donation struct in global donationMap",
        "params": {
          "_donationAmount": "amount of the donation in EOC tokens",
          "_projectId": "id of the project for which the donation is done"
        }
      },
      "addDonor(address,string,string,string)": {
        "details": "The administrator/contract can add a new Donor",
        "params": {
          "_donorErc20Address": "ERC20 address of the donor",
          "_name": "Name of the Donor",
          "_postalAddress": "postal address of the donor",
          "_surName": "Surname of the Donor"
        }
      },
      "addNpo(address,string,string,string,string)": {
        "details": "The administrator can add a new NPO",
        "params": {
          "_denomination": "Demonination of the NPO",
          "_npoErc20Address": "the ERC20 address of the npo",
          "_npoType": "Type of npo organization",
          "_object": "object of NPO",
          "_postalAddress": "Postal address of the NPO"
        }
      },
      "addProject(string,string,string,uint256,uint256,uint256,uint256,uint256,uint256)": {
        "details": "This function will allow to add a project, the owner will be the one who calls the function. ",
        "params": {
          "_campaignDurationInDays": "the duration of the collection of funds",
          "_campaignStartDate": "the beginning of the collection of funds",
          "_description": "description of the project",
          "_endDate": "The end of the project",
          "_geographicalArea": "the geographical area where the project will be located.",
          "_maxAmount": "The maximum price to make the project a success ",
          "_minAmount": "The minimum price for the project to be valid",
          "_startDate": "The start date of the project",
          "_title": "The title of the project"
        }
      },
      "constructor": {
        "details": "Initialise the deployed EOC token address for swap",
        "params": {
          "_eocTokenAddress": "EOC Token address"
        }
      },
      "getDonation(uint256)": {
        "details": "get Donation by id param _id index pour retrouver la donation a retourner",
        "returns": {
          "_0": "a struct donation "
        }
      },
      "getDonationPerDonor(address)": {
        "details": "Allows to know all the donations of a single donor",
        "params": {
          "_addressNpo": "id which represents the index"
        },
        "returns": {
          "_0": "Returns an array of all donation of a single donor"
        }
      },
      "getDonor(address)": {
        "details": "get a Donor via its erc20 address",
        "params": {
          "_donorErc20Address": "erc20 address of the Donor"
        },
        "returns": {
          "_0": "returns the corresponding Donor struct"
        }
      },
      "getDonors()": {
        "details": "get all Donors",
        "returns": {
          "_0": "returns an array of all Donors"
        }
      },
      "getNpo(address)": {
        "details": "get an NPO via its erc20 address",
        "params": {
          "_npoErc20Address": "erc20 address of the NPO"
        },
        "returns": {
          "_0": "returns the corresponding NPO struct"
        }
      },
      "getNpos()": {
        "details": "get all NPOs",
        "returns": {
          "_0": "returns an array of all NPOs"
        }
      },
      "getProject(uint256)": {
        "details": "Returns a single Project",
        "params": {
          "_projectId": "project unique id"
        },
        "returns": {
          "_0": "the Project struct instance corresponding to _projectId"
        }
      },
      "getProjects()": {
        "details": "get all projects",
        "returns": {
          "_0": "returns an array of all Project"
        }
      },
      "getWithdrawal(uint256)": {
        "details": "get Withdrawal by id param _id index pour retrouver le withdrawal a retourner",
        "returns": {
          "_0": "a struct retait "
        }
      },
      "owner()": {
        "details": "Returns the address of the current owner."
      },
      "renounceOwnership()": {
        "details": "Leaves the contract without owner. It will not be possible to call `onlyOwner` functions anymore. Can only be called by the current owner. NOTE: Renouncing ownership will leave the contract without an owner, thereby removing any functionality that is only available to the owner."
      },
      "transferOwnership(address)": {
        "details": "Transfers ownership of the contract to a new account (`newOwner`). Can only be called by the current owner."
      },
      "withdrawTokens(uint256,uint256,string,string)": {
        "details": "Allows an NPO to withdraw funds from a project ",
        "params": {
          "_amount": "Amount of withdrawal",
          "_description": "description of the withdrawal",
          "_projectId": "project id ",
          "_title": "title of the withdrawal"
        }
      }
    },
    "title": "EthicOnChain ",
    "version": 1
  },
  "userdoc": {
    "kind": "user",
    "methods": {},
    "notice": "EthicOnChain contract to manage NPOs, Projects and Donors",
    "version": 1
  }
}