{
  "contractName": "EthicOnChain",
  "abi": [
    {
      "anonymous": false,
      "inputs": [
        {
          "indexed": false,
          "internalType": "address",
          "name": "_addressNpo",
          "type": "address"
        },
        {
          "indexed": false,
          "internalType": "string",
          "name": "_name",
          "type": "string"
        }
      ],
      "name": "NpoAdded",
      "type": "event"
    },
    {
      "anonymous": false,
      "inputs": [
        {
          "indexed": true,
          "internalType": "address",
          "name": "previousOwner",
          "type": "address"
        },
        {
          "indexed": true,
          "internalType": "address",
          "name": "newOwner",
          "type": "address"
        }
      ],
      "name": "OwnershipTransferred",
      "type": "event"
    },
    {
      "anonymous": false,
      "inputs": [
        {
          "indexed": false,
          "internalType": "string",
          "name": "_title",
          "type": "string"
        },
        {
          "indexed": false,
          "internalType": "uint256",
          "name": "_startDate",
          "type": "uint256"
        },
        {
          "indexed": false,
          "internalType": "uint256",
          "name": "_endDate",
          "type": "uint256"
        },
        {
          "indexed": false,
          "internalType": "uint256",
          "name": "_minAmount",
          "type": "uint256"
        },
        {
          "indexed": false,
          "internalType": "uint256",
          "name": "_maxAmount",
          "type": "uint256"
        }
      ],
      "name": "ProjectAdded",
      "type": "event"
    },
    {
      "inputs": [
        {
          "internalType": "address",
          "name": "",
          "type": "address"
        }
      ],
      "name": "npoAddresses",
      "outputs": [
        {
          "internalType": "string",
          "name": "denomination",
          "type": "string"
        },
        {
          "internalType": "string",
          "name": "npoAddress",
          "type": "string"
        },
        {
          "internalType": "string",
          "name": "object",
          "type": "string"
        },
        {
          "internalType": "string",
          "name": "npoType",
          "type": "string"
        },
        {
          "internalType": "uint256",
          "name": "projectCount",
          "type": "uint256"
        }
      ],
      "stateMutability": "view",
      "type": "function"
    },
    {
      "inputs": [],
      "name": "owner",
      "outputs": [
        {
          "internalType": "address",
          "name": "",
          "type": "address"
        }
      ],
      "stateMutability": "view",
      "type": "function"
    },
    {
      "inputs": [],
      "name": "renounceOwnership",
      "outputs": [],
      "stateMutability": "nonpayable",
      "type": "function"
    },
    {
      "inputs": [
        {
          "internalType": "address",
          "name": "newOwner",
          "type": "address"
        }
      ],
      "name": "transferOwnership",
      "outputs": [],
      "stateMutability": "nonpayable",
      "type": "function"
    },
    {
      "inputs": [
        {
          "internalType": "string",
          "name": "_denomination",
          "type": "string"
        },
        {
          "internalType": "string",
          "name": "_npoAddress",
          "type": "string"
        },
        {
          "internalType": "string",
          "name": "_object",
          "type": "string"
        },
        {
          "internalType": "string",
          "name": "_npoType",
          "type": "string"
        },
        {
          "internalType": "address",
          "name": "_address",
          "type": "address"
        }
      ],
      "name": "addNpo",
      "outputs": [],
      "stateMutability": "nonpayable",
      "type": "function"
    },
    {
      "inputs": [
        {
          "internalType": "string",
          "name": "_title",
          "type": "string"
        },
        {
          "internalType": "string",
          "name": "_description",
          "type": "string"
        },
        {
          "internalType": "string",
          "name": "_city",
          "type": "string"
        },
        {
          "internalType": "uint256",
          "name": "_startDate",
          "type": "uint256"
        },
        {
          "internalType": "uint256",
          "name": "_endDate",
          "type": "uint256"
        },
        {
          "internalType": "uint256",
          "name": "_campaignStartDate",
          "type": "uint256"
        },
        {
          "internalType": "uint256",
          "name": "_campaignDurationInDays",
          "type": "uint256"
        },
        {
          "internalType": "uint32",
          "name": "_minAmount",
          "type": "uint32"
        },
        {
          "internalType": "uint32",
          "name": "_maxAmount",
          "type": "uint32"
        }
      ],
      "name": "addProject",
      "outputs": [],
      "stateMutability": "nonpayable",
      "type": "function"
    },
    {
      "inputs": [
        {
          "internalType": "uint256",
          "name": "_id",
          "type": "uint256"
        },
        {
          "internalType": "address",
          "name": "_addressNpo",
          "type": "address"
        }
      ],
      "name": "getProject",
      "outputs": [
        {
          "components": [
            {
              "internalType": "enum EthicOnChain.ProjectCause",
              "name": "cause",
              "type": "uint8"
            },
            {
              "internalType": "string",
              "name": "title",
              "type": "string"
            },
            {
              "internalType": "string",
              "name": "description",
              "type": "string"
            },
            {
              "internalType": "string",
              "name": "city",
              "type": "string"
            },
            {
              "internalType": "uint256",
              "name": "startDate",
              "type": "uint256"
            },
            {
              "internalType": "uint256",
              "name": "endDate",
              "type": "uint256"
            },
            {
              "internalType": "uint256",
              "name": "campaignStartDate",
              "type": "uint256"
            },
            {
              "internalType": "uint256",
              "name": "campaignDurationInDays",
              "type": "uint256"
            },
            {
              "internalType": "uint32",
              "name": "minAmount",
              "type": "uint32"
            },
            {
              "internalType": "uint32",
              "name": "maxAmount",
              "type": "uint32"
            }
          ],
          "internalType": "struct EthicOnChain.Project",
          "name": "",
          "type": "tuple"
        }
      ],
      "stateMutability": "view",
      "type": "function"
    }
  ],
  "bytecode": "0x60806040523480156200001157600080fd5b5062000032620000266200003860201b60201c565b6200004060201b60201c565b62000104565b600033905090565b60008060009054906101000a900473ffffffffffffffffffffffffffffffffffffffff169050816000806101000a81548173ffffffffffffffffffffffffffffffffffffffff021916908373ffffffffffffffffffffffffffffffffffffffff1602179055508173ffffffffffffffffffffffffffffffffffffffff168173ffffffffffffffffffffffffffffffffffffffff167f8be0079c531659141344cd1fd0a4f28419497f9722a3daafe3b4186f6b6457e060405160405180910390a35050565b61276a80620001146000396000f3fe608060405234801561001057600080fd5b506004361061007d5760003560e01c8063715018a61161005b578063715018a6146100ee5780638da5cb5b146100f8578063d6541c3c14610116578063f2fde38b146101465761007d565b806324cf025d146100825780634913cdb01461009e57806353388ad1146100d2575b600080fd5b61009c6004803603810190610097919061166e565b610162565b005b6100b860048036038101906100b391906117ea565b61078c565b6040516100c99594939291906118ae565b60405180910390f35b6100ec60048036038101906100e7919061191d565b6109e2565b005b6100f6610e45565b005b610100610ecd565b60405161010d9190611a17565b60405180910390f35b610130600480360381019061012b9190611a32565b610ef6565b60405161013d9190611c39565b60405180910390f35b610160600480360381019061015b91906117ea565b6111ca565b005b6000600160003373ffffffffffffffffffffffffffffffffffffffff1673ffffffffffffffffffffffffffffffffffffffff16815260200190815260200160002060000180546101b190611c8a565b905014156101f4576040517f08c379a00000000000000000000000000000000000000000000000000000000081526004016101eb90611d2e565b60405180910390fd5b6000895111610238576040517f08c379a000000000000000000000000000000000000000000000000000000000815260040161022f90611d9a565b60405180910390fd5b600088511161027c576040517f08c379a000000000000000000000000000000000000000000000000000000000815260040161027390611e06565b60405180910390fd5b60008751116102c0576040517f08c379a00000000000000000000000000000000000000000000000000000000081526004016102b790611e72565b60405180910390fd5b60008611610303576040517f08c379a00000000000000000000000000000000000000000000000000000000081526004016102fa90611f04565b60405180910390fd5b60008511610346576040517f08c379a000000000000000000000000000000000000000000000000000000000815260040161033d90611f96565b60405180910390fd5b60008263ffffffff161161038f576040517f08c379a000000000000000000000000000000000000000000000000000000000815260040161038690612002565b60405180910390fd5b60008163ffffffff16116103d8576040517f08c379a00000000000000000000000000000000000000000000000000000000081526004016103cf9061206e565b60405180910390fd5b6000841161041b576040517f08c379a000000000000000000000000000000000000000000000000000000000815260040161041290612100565b60405180910390fd5b6000831161045e576040517f08c379a00000000000000000000000000000000000000000000000000000000081526004016104559061216c565b60405180910390fd5b8486106104a0576040517f08c379a0000000000000000000000000000000000000000000000000000000008152600401610497906121fe565b60405180910390fd5b8063ffffffff168263ffffffff16106104ee576040517f08c379a00000000000000000000000000000000000000000000000000000000081526004016104e590612290565b60405180910390fd5b6040518061014001604052806000600681111561050e5761050d611a72565b5b81526020018a81526020018981526020018881526020018781526020018681526020018581526020018481526020018363ffffffff1681526020018263ffffffff16815250600160003373ffffffffffffffffffffffffffffffffffffffff1673ffffffffffffffffffffffffffffffffffffffff1681526020019081526020016000206004016000600160003373ffffffffffffffffffffffffffffffffffffffff1673ffffffffffffffffffffffffffffffffffffffff16815260200190815260200160002060050154815260200190815260200160002060008201518160000160006101000a81548160ff0219169083600681111561061357610612611a72565b5b0217905550602082015181600101908051906020019061063492919061138e565b50604082015181600201908051906020019061065192919061138e565b50606082015181600301908051906020019061066e92919061138e565b506080820151816004015560a0820151816005015560c0820151816006015560e082015181600701556101008201518160080160006101000a81548163ffffffff021916908363ffffffff1602179055506101208201518160080160046101000a81548163ffffffff021916908363ffffffff160217905550905050600160003373ffffffffffffffffffffffffffffffffffffffff1673ffffffffffffffffffffffffffffffffffffffff168152602001908152602001600020600501600081548092919061073d906122df565b91905055507fe12a0991ed99358266fd00becae8b030807d7d81940b28f4f4878e1fbdc4bead8987878585604051610779959493929190612363565b60405180910390a1505050505050505050565b60016020528060005260406000206000915090508060000180546107af90611c8a565b80601f01602080910402602001604051908101604052809291908181526020018280546107db90611c8a565b80156108285780601f106107fd57610100808354040283529160200191610828565b820191906000526020600020905b81548152906001019060200180831161080b57829003601f168201915b50505050509080600101805461083d90611c8a565b80601f016020809104026020016040519081016040528092919081815260200182805461086990611c8a565b80156108b65780601f1061088b576101008083540402835291602001916108b6565b820191906000526020600020905b81548152906001019060200180831161089957829003601f168201915b5050505050908060020180546108cb90611c8a565b80601f01602080910402602001604051908101604052809291908181526020018280546108f790611c8a565b80156109445780601f1061091957610100808354040283529160200191610944565b820191906000526020600020905b81548152906001019060200180831161092757829003601f168201915b50505050509080600301805461095990611c8a565b80601f016020809104026020016040519081016040528092919081815260200182805461098590611c8a565b80156109d25780601f106109a7576101008083540402835291602001916109d2565b820191906000526020600020905b8154815290600101906020018083116109b557829003601f168201915b5050505050908060050154905085565b6109ea6112c2565b73ffffffffffffffffffffffffffffffffffffffff16610a08610ecd565b73ffffffffffffffffffffffffffffffffffffffff1614610a5e576040517f08c379a0000000000000000000000000000000000000000000000000000000008152600401610a5590612409565b60405180910390fd5b6000855111610aa2576040517f08c379a0000000000000000000000000000000000000000000000000000000008152600401610a9990612475565b60405180910390fd5b6000845111610ae6576040517f08c379a0000000000000000000000000000000000000000000000000000000008152600401610add906124e1565b60405180910390fd5b6000835111610b2a576040517f08c379a0000000000000000000000000000000000000000000000000000000008152600401610b219061254d565b60405180910390fd5b6000825111610b6e576040517f08c379a0000000000000000000000000000000000000000000000000000000008152600401610b65906125b9565b60405180910390fd5b6000600160008373ffffffffffffffffffffffffffffffffffffffff1673ffffffffffffffffffffffffffffffffffffffff1681526020019081526020016000206000018054610bbd90611c8a565b905014610bff576040517f08c379a0000000000000000000000000000000000000000000000000000000008152600401610bf690612625565b60405180910390fd5b84600160008373ffffffffffffffffffffffffffffffffffffffff1673ffffffffffffffffffffffffffffffffffffffff1681526020019081526020016000206000019080519060200190610c5592919061138e565b5083600160008373ffffffffffffffffffffffffffffffffffffffff1673ffffffffffffffffffffffffffffffffffffffff1681526020019081526020016000206001019080519060200190610cac92919061138e565b5082600160008373ffffffffffffffffffffffffffffffffffffffff1673ffffffffffffffffffffffffffffffffffffffff1681526020019081526020016000206002019080519060200190610d0392919061138e565b5081600160008373ffffffffffffffffffffffffffffffffffffffff1673ffffffffffffffffffffffffffffffffffffffff1681526020019081526020016000206003019080519060200190610d5a92919061138e565b508060026000600360009054906101000a900463ffffffff1663ffffffff16815260200190815260200160002060006101000a81548173ffffffffffffffffffffffffffffffffffffffff021916908373ffffffffffffffffffffffffffffffffffffffff1602179055506003600081819054906101000a900463ffffffff1680929190610de790612645565b91906101000a81548163ffffffff021916908363ffffffff160217905550507e1d5f981dd0c1edf0e70e39227d6832c9031559f98076de006e1bf7a19a01a08186604051610e36929190612672565b60405180910390a15050505050565b610e4d6112c2565b73ffffffffffffffffffffffffffffffffffffffff16610e6b610ecd565b73ffffffffffffffffffffffffffffffffffffffff1614610ec1576040517f08c379a0000000000000000000000000000000000000000000000000000000008152600401610eb890612409565b60405180910390fd5b610ecb60006112ca565b565b60008060009054906101000a900473ffffffffffffffffffffffffffffffffffffffff16905090565b610efe611414565b600160008373ffffffffffffffffffffffffffffffffffffffff1673ffffffffffffffffffffffffffffffffffffffff1681526020019081526020016000206004016000848152602001908152602001600020604051806101400160405290816000820160009054906101000a900460ff166006811115610f8257610f81611a72565b5b6006811115610f9457610f93611a72565b5b8152602001600182018054610fa890611c8a565b80601f0160208091040260200160405190810160405280929190818152602001828054610fd490611c8a565b80156110215780601f10610ff657610100808354040283529160200191611021565b820191906000526020600020905b81548152906001019060200180831161100457829003601f168201915b5050505050815260200160028201805461103a90611c8a565b80601f016020809104026020016040519081016040528092919081815260200182805461106690611c8a565b80156110b35780601f10611088576101008083540402835291602001916110b3565b820191906000526020600020905b81548152906001019060200180831161109657829003601f168201915b505050505081526020016003820180546110cc90611c8a565b80601f01602080910402602001604051908101604052809291908181526020018280546110f890611c8a565b80156111455780601f1061111a57610100808354040283529160200191611145565b820191906000526020600020905b81548152906001019060200180831161112857829003601f168201915b50505050508152602001600482015481526020016005820154815260200160068201548152602001600782015481526020016008820160009054906101000a900463ffffffff1663ffffffff1663ffffffff1681526020016008820160049054906101000a900463ffffffff1663ffffffff1663ffffffff1681525050905092915050565b6111d26112c2565b73ffffffffffffffffffffffffffffffffffffffff166111f0610ecd565b73ffffffffffffffffffffffffffffffffffffffff1614611246576040517f08c379a000000000000000000000000000000000000000000000000000000000815260040161123d90612409565b60405180910390fd5b600073ffffffffffffffffffffffffffffffffffffffff168173ffffffffffffffffffffffffffffffffffffffff1614156112b6576040517f08c379a00000000000000000000000000000000000000000000000000000000081526004016112ad90612714565b60405180910390fd5b6112bf816112ca565b50565b600033905090565b60008060009054906101000a900473ffffffffffffffffffffffffffffffffffffffff169050816000806101000a81548173ffffffffffffffffffffffffffffffffffffffff021916908373ffffffffffffffffffffffffffffffffffffffff1602179055508173ffffffffffffffffffffffffffffffffffffffff168173ffffffffffffffffffffffffffffffffffffffff167f8be0079c531659141344cd1fd0a4f28419497f9722a3daafe3b4186f6b6457e060405160405180910390a35050565b82805461139a90611c8a565b90600052602060002090601f0160209004810192826113bc5760008555611403565b82601f106113d557805160ff1916838001178555611403565b82800160010185558215611403579182015b828111156114025782518255916020019190600101906113e7565b5b5090506114109190611485565b5090565b6040518061014001604052806000600681111561143457611433611a72565b5b815260200160608152602001606081526020016060815260200160008152602001600081526020016000815260200160008152602001600063ffffffff168152602001600063ffffffff1681525090565b5b8082111561149e576000816000905550600101611486565b5090565b6000604051905090565b600080fd5b600080fd5b600080fd5b600080fd5b6000601f19601f8301169050919050565b7f4e487b7100000000000000000000000000000000000000000000000000000000600052604160045260246000fd5b611509826114c0565b810181811067ffffffffffffffff82111715611528576115276114d1565b5b80604052505050565b600061153b6114a2565b90506115478282611500565b919050565b600067ffffffffffffffff821115611567576115666114d1565b5b611570826114c0565b9050602081019050919050565b82818337600083830152505050565b600061159f61159a8461154c565b611531565b9050828152602081018484840111156115bb576115ba6114bb565b5b6115c684828561157d565b509392505050565b600082601f8301126115e3576115e26114b6565b5b81356115f384826020860161158c565b91505092915050565b6000819050919050565b61160f816115fc565b811461161a57600080fd5b50565b60008135905061162c81611606565b92915050565b600063ffffffff82169050919050565b61164b81611632565b811461165657600080fd5b50565b60008135905061166881611642565b92915050565b60008060008060008060008060006101208a8c031215611691576116906114ac565b5b60008a013567ffffffffffffffff8111156116af576116ae6114b1565b5b6116bb8c828d016115ce565b99505060208a013567ffffffffffffffff8111156116dc576116db6114b1565b5b6116e88c828d016115ce565b98505060408a013567ffffffffffffffff811115611709576117086114b1565b5b6117158c828d016115ce565b97505060606117268c828d0161161d565b96505060806117378c828d0161161d565b95505060a06117488c828d0161161d565b94505060c06117598c828d0161161d565b93505060e061176a8c828d01611659565b92505061010061177c8c828d01611659565b9150509295985092959850929598565b600073ffffffffffffffffffffffffffffffffffffffff82169050919050565b60006117b78261178c565b9050919050565b6117c7816117ac565b81146117d257600080fd5b50565b6000813590506117e4816117be565b92915050565b600060208284031215611800576117ff6114ac565b5b600061180e848285016117d5565b91505092915050565b600081519050919050565b600082825260208201905092915050565b60005b83811015611851578082015181840152602081019050611836565b83811115611860576000848401525b50505050565b600061187182611817565b61187b8185611822565b935061188b818560208601611833565b611894816114c0565b840191505092915050565b6118a8816115fc565b82525050565b600060a08201905081810360008301526118c88188611866565b905081810360208301526118dc8187611866565b905081810360408301526118f08186611866565b905081810360608301526119048185611866565b9050611913608083018461189f565b9695505050505050565b600080600080600060a08688031215611939576119386114ac565b5b600086013567ffffffffffffffff811115611957576119566114b1565b5b611963888289016115ce565b955050602086013567ffffffffffffffff811115611984576119836114b1565b5b611990888289016115ce565b945050604086013567ffffffffffffffff8111156119b1576119b06114b1565b5b6119bd888289016115ce565b935050606086013567ffffffffffffffff8111156119de576119dd6114b1565b5b6119ea888289016115ce565b92505060806119fb888289016117d5565b9150509295509295909350565b611a11816117ac565b82525050565b6000602082019050611a2c6000830184611a08565b92915050565b60008060408385031215611a4957611a486114ac565b5b6000611a578582860161161d565b9250506020611a68858286016117d5565b9150509250929050565b7f4e487b7100000000000000000000000000000000000000000000000000000000600052602160045260246000fd5b60078110611ab257611ab1611a72565b5b50565b6000819050611ac382611aa1565b919050565b6000611ad382611ab5565b9050919050565b611ae381611ac8565b82525050565b600082825260208201905092915050565b6000611b0582611817565b611b0f8185611ae9565b9350611b1f818560208601611833565b611b28816114c0565b840191505092915050565b611b3c816115fc565b82525050565b611b4b81611632565b82525050565b600061014083016000830151611b6a6000860182611ada565b5060208301518482036020860152611b828282611afa565b91505060408301518482036040860152611b9c8282611afa565b91505060608301518482036060860152611bb68282611afa565b9150506080830151611bcb6080860182611b33565b5060a0830151611bde60a0860182611b33565b5060c0830151611bf160c0860182611b33565b5060e0830151611c0460e0860182611b33565b50610100830151611c19610100860182611b42565b50610120830151611c2e610120860182611b42565b508091505092915050565b60006020820190508181036000830152611c538184611b51565b905092915050565b7f4e487b7100000000000000000000000000000000000000000000000000000000600052602260045260246000fd5b60006002820490506001821680611ca257607f821691505b60208210811415611cb657611cb5611c5b565b5b50919050565b7f566f7573206e27c3aa7465732070617320656e72656769737472c3a920656e2060008201527f74616e7420717565204e504f0000000000000000000000000000000000000000602082015250565b6000611d18602c83611822565b9150611d2382611cbc565b604082019050919050565b60006020820190508181036000830152611d4781611d0b565b9050919050565b7f4c6520746974726520657374206f626c696761746f6972650000000000000000600082015250565b6000611d84601883611822565b9150611d8f82611d4e565b602082019050919050565b60006020820190508181036000830152611db381611d77565b9050919050565b7f4c61206465736372697074696f6e20657374206f626c696761746f6972650000600082015250565b6000611df0601e83611822565b9150611dfb82611dba565b602082019050919050565b60006020820190508181036000830152611e1f81611de3565b9050919050565b7f4c612076696c6c6520657374206f626c696761746f6972650000000000000000600082015250565b6000611e5c601883611822565b9150611e6782611e26565b602082019050919050565b60006020820190508181036000830152611e8b81611e4f565b9050919050565b7f446174652064652064c3a96275742064652070726f6a6574206f626c6967617460008201527f6f69726500000000000000000000000000000000000000000000000000000000602082015250565b6000611eee602483611822565b9150611ef982611e92565b604082019050919050565b60006020820190508181036000830152611f1d81611ee1565b9050919050565b7f446174652064652066696e2064652070726f6a6574206f626c696761746f697260008201527f6500000000000000000000000000000000000000000000000000000000000000602082015250565b6000611f80602183611822565b9150611f8b82611f24565b604082019050919050565b60006020820190508181036000830152611faf81611f73565b9050919050565b7f4d6f6e74616e74206d696e696d616c206f626c696761746f6972650000000000600082015250565b6000611fec601b83611822565b9150611ff782611fb6565b602082019050919050565b6000602082019050818103600083015261201b81611fdf565b9050919050565b7f4d6f6e74616e74206d6178696d616c206f626c696761746f6972650000000000600082015250565b6000612058601b83611822565b915061206382612022565b602082019050919050565b600060208201905081810360008301526120878161204b565b9050919050565b7f446174652064652064c3a96275742064652063616d7061676e65206f626c696760008201527f61746f6972650000000000000000000000000000000000000000000000000000602082015250565b60006120ea602683611822565b91506120f58261208e565b604082019050919050565b60006020820190508181036000830152612119816120dd565b9050919050565b7f447572c3a9652064652063616d7061676e65206f626c696761746f6972650000600082015250565b6000612156601e83611822565b915061216182612120565b602082019050919050565b6000602082019050818103600083015261218581612149565b9050919050565b7f4c6120646174652064c3a96275742064652070726f6a657420646f697420c3aa60008201527f747265206176616e74206c612066696e00000000000000000000000000000000602082015250565b60006121e8603083611822565b91506121f38261218c565b604082019050919050565b60006020820190508181036000830152612217816121db565b9050919050565b7f4c65206d6f6e74616e74206d696e696d616c20646f697420c3aa74726520696e60008201527f66c3a97269657572206175206d6f6e74616e74206d6178696d616c0000000000602082015250565b600061227a603b83611822565b91506122858261221e565b604082019050919050565b600060208201905081810360008301526122a98161226d565b9050919050565b7f4e487b7100000000000000000000000000000000000000000000000000000000600052601160045260246000fd5b60006122ea826115fc565b91507fffffffffffffffffffffffffffffffffffffffffffffffffffffffffffffffff82141561231d5761231c6122b0565b5b600182019050919050565b6000819050919050565b600061234d61234861234384611632565b612328565b6115fc565b9050919050565b61235d81612332565b82525050565b600060a082019050818103600083015261237d8188611866565b905061238c602083018761189f565b612399604083018661189f565b6123a66060830185612354565b6123b36080830184612354565b9695505050505050565b7f4f776e61626c653a2063616c6c6572206973206e6f7420746865206f776e6572600082015250565b60006123f3602083611822565b91506123fe826123bd565b602082019050919050565b60006020820190508181036000830152612422816123e6565b9050919050565b7f4c612064c3a96e6f6d696e6174696f6e20657374206f626c696761746f697265600082015250565b600061245f602083611822565b915061246a82612429565b602082019050919050565b6000602082019050818103600083015261248e81612452565b9050919050565b7f4c276164726573736520657374206f626c696761746f69726500000000000000600082015250565b60006124cb601983611822565b91506124d682612495565b602082019050919050565b600060208201905081810360008301526124fa816124be565b9050919050565b7f4c276f626a657420657374206f626c696761746f697265000000000000000000600082015250565b6000612537601783611822565b915061254282612501565b602082019050919050565b600060208201905081810360008301526125668161252a565b9050919050565b7f4c65207479706520657374206f626c696761746f697265000000000000000000600082015250565b60006125a3601783611822565b91506125ae8261256d565b602082019050919050565b600060208201905081810360008301526125d281612596565b9050919050565b7f4e504f2064c3a96ac3a020656e72656769737472c3a900000000000000000000600082015250565b600061260f601683611822565b915061261a826125d9565b602082019050919050565b6000602082019050818103600083015261263e81612602565b9050919050565b600061265082611632565b915063ffffffff821415612667576126666122b0565b5b600182019050919050565b60006040820190506126876000830185611a08565b81810360208301526126998184611866565b90509392505050565b7f4f776e61626c653a206e6577206f776e657220697320746865207a65726f206160008201527f6464726573730000000000000000000000000000000000000000000000000000602082015250565b60006126fe602683611822565b9150612709826126a2565b604082019050919050565b6000602082019050818103600083015261272d816126f1565b905091905056fea2646970667358221220b15b2b9bab07966c4f56a82da1a81f874719b01ef62f537ce33c9f60366a316364736f6c634300080b0033",
  "immutableReferences": {},
  "source": "// SPDX-License-Identifier: MIT\r\npragma solidity 0.8.11;\r\n \r\nimport \"@openzeppelin/contracts/token/ERC20/ERC20.sol\";\r\nimport \"@openzeppelin/contracts/access/Ownable.sol\";\r\n\r\n/// @title EthicOnChain \r\n/// @author Lahcen E. Dev\r\n/// @notice EthicOnChain contract to manage NPOs, Projects and Donors\r\ncontract EthicOnChain is Ownable {\r\n    \r\n    struct NPO {\r\n        string denomination;\r\n        string npoAddress;\r\n        string object;\r\n        string npoType;\r\n        mapping (uint => Project) projects;\r\n        uint projectCount;\r\n    }\r\n\r\n    struct Donor {\r\n        string name;\r\n        string surName;\r\n        string addressDonor;\r\n    }\r\n\r\n    struct Project {\r\n        ProjectCause cause;\r\n        string title;\r\n        string description;\r\n        string city;\r\n        uint startDate;\r\n        uint endDate;\r\n        uint campaignStartDate;\r\n        uint campaignDurationInDays;\r\n        uint32 minAmount;\r\n        uint32 maxAmount;\r\n    }      \r\n\r\n    enum ProjectCause {\r\n        LutteContreLaPauvreteEtExclusion,\r\n        EnvironnementEtLesAnimaux,\r\n        Education,\r\n        ArtEtLaCulture,\r\n        SanteEtLaRecherche,\r\n        DroitsDeLHomme,\r\n        InfrastructureRoutiere\r\n    }\r\n\r\n    enum ProjectStatus {\r\n        ProjectProposal, \r\n        WaitingOpening,\r\n        OpenFundRaising,\r\n        CloseFundRaising\r\n    }\r\n\r\n    mapping (address => NPO) public npoAddresses; //Mapping of all NPO \r\n    mapping (uint => address) private npoMap;\r\n    uint32 private npoCount; \r\n    \r\n    event NpoAdded(address _addressNpo, string _name);\r\n    event ProjectAdded(string _title, uint _startDate, uint _endDate, uint _minAmount, uint _maxAmount);\r\n    \r\n    /// @dev The administrator can add a new NPO\r\n    /// @param _denomination Demonination of the NPO\r\n    /// @param _npoAddress Postal address of the NPO\r\n    /// @param _object object of NPO\r\n    /// @param _npoType Type of npo organization\r\n    /// @param _address the ERC20 address of the npo\r\n    function addNpo(\r\n        string memory _denomination,\r\n        string memory _npoAddress,\r\n        string memory _object,\r\n        string memory _npoType,\r\n        address _address) public onlyOwner {\r\n        // Mandatory fields\r\n        require(bytes(_denomination).length > 0, unicode\"La dnomination est obligatoire\");\r\n        require(bytes(_npoAddress).length > 0, \"L'adresse est obligatoire\");\r\n        require(bytes(_object).length > 0, \"L'objet est obligatoire\");\r\n        require(bytes(_npoType).length > 0, \"Le type est obligatoire\");\r\n        require(bytes(npoAddresses[_address].denomination).length == 0, unicode\"NPO dj enregistr\");\r\n        \r\n        npoAddresses[_address].denomination = _denomination;\r\n        npoAddresses[_address].npoAddress = _npoAddress;\r\n        npoAddresses[_address].object = _object;\r\n        npoAddresses[_address].npoType = _npoType;\r\n        npoMap[npoCount] = _address;\r\n        npoCount++;\r\n        emit NpoAdded(_address, _denomination);\r\n    }\r\n \r\n    /// @dev This function will allow to add a project, the owner will be the one who calls the function. \r\n    /// @param _title The title of the project\r\n    /// @param _description description of the project\r\n    /// @param _city the city where the project will be located.\r\n    /// @param _startDate The start date of the project\r\n    /// @param _endDate The end of the project\r\n    /// @param _campaignStartDate the beginning of the collection of funds\r\n    /// @param _campaignDurationInDays the duration of the collection of funds\r\n    /// @param _minAmount The minimum price for the project to be valid\r\n    /// @param _maxAmount The maximum price to make the project a success \r\n    function addProject(\r\n        string memory _title,\r\n        string memory _description,\r\n        string memory _city,\r\n        uint _startDate,\r\n        uint _endDate,\r\n        uint _campaignStartDate,\r\n        uint _campaignDurationInDays,\r\n        uint32 _minAmount,\r\n        uint32 _maxAmount\r\n    ) public {\r\n        require(bytes(npoAddresses[msg.sender].denomination).length != 0, unicode\"Vous n'tes pas enregistr en tant que NPO\");\r\n        // Mandatory fields\r\n        require(bytes(_title).length > 0, \"Le titre est obligatoire\");\r\n        require(bytes(_description).length > 0, \"La description est obligatoire\");\r\n        require(bytes(_city).length > 0, \"La ville est obligatoire\");\r\n        require(_startDate > 0, unicode\"Date de dbut de projet obligatoire\");\r\n        require(_endDate > 0, \"Date de fin de projet obligatoire\");\r\n        require(_minAmount > 0, \"Montant minimal obligatoire\");\r\n        require(_maxAmount > 0, \"Montant maximal obligatoire\");\r\n        require(_campaignStartDate > 0, unicode\"Date de dbut de campagne obligatoire\");\r\n        require(_campaignDurationInDays > 0, unicode\"Dure de campagne obligatoire\");\r\n        // Comparisons\r\n        require(_startDate < _endDate, unicode\"La date dbut de projet doit tre avant la fin\");\r\n        require(_minAmount < _maxAmount, unicode\"Le montant minimal doit tre infrieur au montant maximal\");\r\n\r\n        npoAddresses[msg.sender].projects[npoAddresses[msg.sender].projectCount] = Project(\r\n            ProjectCause.LutteContreLaPauvreteEtExclusion,\r\n            _title,\r\n            _description,\r\n            _city,\r\n            _startDate,\r\n            _endDate,\r\n            _campaignStartDate,\r\n            _campaignDurationInDays,\r\n            _minAmount,\r\n            _maxAmount\r\n        );\r\n        npoAddresses[msg.sender].projectCount++;\r\n        emit ProjectAdded(_title,  _startDate, _endDate, _minAmount, _maxAmount);\r\n    } \r\n\r\n    /// @dev This function allows to return a project of type Project according to the ERC address of the NPO and the index.\r\n    /// @param _id index of the project list that the address has\r\n    /// @param _addressNpo NPO's ERC20 address\r\n    /// @return Documents the return variables of a contracts function state variable\r\n    function getProject(uint _id, address _addressNpo) public view returns(Project memory) {\r\n        return npoAddresses[_addressNpo].projects[_id];\r\n    }\r\n\r\n}",
  "sourcePath": "D:\\DOCUMENTS\\ALYRA\\PROJET\\ethic-on-chain\\contracts\\EthicOnChain.sol",
  "compiler": {
    "name": "solc",
    "version": "0.8.11+commit.d7f03943.Emscripten.clang"
  },
  "schemaVersion": "3.4.4",
  "updatedAt": "2021-12-22T14:33:30.058Z",
  "devdoc": {
    "author": "Lahcen E. Dev",
    "kind": "dev",
    "methods": {
      "addNpo(string,string,string,string,address)": {
        "details": "The administrator can add a new NPO",
        "params": {
          "_address": "the ERC20 address of the npo",
          "_denomination": "Demonination of the NPO",
          "_npoAddress": "Postal address of the NPO",
          "_npoType": "Type of npo organization",
          "_object": "object of NPO"
        }
      },
      "addProject(string,string,string,uint256,uint256,uint256,uint256,uint32,uint32)": {
        "details": "This function will allow to add a project, the owner will be the one who calls the function. ",
        "params": {
          "_campaignDurationInDays": "the duration of the collection of funds",
          "_campaignStartDate": "the beginning of the collection of funds",
          "_city": "the city where the project will be located.",
          "_description": "description of the project",
          "_endDate": "The end of the project",
          "_maxAmount": "The maximum price to make the project a success ",
          "_minAmount": "The minimum price for the project to be valid",
          "_startDate": "The start date of the project",
          "_title": "The title of the project"
        }
      },
      "getProject(uint256,address)": {
        "details": "This function allows to return a project of type Project according to the ERC address of the NPO and the index.",
        "params": {
          "_addressNpo": "NPO's ERC20 address",
          "_id": "index of the project list that the address has"
        },
        "returns": {
          "_0": "Documents the return variables of a contracts function state variable"
        }
      },
      "owner()": {
        "details": "Returns the address of the current owner."
      },
      "renounceOwnership()": {
        "details": "Leaves the contract without owner. It will not be possible to call `onlyOwner` functions anymore. Can only be called by the current owner. NOTE: Renouncing ownership will leave the contract without an owner, thereby removing any functionality that is only available to the owner."
      },
      "transferOwnership(address)": {
        "details": "Transfers ownership of the contract to a new account (`newOwner`). Can only be called by the current owner."
      }
    },
    "title": "EthicOnChain ",
    "version": 1
  },
  "userdoc": {
    "kind": "user",
    "methods": {},
    "notice": "EthicOnChain contract to manage NPOs, Projects and Donors",
    "version": 1
  }
}