{
  "contractName": "EthicOnChainLib",
  "abi": [
    {
      "inputs": [],
      "name": "libGetTime",
      "outputs": [
        {
          "internalType": "uint256",
          "name": "",
          "type": "uint256"
        }
      ],
      "stateMutability": "view",
      "type": "function"
    }
  ],
  "bytecode": "0x611eee610053600b82828239805160001a607314610046577f4e487b7100000000000000000000000000000000000000000000000000000000600052600060045260246000fd5b30600052607381538281f3fe73000000000000000000000000000000000000000030146080604052600436106100925760003560e01c80637f9824d0116100655780637f9824d01461015757806381e9c89b1461018757806388439ce4146101b7578063923aa962146101e757610092565b806304ae0c65146100975780632c77488e146100c75780635454999f146100f7578063599ed59114610127575b600080fd5b6100b160048036038101906100ac9190611143565b610205565b6040516100be919061159e565b60405180910390f35b6100e160048036038101906100dc91906115f6565b61035e565b6040516100ee919061179b565b60405180910390f35b610111600480360381019061010c91906117e9565b6104b7565b60405161011e91906118b9565b60405180910390f35b610141600480360381019061013c9190611911565b610630565b60405161014e91906119b9565b60405180910390f35b610171600480360381019061016c91906119d4565b61068f565b60405161017e9190611b73565b60405180910390f35b6101a1600480360381019061019c9190611bcb565b610a04565b6040516101ae9190611d35565b60405180910390f35b6101d160048036038101906101cc91906119d4565b610b5d565b6040516101de919061159e565b60405180910390f35b6101ef610f69565b6040516101fc9190611d66565b60405180910390f35b606060008460008473ffffffffffffffffffffffffffffffffffffffff1673ffffffffffffffffffffffffffffffffffffffff16815260200190815260200160002060060180549050905060008167ffffffffffffffff81111561026c5761026b611d81565b5b6040519080825280602002602001820160405280156102a557816020015b610292610f71565b81526020019060019003908161028a5790505b50905060005b828110156103515760008760008773ffffffffffffffffffffffffffffffffffffffff1673ffffffffffffffffffffffffffffffffffffffff168152602001908152602001600020600601828154811061030857610307611db0565b5b9060005260206000200154905061031f878261068f565b83838151811061033257610331611db0565b5b602002602001018190525050808061034990611e0e565b9150506102ab565b5080925050509392505050565b606060008460008473ffffffffffffffffffffffffffffffffffffffff1673ffffffffffffffffffffffffffffffffffffffff16815260200190815260200160002060070180549050905060008167ffffffffffffffff8111156103c5576103c4611d81565b5b6040519080825280602002602001820160405280156103fe57816020015b6103eb61100f565b8152602001906001900390816103e35790505b50905060005b828110156104aa5760008760008773ffffffffffffffffffffffffffffffffffffffff1673ffffffffffffffffffffffffffffffffffffffff168152602001908152602001600020600701828154811061046157610460611db0565b5b9060005260206000200154905061047887826104b7565b83838151811061048b5761048a611db0565b5b60200260200101819052505080806104a290611e0e565b915050610404565b5080925050509392505050565b6104bf61100f565b8260008381526020019081526020016000206040518060c00160405290816000820154815260200160018201548152602001600282015481526020016003820154815260200160048201805461051490611e86565b80601f016020809104026020016040519081016040528092919081815260200182805461054090611e86565b801561058d5780601f106105625761010080835404028352916020019161058d565b820191906000526020600020905b81548152906001019060200180831161057057829003601f168201915b505050505081526020016005820180546105a690611e86565b80601f01602080910402602001604051908101604052809291908181526020018280546105d290611e86565b801561061f5780601f106105f45761010080835404028352916020019161061f565b820191906000526020600020905b81548152906001019060200180831161060257829003601f168201915b505050505081525050905092915050565b610638611045565b8260008381526020019081526020016000206040518060a001604052908160008201548152602001600182015481526020016002820154815260200160038201548152602001600482015481525050905092915050565b610697610f71565b826000838152602001908152602001600020604051806101e001604052908160008201548152602001600182015481526020016002820154815260200160038201548152602001600482015481526020016005820154815260200160068201548152602001600782015481526020016008820160009054906101000a900473ffffffffffffffffffffffffffffffffffffffff1673ffffffffffffffffffffffffffffffffffffffff1673ffffffffffffffffffffffffffffffffffffffff1681526020016008820160149054906101000a900460ff1660068111156107805761077f6111ea565b5b6006811115610792576107916111ea565b5b81526020016009820180546107a690611e86565b80601f01602080910402602001604051908101604052809291908181526020018280546107d290611e86565b801561081f5780601f106107f45761010080835404028352916020019161081f565b820191906000526020600020905b81548152906001019060200180831161080257829003601f168201915b50505050508152602001600a8201805461083890611e86565b80601f016020809104026020016040519081016040528092919081815260200182805461086490611e86565b80156108b15780601f10610886576101008083540402835291602001916108b1565b820191906000526020600020905b81548152906001019060200180831161089457829003601f168201915b50505050508152602001600b820180546108ca90611e86565b80601f01602080910402602001604051908101604052809291908181526020018280546108f690611e86565b80156109435780601f1061091857610100808354040283529160200191610943565b820191906000526020600020905b81548152906001019060200180831161092657829003601f168201915b50505050508152602001600c820180548060200260200160405190810160405280929190818152602001828054801561099b57602002820191906000526020600020905b815481526020019060010190808311610987575b50505050508152602001600d82018054806020026020016040519081016040528092919081815260200182805480156109f357602002820191906000526020600020905b8154815260200190600101908083116109df575b505050505081525050905092915050565b606060008460008473ffffffffffffffffffffffffffffffffffffffff1673ffffffffffffffffffffffffffffffffffffffff16815260200190815260200160002060050180549050905060008167ffffffffffffffff811115610a6b57610a6a611d81565b5b604051908082528060200260200182016040528015610aa457816020015b610a91611045565b815260200190600190039081610a895790505b50905060005b82811015610b505760008760008773ffffffffffffffffffffffffffffffffffffffff1673ffffffffffffffffffffffffffffffffffffffff1681526020019081526020016000206005018281548110610b0757610b06611db0565b5b90600052602060002001549050610b1e8782610630565b838381518110610b3157610b30611db0565b5b6020026020010181905250508080610b4890611e0e565b915050610aaa565b5080925050509392505050565b6060600082905060008167ffffffffffffffff811115610b8057610b7f611d81565b5b604051908082528060200260200182016040528015610bb957816020015b610ba6610f71565b815260200190600190039081610b9e5790505b50905060005b82811015610f5d57856000828152602001908152602001600020604051806101e001604052908160008201548152602001600182015481526020016002820154815260200160038201548152602001600482015481526020016005820154815260200160068201548152602001600782015481526020016008820160009054906101000a900473ffffffffffffffffffffffffffffffffffffffff1673ffffffffffffffffffffffffffffffffffffffff1673ffffffffffffffffffffffffffffffffffffffff1681526020016008820160149054906101000a900460ff166006811115610cb057610caf6111ea565b5b6006811115610cc257610cc16111ea565b5b8152602001600982018054610cd690611e86565b80601f0160208091040260200160405190810160405280929190818152602001828054610d0290611e86565b8015610d4f5780601f10610d2457610100808354040283529160200191610d4f565b820191906000526020600020905b815481529060010190602001808311610d3257829003601f168201915b50505050508152602001600a82018054610d6890611e86565b80601f0160208091040260200160405190810160405280929190818152602001828054610d9490611e86565b8015610de15780601f10610db657610100808354040283529160200191610de1565b820191906000526020600020905b815481529060010190602001808311610dc457829003601f168201915b50505050508152602001600b82018054610dfa90611e86565b80601f0160208091040260200160405190810160405280929190818152602001828054610e2690611e86565b8015610e735780601f10610e4857610100808354040283529160200191610e73565b820191906000526020600020905b815481529060010190602001808311610e5657829003601f168201915b50505050508152602001600c8201805480602002602001604051908101604052809291908181526020018280548015610ecb57602002820191906000526020600020905b815481526020019060010190808311610eb7575b50505050508152602001600d8201805480602002602001604051908101604052809291908181526020018280548015610f2357602002820191906000526020600020905b815481526020019060010190808311610f0f575b505050505081525050828281518110610f3f57610f3e611db0565b5b60200260200101819052508080610f5590611e0e565b915050610bbf565b50809250505092915050565b600042905090565b604051806101e001604052806000815260200160008152602001600081526020016000815260200160008152602001600081526020016000815260200160008152602001600073ffffffffffffffffffffffffffffffffffffffff16815260200160006006811115610fe657610fe56111ea565b5b815260200160608152602001606081526020016060815260200160608152602001606081525090565b6040518060c001604052806000815260200160008152602001600081526020016000815260200160608152602001606081525090565b6040518060a0016040528060008152602001600081526020016000815260200160008152602001600081525090565b600080fd5b6000819050919050565b61108c81611079565b811461109757600080fd5b50565b6000813590506110a981611083565b92915050565b6000819050919050565b6110c2816110af565b81146110cd57600080fd5b50565b6000813590506110df816110b9565b92915050565b600073ffffffffffffffffffffffffffffffffffffffff82169050919050565b6000611110826110e5565b9050919050565b61112081611105565b811461112b57600080fd5b50565b60008135905061113d81611117565b92915050565b60008060006060848603121561115c5761115b611074565b5b600061116a8682870161109a565b935050602061117b868287016110d0565b925050604061118c8682870161112e565b9150509250925092565b600081519050919050565b600082825260208201905092915050565b6000819050602082019050919050565b6000819050919050565b6111d5816111c2565b82525050565b6111e481611105565b82525050565b7f4e487b7100000000000000000000000000000000000000000000000000000000600052602160045260246000fd5b6007811061122a576112296111ea565b5b50565b600081905061123b82611219565b919050565b600061124b8261122d565b9050919050565b61125b81611240565b82525050565b600081519050919050565b600082825260208201905092915050565b60005b8381101561129b578082015181840152602081019050611280565b838111156112aa576000848401525b50505050565b6000601f19601f8301169050919050565b60006112cc82611261565b6112d6818561126c565b93506112e681856020860161127d565b6112ef816112b0565b840191505092915050565b600081519050919050565b600082825260208201905092915050565b6000819050602082019050919050565b600061133283836111cc565b60208301905092915050565b6000602082019050919050565b6000611356826112fa565b6113608185611305565b935061136b83611316565b8060005b8381101561139c5781516113838882611326565b975061138e8361133e565b92505060018101905061136f565b5085935050505092915050565b60006101e0830160008301516113c260008601826111cc565b5060208301516113d560208601826111cc565b5060408301516113e860408601826111cc565b5060608301516113fb60608601826111cc565b50608083015161140e60808601826111cc565b5060a083015161142160a08601826111cc565b5060c083015161143460c08601826111cc565b5060e083015161144760e08601826111cc565b5061010083015161145c6101008601826111db565b50610120830151611471610120860182611252565b5061014083015184820361014086015261148b82826112c1565b9150506101608301518482036101608601526114a782826112c1565b9150506101808301518482036101808601526114c382826112c1565b9150506101a08301518482036101a08601526114df828261134b565b9150506101c08301518482036101c08601526114fb828261134b565b9150508091505092915050565b600061151483836113a9565b905092915050565b6000602082019050919050565b600061153482611196565b61153e81856111a1565b935083602082028501611550856111b2565b8060005b8581101561158c578484038952815161156d8582611508565b94506115788361151c565b925060208a01995050600181019050611554565b50829750879550505050505092915050565b600060208201905081810360008301526115b88184611529565b905092915050565b6000819050919050565b6115d3816115c0565b81146115de57600080fd5b50565b6000813590506115f0816115ca565b92915050565b60008060006060848603121561160f5761160e611074565b5b600061161d8682870161109a565b935050602061162e868287016115e1565b925050604061163f8682870161112e565b9150509250925092565b600081519050919050565b600082825260208201905092915050565b6000819050602082019050919050565b600060c08301600083015161168d60008601826111cc565b5060208301516116a060208601826111cc565b5060408301516116b360408601826111cc565b5060608301516116c660608601826111cc565b50608083015184820360808601526116de82826112c1565b91505060a083015184820360a08601526116f882826112c1565b9150508091505092915050565b60006117118383611675565b905092915050565b6000602082019050919050565b600061173182611649565b61173b8185611654565b93508360208202850161174d85611665565b8060005b85811015611789578484038952815161176a8582611705565b945061177583611719565b925060208a01995050600181019050611751565b50829750879550505050505092915050565b600060208201905081810360008301526117b58184611726565b905092915050565b6117c6816111c2565b81146117d157600080fd5b50565b6000813590506117e3816117bd565b92915050565b60008060408385031215611800576117ff611074565b5b600061180e858286016115e1565b925050602061181f858286016117d4565b9150509250929050565b600060c08301600083015161184160008601826111cc565b50602083015161185460208601826111cc565b50604083015161186760408601826111cc565b50606083015161187a60608601826111cc565b506080830151848203608086015261189282826112c1565b91505060a083015184820360a08601526118ac82826112c1565b9150508091505092915050565b600060208201905081810360008301526118d38184611829565b905092915050565b6000819050919050565b6118ee816118db565b81146118f957600080fd5b50565b60008135905061190b816118e5565b92915050565b6000806040838503121561192857611927611074565b5b6000611936858286016118fc565b9250506020611947858286016117d4565b9150509250929050565b60a08201600082015161196760008501826111cc565b50602082015161197a60208501826111cc565b50604082015161198d60408501826111cc565b5060608201516119a060608501826111cc565b5060808201516119b360808501826111cc565b50505050565b600060a0820190506119ce6000830184611951565b92915050565b600080604083850312156119eb576119ea611074565b5b60006119f9858286016110d0565b9250506020611a0a858286016117d4565b9150509250929050565b60006101e083016000830151611a2d60008601826111cc565b506020830151611a4060208601826111cc565b506040830151611a5360408601826111cc565b506060830151611a6660608601826111cc565b506080830151611a7960808601826111cc565b5060a0830151611a8c60a08601826111cc565b5060c0830151611a9f60c08601826111cc565b5060e0830151611ab260e08601826111cc565b50610100830151611ac76101008601826111db565b50610120830151611adc610120860182611252565b50610140830151848203610140860152611af682826112c1565b915050610160830151848203610160860152611b1282826112c1565b915050610180830151848203610180860152611b2e82826112c1565b9150506101a08301518482036101a0860152611b4a828261134b565b9150506101c08301518482036101c0860152611b66828261134b565b9150508091505092915050565b60006020820190508181036000830152611b8d8184611a14565b905092915050565b6000819050919050565b611ba881611b95565b8114611bb357600080fd5b50565b600081359050611bc581611b9f565b92915050565b600080600060608486031215611be457611be3611074565b5b6000611bf286828701611bb6565b9350506020611c03868287016118fc565b9250506040611c148682870161112e565b9150509250925092565b600081519050919050565b600082825260208201905092915050565b6000819050602082019050919050565b60a082016000820151611c6060008501826111cc565b506020820151611c7360208501826111cc565b506040820151611c8660408501826111cc565b506060820151611c9960608501826111cc565b506080820151611cac60808501826111cc565b50505050565b6000611cbe8383611c4a565b60a08301905092915050565b6000602082019050919050565b6000611ce282611c1e565b611cec8185611c29565b9350611cf783611c3a565b8060005b83811015611d28578151611d0f8882611cb2565b9750611d1a83611cca565b925050600181019050611cfb565b5085935050505092915050565b60006020820190508181036000830152611d4f8184611cd7565b905092915050565b611d60816111c2565b82525050565b6000602082019050611d7b6000830184611d57565b92915050565b7f4e487b7100000000000000000000000000000000000000000000000000000000600052604160045260246000fd5b7f4e487b7100000000000000000000000000000000000000000000000000000000600052603260045260246000fd5b7f4e487b7100000000000000000000000000000000000000000000000000000000600052601160045260246000fd5b6000611e19826111c2565b91507fffffffffffffffffffffffffffffffffffffffffffffffffffffffffffffffff821415611e4c57611e4b611ddf565b5b600182019050919050565b7f4e487b7100000000000000000000000000000000000000000000000000000000600052602260045260246000fd5b60006002820490506001821680611e9e57607f821691505b60208210811415611eb257611eb1611e57565b5b5091905056fea2646970667358221220bc84eda4ce05579de23a86c23390801daa63aac19fbc46c0874790435bc1f5fe64736f6c634300080b0033",
  "immutableReferences": {},
  "source": "// SPDX-License-Identifier: MIT\r\npragma solidity 0.8.11;\r\n \r\n/// @title EthicOnChainLib \r\n/// @author Lahcen E. Dev / Jrme Gauthier\r\n/// @notice EthicOnChain library to manage struct and getters\r\nlibrary EthicOnChainLib {\r\n    \r\n    struct NPO {\r\n        uint npoId;\r\n        address npoErc20Address;\r\n        string denomination;\r\n        string postalAddress;\r\n        string object;\r\n        string npoType;\r\n        uint[] projectIds;\r\n        uint[] withdrawalIds;\r\n    }\r\n\r\n    struct Donor {\r\n        uint donorId;\r\n        address donorErc20Address;\r\n        string name;\r\n        string surName;\r\n        string postalAddress;\r\n        uint[] donationIds;\r\n    }\r\n\r\n    struct Project {\r\n        uint projectId; // cl primaire\r\n        uint startDate;\r\n        uint endDate;\r\n        uint campaignStartDate;\r\n        uint campaignDurationInDays;\r\n        uint minAmount;\r\n        uint maxAmount;\r\n        uint projectBalance;\r\n        address npoErc20Address;\r\n        ProjectCause cause;\r\n        string title;\r\n        string description;\r\n        string geographicalArea;\r\n        uint[] donationIds;\r\n        uint[] withdrawalIds;\r\n    } \r\n\r\n    struct Donation {\r\n        uint donationId; // cl primaire\r\n        uint projectId;\r\n        uint donorId;\r\n        uint donationDate;\r\n        uint donationAmount;\r\n    }     \r\n\r\n    struct Withdrawal {\r\n        uint withdrawalId;\r\n        uint projectId;\r\n        uint amount;\r\n        uint withdrawalDate;\r\n        string title;\r\n        string description;\r\n    }\r\n\r\n    enum ProjectCause {\r\n        LutteContreLaPauvreteEtExclusion,\r\n        EnvironnementEtLesAnimaux,\r\n        Education,\r\n        ArtEtLaCulture,\r\n        SanteEtLaRecherche,\r\n        DroitsDeLHomme,\r\n        InfrastructureRoutiere\r\n    }\r\n\r\n    enum ProjectStatus {\r\n        ProjectProposal, \r\n        WaitingOpening,\r\n        OpenFundRaising,\r\n        CloseFundRaising\r\n    }\r\n\r\n    /// @dev Returns a single Project\r\n    /// @param _projectMap mapping of Project id to Project Struct\r\n    /// @param _projectId project unique id\r\n    /// @return the Project struct instance corresponding to _projectId\r\n    function libGetProject(mapping (uint => Project) storage _projectMap, uint _projectId) public view returns(Project memory) {\r\n        return _projectMap[_projectId];\r\n    }\r\n\r\n    /// @dev  get all projects\r\n    /// @param _projectMap mapping of Project id to Project Struct\r\n    /// @param _projectCount current index for Project = total count of Projects\r\n    /// @return returns an array of all Project\r\n    function libGetProjects(mapping (uint => Project) storage _projectMap, uint _projectCount) public view returns(Project [] memory) {\r\n        uint arraySize = _projectCount;\r\n        Project [] memory result= new Project[](arraySize);\r\n        for(uint i; i < arraySize; i++) {\r\n            result[i] = _projectMap[i];     \r\n        }\r\n        return result;\r\n    }\r\n    \r\n    /// @dev Allows to know all the projects of a single NPO\r\n    /// @param _npoAddresses mapping of NPO addresses to NPO Struct\r\n    /// @param _projectMap mapping of Project id to Project Struct\r\n    /// @param _addressNpo id which represents the index\r\n    /// @return Returns an array of all projects of a single NPO\r\n    function libGetProjectsPerNpo(mapping (address => NPO) storage _npoAddresses, mapping (uint => Project) storage _projectMap, address _addressNpo) public view  returns(Project [] memory ) {\r\n        uint arraySize = _npoAddresses[_addressNpo].projectIds.length;\r\n        Project [] memory result= new Project[](arraySize);\r\n        for(uint i; i < arraySize; i++) {\r\n            uint index = _npoAddresses[_addressNpo].projectIds[i];\r\n            result[i] = libGetProject(_projectMap, index);     \r\n        }\r\n        return result;\r\n    }\r\n\r\n    /// @dev  get Donation by id\r\n    /// @param _donationMap mapping of Donation id to Donation Struct\r\n    /// @param _id index pour retrouver la donation a retourner\r\n    /// @return a struct donation \r\n    function libGetDonation(mapping (uint => Donation) storage _donationMap, uint _id) public view returns(Donation memory) {\r\n        return _donationMap[_id];\r\n    }\r\n\r\n    /// @dev Allows to know all the donations of a single donor\r\n    /// @param _donorAddresses mapping of Donors addresses to Donor Struct\r\n    /// @param _donationMap mapping of Donation id to Donation Struct\r\n    /// @param _addressNpo id which represents the index\r\n    /// @return Returns an array of all donation of a single donor\r\n    function libGetDonationPerDonor(mapping (address => Donor) storage _donorAddresses, mapping (uint => Donation) storage _donationMap, address _addressNpo) public view  returns(Donation [] memory ) {\r\n        uint arraySize = _donorAddresses[_addressNpo].donationIds.length;\r\n        Donation [] memory result= new Donation[](arraySize);\r\n        for(uint i; i < arraySize; i++) {\r\n            uint index = _donorAddresses[_addressNpo].donationIds[i];\r\n            result[i] = libGetDonation(_donationMap, index);     \r\n        }\r\n        return result;\r\n    }\r\n\r\n    /// @dev  get Withdrawal by id\r\n    /// @param _withdrawalMap mapping of Withdrawal id to Withdrawal Struct\r\n    /// @param _id index pour retrouver le withdrawal a retourner\r\n    /// @return a struct retait \r\n    function libGetWithdrawal(mapping (uint => Withdrawal) storage _withdrawalMap, uint _id) public view returns(Withdrawal memory) {\r\n        return _withdrawalMap[_id];\r\n    }\r\n\r\n    /// @dev Allows to know all the donations of a single donor\r\n    /// @param _npoAddresses mapping of NPO addresses to NPO Struct\r\n    /// @param _withdrawalMap mapping of Withdrawal id to Withdrawal Struct\r\n    /// @param _addressNpo id which represents the index\r\n    /// @return Returns an array of all donation of a single donor\r\n    function libGetWithdrawalPerNpo(mapping (address => NPO) storage _npoAddresses, mapping (uint => Withdrawal) storage _withdrawalMap, address _addressNpo) public view  returns(Withdrawal [] memory ) {\r\n        uint arraySize = _npoAddresses[_addressNpo].withdrawalIds.length;\r\n        Withdrawal [] memory result= new Withdrawal[](arraySize);\r\n        for(uint i; i < arraySize; i++) {\r\n            uint index = _npoAddresses[_addressNpo].withdrawalIds[i];\r\n            result[i] = libGetWithdrawal(_withdrawalMap, index);     \r\n        }\r\n        return result;\r\n    }\r\n\r\n\r\n    function libGetTime () public view returns(uint){\r\n        return block.timestamp;\r\n    }\r\n\r\n}",
  "sourcePath": "C:\\Appli.crypto\\ethic-on-chain\\contracts\\EthicOnChainLib.sol",
  "compiler": {
    "name": "solc",
    "version": "0.8.11+commit.d7f03943.Emscripten.clang"
  },
  "schemaVersion": "3.4.4",
  "updatedAt": "2022-01-11T17:56:45.302Z",
  "devdoc": {
    "author": "Lahcen E. Dev / Jrme Gauthier",
    "kind": "dev",
    "methods": {
      "libGetDonation(mapping(uint256 => EthicOnChainLib.Donation) storage,uint256)": {
        "details": "get Donation by id",
        "params": {
          "_donationMap": "mapping of Donation id to Donation Struct",
          "_id": "index pour retrouver la donation a retourner"
        },
        "returns": {
          "_0": "a struct donation "
        }
      },
      "libGetDonationPerDonor(mapping(address => EthicOnChainLib.Donor) storage,mapping(uint256 => EthicOnChainLib.Donation) storage,address)": {
        "details": "Allows to know all the donations of a single donor",
        "params": {
          "_addressNpo": "id which represents the index",
          "_donationMap": "mapping of Donation id to Donation Struct",
          "_donorAddresses": "mapping of Donors addresses to Donor Struct"
        },
        "returns": {
          "_0": "Returns an array of all donation of a single donor"
        }
      },
      "libGetProject(mapping(uint256 => EthicOnChainLib.Project) storage,uint256)": {
        "details": "Returns a single Project",
        "params": {
          "_projectId": "project unique id",
          "_projectMap": "mapping of Project id to Project Struct"
        },
        "returns": {
          "_0": "the Project struct instance corresponding to _projectId"
        }
      },
      "libGetProjects(mapping(uint256 => EthicOnChainLib.Project) storage,uint256)": {
        "details": "get all projects",
        "params": {
          "_projectCount": "current index for Project = total count of Projects",
          "_projectMap": "mapping of Project id to Project Struct"
        },
        "returns": {
          "_0": "returns an array of all Project"
        }
      },
      "libGetProjectsPerNpo(mapping(address => EthicOnChainLib.NPO) storage,mapping(uint256 => EthicOnChainLib.Project) storage,address)": {
        "details": "Allows to know all the projects of a single NPO",
        "params": {
          "_addressNpo": "id which represents the index",
          "_npoAddresses": "mapping of NPO addresses to NPO Struct",
          "_projectMap": "mapping of Project id to Project Struct"
        },
        "returns": {
          "_0": "Returns an array of all projects of a single NPO"
        }
      },
      "libGetWithdrawal(mapping(uint256 => EthicOnChainLib.Withdrawal) storage,uint256)": {
        "details": "get Withdrawal by id",
        "params": {
          "_id": "index pour retrouver le withdrawal a retourner",
          "_withdrawalMap": "mapping of Withdrawal id to Withdrawal Struct"
        },
        "returns": {
          "_0": "a struct retait "
        }
      },
      "libGetWithdrawalPerNpo(mapping(address => EthicOnChainLib.NPO) storage,mapping(uint256 => EthicOnChainLib.Withdrawal) storage,address)": {
        "details": "Allows to know all the donations of a single donor",
        "params": {
          "_addressNpo": "id which represents the index",
          "_npoAddresses": "mapping of NPO addresses to NPO Struct",
          "_withdrawalMap": "mapping of Withdrawal id to Withdrawal Struct"
        },
        "returns": {
          "_0": "Returns an array of all donation of a single donor"
        }
      }
    },
    "title": "EthicOnChainLib ",
    "version": 1
  },
  "userdoc": {
    "kind": "user",
    "methods": {},
    "notice": "EthicOnChain library to manage struct and getters",
    "version": 1
  }
}