{
  "contractName": "EthicOnChain",
  "abi": [
    {
      "inputs": [
        {
          "internalType": "address",
          "name": "_eocTokenAddress",
          "type": "address"
        }
      ],
      "stateMutability": "nonpayable",
      "type": "constructor"
    },
    {
      "anonymous": false,
      "inputs": [
        {
          "indexed": false,
          "internalType": "uint256",
          "name": "_donationId",
          "type": "uint256"
        },
        {
          "indexed": false,
          "internalType": "uint256",
          "name": "_projectId",
          "type": "uint256"
        },
        {
          "indexed": false,
          "internalType": "uint256",
          "name": "_donorId",
          "type": "uint256"
        },
        {
          "indexed": false,
          "internalType": "uint256",
          "name": "_donationDate",
          "type": "uint256"
        },
        {
          "indexed": false,
          "internalType": "uint256",
          "name": "donationAmount",
          "type": "uint256"
        }
      ],
      "name": "DonationAdded",
      "type": "event"
    },
    {
      "anonymous": false,
      "inputs": [
        {
          "indexed": false,
          "internalType": "uint256",
          "name": "_donorId",
          "type": "uint256"
        },
        {
          "indexed": false,
          "internalType": "address",
          "name": "_donorErc20Address",
          "type": "address"
        },
        {
          "indexed": false,
          "internalType": "string",
          "name": "_donorName",
          "type": "string"
        }
      ],
      "name": "DonorAdded",
      "type": "event"
    },
    {
      "anonymous": false,
      "inputs": [
        {
          "indexed": false,
          "internalType": "uint256",
          "name": "_poId",
          "type": "uint256"
        },
        {
          "indexed": false,
          "internalType": "address",
          "name": "_npoErc20Address",
          "type": "address"
        },
        {
          "indexed": false,
          "internalType": "string",
          "name": "_denomination",
          "type": "string"
        }
      ],
      "name": "NpoAdded",
      "type": "event"
    },
    {
      "anonymous": false,
      "inputs": [
        {
          "indexed": true,
          "internalType": "address",
          "name": "previousOwner",
          "type": "address"
        },
        {
          "indexed": true,
          "internalType": "address",
          "name": "newOwner",
          "type": "address"
        }
      ],
      "name": "OwnershipTransferred",
      "type": "event"
    },
    {
      "anonymous": false,
      "inputs": [
        {
          "indexed": false,
          "internalType": "uint256",
          "name": "_projectId",
          "type": "uint256"
        },
        {
          "indexed": false,
          "internalType": "string",
          "name": "_title",
          "type": "string"
        },
        {
          "indexed": false,
          "internalType": "uint256",
          "name": "_startDate",
          "type": "uint256"
        },
        {
          "indexed": false,
          "internalType": "uint256",
          "name": "_endDate",
          "type": "uint256"
        },
        {
          "indexed": false,
          "internalType": "uint256",
          "name": "_minAmount",
          "type": "uint256"
        },
        {
          "indexed": false,
          "internalType": "uint256",
          "name": "_maxAmount",
          "type": "uint256"
        }
      ],
      "name": "ProjectAdded",
      "type": "event"
    },
    {
      "anonymous": false,
      "inputs": [
        {
          "indexed": false,
          "internalType": "uint256",
          "name": "_withdrawalId",
          "type": "uint256"
        },
        {
          "indexed": false,
          "internalType": "uint256",
          "name": "_projectId",
          "type": "uint256"
        },
        {
          "indexed": false,
          "internalType": "uint256",
          "name": "_amount",
          "type": "uint256"
        },
        {
          "indexed": false,
          "internalType": "address",
          "name": "_addressRecipent",
          "type": "address"
        }
      ],
      "name": "TokensWithdrawn",
      "type": "event"
    },
    {
      "inputs": [
        {
          "internalType": "address",
          "name": "",
          "type": "address"
        }
      ],
      "name": "donorAddresses",
      "outputs": [
        {
          "internalType": "uint256",
          "name": "donorId",
          "type": "uint256"
        },
        {
          "internalType": "address",
          "name": "donorErc20Address",
          "type": "address"
        },
        {
          "internalType": "string",
          "name": "name",
          "type": "string"
        },
        {
          "internalType": "string",
          "name": "surName",
          "type": "string"
        },
        {
          "internalType": "string",
          "name": "postalAddress",
          "type": "string"
        }
      ],
      "stateMutability": "view",
      "type": "function",
      "constant": true
    },
    {
      "inputs": [
        {
          "internalType": "address",
          "name": "",
          "type": "address"
        }
      ],
      "name": "npoAddresses",
      "outputs": [
        {
          "internalType": "uint256",
          "name": "npoId",
          "type": "uint256"
        },
        {
          "internalType": "address",
          "name": "npoErc20Address",
          "type": "address"
        },
        {
          "internalType": "string",
          "name": "denomination",
          "type": "string"
        },
        {
          "internalType": "string",
          "name": "postalAddress",
          "type": "string"
        },
        {
          "internalType": "string",
          "name": "object",
          "type": "string"
        },
        {
          "internalType": "string",
          "name": "npoType",
          "type": "string"
        }
      ],
      "stateMutability": "view",
      "type": "function",
      "constant": true
    },
    {
      "inputs": [],
      "name": "owner",
      "outputs": [
        {
          "internalType": "address",
          "name": "",
          "type": "address"
        }
      ],
      "stateMutability": "view",
      "type": "function",
      "constant": true
    },
    {
      "inputs": [],
      "name": "renounceOwnership",
      "outputs": [],
      "stateMutability": "nonpayable",
      "type": "function"
    },
    {
      "inputs": [
        {
          "internalType": "address",
          "name": "newOwner",
          "type": "address"
        }
      ],
      "name": "transferOwnership",
      "outputs": [],
      "stateMutability": "nonpayable",
      "type": "function"
    },
    {
      "inputs": [
        {
          "internalType": "address",
          "name": "_npoErc20Address",
          "type": "address"
        },
        {
          "internalType": "string",
          "name": "_denomination",
          "type": "string"
        },
        {
          "internalType": "string",
          "name": "_postalAddress",
          "type": "string"
        },
        {
          "internalType": "string",
          "name": "_object",
          "type": "string"
        },
        {
          "internalType": "string",
          "name": "_npoType",
          "type": "string"
        }
      ],
      "name": "addNpo",
      "outputs": [],
      "stateMutability": "nonpayable",
      "type": "function"
    },
    {
      "inputs": [
        {
          "internalType": "address",
          "name": "_donorErc20Address",
          "type": "address"
        },
        {
          "internalType": "string",
          "name": "_name",
          "type": "string"
        },
        {
          "internalType": "string",
          "name": "_surName",
          "type": "string"
        },
        {
          "internalType": "string",
          "name": "_postalAddress",
          "type": "string"
        }
      ],
      "name": "addDonor",
      "outputs": [],
      "stateMutability": "nonpayable",
      "type": "function"
    },
    {
      "inputs": [
        {
          "internalType": "string",
          "name": "_title",
          "type": "string"
        },
        {
          "internalType": "string",
          "name": "_description",
          "type": "string"
        },
        {
          "internalType": "string",
          "name": "_geographicalArea",
          "type": "string"
        },
        {
          "internalType": "uint256",
          "name": "_startDate",
          "type": "uint256"
        },
        {
          "internalType": "uint256",
          "name": "_endDate",
          "type": "uint256"
        },
        {
          "internalType": "uint256",
          "name": "_campaignStartDate",
          "type": "uint256"
        },
        {
          "internalType": "uint256",
          "name": "_campaignDurationInDays",
          "type": "uint256"
        },
        {
          "internalType": "uint256",
          "name": "_minAmount",
          "type": "uint256"
        },
        {
          "internalType": "uint256",
          "name": "_maxAmount",
          "type": "uint256"
        }
      ],
      "name": "addProject",
      "outputs": [],
      "stateMutability": "nonpayable",
      "type": "function"
    },
    {
      "inputs": [
        {
          "internalType": "uint256",
          "name": "_projectId",
          "type": "uint256"
        },
        {
          "internalType": "uint256",
          "name": "_donationAmount",
          "type": "uint256"
        }
      ],
      "name": "addDonation",
      "outputs": [],
      "stateMutability": "nonpayable",
      "type": "function"
    },
    {
      "inputs": [
        {
          "internalType": "uint256",
          "name": "_projectId",
          "type": "uint256"
        },
        {
          "internalType": "uint256",
          "name": "_amount",
          "type": "uint256"
        },
        {
          "internalType": "string",
          "name": "_title",
          "type": "string"
        },
        {
          "internalType": "string",
          "name": "_description",
          "type": "string"
        }
      ],
      "name": "withdrawTokens",
      "outputs": [],
      "stateMutability": "nonpayable",
      "type": "function"
    },
    {
      "inputs": [
        {
          "internalType": "address",
          "name": "_npoErc20Address",
          "type": "address"
        }
      ],
      "name": "getNpo",
      "outputs": [
        {
          "components": [
            {
              "internalType": "uint256",
              "name": "npoId",
              "type": "uint256"
            },
            {
              "internalType": "address",
              "name": "npoErc20Address",
              "type": "address"
            },
            {
              "internalType": "string",
              "name": "denomination",
              "type": "string"
            },
            {
              "internalType": "string",
              "name": "postalAddress",
              "type": "string"
            },
            {
              "internalType": "string",
              "name": "object",
              "type": "string"
            },
            {
              "internalType": "string",
              "name": "npoType",
              "type": "string"
            },
            {
              "internalType": "uint256[]",
              "name": "projectIds",
              "type": "uint256[]"
            },
            {
              "internalType": "uint256[]",
              "name": "withdrawalIds",
              "type": "uint256[]"
            }
          ],
          "internalType": "struct EthicOnChainLib.NPO",
          "name": "",
          "type": "tuple"
        }
      ],
      "stateMutability": "view",
      "type": "function",
      "constant": true
    },
    {
      "inputs": [],
      "name": "getNpos",
      "outputs": [
        {
          "components": [
            {
              "internalType": "uint256",
              "name": "npoId",
              "type": "uint256"
            },
            {
              "internalType": "address",
              "name": "npoErc20Address",
              "type": "address"
            },
            {
              "internalType": "string",
              "name": "denomination",
              "type": "string"
            },
            {
              "internalType": "string",
              "name": "postalAddress",
              "type": "string"
            },
            {
              "internalType": "string",
              "name": "object",
              "type": "string"
            },
            {
              "internalType": "string",
              "name": "npoType",
              "type": "string"
            },
            {
              "internalType": "uint256[]",
              "name": "projectIds",
              "type": "uint256[]"
            },
            {
              "internalType": "uint256[]",
              "name": "withdrawalIds",
              "type": "uint256[]"
            }
          ],
          "internalType": "struct EthicOnChainLib.NPO[]",
          "name": "",
          "type": "tuple[]"
        }
      ],
      "stateMutability": "view",
      "type": "function",
      "constant": true
    },
    {
      "inputs": [
        {
          "internalType": "address",
          "name": "_donorErc20Address",
          "type": "address"
        }
      ],
      "name": "getDonor",
      "outputs": [
        {
          "components": [
            {
              "internalType": "uint256",
              "name": "donorId",
              "type": "uint256"
            },
            {
              "internalType": "address",
              "name": "donorErc20Address",
              "type": "address"
            },
            {
              "internalType": "string",
              "name": "name",
              "type": "string"
            },
            {
              "internalType": "string",
              "name": "surName",
              "type": "string"
            },
            {
              "internalType": "string",
              "name": "postalAddress",
              "type": "string"
            },
            {
              "internalType": "uint256[]",
              "name": "donationIds",
              "type": "uint256[]"
            }
          ],
          "internalType": "struct EthicOnChainLib.Donor",
          "name": "",
          "type": "tuple"
        }
      ],
      "stateMutability": "view",
      "type": "function",
      "constant": true
    },
    {
      "inputs": [],
      "name": "getDonors",
      "outputs": [
        {
          "components": [
            {
              "internalType": "uint256",
              "name": "donorId",
              "type": "uint256"
            },
            {
              "internalType": "address",
              "name": "donorErc20Address",
              "type": "address"
            },
            {
              "internalType": "string",
              "name": "name",
              "type": "string"
            },
            {
              "internalType": "string",
              "name": "surName",
              "type": "string"
            },
            {
              "internalType": "string",
              "name": "postalAddress",
              "type": "string"
            },
            {
              "internalType": "uint256[]",
              "name": "donationIds",
              "type": "uint256[]"
            }
          ],
          "internalType": "struct EthicOnChainLib.Donor[]",
          "name": "",
          "type": "tuple[]"
        }
      ],
      "stateMutability": "view",
      "type": "function",
      "constant": true
    },
    {
      "inputs": [
        {
          "internalType": "uint256",
          "name": "_projectId",
          "type": "uint256"
        }
      ],
      "name": "getProject",
      "outputs": [
        {
          "components": [
            {
              "internalType": "uint256",
              "name": "projectId",
              "type": "uint256"
            },
            {
              "internalType": "uint256",
              "name": "startDate",
              "type": "uint256"
            },
            {
              "internalType": "uint256",
              "name": "endDate",
              "type": "uint256"
            },
            {
              "internalType": "uint256",
              "name": "campaignStartDate",
              "type": "uint256"
            },
            {
              "internalType": "uint256",
              "name": "campaignDurationInDays",
              "type": "uint256"
            },
            {
              "internalType": "uint256",
              "name": "minAmount",
              "type": "uint256"
            },
            {
              "internalType": "uint256",
              "name": "maxAmount",
              "type": "uint256"
            },
            {
              "internalType": "uint256",
              "name": "projectBalance",
              "type": "uint256"
            },
            {
              "internalType": "uint256",
              "name": "projectTotalDonations",
              "type": "uint256"
            },
            {
              "internalType": "address",
              "name": "npoErc20Address",
              "type": "address"
            },
            {
              "internalType": "enum EthicOnChainLib.ProjectCause",
              "name": "cause",
              "type": "uint8"
            },
            {
              "internalType": "enum EthicOnChainLib.ProjectStatus",
              "name": "status",
              "type": "uint8"
            },
            {
              "internalType": "string",
              "name": "title",
              "type": "string"
            },
            {
              "internalType": "string",
              "name": "description",
              "type": "string"
            },
            {
              "internalType": "string",
              "name": "geographicalArea",
              "type": "string"
            },
            {
              "internalType": "uint256[]",
              "name": "donationIds",
              "type": "uint256[]"
            },
            {
              "internalType": "uint256[]",
              "name": "withdrawalIds",
              "type": "uint256[]"
            }
          ],
          "internalType": "struct EthicOnChainLib.Project",
          "name": "",
          "type": "tuple"
        }
      ],
      "stateMutability": "view",
      "type": "function",
      "constant": true
    },
    {
      "inputs": [],
      "name": "getProjects",
      "outputs": [
        {
          "components": [
            {
              "internalType": "uint256",
              "name": "projectId",
              "type": "uint256"
            },
            {
              "internalType": "uint256",
              "name": "startDate",
              "type": "uint256"
            },
            {
              "internalType": "uint256",
              "name": "endDate",
              "type": "uint256"
            },
            {
              "internalType": "uint256",
              "name": "campaignStartDate",
              "type": "uint256"
            },
            {
              "internalType": "uint256",
              "name": "campaignDurationInDays",
              "type": "uint256"
            },
            {
              "internalType": "uint256",
              "name": "minAmount",
              "type": "uint256"
            },
            {
              "internalType": "uint256",
              "name": "maxAmount",
              "type": "uint256"
            },
            {
              "internalType": "uint256",
              "name": "projectBalance",
              "type": "uint256"
            },
            {
              "internalType": "uint256",
              "name": "projectTotalDonations",
              "type": "uint256"
            },
            {
              "internalType": "address",
              "name": "npoErc20Address",
              "type": "address"
            },
            {
              "internalType": "enum EthicOnChainLib.ProjectCause",
              "name": "cause",
              "type": "uint8"
            },
            {
              "internalType": "enum EthicOnChainLib.ProjectStatus",
              "name": "status",
              "type": "uint8"
            },
            {
              "internalType": "string",
              "name": "title",
              "type": "string"
            },
            {
              "internalType": "string",
              "name": "description",
              "type": "string"
            },
            {
              "internalType": "string",
              "name": "geographicalArea",
              "type": "string"
            },
            {
              "internalType": "uint256[]",
              "name": "donationIds",
              "type": "uint256[]"
            },
            {
              "internalType": "uint256[]",
              "name": "withdrawalIds",
              "type": "uint256[]"
            }
          ],
          "internalType": "struct EthicOnChainLib.Project[]",
          "name": "",
          "type": "tuple[]"
        }
      ],
      "stateMutability": "view",
      "type": "function",
      "constant": true
    },
    {
      "inputs": [
        {
          "internalType": "address",
          "name": "_addressNpo",
          "type": "address"
        }
      ],
      "name": "getProjectsPerNpo",
      "outputs": [
        {
          "components": [
            {
              "internalType": "uint256",
              "name": "projectId",
              "type": "uint256"
            },
            {
              "internalType": "uint256",
              "name": "startDate",
              "type": "uint256"
            },
            {
              "internalType": "uint256",
              "name": "endDate",
              "type": "uint256"
            },
            {
              "internalType": "uint256",
              "name": "campaignStartDate",
              "type": "uint256"
            },
            {
              "internalType": "uint256",
              "name": "campaignDurationInDays",
              "type": "uint256"
            },
            {
              "internalType": "uint256",
              "name": "minAmount",
              "type": "uint256"
            },
            {
              "internalType": "uint256",
              "name": "maxAmount",
              "type": "uint256"
            },
            {
              "internalType": "uint256",
              "name": "projectBalance",
              "type": "uint256"
            },
            {
              "internalType": "uint256",
              "name": "projectTotalDonations",
              "type": "uint256"
            },
            {
              "internalType": "address",
              "name": "npoErc20Address",
              "type": "address"
            },
            {
              "internalType": "enum EthicOnChainLib.ProjectCause",
              "name": "cause",
              "type": "uint8"
            },
            {
              "internalType": "enum EthicOnChainLib.ProjectStatus",
              "name": "status",
              "type": "uint8"
            },
            {
              "internalType": "string",
              "name": "title",
              "type": "string"
            },
            {
              "internalType": "string",
              "name": "description",
              "type": "string"
            },
            {
              "internalType": "string",
              "name": "geographicalArea",
              "type": "string"
            },
            {
              "internalType": "uint256[]",
              "name": "donationIds",
              "type": "uint256[]"
            },
            {
              "internalType": "uint256[]",
              "name": "withdrawalIds",
              "type": "uint256[]"
            }
          ],
          "internalType": "struct EthicOnChainLib.Project[]",
          "name": "",
          "type": "tuple[]"
        }
      ],
      "stateMutability": "view",
      "type": "function",
      "constant": true
    },
    {
      "inputs": [
        {
          "internalType": "uint256",
          "name": "_id",
          "type": "uint256"
        }
      ],
      "name": "getDonation",
      "outputs": [
        {
          "components": [
            {
              "internalType": "uint256",
              "name": "donationId",
              "type": "uint256"
            },
            {
              "internalType": "uint256",
              "name": "projectId",
              "type": "uint256"
            },
            {
              "internalType": "uint256",
              "name": "donorId",
              "type": "uint256"
            },
            {
              "internalType": "uint256",
              "name": "donationDate",
              "type": "uint256"
            },
            {
              "internalType": "uint256",
              "name": "donationAmount",
              "type": "uint256"
            }
          ],
          "internalType": "struct EthicOnChainLib.Donation",
          "name": "",
          "type": "tuple"
        }
      ],
      "stateMutability": "view",
      "type": "function",
      "constant": true
    },
    {
      "inputs": [
        {
          "internalType": "address",
          "name": "_addressNpo",
          "type": "address"
        }
      ],
      "name": "getDonationPerDonor",
      "outputs": [
        {
          "components": [
            {
              "internalType": "uint256",
              "name": "donationId",
              "type": "uint256"
            },
            {
              "internalType": "uint256",
              "name": "projectId",
              "type": "uint256"
            },
            {
              "internalType": "uint256",
              "name": "donorId",
              "type": "uint256"
            },
            {
              "internalType": "uint256",
              "name": "donationDate",
              "type": "uint256"
            },
            {
              "internalType": "uint256",
              "name": "donationAmount",
              "type": "uint256"
            }
          ],
          "internalType": "struct EthicOnChainLib.Donation[]",
          "name": "",
          "type": "tuple[]"
        }
      ],
      "stateMutability": "view",
      "type": "function",
      "constant": true
    },
    {
      "inputs": [
        {
          "internalType": "uint256",
          "name": "_id",
          "type": "uint256"
        }
      ],
      "name": "getWithdrawal",
      "outputs": [
        {
          "components": [
            {
              "internalType": "uint256",
              "name": "withdrawalId",
              "type": "uint256"
            },
            {
              "internalType": "uint256",
              "name": "projectId",
              "type": "uint256"
            },
            {
              "internalType": "uint256",
              "name": "amount",
              "type": "uint256"
            },
            {
              "internalType": "uint256",
              "name": "withdrawalDate",
              "type": "uint256"
            },
            {
              "internalType": "string",
              "name": "title",
              "type": "string"
            },
            {
              "internalType": "string",
              "name": "description",
              "type": "string"
            }
          ],
          "internalType": "struct EthicOnChainLib.Withdrawal",
          "name": "",
          "type": "tuple"
        }
      ],
      "stateMutability": "view",
      "type": "function",
      "constant": true
    },
    {
      "inputs": [
        {
          "internalType": "address",
          "name": "_addressNpo",
          "type": "address"
        }
      ],
      "name": "getWithdrawalPerNpo",
      "outputs": [
        {
          "components": [
            {
              "internalType": "uint256",
              "name": "withdrawalId",
              "type": "uint256"
            },
            {
              "internalType": "uint256",
              "name": "projectId",
              "type": "uint256"
            },
            {
              "internalType": "uint256",
              "name": "amount",
              "type": "uint256"
            },
            {
              "internalType": "uint256",
              "name": "withdrawalDate",
              "type": "uint256"
            },
            {
              "internalType": "string",
              "name": "title",
              "type": "string"
            },
            {
              "internalType": "string",
              "name": "description",
              "type": "string"
            }
          ],
          "internalType": "struct EthicOnChainLib.Withdrawal[]",
          "name": "",
          "type": "tuple[]"
        }
      ],
      "stateMutability": "view",
      "type": "function",
      "constant": true
    }
  ],
  "bytecode": "0x60806040523480156200001157600080fd5b5060405162006175380380620061758339818101604052810190620000379190620001d5565b620000576200004b6200009f60201b60201c565b620000a760201b60201c565b80600d60006101000a81548173ffffffffffffffffffffffffffffffffffffffff021916908373ffffffffffffffffffffffffffffffffffffffff1602179055505062000207565b600033905090565b60008060009054906101000a900473ffffffffffffffffffffffffffffffffffffffff169050816000806101000a81548173ffffffffffffffffffffffffffffffffffffffff021916908373ffffffffffffffffffffffffffffffffffffffff1602179055508173ffffffffffffffffffffffffffffffffffffffff168173ffffffffffffffffffffffffffffffffffffffff167f8be0079c531659141344cd1fd0a4f28419497f9722a3daafe3b4186f6b6457e060405160405180910390a35050565b600080fd5b600073ffffffffffffffffffffffffffffffffffffffff82169050919050565b60006200019d8262000170565b9050919050565b620001af8162000190565b8114620001bb57600080fd5b50565b600081519050620001cf81620001a4565b92915050565b600060208284031215620001ee57620001ed6200016b565b5b6000620001fe84828501620001be565b91505092915050565b615f5e80620002176000396000f3fe608060405234801561001057600080fd5b50600436106101375760003560e01c80638da5cb5b116100b8578063d87ffb701161007c578063d87ffb7014610369578063dcc6012814610385578063ef07a81f146103a3578063f0f3f2c8146103d3578063f2fde38b14610403578063ff6d56ef1461041f57610137565b80638da5cb5b1461029d57806396c59043146102bb57806396f300d4146102eb578063a90f733314610309578063b3c9020b1461033957610137565b806362e13e7d116100ff57806362e13e7d146101f5578063678f04cc14610229578063715018a6146102455780637d1887f81461024f5780638a4fb16a1461026d57610137565b80630a0aaa271461013c57806319ccf9ed1461016c5780631f1ffb1c146101885780633f9754c9146101a45780634913cdb0146101c0575b600080fd5b61015660048036038101906101519190612832565b61044f565b6040516101639190612a63565b60405180910390f35b61018660048036038101906101819190612bba565b6104db565b005b6101a2600480360381019061019d9190612ca1565b610825565b005b6101be60048036038101906101b99190612dbf565b610cd9565b005b6101da60048036038101906101d59190612832565b61110d565b6040516101ec96959493929190612f12565b60405180910390f35b61020f600480360381019061020a9190612832565b611389565b604051610220959493929190612f8f565b60405180910390f35b610243600480360381019061023e9190612ff7565b611577565b005b61024d61197d565b005b610257611a05565b60405161026491906132e9565b60405180910390f35b6102876004803603810190610282919061330b565b611a91565b60405161029491906133c8565b60405180910390f35b6102a5611b20565b6040516102b291906133ea565b60405180910390f35b6102d560048036038101906102d09190612832565b611b49565b6040516102e291906134a3565b60405180910390f35b6102f3611bd8565b6040516103009190613625565b60405180910390f35b610323600480360381019061031e9190612832565b611c64565b604051610330919061375e565b60405180910390f35b610353600480360381019061034e9190612832565b611cf0565b6040516103609190613a8a565b60405180910390f35b610383600480360381019061037e9190613aac565b611d7c565b005b61038d61215e565b60405161039a9190613a8a565b60405180910390f35b6103bd60048036038101906103b8919061330b565b6121e7565b6040516103ca9190613b54565b60405180910390f35b6103ed60048036038101906103e8919061330b565b612271565b6040516103fa9190613cf8565b60405180910390f35b61041d60048036038101906104189190612832565b612300565b005b61043960048036038101906104349190612832565b6123f8565b6040516104469190613ded565b60405180910390f35b606073__EthicOnChainLib_______________________632c77488e6001600b856040518463ffffffff1660e01b815260040161048e93929190613e2c565b600060405180830381865af41580156104ab573d6000803e3d6000fd5b505050506040513d6000823e3d601f19601f820116820180604052508101906104d491906140b0565b9050919050565b6104e3612487565b73ffffffffffffffffffffffffffffffffffffffff16610501611b20565b73ffffffffffffffffffffffffffffffffffffffff1614610557576040517f08c379a000000000000000000000000000000000000000000000000000000000815260040161054e90614145565b60405180910390fd5b600073ffffffffffffffffffffffffffffffffffffffff168473ffffffffffffffffffffffffffffffffffffffff16116105c6576040517f08c379a00000000000000000000000000000000000000000000000000000000081526004016105bd906141d7565b60405180910390fd5b600073ffffffffffffffffffffffffffffffffffffffff16600460008673ffffffffffffffffffffffffffffffffffffffff1673ffffffffffffffffffffffffffffffffffffffff16815260200190815260200160002060010160009054906101000a900473ffffffffffffffffffffffffffffffffffffffff1673ffffffffffffffffffffffffffffffffffffffff1614610697576040517f08c379a000000000000000000000000000000000000000000000000000000000815260040161068e90614243565b60405180910390fd5b6000600460008673ffffffffffffffffffffffffffffffffffffffff1673ffffffffffffffffffffffffffffffffffffffff16815260200190815260200160002090506006548160000181905550838160020190805190602001906106fd929190612553565b5082816003019080519060200190610716929190612553565b50848160010160006101000a81548173ffffffffffffffffffffffffffffffffffffffff021916908373ffffffffffffffffffffffffffffffffffffffff16021790555081816004019080519060200190610772929190612553565b508460056000600654815260200190815260200160002060006101000a81548173ffffffffffffffffffffffffffffffffffffffff021916908373ffffffffffffffffffffffffffffffffffffffff160217905550600660008154809291906107da90614292565b91905055507ff1a73eeb2b4ddced9fb956e389a13618a37205f30bf1694dbf5ba71b1bbfc25c81600001548686604051610816939291906142db565b60405180910390a15050505050565b6000600160003373ffffffffffffffffffffffffffffffffffffffff1673ffffffffffffffffffffffffffffffffffffffff1681526020019081526020016000209050600081600201805461087990614348565b905014156108bc576040517f08c379a00000000000000000000000000000000000000000000000000000000081526004016108b3906143ec565b60405180910390fd5b60008a5111610900576040517f08c379a00000000000000000000000000000000000000000000000000000000081526004016108f790614458565b60405180910390fd5b6000895111610944576040517f08c379a000000000000000000000000000000000000000000000000000000000815260040161093b906144c4565b60405180910390fd5b60008711610987576040517f08c379a000000000000000000000000000000000000000000000000000000000815260040161097e90614556565b60405180910390fd5b600086116109ca576040517f08c379a00000000000000000000000000000000000000000000000000000000081526004016109c1906145e8565b60405180910390fd5b60008311610a0d576040517f08c379a0000000000000000000000000000000000000000000000000000000008152600401610a0490614654565b60405180910390fd5b60008211610a50576040517f08c379a0000000000000000000000000000000000000000000000000000000008152600401610a47906146c0565b60405180910390fd5b60008511610a93576040517f08c379a0000000000000000000000000000000000000000000000000000000008152600401610a8a90614752565b60405180910390fd5b60008411610ad6576040517f08c379a0000000000000000000000000000000000000000000000000000000008152600401610acd906147be565b60405180910390fd5b858710610b18576040517f08c379a0000000000000000000000000000000000000000000000000000000008152600401610b0f90614850565b60405180910390fd5b818310610b5a576040517f08c379a0000000000000000000000000000000000000000000000000000000008152600401610b51906148e2565b60405180910390fd5b600060076000600854815260200190815260200160002090506008548160000181905550338160090160006101000a81548173ffffffffffffffffffffffffffffffffffffffff021916908373ffffffffffffffffffffffffffffffffffffffff1602179055508a81600a019080519060200190610bd9929190612553565b508981600b019080519060200190610bf2929190612553565b508881600c019080519060200190610c0b929190612553565b5087816001018190555086816002018190555085816003018190555084816004018190555083816005018190555082816006018190555081600601600854908060018154018082558091505060019003906000526020600020016000909190919091505560086000815480929190610c8290614292565b91905055507ff9702874e260ae597ee7c3acbf77aad0ce01f26c14650d5afbc5b43a62b34af381600001548c8a8a8888604051610cc496959493929190614902565b60405180910390a15050505050505050505050565b610ce1612487565b73ffffffffffffffffffffffffffffffffffffffff16610cff611b20565b73ffffffffffffffffffffffffffffffffffffffff1614610d55576040517f08c379a0000000000000000000000000000000000000000000000000000000008152600401610d4c90614145565b60405180910390fd5b600073ffffffffffffffffffffffffffffffffffffffff168573ffffffffffffffffffffffffffffffffffffffff1611610dc4576040517f08c379a0000000000000000000000000000000000000000000000000000000008152600401610dbb906149dc565b60405180910390fd5b6000845111610e08576040517f08c379a0000000000000000000000000000000000000000000000000000000008152600401610dff90614a48565b60405180910390fd5b6000835111610e4c576040517f08c379a0000000000000000000000000000000000000000000000000000000008152600401610e4390614ab4565b60405180910390fd5b6000825111610e90576040517f08c379a0000000000000000000000000000000000000000000000000000000008152600401610e8790614b20565b60405180910390fd5b6000815111610ed4576040517f08c379a0000000000000000000000000000000000000000000000000000000008152600401610ecb90614b8c565b60405180910390fd5b6000600160008773ffffffffffffffffffffffffffffffffffffffff1673ffffffffffffffffffffffffffffffffffffffff1681526020019081526020016000206002018054610f2390614348565b905014610f65576040517f08c379a0000000000000000000000000000000000000000000000000000000008152600401610f5c90614bf8565b60405180910390fd5b6000600160008773ffffffffffffffffffffffffffffffffffffffff1673ffffffffffffffffffffffffffffffffffffffff16815260200190815260200160002090506003548160000181905550858160010160006101000a81548173ffffffffffffffffffffffffffffffffffffffff021916908373ffffffffffffffffffffffffffffffffffffffff1602179055508481600201908051906020019061100e929190612553565b5083816003019080519060200190611027929190612553565b5082816004019080519060200190611040929190612553565b5081816005019080519060200190611059929190612553565b508560026000600354815260200190815260200160002060006101000a81548173ffffffffffffffffffffffffffffffffffffffff021916908373ffffffffffffffffffffffffffffffffffffffff160217905550600360008154809291906110c190614292565b91905055507f1a9e41b629a15a636da77b06f2707c109021423f307b3f34f33ded411423ef14816000015487876040516110fd939291906142db565b60405180910390a1505050505050565b60016020528060005260406000206000915090508060000154908060010160009054906101000a900473ffffffffffffffffffffffffffffffffffffffff169080600201805461115c90614348565b80601f016020809104026020016040519081016040528092919081815260200182805461118890614348565b80156111d55780601f106111aa576101008083540402835291602001916111d5565b820191906000526020600020905b8154815290600101906020018083116111b857829003601f168201915b5050505050908060030180546111ea90614348565b80601f016020809104026020016040519081016040528092919081815260200182805461121690614348565b80156112635780601f1061123857610100808354040283529160200191611263565b820191906000526020600020905b81548152906001019060200180831161124657829003601f168201915b50505050509080600401805461127890614348565b80601f01602080910402602001604051908101604052809291908181526020018280546112a490614348565b80156112f15780601f106112c6576101008083540402835291602001916112f1565b820191906000526020600020905b8154815290600101906020018083116112d457829003601f168201915b50505050509080600501805461130690614348565b80601f016020809104026020016040519081016040528092919081815260200182805461133290614348565b801561137f5780601f106113545761010080835404028352916020019161137f565b820191906000526020600020905b81548152906001019060200180831161136257829003601f168201915b5050505050905086565b60046020528060005260406000206000915090508060000154908060010160009054906101000a900473ffffffffffffffffffffffffffffffffffffffff16908060020180546113d890614348565b80601f016020809104026020016040519081016040528092919081815260200182805461140490614348565b80156114515780601f1061142657610100808354040283529160200191611451565b820191906000526020600020905b81548152906001019060200180831161143457829003601f168201915b50505050509080600301805461146690614348565b80601f016020809104026020016040519081016040528092919081815260200182805461149290614348565b80156114df5780601f106114b4576101008083540402835291602001916114df565b820191906000526020600020905b8154815290600101906020018083116114c257829003601f168201915b5050505050908060040180546114f490614348565b80601f016020809104026020016040519081016040528092919081815260200182805461152090614348565b801561156d5780601f106115425761010080835404028352916020019161156d565b820191906000526020600020905b81548152906001019060200180831161155057829003601f168201915b5050505050905085565b6000600160003373ffffffffffffffffffffffffffffffffffffffff1673ffffffffffffffffffffffffffffffffffffffff16815260200190815260200160002090506000600160003373ffffffffffffffffffffffffffffffffffffffff1673ffffffffffffffffffffffffffffffffffffffff168152602001908152602001600020600201805461160990614348565b9050141561164c576040517f08c379a0000000000000000000000000000000000000000000000000000000008152600401611643906143ec565b60405180910390fd5b600060076000878152602001908152602001600020600a01805461166f90614348565b905014156116b2576040517f08c379a00000000000000000000000000000000000000000000000000000000081526004016116a990614c64565b60405180910390fd5b6007600086815260200190815260200160002060030154421161170a576040517f08c379a000000000000000000000000000000000000000000000000000000000815260040161170190614cd0565b60405180910390fd5b60006007600087815260200190815260200160002060070154905084811015611768576040517f08c379a000000000000000000000000000000000000000000000000000000000815260040161175f90614d3c565b60405180910390fd5b6000600b6000600c5481526020019081526020016000209050600c548160000181905550868160010181905550848160040190805190602001906117ad929190612553565b50858160020181905550428160030181905550838160050190805190602001906117d8929190612553565b5082600701600c5490806001815401808255809150506001900390600052602060002001600090919091909150558560076000898152602001908152602001600020600701600082825461182c9190614d5c565b9250508190555060076000888152602001908152602001600020600e01600c549080600181540180825580915050600190039060005260206000200160009091909190915055600c600081548092919061188590614292565b9190505550600d60009054906101000a900473ffffffffffffffffffffffffffffffffffffffff1673ffffffffffffffffffffffffffffffffffffffff1663a9059cbb33886040518363ffffffff1660e01b81526004016118e7929190614d90565b6020604051808303816000875af1158015611906573d6000803e3d6000fd5b505050506040513d601f19601f8201168201806040525081019061192a9190614df1565b507f6584d90ddbb422689586649f31c804fbe9302f09a265a73b622cc2516c0108238160000154826001015483600201543360405161196c9493929190614e1e565b60405180910390a150505050505050565b611985612487565b73ffffffffffffffffffffffffffffffffffffffff166119a3611b20565b73ffffffffffffffffffffffffffffffffffffffff16146119f9576040517f08c379a00000000000000000000000000000000000000000000000000000000081526004016119f090614145565b60405180910390fd5b611a03600061248f565b565b606073__EthicOnChainLib_______________________63e17414e7600160026003546040518463ffffffff1660e01b8152600401611a4693929190614e79565b600060405180830381865af4158015611a63573d6000803e3d6000fd5b505050506040513d6000823e3d601f19601f82011682018060405250810190611a8c91906151db565b905090565b611a996125d9565b73__EthicOnChainLib_______________________635454999f600b846040518363ffffffff1660e01b8152600401611ad3929190615224565b600060405180830381865af4158015611af0573d6000803e3d6000fd5b505050506040513d6000823e3d601f19601f82011682018060405250810190611b19919061524d565b9050919050565b60008060009054906101000a900473ffffffffffffffffffffffffffffffffffffffff16905090565b611b5161260f565b73__EthicOnChainLib_______________________6357ee7aae6004846040518363ffffffff1660e01b8152600401611b8b92919061529d565b600060405180830381865af4158015611ba8573d6000803e3d6000fd5b505050506040513d6000823e3d601f19601f82011682018060405250810190611bd191906153d6565b9050919050565b606073__EthicOnChainLib_______________________638d85a169600460056006546040518463ffffffff1660e01b8152600401611c199392919061541f565b600060405180830381865af4158015611c36573d6000803e3d6000fd5b505050506040513d6000823e3d601f19601f82011682018060405250810190611c5f9190615537565b905090565b606073__EthicOnChainLib_______________________6381e9c89b60046009856040518463ffffffff1660e01b8152600401611ca393929190615587565b600060405180830381865af4158015611cc0573d6000803e3d6000fd5b505050506040513d6000823e3d601f19601f82011682018060405250810190611ce9919061570d565b9050919050565b606073__EthicOnChainLib_______________________6304ae0c6560016007856040518463ffffffff1660e01b8152600401611d2f9392919061575d565b600060405180830381865af4158015611d4c573d6000803e3d6000fd5b505050506040513d6000823e3d601f19601f82011682018060405250810190611d759190615adb565b9050919050565b6000600460003373ffffffffffffffffffffffffffffffffffffffff1673ffffffffffffffffffffffffffffffffffffffff1681526020019081526020016000209050600073ffffffffffffffffffffffffffffffffffffffff168160010160009054906101000a900473ffffffffffffffffffffffffffffffffffffffff1673ffffffffffffffffffffffffffffffffffffffff161415611e53576040517f08c379a0000000000000000000000000000000000000000000000000000000008152600401611e4a90615b96565b60405180910390fd5b6000600760008581526020019081526020016000209050600081600a018054611e7b90614348565b90501415611ebe576040517f08c379a0000000000000000000000000000000000000000000000000000000008152600401611eb590614c64565b60405180910390fd5b6000620151808260040154611ed39190615bb6565b8260030154611ee29190615c10565b905081600301544211611f2a576040517f08c379a0000000000000000000000000000000000000000000000000000000008152600401611f2190614cd0565b60405180910390fd5b804210611f6c576040517f08c379a0000000000000000000000000000000000000000000000000000000008152600401611f6390615cb2565b60405180910390fd5b600060096000600a5481526020019081526020016000209050600a5481600001819055508581600101819055508360000154816002018190555042816003018190555084816004018190555083600501600a54908060018154018082558091505060019003906000526020600020016000909190919091505584836007016000828254611ff99190615c10565b92505081905550848360080160008282546120149190615c10565b9250508190555082600d01600a549080600181540180825580915050600190039060005260206000200160009091909190915055600a600081548092919061205b90614292565b9190505550600d60009054906101000a900473ffffffffffffffffffffffffffffffffffffffff1673ffffffffffffffffffffffffffffffffffffffff166323b872dd3330886040518463ffffffff1660e01b81526004016120bf93929190615cd2565b6020604051808303816000875af11580156120de573d6000803e3d6000fd5b505050506040513d601f19601f820116820180604052508101906121029190614df1565b507f5b01b3cbb79f6d6de617795637d44cf4ec173dab689fb0804ab8dbbd88f4302b8160000154826001015483600201548460030154856004015460405161214e959493929190615d09565b60405180910390a1505050505050565b606073__EthicOnChainLib_______________________6388439ce460076008546040518363ffffffff1660e01b815260040161219c929190615d5c565b600060405180830381865af41580156121b9573d6000803e3d6000fd5b505050506040513d6000823e3d601f19601f820116820180604052508101906121e29190615adb565b905090565b6121ef61265b565b73__EthicOnChainLib_______________________63599ed5916009846040518363ffffffff1660e01b8152600401612229929190615d85565b60a060405180830381865af4158015612246573d6000803e3d6000fd5b505050506040513d601f19601f8201168201806040525081019061226a9190615dae565b9050919050565b61227961268a565b73__EthicOnChainLib_______________________637f9824d06007846040518363ffffffff1660e01b81526004016122b3929190615d5c565b600060405180830381865af41580156122d0573d6000803e3d6000fd5b505050506040513d6000823e3d601f19601f820116820180604052508101906122f99190615ddb565b9050919050565b612308612487565b73ffffffffffffffffffffffffffffffffffffffff16612326611b20565b73ffffffffffffffffffffffffffffffffffffffff161461237c576040517f08c379a000000000000000000000000000000000000000000000000000000000815260040161237390614145565b60405180910390fd5b600073ffffffffffffffffffffffffffffffffffffffff168173ffffffffffffffffffffffffffffffffffffffff1614156123ec576040517f08c379a00000000000000000000000000000000000000000000000000000000081526004016123e390615e96565b60405180910390fd5b6123f58161248f565b50565b612400612748565b73__EthicOnChainLib_______________________639bed72486001846040518363ffffffff1660e01b815260040161243a929190615eb6565b600060405180830381865af4158015612457573d6000803e3d6000fd5b505050506040513d6000823e3d601f19601f820116820180604052508101906124809190615edf565b9050919050565b600033905090565b60008060009054906101000a900473ffffffffffffffffffffffffffffffffffffffff169050816000806101000a81548173ffffffffffffffffffffffffffffffffffffffff021916908373ffffffffffffffffffffffffffffffffffffffff1602179055508173ffffffffffffffffffffffffffffffffffffffff168173ffffffffffffffffffffffffffffffffffffffff167f8be0079c531659141344cd1fd0a4f28419497f9722a3daafe3b4186f6b6457e060405160405180910390a35050565b82805461255f90614348565b90600052602060002090601f01602090048101928261258157600085556125c8565b82601f1061259a57805160ff19168380011785556125c8565b828001600101855582156125c8579182015b828111156125c75782518255916020019190600101906125ac565b5b5090506125d591906127a3565b5090565b6040518060c001604052806000815260200160008152602001600081526020016000815260200160608152602001606081525090565b6040518060c0016040528060008152602001600073ffffffffffffffffffffffffffffffffffffffff168152602001606081526020016060815260200160608152602001606081525090565b6040518060a0016040528060008152602001600081526020016000815260200160008152602001600081525090565b604051806102200160405280600081526020016000815260200160008152602001600081526020016000815260200160008152602001600081526020016000815260200160008152602001600073ffffffffffffffffffffffffffffffffffffffff16815260200160006006811115612706576127056137ac565b5b81526020016000600581111561271f5761271e6137ac565b5b815260200160608152602001606081526020016060815260200160608152602001606081525090565b60405180610100016040528060008152602001600073ffffffffffffffffffffffffffffffffffffffff1681526020016060815260200160608152602001606081526020016060815260200160608152602001606081525090565b5b808211156127bc5760008160009055506001016127a4565b5090565b6000604051905090565b600080fd5b600080fd5b600073ffffffffffffffffffffffffffffffffffffffff82169050919050565b60006127ff826127d4565b9050919050565b61280f816127f4565b811461281a57600080fd5b50565b60008135905061282c81612806565b92915050565b600060208284031215612848576128476127ca565b5b60006128568482850161281d565b91505092915050565b600081519050919050565b600082825260208201905092915050565b6000819050602082019050919050565b6000819050919050565b61289e8161288b565b82525050565b600081519050919050565b600082825260208201905092915050565b60005b838110156128de5780820151818401526020810190506128c3565b838111156128ed576000848401525b50505050565b6000601f19601f8301169050919050565b600061290f826128a4565b61291981856128af565b93506129298185602086016128c0565b612932816128f3565b840191505092915050565b600060c0830160008301516129556000860182612895565b5060208301516129686020860182612895565b50604083015161297b6040860182612895565b50606083015161298e6060860182612895565b50608083015184820360808601526129a68282612904565b91505060a083015184820360a08601526129c08282612904565b9150508091505092915050565b60006129d9838361293d565b905092915050565b6000602082019050919050565b60006129f98261285f565b612a03818561286a565b935083602082028501612a158561287b565b8060005b85811015612a515784840389528151612a3285826129cd565b9450612a3d836129e1565b925060208a01995050600181019050612a19565b50829750879550505050505092915050565b60006020820190508181036000830152612a7d81846129ee565b905092915050565b600080fd5b600080fd5b7f4e487b7100000000000000000000000000000000000000000000000000000000600052604160045260246000fd5b612ac7826128f3565b810181811067ffffffffffffffff82111715612ae657612ae5612a8f565b5b80604052505050565b6000612af96127c0565b9050612b058282612abe565b919050565b600067ffffffffffffffff821115612b2557612b24612a8f565b5b612b2e826128f3565b9050602081019050919050565b82818337600083830152505050565b6000612b5d612b5884612b0a565b612aef565b905082815260208101848484011115612b7957612b78612a8a565b5b612b84848285612b3b565b509392505050565b600082601f830112612ba157612ba0612a85565b5b8135612bb1848260208601612b4a565b91505092915050565b60008060008060808587031215612bd457612bd36127ca565b5b6000612be28782880161281d565b945050602085013567ffffffffffffffff811115612c0357612c026127cf565b5b612c0f87828801612b8c565b935050604085013567ffffffffffffffff811115612c3057612c2f6127cf565b5b612c3c87828801612b8c565b925050606085013567ffffffffffffffff811115612c5d57612c5c6127cf565b5b612c6987828801612b8c565b91505092959194509250565b612c7e8161288b565b8114612c8957600080fd5b50565b600081359050612c9b81612c75565b92915050565b60008060008060008060008060006101208a8c031215612cc457612cc36127ca565b5b60008a013567ffffffffffffffff811115612ce257612ce16127cf565b5b612cee8c828d01612b8c565b99505060208a013567ffffffffffffffff811115612d0f57612d0e6127cf565b5b612d1b8c828d01612b8c565b98505060408a013567ffffffffffffffff811115612d3c57612d3b6127cf565b5b612d488c828d01612b8c565b9750506060612d598c828d01612c8c565b9650506080612d6a8c828d01612c8c565b95505060a0612d7b8c828d01612c8c565b94505060c0612d8c8c828d01612c8c565b93505060e0612d9d8c828d01612c8c565b925050610100612daf8c828d01612c8c565b9150509295985092959850929598565b600080600080600060a08688031215612ddb57612dda6127ca565b5b6000612de98882890161281d565b955050602086013567ffffffffffffffff811115612e0a57612e096127cf565b5b612e1688828901612b8c565b945050604086013567ffffffffffffffff811115612e3757612e366127cf565b5b612e4388828901612b8c565b935050606086013567ffffffffffffffff811115612e6457612e636127cf565b5b612e7088828901612b8c565b925050608086013567ffffffffffffffff811115612e9157612e906127cf565b5b612e9d88828901612b8c565b9150509295509295909350565b612eb38161288b565b82525050565b612ec2816127f4565b82525050565b600082825260208201905092915050565b6000612ee4826128a4565b612eee8185612ec8565b9350612efe8185602086016128c0565b612f07816128f3565b840191505092915050565b600060c082019050612f276000830189612eaa565b612f346020830188612eb9565b8181036040830152612f468187612ed9565b90508181036060830152612f5a8186612ed9565b90508181036080830152612f6e8185612ed9565b905081810360a0830152612f828184612ed9565b9050979650505050505050565b600060a082019050612fa46000830188612eaa565b612fb16020830187612eb9565b8181036040830152612fc38186612ed9565b90508181036060830152612fd78185612ed9565b90508181036080830152612feb8184612ed9565b90509695505050505050565b60008060008060808587031215613011576130106127ca565b5b600061301f87828801612c8c565b945050602061303087828801612c8c565b935050604085013567ffffffffffffffff811115613051576130506127cf565b5b61305d87828801612b8c565b925050606085013567ffffffffffffffff81111561307e5761307d6127cf565b5b61308a87828801612b8c565b91505092959194509250565b600081519050919050565b600082825260208201905092915050565b6000819050602082019050919050565b6130cb816127f4565b82525050565b600081519050919050565b600082825260208201905092915050565b6000819050602082019050919050565b60006131098383612895565b60208301905092915050565b6000602082019050919050565b600061312d826130d1565b61313781856130dc565b9350613142836130ed565b8060005b8381101561317357815161315a88826130fd565b975061316583613115565b925050600181019050613146565b5085935050505092915050565b6000610100830160008301516131996000860182612895565b5060208301516131ac60208601826130c2565b50604083015184820360408601526131c48282612904565b915050606083015184820360608601526131de8282612904565b915050608083015184820360808601526131f88282612904565b91505060a083015184820360a08601526132128282612904565b91505060c083015184820360c086015261322c8282613122565b91505060e083015184820360e08601526132468282613122565b9150508091505092915050565b600061325f8383613180565b905092915050565b6000602082019050919050565b600061327f82613096565b61328981856130a1565b93508360208202850161329b856130b2565b8060005b858110156132d757848403895281516132b88582613253565b94506132c383613267565b925060208a0199505060018101905061329f565b50829750879550505050505092915050565b600060208201905081810360008301526133038184613274565b905092915050565b600060208284031215613321576133206127ca565b5b600061332f84828501612c8c565b91505092915050565b600060c0830160008301516133506000860182612895565b5060208301516133636020860182612895565b5060408301516133766040860182612895565b5060608301516133896060860182612895565b50608083015184820360808601526133a18282612904565b91505060a083015184820360a08601526133bb8282612904565b9150508091505092915050565b600060208201905081810360008301526133e28184613338565b905092915050565b60006020820190506133ff6000830184612eb9565b92915050565b600060c08301600083015161341d6000860182612895565b50602083015161343060208601826130c2565b50604083015184820360408601526134488282612904565b915050606083015184820360608601526134628282612904565b9150506080830151848203608086015261347c8282612904565b91505060a083015184820360a08601526134968282613122565b9150508091505092915050565b600060208201905081810360008301526134bd8184613405565b905092915050565b600081519050919050565b600082825260208201905092915050565b6000819050602082019050919050565b600060c0830160008301516135096000860182612895565b50602083015161351c60208601826130c2565b50604083015184820360408601526135348282612904565b9150506060830151848203606086015261354e8282612904565b915050608083015184820360808601526135688282612904565b91505060a083015184820360a08601526135828282613122565b9150508091505092915050565b600061359b83836134f1565b905092915050565b6000602082019050919050565b60006135bb826134c5565b6135c581856134d0565b9350836020820285016135d7856134e1565b8060005b8581101561361357848403895281516135f4858261358f565b94506135ff836135a3565b925060208a019950506001810190506135db565b50829750879550505050505092915050565b6000602082019050818103600083015261363f81846135b0565b905092915050565b600081519050919050565b600082825260208201905092915050565b6000819050602082019050919050565b60a0820160008201516136896000850182612895565b50602082015161369c6020850182612895565b5060408201516136af6040850182612895565b5060608201516136c26060850182612895565b5060808201516136d56080850182612895565b50505050565b60006136e78383613673565b60a08301905092915050565b6000602082019050919050565b600061370b82613647565b6137158185613652565b935061372083613663565b8060005b8381101561375157815161373888826136db565b9750613743836136f3565b925050600181019050613724565b5085935050505092915050565b600060208201905081810360008301526137788184613700565b905092915050565b600081519050919050565b600082825260208201905092915050565b6000819050602082019050919050565b7f4e487b7100000000000000000000000000000000000000000000000000000000600052602160045260246000fd5b600781106137ec576137eb6137ac565b5b50565b60008190506137fd826137db565b919050565b600061380d826137ef565b9050919050565b61381d81613802565b82525050565b60068110613834576138336137ac565b5b50565b600081905061384582613823565b919050565b600061385582613837565b9050919050565b6138658161384a565b82525050565b6000610220830160008301516138846000860182612895565b5060208301516138976020860182612895565b5060408301516138aa6040860182612895565b5060608301516138bd6060860182612895565b5060808301516138d06080860182612895565b5060a08301516138e360a0860182612895565b5060c08301516138f660c0860182612895565b5060e083015161390960e0860182612895565b5061010083015161391e610100860182612895565b506101208301516139336101208601826130c2565b50610140830151613948610140860182613814565b5061016083015161395d61016086018261385c565b506101808301518482036101808601526139778282612904565b9150506101a08301518482036101a08601526139938282612904565b9150506101c08301518482036101c08601526139af8282612904565b9150506101e08301518482036101e08601526139cb8282613122565b9150506102008301518482036102008601526139e78282613122565b9150508091505092915050565b6000613a00838361386b565b905092915050565b6000602082019050919050565b6000613a2082613780565b613a2a818561378b565b935083602082028501613a3c8561379c565b8060005b85811015613a785784840389528151613a5985826139f4565b9450613a6483613a08565b925060208a01995050600181019050613a40565b50829750879550505050505092915050565b60006020820190508181036000830152613aa48184613a15565b905092915050565b60008060408385031215613ac357613ac26127ca565b5b6000613ad185828601612c8c565b9250506020613ae285828601612c8c565b9150509250929050565b60a082016000820151613b026000850182612895565b506020820151613b156020850182612895565b506040820151613b286040850182612895565b506060820151613b3b6060850182612895565b506080820151613b4e6080850182612895565b50505050565b600060a082019050613b696000830184613aec565b92915050565b600061022083016000830151613b886000860182612895565b506020830151613b9b6020860182612895565b506040830151613bae6040860182612895565b506060830151613bc16060860182612895565b506080830151613bd46080860182612895565b5060a0830151613be760a0860182612895565b5060c0830151613bfa60c0860182612895565b5060e0830151613c0d60e0860182612895565b50610100830151613c22610100860182612895565b50610120830151613c376101208601826130c2565b50610140830151613c4c610140860182613814565b50610160830151613c6161016086018261385c565b50610180830151848203610180860152613c7b8282612904565b9150506101a08301518482036101a0860152613c978282612904565b9150506101c08301518482036101c0860152613cb38282612904565b9150506101e08301518482036101e0860152613ccf8282613122565b915050610200830151848203610200860152613ceb8282613122565b9150508091505092915050565b60006020820190508181036000830152613d128184613b6f565b905092915050565b600061010083016000830151613d336000860182612895565b506020830151613d4660208601826130c2565b5060408301518482036040860152613d5e8282612904565b91505060608301518482036060860152613d788282612904565b91505060808301518482036080860152613d928282612904565b91505060a083015184820360a0860152613dac8282612904565b91505060c083015184820360c0860152613dc68282613122565b91505060e083015184820360e0860152613de08282613122565b9150508091505092915050565b60006020820190508181036000830152613e078184613d1a565b905092915050565b8082525050565b8082525050565b613e26816127f4565b82525050565b6000606082019050613e416000830186613e0f565b613e4e6020830185613e16565b613e5b6040830184613e1d565b949350505050565b600067ffffffffffffffff821115613e7e57613e7d612a8f565b5b602082029050602081019050919050565b600080fd5b600080fd5b600080fd5b600081519050613ead81612c75565b92915050565b6000613ec6613ec184612b0a565b612aef565b905082815260208101848484011115613ee257613ee1612a8a565b5b613eed8482856128c0565b509392505050565b600082601f830112613f0a57613f09612a85565b5b8151613f1a848260208601613eb3565b91505092915050565b600060c08284031215613f3957613f38613e94565b5b613f4360c0612aef565b90506000613f5384828501613e9e565b6000830152506020613f6784828501613e9e565b6020830152506040613f7b84828501613e9e565b6040830152506060613f8f84828501613e9e565b606083015250608082015167ffffffffffffffff811115613fb357613fb2613e99565b5b613fbf84828501613ef5565b60808301525060a082015167ffffffffffffffff811115613fe357613fe2613e99565b5b613fef84828501613ef5565b60a08301525092915050565b600061400e61400984613e63565b612aef565b9050808382526020820190506020840283018581111561403157614030613e8f565b5b835b8181101561407857805167ffffffffffffffff81111561405657614055612a85565b5b8086016140638982613f23565b85526020850194505050602081019050614033565b5050509392505050565b600082601f83011261409757614096612a85565b5b81516140a7848260208601613ffb565b91505092915050565b6000602082840312156140c6576140c56127ca565b5b600082015167ffffffffffffffff8111156140e4576140e36127cf565b5b6140f084828501614082565b91505092915050565b7f4f776e61626c653a2063616c6c6572206973206e6f7420746865206f776e6572600082015250565b600061412f602083612ec8565b915061413a826140f9565b602082019050919050565b6000602082019050818103600083015261415e81614122565b9050919050565b7f4c276164726573736520647520646f6e617465757220646f697420c3aa74726560008201527f2064696666c3a972656e7465206465207ac3a9726f0000000000000000000000602082015250565b60006141c1603583612ec8565b91506141cc82614165565b604082019050919050565b600060208201905081810360008301526141f0816141b4565b9050919050565b7f446f6e6f722064c3a96ac3a020656e72656769737472c3a90000000000000000600082015250565b600061422d601883612ec8565b9150614238826141f7565b602082019050919050565b6000602082019050818103600083015261425c81614220565b9050919050565b7f4e487b7100000000000000000000000000000000000000000000000000000000600052601160045260246000fd5b600061429d8261288b565b91507fffffffffffffffffffffffffffffffffffffffffffffffffffffffffffffffff8214156142d0576142cf614263565b5b600182019050919050565b60006060820190506142f06000830186612eaa565b6142fd6020830185612eb9565b818103604083015261430f8184612ed9565b9050949350505050565b7f4e487b7100000000000000000000000000000000000000000000000000000000600052602260045260246000fd5b6000600282049050600182168061436057607f821691505b6020821081141561437457614373614319565b5b50919050565b7f566f7573206e27c3aa7465732070617320656e72656769737472c3a920656e2060008201527f74616e7420717565204e504f0000000000000000000000000000000000000000602082015250565b60006143d6602c83612ec8565b91506143e18261437a565b604082019050919050565b60006020820190508181036000830152614405816143c9565b9050919050565b7f4c6520746974726520657374206f626c696761746f6972650000000000000000600082015250565b6000614442601883612ec8565b915061444d8261440c565b602082019050919050565b6000602082019050818103600083015261447181614435565b9050919050565b7f4c61206465736372697074696f6e20657374206f626c696761746f6972650000600082015250565b60006144ae601e83612ec8565b91506144b982614478565b602082019050919050565b600060208201905081810360008301526144dd816144a1565b9050919050565b7f446174652064652064c3a96275742064652070726f6a6574206f626c6967617460008201527f6f69726500000000000000000000000000000000000000000000000000000000602082015250565b6000614540602483612ec8565b915061454b826144e4565b604082019050919050565b6000602082019050818103600083015261456f81614533565b9050919050565b7f446174652064652066696e2064652070726f6a6574206f626c696761746f697260008201527f6500000000000000000000000000000000000000000000000000000000000000602082015250565b60006145d2602183612ec8565b91506145dd82614576565b604082019050919050565b60006020820190508181036000830152614601816145c5565b9050919050565b7f4d6f6e74616e74206d696e696d616c206f626c696761746f6972650000000000600082015250565b600061463e601b83612ec8565b915061464982614608565b602082019050919050565b6000602082019050818103600083015261466d81614631565b9050919050565b7f4d6f6e74616e74206d6178696d616c206f626c696761746f6972650000000000600082015250565b60006146aa601b83612ec8565b91506146b582614674565b602082019050919050565b600060208201905081810360008301526146d98161469d565b9050919050565b7f446174652064652064c3a96275742064652063616d7061676e65206f626c696760008201527f61746f6972650000000000000000000000000000000000000000000000000000602082015250565b600061473c602683612ec8565b9150614747826146e0565b604082019050919050565b6000602082019050818103600083015261476b8161472f565b9050919050565b7f447572c3a9652064652063616d7061676e65206f626c696761746f6972650000600082015250565b60006147a8601e83612ec8565b91506147b382614772565b602082019050919050565b600060208201905081810360008301526147d78161479b565b9050919050565b7f4c6120646174652064c3a96275742064652070726f6a657420646f697420c3aa60008201527f747265206176616e74206c612066696e00000000000000000000000000000000602082015250565b600061483a603083612ec8565b9150614845826147de565b604082019050919050565b600060208201905081810360008301526148698161482d565b9050919050565b7f4c65206d6f6e74616e74206d696e696d616c20646f697420c3aa74726520696e60008201527f66c3a97269657572206175206d6f6e74616e74206d6178696d616c0000000000602082015250565b60006148cc603b83612ec8565b91506148d782614870565b604082019050919050565b600060208201905081810360008301526148fb816148bf565b9050919050565b600060c0820190506149176000830189612eaa565b81810360208301526149298188612ed9565b90506149386040830187612eaa565b6149456060830186612eaa565b6149526080830185612eaa565b61495f60a0830184612eaa565b979650505050505050565b7f4c2761647265737365206475204e504f20646f697420c3aa747265206469666660008201527fc3a972656e7465206465207ac3a9726f00000000000000000000000000000000602082015250565b60006149c6603083612ec8565b91506149d18261496a565b604082019050919050565b600060208201905081810360008301526149f5816149b9565b9050919050565b7f4c612064c3a96e6f6d696e6174696f6e20657374206f626c696761746f697265600082015250565b6000614a32602083612ec8565b9150614a3d826149fc565b602082019050919050565b60006020820190508181036000830152614a6181614a25565b9050919050565b7f4c276164726573736520657374206f626c696761746f69726500000000000000600082015250565b6000614a9e601983612ec8565b9150614aa982614a68565b602082019050919050565b60006020820190508181036000830152614acd81614a91565b9050919050565b7f4c276f626a657420657374206f626c696761746f697265000000000000000000600082015250565b6000614b0a601783612ec8565b9150614b1582614ad4565b602082019050919050565b60006020820190508181036000830152614b3981614afd565b9050919050565b7f4c65207479706520657374206f626c696761746f697265000000000000000000600082015250565b6000614b76601783612ec8565b9150614b8182614b40565b602082019050919050565b60006020820190508181036000830152614ba581614b69565b9050919050565b7f4e504f2064c3a96ac3a020656e72656769737472c3a900000000000000000000600082015250565b6000614be2601683612ec8565b9150614bed82614bac565b602082019050919050565b60006020820190508181036000830152614c1181614bd5565b9050919050565b7f50726f6a657420696e636f6e6e75000000000000000000000000000000000000600082015250565b6000614c4e600e83612ec8565b9150614c5982614c18565b602082019050919050565b60006020820190508181036000830152614c7d81614c41565b9050919050565b7f4c612063616d7061676e65206e276573742070617320636f6d6d656e63c3a965600082015250565b6000614cba602083612ec8565b9150614cc582614c84565b602082019050919050565b60006020820190508181036000830152614ce981614cad565b9050919050565b7f42616c616e636520696e737566666973616e7465000000000000000000000000600082015250565b6000614d26601483612ec8565b9150614d3182614cf0565b602082019050919050565b60006020820190508181036000830152614d5581614d19565b9050919050565b6000614d678261288b565b9150614d728361288b565b925082821015614d8557614d84614263565b5b828203905092915050565b6000604082019050614da56000830185612eb9565b614db26020830184612eaa565b9392505050565b60008115159050919050565b614dce81614db9565b8114614dd957600080fd5b50565b600081519050614deb81614dc5565b92915050565b600060208284031215614e0757614e066127ca565b5b6000614e1584828501614ddc565b91505092915050565b6000608082019050614e336000830187612eaa565b614e406020830186612eaa565b614e4d6040830185612eaa565b614e5a6060830184612eb9565b95945050505050565b8082525050565b614e738161288b565b82525050565b6000606082019050614e8e6000830186613e0f565b614e9b6020830185614e63565b614ea86040830184614e6a565b949350505050565b600067ffffffffffffffff821115614ecb57614eca612a8f565b5b602082029050602081019050919050565b600081519050614eeb81612806565b92915050565b600067ffffffffffffffff821115614f0c57614f0b612a8f565b5b602082029050602081019050919050565b6000614f30614f2b84614ef1565b612aef565b90508083825260208201905060208402830185811115614f5357614f52613e8f565b5b835b81811015614f7c5780614f688882613e9e565b845260208401935050602081019050614f55565b5050509392505050565b600082601f830112614f9b57614f9a612a85565b5b8151614fab848260208601614f1d565b91505092915050565b60006101008284031215614fcb57614fca613e94565b5b614fd6610100612aef565b90506000614fe684828501613e9e565b6000830152506020614ffa84828501614edc565b602083015250604082015167ffffffffffffffff81111561501e5761501d613e99565b5b61502a84828501613ef5565b604083015250606082015167ffffffffffffffff81111561504e5761504d613e99565b5b61505a84828501613ef5565b606083015250608082015167ffffffffffffffff81111561507e5761507d613e99565b5b61508a84828501613ef5565b60808301525060a082015167ffffffffffffffff8111156150ae576150ad613e99565b5b6150ba84828501613ef5565b60a08301525060c082015167ffffffffffffffff8111156150de576150dd613e99565b5b6150ea84828501614f86565b60c08301525060e082015167ffffffffffffffff81111561510e5761510d613e99565b5b61511a84828501614f86565b60e08301525092915050565b600061513961513484614eb0565b612aef565b9050808382526020820190506020840283018581111561515c5761515b613e8f565b5b835b818110156151a357805167ffffffffffffffff81111561518157615180612a85565b5b80860161518e8982614fb4565b8552602085019450505060208101905061515e565b5050509392505050565b600082601f8301126151c2576151c1612a85565b5b81516151d2848260208601615126565b91505092915050565b6000602082840312156151f1576151f06127ca565b5b600082015167ffffffffffffffff81111561520f5761520e6127cf565b5b61521b848285016151ad565b91505092915050565b60006040820190506152396000830185613e16565b6152466020830184614e6a565b9392505050565b600060208284031215615263576152626127ca565b5b600082015167ffffffffffffffff811115615281576152806127cf565b5b61528d84828501613f23565b91505092915050565b8082525050565b60006040820190506152b26000830185615296565b6152bf6020830184613e1d565b9392505050565b600060c082840312156152dc576152db613e94565b5b6152e660c0612aef565b905060006152f684828501613e9e565b600083015250602061530a84828501614edc565b602083015250604082015167ffffffffffffffff81111561532e5761532d613e99565b5b61533a84828501613ef5565b604083015250606082015167ffffffffffffffff81111561535e5761535d613e99565b5b61536a84828501613ef5565b606083015250608082015167ffffffffffffffff81111561538e5761538d613e99565b5b61539a84828501613ef5565b60808301525060a082015167ffffffffffffffff8111156153be576153bd613e99565b5b6153ca84828501614f86565b60a08301525092915050565b6000602082840312156153ec576153eb6127ca565b5b600082015167ffffffffffffffff81111561540a576154096127cf565b5b615416848285016152c6565b91505092915050565b60006060820190506154346000830186615296565b6154416020830185614e63565b61544e6040830184614e6a565b949350505050565b600067ffffffffffffffff82111561547157615470612a8f565b5b602082029050602081019050919050565b600061549561549084615456565b612aef565b905080838252602082019050602084028301858111156154b8576154b7613e8f565b5b835b818110156154ff57805167ffffffffffffffff8111156154dd576154dc612a85565b5b8086016154ea89826152c6565b855260208501945050506020810190506154ba565b5050509392505050565b600082601f83011261551e5761551d612a85565b5b815161552e848260208601615482565b91505092915050565b60006020828403121561554d5761554c6127ca565b5b600082015167ffffffffffffffff81111561556b5761556a6127cf565b5b61557784828501615509565b91505092915050565b8082525050565b600060608201905061559c6000830186615296565b6155a96020830185615580565b6155b66040830184613e1d565b949350505050565b600067ffffffffffffffff8211156155d9576155d8612a8f565b5b602082029050602081019050919050565b600060a08284031215615600576155ff613e94565b5b61560a60a0612aef565b9050600061561a84828501613e9e565b600083015250602061562e84828501613e9e565b602083015250604061564284828501613e9e565b604083015250606061565684828501613e9e565b606083015250608061566a84828501613e9e565b60808301525092915050565b6000615689615684846155be565b612aef565b90508083825260208201905060a084028301858111156156ac576156ab613e8f565b5b835b818110156156d557806156c188826155ea565b84526020840193505060a0810190506156ae565b5050509392505050565b600082601f8301126156f4576156f3612a85565b5b8151615704848260208601615676565b91505092915050565b600060208284031215615723576157226127ca565b5b600082015167ffffffffffffffff811115615741576157406127cf565b5b61574d848285016156df565b91505092915050565b8082525050565b60006060820190506157726000830186613e0f565b61577f6020830185615756565b61578c6040830184613e1d565b949350505050565b600067ffffffffffffffff8211156157af576157ae612a8f565b5b602082029050602081019050919050565b600781106157cd57600080fd5b50565b6000815190506157df816157c0565b92915050565b600681106157f257600080fd5b50565b600081519050615804816157e5565b92915050565b6000610220828403121561582157615820613e94565b5b61582c610220612aef565b9050600061583c84828501613e9e565b600083015250602061585084828501613e9e565b602083015250604061586484828501613e9e565b604083015250606061587884828501613e9e565b606083015250608061588c84828501613e9e565b60808301525060a06158a084828501613e9e565b60a08301525060c06158b484828501613e9e565b60c08301525060e06158c884828501613e9e565b60e0830152506101006158dd84828501613e9e565b610100830152506101206158f384828501614edc565b61012083015250610140615909848285016157d0565b6101408301525061016061591f848285016157f5565b6101608301525061018082015167ffffffffffffffff81111561594557615944613e99565b5b61595184828501613ef5565b610180830152506101a082015167ffffffffffffffff81111561597757615976613e99565b5b61598384828501613ef5565b6101a0830152506101c082015167ffffffffffffffff8111156159a9576159a8613e99565b5b6159b584828501613ef5565b6101c0830152506101e082015167ffffffffffffffff8111156159db576159da613e99565b5b6159e784828501614f86565b6101e08301525061020082015167ffffffffffffffff811115615a0d57615a0c613e99565b5b615a1984828501614f86565b6102008301525092915050565b6000615a39615a3484615794565b612aef565b90508083825260208201905060208402830185811115615a5c57615a5b613e8f565b5b835b81811015615aa357805167ffffffffffffffff811115615a8157615a80612a85565b5b808601615a8e898261580a565b85526020850194505050602081019050615a5e565b5050509392505050565b600082601f830112615ac257615ac1612a85565b5b8151615ad2848260208601615a26565b91505092915050565b600060208284031215615af157615af06127ca565b5b600082015167ffffffffffffffff811115615b0f57615b0e6127cf565b5b615b1b84828501615aad565b91505092915050565b7f566f7573206e27c3aa7465732070617320656e72656769737472c3a920656e2060008201527f74616e742071756520646f6e6174657572000000000000000000000000000000602082015250565b6000615b80603183612ec8565b9150615b8b82615b24565b604082019050919050565b60006020820190508181036000830152615baf81615b73565b9050919050565b6000615bc18261288b565b9150615bcc8361288b565b9250817fffffffffffffffffffffffffffffffffffffffffffffffffffffffffffffffff0483118215151615615c0557615c04614263565b5b828202905092915050565b6000615c1b8261288b565b9150615c268361288b565b9250827fffffffffffffffffffffffffffffffffffffffffffffffffffffffffffffffff03821115615c5b57615c5a614263565b5b828201905092915050565b7f4c612063616d7061676e6520657374207465726d696ec3a96500000000000000600082015250565b6000615c9c601983612ec8565b9150615ca782615c66565b602082019050919050565b60006020820190508181036000830152615ccb81615c8f565b9050919050565b6000606082019050615ce76000830186612eb9565b615cf46020830185612eb9565b615d016040830184612eaa565b949350505050565b600060a082019050615d1e6000830188612eaa565b615d2b6020830187612eaa565b615d386040830186612eaa565b615d456060830185612eaa565b615d526080830184612eaa565b9695505050505050565b6000604082019050615d716000830185615756565b615d7e6020830184614e6a565b9392505050565b6000604082019050615d9a6000830185615580565b615da76020830184614e6a565b9392505050565b600060a08284031215615dc457615dc36127ca565b5b6000615dd2848285016155ea565b91505092915050565b600060208284031215615df157615df06127ca565b5b600082015167ffffffffffffffff811115615e0f57615e0e6127cf565b5b615e1b8482850161580a565b91505092915050565b7f4f776e61626c653a206e6577206f776e657220697320746865207a65726f206160008201527f6464726573730000000000000000000000000000000000000000000000000000602082015250565b6000615e80602683612ec8565b9150615e8b82615e24565b604082019050919050565b60006020820190508181036000830152615eaf81615e73565b9050919050565b6000604082019050615ecb6000830185613e0f565b615ed86020830184613e1d565b9392505050565b600060208284031215615ef557615ef46127ca565b5b600082015167ffffffffffffffff811115615f1357615f126127cf565b5b615f1f84828501614fb4565b9150509291505056fea26469706673582212205f2f4134dd605ff9049a91d02d0fd9222220e466c3e78a47bd449ffc8f8f4f1164736f6c634300080b0033",
  "immutableReferences": {},
  "source": "// SPDX-License-Identifier: MIT\r\npragma solidity 0.8.11;\r\n \r\nimport \"@openzeppelin/contracts/token/ERC20/ERC20.sol\";\r\nimport \"@openzeppelin/contracts/access/Ownable.sol\";\r\nimport \"./EthicOnChainLib.sol\";\r\n\r\n/// @title EthicOnChain \r\n/// @author Lahcen E. Dev / Jrme Gauthier\r\n/// @notice EthicOnChain contract to manage NPOs, Projects and Donors\r\ncontract EthicOnChain is Ownable {\r\n    \r\n    // NPOs\r\n    mapping (address => EthicOnChainLib.NPO) public npoAddresses; //Mapping of all NPO \r\n    mapping (uint => address) private npoMap;\r\n    uint private npoCount; \r\n\r\n    // Donors\r\n    mapping (address => EthicOnChainLib.Donor) public donorAddresses; //Mapping of all donors \r\n    mapping (uint => address) private donorMap;\r\n    uint private donorCount; \r\n    \r\n    // Projects\r\n    mapping (uint => EthicOnChainLib.Project) projectMap;\r\n    uint projectCount;\r\n    \r\n    // Donations\r\n    mapping (uint => EthicOnChainLib.Donation) private donationMap;\r\n    uint private donationCount;\r\n\r\n    // Withdrawal Informations\r\n    mapping (uint => EthicOnChainLib.Withdrawal) private withdrawalMap;\r\n    uint private withdrawalCount;\r\n\r\n    // EOC Token address\r\n    address eocTokenAddress;\r\n\r\n    event NpoAdded(uint _poId, address _npoErc20Address, string _denomination);\r\n    event DonorAdded(uint _donorId, address _donorErc20Address, string _donorName);\r\n    event ProjectAdded(uint _projectId, string _title, uint _startDate, uint _endDate, uint _minAmount, uint _maxAmount);\r\n    event DonationAdded(uint _donationId, uint _projectId, uint _donorId, uint _donationDate, uint donationAmount);\r\n    event TokensWithdrawn(uint _withdrawalId ,uint _projectId, uint _amount, address _addressRecipent);\r\n    \r\n    /// @dev Initialise the deployed EOC token address for swap\r\n    /// @param _eocTokenAddress EOC Token address\r\n    constructor(address _eocTokenAddress) {\r\n       eocTokenAddress =  _eocTokenAddress;\r\n    }\r\n\r\n    /// @dev The administrator can add a new NPO\r\n    /// @param _npoErc20Address the ERC20 address of the npo\r\n    /// @param _denomination Demonination of the NPO\r\n    /// @param _postalAddress Postal address of the NPO\r\n    /// @param _object object of NPO\r\n    /// @param _npoType Type of npo organization\r\n    function addNpo(\r\n        address _npoErc20Address,\r\n        string memory _denomination,\r\n        string memory _postalAddress,\r\n        string memory _object,\r\n        string memory _npoType) public onlyOwner {\r\n        // Mandatory fields\r\n        require(_npoErc20Address > address(0), unicode\"L'adresse du NPO doit tre diffrente de zro\");\r\n        require(bytes(_denomination).length > 0, unicode\"La dnomination est obligatoire\");\r\n        require(bytes(_postalAddress).length > 0, \"L'adresse est obligatoire\");\r\n        require(bytes(_object).length > 0, \"L'objet est obligatoire\");\r\n        require(bytes(_npoType).length > 0, \"Le type est obligatoire\");\r\n        require(bytes(npoAddresses[_npoErc20Address].denomination).length == 0, unicode\"NPO dj enregistr\");\r\n        \r\n        EthicOnChainLib.NPO storage newNpo = npoAddresses[_npoErc20Address];\r\n        newNpo.npoId = npoCount;\r\n        newNpo.npoErc20Address = _npoErc20Address;\r\n        newNpo.denomination = _denomination;\r\n        newNpo.postalAddress = _postalAddress;\r\n        newNpo.object = _object;\r\n        newNpo.npoType = _npoType;\r\n        npoMap[npoCount] = _npoErc20Address;\r\n        npoCount++;\r\n        emit NpoAdded(newNpo.npoId, _npoErc20Address, _denomination);\r\n    }\r\n \r\n    /// @dev The administrator/contract can add a new Donor\r\n    /// @param _donorErc20Address ERC20 address of the donor\r\n    /// @param _name Name of the Donor\r\n    /// @param _surName Surname of the Donor\r\n    /// @param _postalAddress postal address of the donor\r\n    function addDonor(\r\n        address _donorErc20Address,\r\n        string memory _name,\r\n        string memory _surName,\r\n        string memory _postalAddress) public onlyOwner {\r\n        // Mandatory fields\r\n        require(_donorErc20Address > address(0), unicode\"L'adresse du donateur doit tre diffrente de zro\");\r\n        require(donorAddresses[_donorErc20Address].donorErc20Address == address(0), unicode\"Donor dj enregistr\");\r\n\r\n        EthicOnChainLib.Donor storage newDonor = donorAddresses[_donorErc20Address];\r\n        newDonor.donorId = donorCount;\r\n        newDonor.name = _name;\r\n        newDonor.surName = _surName;\r\n        newDonor.donorErc20Address=_donorErc20Address;\r\n        newDonor.postalAddress = _postalAddress;\r\n        donorMap[donorCount] = _donorErc20Address;\r\n        donorCount++;\r\n        emit DonorAdded(newDonor.donorId, _donorErc20Address, _name);\r\n    }\r\n \r\n    /// @dev This function will allow to add a project, the owner will be the one who calls the function. \r\n    /// @param _title The title of the project\r\n    /// @param _description description of the project\r\n    /// @param _geographicalArea the geographical area where the project will be located.\r\n    /// @param _startDate The start date of the project\r\n    /// @param _endDate The end of the project\r\n    /// @param _campaignStartDate the beginning of the collection of funds\r\n    /// @param _campaignDurationInDays the duration of the collection of funds\r\n    /// @param _minAmount The minimum price for the project to be valid\r\n    /// @param _maxAmount The maximum price to make the project a success \r\n    function addProject(\r\n        string memory _title,\r\n        string memory _description,\r\n        string memory _geographicalArea,\r\n        uint _startDate,\r\n        uint _endDate,\r\n        uint _campaignStartDate,\r\n        uint _campaignDurationInDays,\r\n        uint _minAmount,\r\n        uint _maxAmount\r\n    ) public {\r\n        EthicOnChainLib.NPO storage projectNpo = npoAddresses[msg.sender];\r\n        require(bytes(projectNpo.denomination).length != 0, unicode\"Vous n'tes pas enregistr en tant que NPO\");\r\n        // Mandatory fields\r\n        require(bytes(_title).length > 0, \"Le titre est obligatoire\");\r\n        require(bytes(_description).length > 0, \"La description est obligatoire\");\r\n        require(_startDate > 0, unicode\"Date de dbut de projet obligatoire\");\r\n        require(_endDate > 0, \"Date de fin de projet obligatoire\");\r\n        require(_minAmount > 0, \"Montant minimal obligatoire\");\r\n        require(_maxAmount > 0, \"Montant maximal obligatoire\");\r\n        require(_campaignStartDate > 0, unicode\"Date de dbut de campagne obligatoire\");\r\n        require(_campaignDurationInDays > 0, unicode\"Dure de campagne obligatoire\");\r\n        // Comparisons\r\n        require(_startDate < _endDate, unicode\"La date dbut de projet doit tre avant la fin\");\r\n        require(_minAmount < _maxAmount, unicode\"Le montant minimal doit tre infrieur au montant maximal\");\r\n\r\n        EthicOnChainLib.Project storage newProject = projectMap[projectCount];\r\n        newProject.projectId = projectCount;\r\n        newProject.npoErc20Address = msg.sender;\r\n        newProject.title = _title;\r\n        // TODO = voir comment grer le Project Cause en fonction de son enum\r\n        newProject.description = _description;\r\n        newProject.geographicalArea = _geographicalArea;\r\n        newProject.startDate = _startDate;\r\n        newProject.endDate = _endDate;\r\n        newProject.campaignStartDate = _campaignStartDate;\r\n        newProject.campaignDurationInDays = _campaignDurationInDays;\r\n        newProject.minAmount = _minAmount;\r\n        newProject.maxAmount = _maxAmount;\r\n        projectNpo.projectIds.push(projectCount);\r\n\r\n        projectCount++;\r\n        emit ProjectAdded(newProject.projectId, _title,  _startDate, _endDate, _minAmount, _maxAmount);\r\n    } \r\n\r\n    /// @dev Add a Donation struct in global donationMap\r\n    /// @param _projectId id of the project for which the donation is done\r\n    /// @param _donationAmount amount of the donation in EOC tokens\r\n    function addDonation(uint _projectId, uint _donationAmount) public {\r\n        EthicOnChainLib.Donor storage donationDonor = donorAddresses[msg.sender];\r\n        require(donationDonor.donorErc20Address != address(0), unicode\"Vous n'tes pas enregistr en tant que donateur\"); // concept de KYC\r\n        EthicOnChainLib.Project storage donationProject = projectMap[_projectId];\r\n        require(bytes(donationProject.title).length != 0, \"Projet inconnu\");\r\n        // donation possible seulement si dans priode de campagne\r\n        uint campaignEndDate = donationProject.campaignStartDate + donationProject.campaignDurationInDays * 1 days;\r\n        require(block.timestamp > donationProject.campaignStartDate, unicode\"La campagne n'est pas commence\");\r\n        require(block.timestamp < campaignEndDate, unicode\"La campagne est termine\");\r\n\r\n        EthicOnChainLib.Donation storage newDonation = donationMap[donationCount];\r\n        newDonation.donationId = donationCount;\r\n        newDonation.projectId = _projectId;\r\n        newDonation.donorId = donationDonor.donorId;\r\n        newDonation.donationDate = block.timestamp;\r\n        newDonation.donationAmount = _donationAmount;\r\n        \r\n        donationDonor.donationIds.push(donationCount); // mise  jour de l'historique des donations pour le donateur\r\n        \r\n        donationProject.projectBalance += _donationAmount; // mise  jour de la balance du projet\r\n        donationProject.projectTotalDonations += _donationAmount; // et du total des donations\r\n        donationProject.donationIds.push(donationCount); // mise  jour de l'historique des donations pour le projet\r\n        donationCount++;\r\n        \r\n        // transfert de la donation du donateur vers le contrat\r\n        // le donateur devra avoir pralablement approuv (fonction approve du token - un minimum = le montant  transfrer)\r\n        // le contrat  transfrer les tokens de l'addresse du donateur vers l'adresse du contrat\r\n        IERC20(eocTokenAddress).transferFrom(msg.sender, address(this), _donationAmount);\r\n        //TODO PLUS TARD creation d'un escrow contract pour ne pas verser tous les tokens dans le mme contrat gnral\r\n        emit DonationAdded(newDonation.donationId, newDonation.projectId, newDonation.donorId, newDonation.donationDate, newDonation.donationAmount);\r\n    }\r\n\r\n    /// @dev Allows an NPO to withdraw funds from a project \r\n    /// @param _projectId project id \r\n    /// @param _amount Amount of withdrawal\r\n    /// @param _title title of the withdrawal\r\n    /// @param _description description of the withdrawal\r\n    function withdrawTokens (uint _projectId, uint _amount,string memory _title,string memory _description) public {\r\n        EthicOnChainLib.NPO storage withdrawalNpo = npoAddresses[msg.sender];\r\n        require(bytes(npoAddresses[msg.sender].denomination).length != 0, unicode\"Vous n'tes pas enregistr en tant que NPO\");\r\n        require(bytes(projectMap[_projectId].title).length != 0, \"Projet inconnu\");\r\n        require(block.timestamp > projectMap[_projectId].campaignStartDate, unicode\"La campagne n'est pas commence\");\r\n        uint256 balance = projectMap[_projectId].projectBalance;\r\n        require(balance >= _amount, \"Balance insuffisante\");\r\n\r\n        EthicOnChainLib.Withdrawal storage newWithdrawal = withdrawalMap[withdrawalCount];\r\n        newWithdrawal.withdrawalId = withdrawalCount;\r\n        newWithdrawal.projectId = _projectId;\r\n        newWithdrawal.title = _title;\r\n        newWithdrawal.amount = _amount;\r\n        newWithdrawal.withdrawalDate = block.timestamp;\r\n        newWithdrawal.description = _description;\r\n\r\n        withdrawalNpo.withdrawalIds.push(withdrawalCount); // mise  jour de l'historique des retraits pour le NPO\r\n        projectMap[_projectId].projectBalance -= _amount; // mise  jour de la balance du projet\r\n        projectMap[_projectId].withdrawalIds.push(withdrawalCount); // mise  jour de l'historique des retraits pour le projet\r\n        withdrawalCount++;\r\n        IERC20(eocTokenAddress).transfer(msg.sender,_amount);\r\n        emit TokensWithdrawn(newWithdrawal.withdrawalId,newWithdrawal.projectId,newWithdrawal.amount,msg.sender);\r\n    }\r\n\r\n\r\n    /// @dev  get an NPO via its erc20 address\r\n    /// @param _npoErc20Address erc20 address of the NPO\r\n    /// @return returns the corresponding NPO struct\r\n    function getNpo(address _npoErc20Address) public view returns(EthicOnChainLib.NPO memory) {\r\n        return EthicOnChainLib.libGetNpo(npoAddresses, _npoErc20Address);\r\n    }\r\n\r\n    /// @dev  get an NPO via its id\r\n    /// @param _npoId id of the NPO\r\n    /// @return returns the corresponding NPO struct\r\n    function getNpoByIndex(uint _npoId) internal view returns(EthicOnChainLib.NPO memory) {\r\n        return EthicOnChainLib.libGetNpoByIndex(npoAddresses, npoMap, _npoId);\r\n    }\r\n\r\n    /// @dev  get all NPOs\r\n    /// @return returns an array of all NPOs\r\n    function getNpos() public view returns(EthicOnChainLib.NPO [] memory) {\r\n        return EthicOnChainLib.libGetNpos(npoAddresses, npoMap, npoCount);\r\n    }\r\n\r\n    /// @dev  get a Donor via its erc20 address\r\n    /// @param _donorErc20Address erc20 address of the Donor\r\n    /// @return returns the corresponding Donor struct\r\n    function getDonor(address _donorErc20Address) public view returns(EthicOnChainLib.Donor memory) {\r\n        return EthicOnChainLib.libGetDonor(donorAddresses, _donorErc20Address);\r\n    }\r\n\r\n    /// @dev  get a Donor via its id\r\n    /// @param _donorId id of the Donor\r\n    /// @return returns the corresponding Donor struct\r\n    function getDonorByIndex(uint _donorId) internal view returns(EthicOnChainLib.Donor memory) {\r\n        return EthicOnChainLib.libGetDonorByIndex(donorAddresses, donorMap, _donorId);\r\n    }\r\n\r\n    /// @dev  get all Donors\r\n    /// @return returns an array of all Donors\r\n    function getDonors() public view returns(EthicOnChainLib.Donor [] memory) {\r\n        return EthicOnChainLib.libGetDonors(donorAddresses, donorMap, donorCount);\r\n    }\r\n\r\n    /// @dev Returns a single Project\r\n    /// @param _projectId project unique id\r\n    /// @return the Project struct instance corresponding to _projectId\r\n    function getProject(uint _projectId) public view returns(EthicOnChainLib.Project memory) {\r\n        return EthicOnChainLib.libGetProject(projectMap, _projectId);\r\n    }\r\n\r\n    /// @dev  get all projects\r\n    /// @return returns an array of all Project\r\n    function getProjects() public view returns(EthicOnChainLib.Project [] memory) {\r\n        return EthicOnChainLib.libGetProjects(projectMap, projectCount);\r\n    }\r\n    \r\n    /// @dev Allows to know all the projects of an NPO\r\n    /// @param _addressNpo ERC20 address of the NPO\r\n    /// @return Returns an array of projects\r\n    function getProjectsPerNpo(address _addressNpo) public view  returns(EthicOnChainLib.Project [] memory ) {\r\n        return EthicOnChainLib.libGetProjectsPerNpo(npoAddresses, projectMap, _addressNpo);\r\n    }\r\n\r\n    /// @dev  get Donation by id\r\n    /// param _id index pour retrouver la donation a retourner\r\n    /// @return a struct donation \r\n    function getDonation(uint _id) public view returns(EthicOnChainLib.Donation memory) {\r\n        return EthicOnChainLib.libGetDonation(donationMap, _id);\r\n    }\r\n\r\n    /// @dev Allows to know all the donations of a single donor\r\n    /// @param _addressNpo id which represents the index\r\n    /// @return Returns an array of all donation of a single donor\r\n    function getDonationPerDonor(address _addressNpo) public view  returns(EthicOnChainLib.Donation [] memory ) {\r\n        return EthicOnChainLib.libGetDonationPerDonor(donorAddresses, donationMap, _addressNpo);\r\n    }\r\n\r\n    /// @dev  get Withdrawal by id\r\n    /// param _id index pour retrouver le withdrawal a retourner\r\n    /// @return a struct retait \r\n    function getWithdrawal(uint _id) public view returns(EthicOnChainLib.Withdrawal memory) {\r\n        return EthicOnChainLib.libGetWithdrawal(withdrawalMap, _id);\r\n    }\r\n\r\n    /// @dev Allows to know all the donations of a single donor\r\n    /// @param _addressNpo id which represents the index\r\n    /// @return Returns an array of all donation of a single donor\r\n    function getWithdrawalPerNpo(address _addressNpo) public view  returns(EthicOnChainLib.Withdrawal [] memory ) {\r\n        return EthicOnChainLib.libGetWithdrawalPerNpo(npoAddresses, withdrawalMap, _addressNpo);\r\n    }\r\n\r\n}",
  "sourcePath": "C:\\Appli.crypto\\ethic-on-chain\\contracts\\EthicOnChain.sol",
  "compiler": {
    "name": "solc",
    "version": "0.8.11+commit.d7f03943.Emscripten.clang"
  },
  "schemaVersion": "3.4.4",
  "updatedAt": "2022-01-16T13:28:09.405Z",
  "networkType": "ethereum",
  "devdoc": {
    "author": "Lahcen E. Dev / Jrme Gauthier",
    "kind": "dev",
    "methods": {
      "addDonation(uint256,uint256)": {
        "details": "Add a Donation struct in global donationMap",
        "params": {
          "_donationAmount": "amount of the donation in EOC tokens",
          "_projectId": "id of the project for which the donation is done"
        }
      },
      "addDonor(address,string,string,string)": {
        "details": "The administrator/contract can add a new Donor",
        "params": {
          "_donorErc20Address": "ERC20 address of the donor",
          "_name": "Name of the Donor",
          "_postalAddress": "postal address of the donor",
          "_surName": "Surname of the Donor"
        }
      },
      "addNpo(address,string,string,string,string)": {
        "details": "The administrator can add a new NPO",
        "params": {
          "_denomination": "Demonination of the NPO",
          "_npoErc20Address": "the ERC20 address of the npo",
          "_npoType": "Type of npo organization",
          "_object": "object of NPO",
          "_postalAddress": "Postal address of the NPO"
        }
      },
      "addProject(string,string,string,uint256,uint256,uint256,uint256,uint256,uint256)": {
        "details": "This function will allow to add a project, the owner will be the one who calls the function. ",
        "params": {
          "_campaignDurationInDays": "the duration of the collection of funds",
          "_campaignStartDate": "the beginning of the collection of funds",
          "_description": "description of the project",
          "_endDate": "The end of the project",
          "_geographicalArea": "the geographical area where the project will be located.",
          "_maxAmount": "The maximum price to make the project a success ",
          "_minAmount": "The minimum price for the project to be valid",
          "_startDate": "The start date of the project",
          "_title": "The title of the project"
        }
      },
      "constructor": {
        "details": "Initialise the deployed EOC token address for swap",
        "params": {
          "_eocTokenAddress": "EOC Token address"
        }
      },
      "getDonation(uint256)": {
        "details": "get Donation by id param _id index pour retrouver la donation a retourner",
        "returns": {
          "_0": "a struct donation "
        }
      },
      "getDonationPerDonor(address)": {
        "details": "Allows to know all the donations of a single donor",
        "params": {
          "_addressNpo": "id which represents the index"
        },
        "returns": {
          "_0": "Returns an array of all donation of a single donor"
        }
      },
      "getDonor(address)": {
        "details": "get a Donor via its erc20 address",
        "params": {
          "_donorErc20Address": "erc20 address of the Donor"
        },
        "returns": {
          "_0": "returns the corresponding Donor struct"
        }
      },
      "getDonors()": {
        "details": "get all Donors",
        "returns": {
          "_0": "returns an array of all Donors"
        }
      },
      "getNpo(address)": {
        "details": "get an NPO via its erc20 address",
        "params": {
          "_npoErc20Address": "erc20 address of the NPO"
        },
        "returns": {
          "_0": "returns the corresponding NPO struct"
        }
      },
      "getNpos()": {
        "details": "get all NPOs",
        "returns": {
          "_0": "returns an array of all NPOs"
        }
      },
      "getProject(uint256)": {
        "details": "Returns a single Project",
        "params": {
          "_projectId": "project unique id"
        },
        "returns": {
          "_0": "the Project struct instance corresponding to _projectId"
        }
      },
      "getProjects()": {
        "details": "get all projects",
        "returns": {
          "_0": "returns an array of all Project"
        }
      },
      "getProjectsPerNpo(address)": {
        "details": "Allows to know all the projects of an NPO",
        "params": {
          "_addressNpo": "ERC20 address of the NPO"
        },
        "returns": {
          "_0": "Returns an array of projects"
        }
      },
      "getWithdrawal(uint256)": {
        "details": "get Withdrawal by id param _id index pour retrouver le withdrawal a retourner",
        "returns": {
          "_0": "a struct retait "
        }
      },
      "getWithdrawalPerNpo(address)": {
        "details": "Allows to know all the donations of a single donor",
        "params": {
          "_addressNpo": "id which represents the index"
        },
        "returns": {
          "_0": "Returns an array of all donation of a single donor"
        }
      },
      "owner()": {
        "details": "Returns the address of the current owner."
      },
      "renounceOwnership()": {
        "details": "Leaves the contract without owner. It will not be possible to call `onlyOwner` functions anymore. Can only be called by the current owner. NOTE: Renouncing ownership will leave the contract without an owner, thereby removing any functionality that is only available to the owner."
      },
      "transferOwnership(address)": {
        "details": "Transfers ownership of the contract to a new account (`newOwner`). Can only be called by the current owner."
      },
      "withdrawTokens(uint256,uint256,string,string)": {
        "details": "Allows an NPO to withdraw funds from a project ",
        "params": {
          "_amount": "Amount of withdrawal",
          "_description": "description of the withdrawal",
          "_projectId": "project id ",
          "_title": "title of the withdrawal"
        }
      }
    },
    "title": "EthicOnChain ",
    "version": 1
  },
  "userdoc": {
    "kind": "user",
    "methods": {},
    "notice": "EthicOnChain contract to manage NPOs, Projects and Donors",
    "version": 1
  }
}