{
  "contractName": "EthicOnChain",
  "abi": [
    {
      "inputs": [
        {
          "internalType": "address",
          "name": "_eocTokenAddress",
          "type": "address"
        },
        {
          "internalType": "address",
          "name": "_eocNpoAddress",
          "type": "address"
        },
        {
          "internalType": "address",
          "name": "_eocDonorAddress",
          "type": "address"
        },
        {
          "internalType": "address",
          "name": "_eocProjectAddress",
          "type": "address"
        }
      ],
      "stateMutability": "nonpayable",
      "type": "constructor"
    },
    {
      "anonymous": false,
      "inputs": [
        {
          "indexed": false,
          "internalType": "uint256",
          "name": "_donationId",
          "type": "uint256"
        },
        {
          "indexed": false,
          "internalType": "uint256",
          "name": "_projectId",
          "type": "uint256"
        },
        {
          "indexed": false,
          "internalType": "uint256",
          "name": "_donorId",
          "type": "uint256"
        },
        {
          "indexed": false,
          "internalType": "uint256",
          "name": "_donationDate",
          "type": "uint256"
        },
        {
          "indexed": false,
          "internalType": "uint256",
          "name": "donationAmount",
          "type": "uint256"
        }
      ],
      "name": "DonationAdded",
      "type": "event"
    },
    {
      "anonymous": false,
      "inputs": [
        {
          "indexed": true,
          "internalType": "address",
          "name": "previousOwner",
          "type": "address"
        },
        {
          "indexed": true,
          "internalType": "address",
          "name": "newOwner",
          "type": "address"
        }
      ],
      "name": "OwnershipTransferred",
      "type": "event"
    },
    {
      "anonymous": false,
      "inputs": [
        {
          "indexed": false,
          "internalType": "uint256",
          "name": "_projectId",
          "type": "uint256"
        },
        {
          "indexed": false,
          "internalType": "string",
          "name": "_title",
          "type": "string"
        },
        {
          "indexed": false,
          "internalType": "uint256",
          "name": "_startDate",
          "type": "uint256"
        },
        {
          "indexed": false,
          "internalType": "uint256",
          "name": "_endDate",
          "type": "uint256"
        },
        {
          "indexed": false,
          "internalType": "uint256",
          "name": "_minAmount",
          "type": "uint256"
        },
        {
          "indexed": false,
          "internalType": "uint256",
          "name": "_maxAmount",
          "type": "uint256"
        }
      ],
      "name": "ProjectAdded",
      "type": "event"
    },
    {
      "anonymous": false,
      "inputs": [
        {
          "indexed": false,
          "internalType": "uint256",
          "name": "_withdrawalId",
          "type": "uint256"
        },
        {
          "indexed": false,
          "internalType": "uint256",
          "name": "_projectId",
          "type": "uint256"
        },
        {
          "indexed": false,
          "internalType": "uint256",
          "name": "_amount",
          "type": "uint256"
        },
        {
          "indexed": false,
          "internalType": "address",
          "name": "_addressRecipent",
          "type": "address"
        }
      ],
      "name": "WithdrawalAdded",
      "type": "event"
    },
    {
      "inputs": [
        {
          "internalType": "address",
          "name": "",
          "type": "address"
        }
      ],
      "name": "donorAddresses",
      "outputs": [
        {
          "internalType": "uint256",
          "name": "donorId",
          "type": "uint256"
        },
        {
          "internalType": "address",
          "name": "donorErc20Address",
          "type": "address"
        },
        {
          "internalType": "string",
          "name": "name",
          "type": "string"
        },
        {
          "internalType": "string",
          "name": "surName",
          "type": "string"
        },
        {
          "internalType": "string",
          "name": "postalAddress",
          "type": "string"
        }
      ],
      "stateMutability": "view",
      "type": "function"
    },
    {
      "inputs": [],
      "name": "owner",
      "outputs": [
        {
          "internalType": "address",
          "name": "",
          "type": "address"
        }
      ],
      "stateMutability": "view",
      "type": "function"
    },
    {
      "inputs": [],
      "name": "renounceOwnership",
      "outputs": [],
      "stateMutability": "nonpayable",
      "type": "function"
    },
    {
      "inputs": [
        {
          "internalType": "address",
          "name": "newOwner",
          "type": "address"
        }
      ],
      "name": "transferOwnership",
      "outputs": [],
      "stateMutability": "nonpayable",
      "type": "function"
    },
    {
      "inputs": [
        {
          "internalType": "address",
          "name": "_npoErc20Address",
          "type": "address"
        },
        {
          "internalType": "string",
          "name": "_denomination",
          "type": "string"
        },
        {
          "internalType": "string",
          "name": "_postalAddress",
          "type": "string"
        },
        {
          "internalType": "string",
          "name": "_object",
          "type": "string"
        },
        {
          "internalType": "string",
          "name": "_npoType",
          "type": "string"
        }
      ],
      "name": "addNpo",
      "outputs": [],
      "stateMutability": "nonpayable",
      "type": "function"
    },
    {
      "inputs": [
        {
          "internalType": "address",
          "name": "_npoErc20Address",
          "type": "address"
        }
      ],
      "name": "getNpo",
      "outputs": [
        {
          "components": [
            {
              "internalType": "uint256",
              "name": "npoId",
              "type": "uint256"
            },
            {
              "internalType": "address",
              "name": "npoErc20Address",
              "type": "address"
            },
            {
              "internalType": "string",
              "name": "denomination",
              "type": "string"
            },
            {
              "internalType": "string",
              "name": "postalAddress",
              "type": "string"
            },
            {
              "internalType": "string",
              "name": "object",
              "type": "string"
            },
            {
              "internalType": "string",
              "name": "npoType",
              "type": "string"
            },
            {
              "internalType": "uint256[]",
              "name": "projectIds",
              "type": "uint256[]"
            },
            {
              "internalType": "uint256[]",
              "name": "withdrawalIds",
              "type": "uint256[]"
            }
          ],
          "internalType": "struct IEocNpo.NPO",
          "name": "",
          "type": "tuple"
        }
      ],
      "stateMutability": "view",
      "type": "function"
    },
    {
      "inputs": [],
      "name": "getNpos",
      "outputs": [
        {
          "components": [
            {
              "internalType": "uint256",
              "name": "npoId",
              "type": "uint256"
            },
            {
              "internalType": "address",
              "name": "npoErc20Address",
              "type": "address"
            },
            {
              "internalType": "string",
              "name": "denomination",
              "type": "string"
            },
            {
              "internalType": "string",
              "name": "postalAddress",
              "type": "string"
            },
            {
              "internalType": "string",
              "name": "object",
              "type": "string"
            },
            {
              "internalType": "string",
              "name": "npoType",
              "type": "string"
            },
            {
              "internalType": "uint256[]",
              "name": "projectIds",
              "type": "uint256[]"
            },
            {
              "internalType": "uint256[]",
              "name": "withdrawalIds",
              "type": "uint256[]"
            }
          ],
          "internalType": "struct IEocNpo.NPO[]",
          "name": "",
          "type": "tuple[]"
        }
      ],
      "stateMutability": "view",
      "type": "function"
    },
    {
      "inputs": [
        {
          "internalType": "address",
          "name": "_donorErc20Address",
          "type": "address"
        },
        {
          "internalType": "string",
          "name": "_name",
          "type": "string"
        },
        {
          "internalType": "string",
          "name": "_surName",
          "type": "string"
        },
        {
          "internalType": "string",
          "name": "_postalAddress",
          "type": "string"
        }
      ],
      "name": "addDonor",
      "outputs": [],
      "stateMutability": "nonpayable",
      "type": "function"
    },
    {
      "inputs": [
        {
          "internalType": "address",
          "name": "_donorErc20Address",
          "type": "address"
        }
      ],
      "name": "getDonor",
      "outputs": [
        {
          "components": [
            {
              "internalType": "uint256",
              "name": "donorId",
              "type": "uint256"
            },
            {
              "internalType": "address",
              "name": "donorErc20Address",
              "type": "address"
            },
            {
              "internalType": "string",
              "name": "name",
              "type": "string"
            },
            {
              "internalType": "string",
              "name": "surName",
              "type": "string"
            },
            {
              "internalType": "string",
              "name": "postalAddress",
              "type": "string"
            },
            {
              "internalType": "uint256[]",
              "name": "donationIds",
              "type": "uint256[]"
            }
          ],
          "internalType": "struct IEocDonor.Donor",
          "name": "",
          "type": "tuple"
        }
      ],
      "stateMutability": "view",
      "type": "function"
    },
    {
      "inputs": [],
      "name": "getDonors",
      "outputs": [
        {
          "components": [
            {
              "internalType": "uint256",
              "name": "donorId",
              "type": "uint256"
            },
            {
              "internalType": "address",
              "name": "donorErc20Address",
              "type": "address"
            },
            {
              "internalType": "string",
              "name": "name",
              "type": "string"
            },
            {
              "internalType": "string",
              "name": "surName",
              "type": "string"
            },
            {
              "internalType": "string",
              "name": "postalAddress",
              "type": "string"
            },
            {
              "internalType": "uint256[]",
              "name": "donationIds",
              "type": "uint256[]"
            }
          ],
          "internalType": "struct IEocDonor.Donor[]",
          "name": "",
          "type": "tuple[]"
        }
      ],
      "stateMutability": "view",
      "type": "function"
    },
    {
      "inputs": [
        {
          "internalType": "string",
          "name": "_title",
          "type": "string"
        },
        {
          "internalType": "string",
          "name": "_description",
          "type": "string"
        },
        {
          "internalType": "string",
          "name": "_geographicalArea",
          "type": "string"
        },
        {
          "internalType": "uint256",
          "name": "_startDate",
          "type": "uint256"
        },
        {
          "internalType": "uint256",
          "name": "_endDate",
          "type": "uint256"
        },
        {
          "internalType": "uint256",
          "name": "_campaignStartDate",
          "type": "uint256"
        },
        {
          "internalType": "uint256",
          "name": "_campaignDurationInDays",
          "type": "uint256"
        },
        {
          "internalType": "uint256",
          "name": "_minAmount",
          "type": "uint256"
        },
        {
          "internalType": "uint256",
          "name": "_maxAmount",
          "type": "uint256"
        }
      ],
      "name": "addProject",
      "outputs": [],
      "stateMutability": "nonpayable",
      "type": "function"
    },
    {
      "inputs": [
        {
          "internalType": "uint256",
          "name": "_projectId",
          "type": "uint256"
        },
        {
          "internalType": "uint256",
          "name": "_donationAmount",
          "type": "uint256"
        }
      ],
      "name": "addDonation",
      "outputs": [],
      "stateMutability": "nonpayable",
      "type": "function"
    },
    {
      "inputs": [
        {
          "internalType": "uint256",
          "name": "_projectId",
          "type": "uint256"
        },
        {
          "internalType": "uint256",
          "name": "_amount",
          "type": "uint256"
        },
        {
          "internalType": "string",
          "name": "_title",
          "type": "string"
        },
        {
          "internalType": "string",
          "name": "_description",
          "type": "string"
        }
      ],
      "name": "withdrawTokens",
      "outputs": [],
      "stateMutability": "nonpayable",
      "type": "function"
    },
    {
      "inputs": [
        {
          "internalType": "uint256",
          "name": "_projectId",
          "type": "uint256"
        }
      ],
      "name": "getProject",
      "outputs": [
        {
          "components": [
            {
              "internalType": "uint256",
              "name": "projectId",
              "type": "uint256"
            },
            {
              "internalType": "uint256",
              "name": "startDate",
              "type": "uint256"
            },
            {
              "internalType": "uint256",
              "name": "endDate",
              "type": "uint256"
            },
            {
              "internalType": "uint256",
              "name": "campaignStartDate",
              "type": "uint256"
            },
            {
              "internalType": "uint256",
              "name": "campaignDurationInDays",
              "type": "uint256"
            },
            {
              "internalType": "uint256",
              "name": "minAmount",
              "type": "uint256"
            },
            {
              "internalType": "uint256",
              "name": "maxAmount",
              "type": "uint256"
            },
            {
              "internalType": "uint256",
              "name": "projectBalance",
              "type": "uint256"
            },
            {
              "internalType": "address",
              "name": "npoErc20Address",
              "type": "address"
            },
            {
              "internalType": "enum EthicOnChainLib.ProjectCause",
              "name": "cause",
              "type": "uint8"
            },
            {
              "internalType": "string",
              "name": "title",
              "type": "string"
            },
            {
              "internalType": "string",
              "name": "description",
              "type": "string"
            },
            {
              "internalType": "string",
              "name": "geographicalArea",
              "type": "string"
            },
            {
              "internalType": "uint256[]",
              "name": "donationIds",
              "type": "uint256[]"
            },
            {
              "internalType": "uint256[]",
              "name": "withdrawalIds",
              "type": "uint256[]"
            }
          ],
          "internalType": "struct EthicOnChainLib.Project",
          "name": "",
          "type": "tuple"
        }
      ],
      "stateMutability": "view",
      "type": "function"
    },
    {
      "inputs": [],
      "name": "getProjects",
      "outputs": [
        {
          "components": [
            {
              "internalType": "uint256",
              "name": "projectId",
              "type": "uint256"
            },
            {
              "internalType": "uint256",
              "name": "startDate",
              "type": "uint256"
            },
            {
              "internalType": "uint256",
              "name": "endDate",
              "type": "uint256"
            },
            {
              "internalType": "uint256",
              "name": "campaignStartDate",
              "type": "uint256"
            },
            {
              "internalType": "uint256",
              "name": "campaignDurationInDays",
              "type": "uint256"
            },
            {
              "internalType": "uint256",
              "name": "minAmount",
              "type": "uint256"
            },
            {
              "internalType": "uint256",
              "name": "maxAmount",
              "type": "uint256"
            },
            {
              "internalType": "uint256",
              "name": "projectBalance",
              "type": "uint256"
            },
            {
              "internalType": "address",
              "name": "npoErc20Address",
              "type": "address"
            },
            {
              "internalType": "enum EthicOnChainLib.ProjectCause",
              "name": "cause",
              "type": "uint8"
            },
            {
              "internalType": "string",
              "name": "title",
              "type": "string"
            },
            {
              "internalType": "string",
              "name": "description",
              "type": "string"
            },
            {
              "internalType": "string",
              "name": "geographicalArea",
              "type": "string"
            },
            {
              "internalType": "uint256[]",
              "name": "donationIds",
              "type": "uint256[]"
            },
            {
              "internalType": "uint256[]",
              "name": "withdrawalIds",
              "type": "uint256[]"
            }
          ],
          "internalType": "struct EthicOnChainLib.Project[]",
          "name": "",
          "type": "tuple[]"
        }
      ],
      "stateMutability": "view",
      "type": "function"
    },
    {
      "inputs": [
        {
          "internalType": "uint256",
          "name": "_id",
          "type": "uint256"
        }
      ],
      "name": "getDonation",
      "outputs": [
        {
          "components": [
            {
              "internalType": "uint256",
              "name": "donationId",
              "type": "uint256"
            },
            {
              "internalType": "uint256",
              "name": "projectId",
              "type": "uint256"
            },
            {
              "internalType": "uint256",
              "name": "donorId",
              "type": "uint256"
            },
            {
              "internalType": "uint256",
              "name": "donationDate",
              "type": "uint256"
            },
            {
              "internalType": "uint256",
              "name": "donationAmount",
              "type": "uint256"
            }
          ],
          "internalType": "struct EthicOnChainLib.Donation",
          "name": "",
          "type": "tuple"
        }
      ],
      "stateMutability": "view",
      "type": "function"
    },
    {
      "inputs": [
        {
          "internalType": "address",
          "name": "_addressNpo",
          "type": "address"
        }
      ],
      "name": "getDonationPerDonor",
      "outputs": [
        {
          "components": [
            {
              "internalType": "uint256",
              "name": "donationId",
              "type": "uint256"
            },
            {
              "internalType": "uint256",
              "name": "projectId",
              "type": "uint256"
            },
            {
              "internalType": "uint256",
              "name": "donorId",
              "type": "uint256"
            },
            {
              "internalType": "uint256",
              "name": "donationDate",
              "type": "uint256"
            },
            {
              "internalType": "uint256",
              "name": "donationAmount",
              "type": "uint256"
            }
          ],
          "internalType": "struct EthicOnChainLib.Donation[]",
          "name": "",
          "type": "tuple[]"
        }
      ],
      "stateMutability": "view",
      "type": "function"
    },
    {
      "inputs": [
        {
          "internalType": "uint256",
          "name": "_id",
          "type": "uint256"
        }
      ],
      "name": "getWithdrawal",
      "outputs": [
        {
          "components": [
            {
              "internalType": "uint256",
              "name": "withdrawalId",
              "type": "uint256"
            },
            {
              "internalType": "uint256",
              "name": "projectId",
              "type": "uint256"
            },
            {
              "internalType": "uint256",
              "name": "amount",
              "type": "uint256"
            },
            {
              "internalType": "uint256",
              "name": "withdrawalDate",
              "type": "uint256"
            },
            {
              "internalType": "string",
              "name": "title",
              "type": "string"
            },
            {
              "internalType": "string",
              "name": "description",
              "type": "string"
            }
          ],
          "internalType": "struct EthicOnChainLib.Withdrawal",
          "name": "",
          "type": "tuple"
        }
      ],
      "stateMutability": "view",
      "type": "function"
    }
  ],
  "bytecode": "0x60806040523480156200001157600080fd5b50604051620047303803806200473083398181016040528101906200003791906200029b565b620000576200004b6200016560201b60201c565b6200016d60201b60201c565b83600a60006101000a81548173ffffffffffffffffffffffffffffffffffffffff021916908373ffffffffffffffffffffffffffffffffffffffff16021790555082600b60006101000a81548173ffffffffffffffffffffffffffffffffffffffff021916908373ffffffffffffffffffffffffffffffffffffffff16021790555081600c60006101000a81548173ffffffffffffffffffffffffffffffffffffffff021916908373ffffffffffffffffffffffffffffffffffffffff16021790555080600d60006101000a81548173ffffffffffffffffffffffffffffffffffffffff021916908373ffffffffffffffffffffffffffffffffffffffff160217905550505050506200030d565b600033905090565b60008060009054906101000a900473ffffffffffffffffffffffffffffffffffffffff169050816000806101000a81548173ffffffffffffffffffffffffffffffffffffffff021916908373ffffffffffffffffffffffffffffffffffffffff1602179055508173ffffffffffffffffffffffffffffffffffffffff168173ffffffffffffffffffffffffffffffffffffffff167f8be0079c531659141344cd1fd0a4f28419497f9722a3daafe3b4186f6b6457e060405160405180910390a35050565b600080fd5b600073ffffffffffffffffffffffffffffffffffffffff82169050919050565b6000620002638262000236565b9050919050565b620002758162000256565b81146200028157600080fd5b50565b60008151905062000295816200026a565b92915050565b60008060008060808587031215620002b857620002b762000231565b5b6000620002c88782880162000284565b9450506020620002db8782880162000284565b9350506040620002ee8782880162000284565b9250506060620003018782880162000284565b91505092959194509250565b614413806200031d6000396000f3fe608060405234801561001057600080fd5b50600436106101165760003560e01c806396c59043116100a2578063dcc6012811610071578063dcc60128146102cf578063ef07a81f146102ed578063f0f3f2c81461031d578063f2fde38b1461034d578063ff6d56ef1461036957610116565b806396c590431461023557806396f300d414610265578063a90f733314610283578063d87ffb70146102b357610116565b8063678f04cc116100e9578063678f04cc146101a3578063715018a6146101bf5780637d1887f8146101c95780638a4fb16a146101e75780638da5cb5b1461021757610116565b806319ccf9ed1461011b5780631f1ffb1c146101375780633f9754c91461015357806362e13e7d1461016f575b600080fd5b61013560048036038101906101309190611b4e565b610399565b005b610151600480360381019061014c9190611c3f565b6104ae565b005b61016d60048036038101906101689190611d5d565b610556565b005b61018960048036038101906101849190611e48565b61066e565b60405161019a959493929190611f1b565b60405180910390f35b6101bd60048036038101906101b89190611f83565b61085c565b005b6101c7610bb6565b005b6101d1610c3e565b6040516101de91906122ce565b60405180910390f35b61020160048036038101906101fc91906122f0565b610cdb565b60405161020e91906123ad565b60405180910390f35b61021f610d6a565b60405161022c91906123cf565b60405180910390f35b61024f600480360381019061024a9190611e48565b610d93565b60405161025c9190612488565b60405180910390f35b61026d610e43565b60405161027a919061260a565b60405180910390f35b61029d60048036038101906102989190611e48565b610ee0565b6040516102aa9190612743565b60405180910390f35b6102cd60048036038101906102c89190612765565b610f6c565b005b6102d7611333565b6040516102e49190612a3d565b60405180910390f35b610307600480360381019061030291906122f0565b6113bc565b6040516103149190612ac7565b60405180910390f35b610337600480360381019061033291906122f0565b611446565b6040516103449190612c41565b60405180910390f35b61036760048036038101906103629190611e48565b6114d5565b005b610383600480360381019061037e9190611e48565b6115cd565b6040516103909190612d36565b60405180910390f35b6103a161167d565b73ffffffffffffffffffffffffffffffffffffffff166103bf610d6a565b73ffffffffffffffffffffffffffffffffffffffff1614610415576040517f08c379a000000000000000000000000000000000000000000000000000000000815260040161040c90612da4565b60405180910390fd5b600c60009054906101000a900473ffffffffffffffffffffffffffffffffffffffff1673ffffffffffffffffffffffffffffffffffffffff166319ccf9ed858585856040518563ffffffff1660e01b81526004016104769493929190612dc4565b600060405180830381600087803b15801561049057600080fd5b505af11580156104a4573d6000803e3d6000fd5b5050505050505050565b600d60009054906101000a900473ffffffffffffffffffffffffffffffffffffffff1673ffffffffffffffffffffffffffffffffffffffff16631f1ffb1c8a8a8a8a8a8a8a8a8a6040518a63ffffffff1660e01b815260040161051999989796959493929190612e1e565b600060405180830381600087803b15801561053357600080fd5b505af1158015610547573d6000803e3d6000fd5b50505050505050505050505050565b61055e61167d565b73ffffffffffffffffffffffffffffffffffffffff1661057c610d6a565b73ffffffffffffffffffffffffffffffffffffffff16146105d2576040517f08c379a00000000000000000000000000000000000000000000000000000000081526004016105c990612da4565b60405180910390fd5b600b60009054906101000a900473ffffffffffffffffffffffffffffffffffffffff1673ffffffffffffffffffffffffffffffffffffffff16633f9754c986868686866040518663ffffffff1660e01b8152600401610635959493929190612ec0565b600060405180830381600087803b15801561064f57600080fd5b505af1158015610663573d6000803e3d6000fd5b505050505050505050565b60016020528060005260406000206000915090508060000154908060010160009054906101000a900473ffffffffffffffffffffffffffffffffffffffff16908060020180546106bd90612f5e565b80601f01602080910402602001604051908101604052809291908181526020018280546106e990612f5e565b80156107365780601f1061070b57610100808354040283529160200191610736565b820191906000526020600020905b81548152906001019060200180831161071957829003601f168201915b50505050509080600301805461074b90612f5e565b80601f016020809104026020016040519081016040528092919081815260200182805461077790612f5e565b80156107c45780601f10610799576101008083540402835291602001916107c4565b820191906000526020600020905b8154815290600101906020018083116107a757829003601f168201915b5050505050908060040180546107d990612f5e565b80601f016020809104026020016040519081016040528092919081815260200182805461080590612f5e565b80156108525780601f1061082757610100808354040283529160200191610852565b820191906000526020600020905b81548152906001019060200180831161083557829003601f168201915b5050505050905085565b6000610867336115cd565b9050600081604001515114156108b2576040517f08c379a00000000000000000000000000000000000000000000000000000000081526004016108a990613002565b60405180910390fd5b60006004600087815260200190815260200160002060090180546108d590612f5e565b90501415610918576040517f08c379a000000000000000000000000000000000000000000000000000000000815260040161090f9061306e565b60405180910390fd5b60006004600087815260200190815260200160002060070154905084811015610976576040517f08c379a000000000000000000000000000000000000000000000000000000000815260040161096d906130da565b60405180910390fd5b600460008781526020019081526020016000206003015442116109ce576040517f08c379a00000000000000000000000000000000000000000000000000000000081526004016109c590613146565b60405180910390fd5b60006008600060095481526020019081526020016000209050600954816000018190555086816001018190555084816004019080519060200190610a13929190611749565b5085816002018190555042816003018190555083816005019080519060200190610a3e929190611749565b5085600460008981526020019081526020016000206007016000828254610a659190613195565b9250508190555060046000888152602001908152602001600020600d01600954908060018154018082558091505060019003906000526020600020016000909190919091505560096000815480929190610abe906131c9565b9190505550600a60009054906101000a900473ffffffffffffffffffffffffffffffffffffffff1673ffffffffffffffffffffffffffffffffffffffff1663a9059cbb33886040518363ffffffff1660e01b8152600401610b20929190613212565b6020604051808303816000875af1158015610b3f573d6000803e3d6000fd5b505050506040513d601f19601f82011682018060405250810190610b639190613273565b507f38b2ce41ee33d013c6288339b87fd2c9f7af7d6881611651dbb6c2ba145d71d781600001548260010154836002015433604051610ba594939291906132a0565b60405180910390a150505050505050565b610bbe61167d565b73ffffffffffffffffffffffffffffffffffffffff16610bdc610d6a565b73ffffffffffffffffffffffffffffffffffffffff1614610c32576040517f08c379a0000000000000000000000000000000000000000000000000000000008152600401610c2990612da4565b60405180910390fd5b610c3c6000611685565b565b6060600b60009054906101000a900473ffffffffffffffffffffffffffffffffffffffff1673ffffffffffffffffffffffffffffffffffffffff16637d1887f86040518163ffffffff1660e01b8152600401600060405180830381865afa158015610cad573d6000803e3d6000fd5b505050506040513d6000823e3d601f19601f82011682018060405250810190610cd691906136a4565b905090565b610ce36117cf565b73__EthicOnChainLib_______________________635454999f6008846040518363ffffffff1660e01b8152600401610d1d929190613703565b600060405180830381865af4158015610d3a573d6000803e3d6000fd5b505050506040513d6000823e3d601f19601f82011682018060405250810190610d639190613804565b9050919050565b60008060009054906101000a900473ffffffffffffffffffffffffffffffffffffffff16905090565b610d9b611805565b600c60009054906101000a900473ffffffffffffffffffffffffffffffffffffffff1673ffffffffffffffffffffffffffffffffffffffff166396c59043836040518263ffffffff1660e01b8152600401610df691906123cf565b600060405180830381865afa158015610e13573d6000803e3d6000fd5b505050506040513d6000823e3d601f19601f82011682018060405250810190610e3c919061395d565b9050919050565b6060600c60009054906101000a900473ffffffffffffffffffffffffffffffffffffffff1673ffffffffffffffffffffffffffffffffffffffff166396f300d46040518163ffffffff1660e01b8152600401600060405180830381865afa158015610eb2573d6000803e3d6000fd5b505050506040513d6000823e3d601f19601f82011682018060405250810190610edb9190613a87565b905090565b606073__EthicOnChainLib_______________________6381e9c89b60016006856040518463ffffffff1660e01b8152600401610f1f93929190613aed565b600060405180830381865af4158015610f3c573d6000803e3d6000fd5b505050506040513d6000823e3d601f19601f82011682018060405250810190610f659190613c73565b9050919050565b6000600160003373ffffffffffffffffffffffffffffffffffffffff1673ffffffffffffffffffffffffffffffffffffffff1681526020019081526020016000209050600073ffffffffffffffffffffffffffffffffffffffff168160010160009054906101000a900473ffffffffffffffffffffffffffffffffffffffff1673ffffffffffffffffffffffffffffffffffffffff161415611043576040517f08c379a000000000000000000000000000000000000000000000000000000000815260040161103a90613d2e565b60405180910390fd5b6000600460008581526020019081526020016000209050600081600901805461106b90612f5e565b905014156110ae576040517f08c379a00000000000000000000000000000000000000000000000000000000081526004016110a59061306e565b60405180910390fd5b60006201518082600401546110c39190613d4e565b82600301546110d29190613da8565b90508160030154421161111a576040517f08c379a000000000000000000000000000000000000000000000000000000000815260040161111190613146565b60405180910390fd5b80421061115c576040517f08c379a000000000000000000000000000000000000000000000000000000000815260040161115390613e4a565b60405180910390fd5b60006006600060075481526020019081526020016000209050600754816000018190555085816001018190555083600001548160020181905550428160030181905550848160040181905550836005016007549080600181540180825580915050600190039060005260206000200160009091909190915055848360070160008282546111e99190613da8565b9250508190555082600c01600754908060018154018082558091505060019003906000526020600020016000909190919091505560076000815480929190611230906131c9565b9190505550600a60009054906101000a900473ffffffffffffffffffffffffffffffffffffffff1673ffffffffffffffffffffffffffffffffffffffff166323b872dd3330886040518463ffffffff1660e01b815260040161129493929190613e6a565b6020604051808303816000875af11580156112b3573d6000803e3d6000fd5b505050506040513d601f19601f820116820180604052508101906112d79190613273565b507f5b01b3cbb79f6d6de617795637d44cf4ec173dab689fb0804ab8dbbd88f4302b81600001548260010154836002015484600301548560040154604051611323959493929190613ea1565b60405180910390a1505050505050565b606073__EthicOnChainLib_______________________6388439ce460046005546040518363ffffffff1660e01b8152600401611371929190613efb565b600060405180830381865af415801561138e573d6000803e3d6000fd5b505050506040513d6000823e3d601f19601f820116820180604052508101906113b7919061421a565b905090565b6113c4611851565b73__EthicOnChainLib_______________________63599ed5916006846040518363ffffffff1660e01b81526004016113fe929190614263565b60a060405180830381865af415801561141b573d6000803e3d6000fd5b505050506040513d601f19601f8201168201806040525081019061143f919061428c565b9050919050565b61144e611880565b73__EthicOnChainLib_______________________637f9824d06004846040518363ffffffff1660e01b8152600401611488929190613efb565b600060405180830381865af41580156114a5573d6000803e3d6000fd5b505050506040513d6000823e3d601f19601f820116820180604052508101906114ce91906142b9565b9050919050565b6114dd61167d565b73ffffffffffffffffffffffffffffffffffffffff166114fb610d6a565b73ffffffffffffffffffffffffffffffffffffffff1614611551576040517f08c379a000000000000000000000000000000000000000000000000000000000815260040161154890612da4565b60405180910390fd5b600073ffffffffffffffffffffffffffffffffffffffff168173ffffffffffffffffffffffffffffffffffffffff1614156115c1576040517f08c379a00000000000000000000000000000000000000000000000000000000081526004016115b890614374565b60405180910390fd5b6115ca81611685565b50565b6115d561191e565b600b60009054906101000a900473ffffffffffffffffffffffffffffffffffffffff1673ffffffffffffffffffffffffffffffffffffffff1663ff6d56ef836040518263ffffffff1660e01b815260040161163091906123cf565b600060405180830381865afa15801561164d573d6000803e3d6000fd5b505050506040513d6000823e3d601f19601f820116820180604052508101906116769190614394565b9050919050565b600033905090565b60008060009054906101000a900473ffffffffffffffffffffffffffffffffffffffff169050816000806101000a81548173ffffffffffffffffffffffffffffffffffffffff021916908373ffffffffffffffffffffffffffffffffffffffff1602179055508173ffffffffffffffffffffffffffffffffffffffff168173ffffffffffffffffffffffffffffffffffffffff167f8be0079c531659141344cd1fd0a4f28419497f9722a3daafe3b4186f6b6457e060405160405180910390a35050565b82805461175590612f5e565b90600052602060002090601f01602090048101928261177757600085556117be565b82601f1061179057805160ff19168380011785556117be565b828001600101855582156117be579182015b828111156117bd5782518255916020019190600101906117a2565b5b5090506117cb9190611979565b5090565b6040518060c001604052806000815260200160008152602001600081526020016000815260200160608152602001606081525090565b6040518060c0016040528060008152602001600073ffffffffffffffffffffffffffffffffffffffff168152602001606081526020016060815260200160608152602001606081525090565b6040518060a0016040528060008152602001600081526020016000815260200160008152602001600081525090565b604051806101e001604052806000815260200160008152602001600081526020016000815260200160008152602001600081526020016000815260200160008152602001600073ffffffffffffffffffffffffffffffffffffffff168152602001600060068111156118f5576118f46127d1565b5b815260200160608152602001606081526020016060815260200160608152602001606081525090565b60405180610100016040528060008152602001600073ffffffffffffffffffffffffffffffffffffffff1681526020016060815260200160608152602001606081526020016060815260200160608152602001606081525090565b5b8082111561199257600081600090555060010161197a565b5090565b6000604051905090565b600080fd5b600080fd5b600073ffffffffffffffffffffffffffffffffffffffff82169050919050565b60006119d5826119aa565b9050919050565b6119e5816119ca565b81146119f057600080fd5b50565b600081359050611a02816119dc565b92915050565b600080fd5b600080fd5b6000601f19601f8301169050919050565b7f4e487b7100000000000000000000000000000000000000000000000000000000600052604160045260246000fd5b611a5b82611a12565b810181811067ffffffffffffffff82111715611a7a57611a79611a23565b5b80604052505050565b6000611a8d611996565b9050611a998282611a52565b919050565b600067ffffffffffffffff821115611ab957611ab8611a23565b5b611ac282611a12565b9050602081019050919050565b82818337600083830152505050565b6000611af1611aec84611a9e565b611a83565b905082815260208101848484011115611b0d57611b0c611a0d565b5b611b18848285611acf565b509392505050565b600082601f830112611b3557611b34611a08565b5b8135611b45848260208601611ade565b91505092915050565b60008060008060808587031215611b6857611b676119a0565b5b6000611b76878288016119f3565b945050602085013567ffffffffffffffff811115611b9757611b966119a5565b5b611ba387828801611b20565b935050604085013567ffffffffffffffff811115611bc457611bc36119a5565b5b611bd087828801611b20565b925050606085013567ffffffffffffffff811115611bf157611bf06119a5565b5b611bfd87828801611b20565b91505092959194509250565b6000819050919050565b611c1c81611c09565b8114611c2757600080fd5b50565b600081359050611c3981611c13565b92915050565b60008060008060008060008060006101208a8c031215611c6257611c616119a0565b5b60008a013567ffffffffffffffff811115611c8057611c7f6119a5565b5b611c8c8c828d01611b20565b99505060208a013567ffffffffffffffff811115611cad57611cac6119a5565b5b611cb98c828d01611b20565b98505060408a013567ffffffffffffffff811115611cda57611cd96119a5565b5b611ce68c828d01611b20565b9750506060611cf78c828d01611c2a565b9650506080611d088c828d01611c2a565b95505060a0611d198c828d01611c2a565b94505060c0611d2a8c828d01611c2a565b93505060e0611d3b8c828d01611c2a565b925050610100611d4d8c828d01611c2a565b9150509295985092959850929598565b600080600080600060a08688031215611d7957611d786119a0565b5b6000611d87888289016119f3565b955050602086013567ffffffffffffffff811115611da857611da76119a5565b5b611db488828901611b20565b945050604086013567ffffffffffffffff811115611dd557611dd46119a5565b5b611de188828901611b20565b935050606086013567ffffffffffffffff811115611e0257611e016119a5565b5b611e0e88828901611b20565b925050608086013567ffffffffffffffff811115611e2f57611e2e6119a5565b5b611e3b88828901611b20565b9150509295509295909350565b600060208284031215611e5e57611e5d6119a0565b5b6000611e6c848285016119f3565b91505092915050565b611e7e81611c09565b82525050565b611e8d816119ca565b82525050565b600081519050919050565b600082825260208201905092915050565b60005b83811015611ecd578082015181840152602081019050611eb2565b83811115611edc576000848401525b50505050565b6000611eed82611e93565b611ef78185611e9e565b9350611f07818560208601611eaf565b611f1081611a12565b840191505092915050565b600060a082019050611f306000830188611e75565b611f3d6020830187611e84565b8181036040830152611f4f8186611ee2565b90508181036060830152611f638185611ee2565b90508181036080830152611f778184611ee2565b90509695505050505050565b60008060008060808587031215611f9d57611f9c6119a0565b5b6000611fab87828801611c2a565b9450506020611fbc87828801611c2a565b935050604085013567ffffffffffffffff811115611fdd57611fdc6119a5565b5b611fe987828801611b20565b925050606085013567ffffffffffffffff81111561200a576120096119a5565b5b61201687828801611b20565b91505092959194509250565b600081519050919050565b600082825260208201905092915050565b6000819050602082019050919050565b61205781611c09565b82525050565b612066816119ca565b82525050565b600082825260208201905092915050565b600061208882611e93565b612092818561206c565b93506120a2818560208601611eaf565b6120ab81611a12565b840191505092915050565b600081519050919050565b600082825260208201905092915050565b6000819050602082019050919050565b60006120ee838361204e565b60208301905092915050565b6000602082019050919050565b6000612112826120b6565b61211c81856120c1565b9350612127836120d2565b8060005b8381101561215857815161213f88826120e2565b975061214a836120fa565b92505060018101905061212b565b5085935050505092915050565b60006101008301600083015161217e600086018261204e565b506020830151612191602086018261205d565b50604083015184820360408601526121a9828261207d565b915050606083015184820360608601526121c3828261207d565b915050608083015184820360808601526121dd828261207d565b91505060a083015184820360a08601526121f7828261207d565b91505060c083015184820360c08601526122118282612107565b91505060e083015184820360e086015261222b8282612107565b9150508091505092915050565b60006122448383612165565b905092915050565b6000602082019050919050565b600061226482612022565b61226e818561202d565b9350836020820285016122808561203e565b8060005b858110156122bc578484038952815161229d8582612238565b94506122a88361224c565b925060208a01995050600181019050612284565b50829750879550505050505092915050565b600060208201905081810360008301526122e88184612259565b905092915050565b600060208284031215612306576123056119a0565b5b600061231484828501611c2a565b91505092915050565b600060c083016000830151612335600086018261204e565b506020830151612348602086018261204e565b50604083015161235b604086018261204e565b50606083015161236e606086018261204e565b5060808301518482036080860152612386828261207d565b91505060a083015184820360a08601526123a0828261207d565b9150508091505092915050565b600060208201905081810360008301526123c7818461231d565b905092915050565b60006020820190506123e46000830184611e84565b92915050565b600060c083016000830151612402600086018261204e565b506020830151612415602086018261205d565b506040830151848203604086015261242d828261207d565b91505060608301518482036060860152612447828261207d565b91505060808301518482036080860152612461828261207d565b91505060a083015184820360a086015261247b8282612107565b9150508091505092915050565b600060208201905081810360008301526124a281846123ea565b905092915050565b600081519050919050565b600082825260208201905092915050565b6000819050602082019050919050565b600060c0830160008301516124ee600086018261204e565b506020830151612501602086018261205d565b5060408301518482036040860152612519828261207d565b91505060608301518482036060860152612533828261207d565b9150506080830151848203608086015261254d828261207d565b91505060a083015184820360a08601526125678282612107565b9150508091505092915050565b600061258083836124d6565b905092915050565b6000602082019050919050565b60006125a0826124aa565b6125aa81856124b5565b9350836020820285016125bc856124c6565b8060005b858110156125f857848403895281516125d98582612574565b94506125e483612588565b925060208a019950506001810190506125c0565b50829750879550505050505092915050565b600060208201905081810360008301526126248184612595565b905092915050565b600081519050919050565b600082825260208201905092915050565b6000819050602082019050919050565b60a08201600082015161266e600085018261204e565b506020820151612681602085018261204e565b506040820151612694604085018261204e565b5060608201516126a7606085018261204e565b5060808201516126ba608085018261204e565b50505050565b60006126cc8383612658565b60a08301905092915050565b6000602082019050919050565b60006126f08261262c565b6126fa8185612637565b935061270583612648565b8060005b8381101561273657815161271d88826126c0565b9750612728836126d8565b925050600181019050612709565b5085935050505092915050565b6000602082019050818103600083015261275d81846126e5565b905092915050565b6000806040838503121561277c5761277b6119a0565b5b600061278a85828601611c2a565b925050602061279b85828601611c2a565b9150509250929050565b600081519050919050565b600082825260208201905092915050565b6000819050602082019050919050565b7f4e487b7100000000000000000000000000000000000000000000000000000000600052602160045260246000fd5b60078110612811576128106127d1565b5b50565b600081905061282282612800565b919050565b600061283282612814565b9050919050565b61284281612827565b82525050565b60006101e083016000830151612861600086018261204e565b506020830151612874602086018261204e565b506040830151612887604086018261204e565b50606083015161289a606086018261204e565b5060808301516128ad608086018261204e565b5060a08301516128c060a086018261204e565b5060c08301516128d360c086018261204e565b5060e08301516128e660e086018261204e565b506101008301516128fb61010086018261205d565b50610120830151612910610120860182612839565b5061014083015184820361014086015261292a828261207d565b915050610160830151848203610160860152612946828261207d565b915050610180830151848203610180860152612962828261207d565b9150506101a08301518482036101a086015261297e8282612107565b9150506101c08301518482036101c086015261299a8282612107565b9150508091505092915050565b60006129b38383612848565b905092915050565b6000602082019050919050565b60006129d3826127a5565b6129dd81856127b0565b9350836020820285016129ef856127c1565b8060005b85811015612a2b5784840389528151612a0c85826129a7565b9450612a17836129bb565b925060208a019950506001810190506129f3565b50829750879550505050505092915050565b60006020820190508181036000830152612a5781846129c8565b905092915050565b60a082016000820151612a75600085018261204e565b506020820151612a88602085018261204e565b506040820151612a9b604085018261204e565b506060820151612aae606085018261204e565b506080820151612ac1608085018261204e565b50505050565b600060a082019050612adc6000830184612a5f565b92915050565b60006101e083016000830151612afb600086018261204e565b506020830151612b0e602086018261204e565b506040830151612b21604086018261204e565b506060830151612b34606086018261204e565b506080830151612b47608086018261204e565b5060a0830151612b5a60a086018261204e565b5060c0830151612b6d60c086018261204e565b5060e0830151612b8060e086018261204e565b50610100830151612b9561010086018261205d565b50610120830151612baa610120860182612839565b50610140830151848203610140860152612bc4828261207d565b915050610160830151848203610160860152612be0828261207d565b915050610180830151848203610180860152612bfc828261207d565b9150506101a08301518482036101a0860152612c188282612107565b9150506101c08301518482036101c0860152612c348282612107565b9150508091505092915050565b60006020820190508181036000830152612c5b8184612ae2565b905092915050565b600061010083016000830151612c7c600086018261204e565b506020830151612c8f602086018261205d565b5060408301518482036040860152612ca7828261207d565b91505060608301518482036060860152612cc1828261207d565b91505060808301518482036080860152612cdb828261207d565b91505060a083015184820360a0860152612cf5828261207d565b91505060c083015184820360c0860152612d0f8282612107565b91505060e083015184820360e0860152612d298282612107565b9150508091505092915050565b60006020820190508181036000830152612d508184612c63565b905092915050565b7f4f776e61626c653a2063616c6c6572206973206e6f7420746865206f776e6572600082015250565b6000612d8e602083611e9e565b9150612d9982612d58565b602082019050919050565b60006020820190508181036000830152612dbd81612d81565b9050919050565b6000608082019050612dd96000830187611e84565b8181036020830152612deb8186611ee2565b90508181036040830152612dff8185611ee2565b90508181036060830152612e138184611ee2565b905095945050505050565b6000610120820190508181036000830152612e39818c611ee2565b90508181036020830152612e4d818b611ee2565b90508181036040830152612e61818a611ee2565b9050612e706060830189611e75565b612e7d6080830188611e75565b612e8a60a0830187611e75565b612e9760c0830186611e75565b612ea460e0830185611e75565b612eb2610100830184611e75565b9a9950505050505050505050565b600060a082019050612ed56000830188611e84565b8181036020830152612ee78187611ee2565b90508181036040830152612efb8186611ee2565b90508181036060830152612f0f8185611ee2565b90508181036080830152612f238184611ee2565b90509695505050505050565b7f4e487b7100000000000000000000000000000000000000000000000000000000600052602260045260246000fd5b60006002820490506001821680612f7657607f821691505b60208210811415612f8a57612f89612f2f565b5b50919050565b7f566f7573206e27c3aa7465732070617320656e72656769737472c3a920656e2060008201527f74616e7420717565204e504f0000000000000000000000000000000000000000602082015250565b6000612fec602c83611e9e565b9150612ff782612f90565b604082019050919050565b6000602082019050818103600083015261301b81612fdf565b9050919050565b7f50726f6a657420696e636f6e6e75000000000000000000000000000000000000600082015250565b6000613058600e83611e9e565b915061306382613022565b602082019050919050565b600060208201905081810360008301526130878161304b565b9050919050565b7f42616c616e636520696e737566666973616e7465000000000000000000000000600082015250565b60006130c4601483611e9e565b91506130cf8261308e565b602082019050919050565b600060208201905081810360008301526130f3816130b7565b9050919050565b7f4c612063616d7061676e65206e276573742070617320636f6d6d656e63c3a965600082015250565b6000613130602083611e9e565b915061313b826130fa565b602082019050919050565b6000602082019050818103600083015261315f81613123565b9050919050565b7f4e487b7100000000000000000000000000000000000000000000000000000000600052601160045260246000fd5b60006131a082611c09565b91506131ab83611c09565b9250828210156131be576131bd613166565b5b828203905092915050565b60006131d482611c09565b91507fffffffffffffffffffffffffffffffffffffffffffffffffffffffffffffffff82141561320757613206613166565b5b600182019050919050565b60006040820190506132276000830185611e84565b6132346020830184611e75565b9392505050565b60008115159050919050565b6132508161323b565b811461325b57600080fd5b50565b60008151905061326d81613247565b92915050565b600060208284031215613289576132886119a0565b5b60006132978482850161325e565b91505092915050565b60006080820190506132b56000830187611e75565b6132c26020830186611e75565b6132cf6040830185611e75565b6132dc6060830184611e84565b95945050505050565b600067ffffffffffffffff821115613300576132ff611a23565b5b602082029050602081019050919050565b600080fd5b600080fd5b600080fd5b60008151905061332f81611c13565b92915050565b600081519050613344816119dc565b92915050565b600061335d61335884611a9e565b611a83565b90508281526020810184848401111561337957613378611a0d565b5b613384848285611eaf565b509392505050565b600082601f8301126133a1576133a0611a08565b5b81516133b184826020860161334a565b91505092915050565b600067ffffffffffffffff8211156133d5576133d4611a23565b5b602082029050602081019050919050565b60006133f96133f4846133ba565b611a83565b9050808382526020820190506020840283018581111561341c5761341b613311565b5b835b8181101561344557806134318882613320565b84526020840193505060208101905061341e565b5050509392505050565b600082601f83011261346457613463611a08565b5b81516134748482602086016133e6565b91505092915050565b6000610100828403121561349457613493613316565b5b61349f610100611a83565b905060006134af84828501613320565b60008301525060206134c384828501613335565b602083015250604082015167ffffffffffffffff8111156134e7576134e661331b565b5b6134f38482850161338c565b604083015250606082015167ffffffffffffffff8111156135175761351661331b565b5b6135238482850161338c565b606083015250608082015167ffffffffffffffff8111156135475761354661331b565b5b6135538482850161338c565b60808301525060a082015167ffffffffffffffff8111156135775761357661331b565b5b6135838482850161338c565b60a08301525060c082015167ffffffffffffffff8111156135a7576135a661331b565b5b6135b38482850161344f565b60c08301525060e082015167ffffffffffffffff8111156135d7576135d661331b565b5b6135e38482850161344f565b60e08301525092915050565b60006136026135fd846132e5565b611a83565b9050808382526020820190506020840283018581111561362557613624613311565b5b835b8181101561366c57805167ffffffffffffffff81111561364a57613649611a08565b5b808601613657898261347d565b85526020850194505050602081019050613627565b5050509392505050565b600082601f83011261368b5761368a611a08565b5b815161369b8482602086016135ef565b91505092915050565b6000602082840312156136ba576136b96119a0565b5b600082015167ffffffffffffffff8111156136d8576136d76119a5565b5b6136e484828501613676565b91505092915050565b8082525050565b6136fd81611c09565b82525050565b600060408201905061371860008301856136ed565b61372560208301846136f4565b9392505050565b600060c0828403121561374257613741613316565b5b61374c60c0611a83565b9050600061375c84828501613320565b600083015250602061377084828501613320565b602083015250604061378484828501613320565b604083015250606061379884828501613320565b606083015250608082015167ffffffffffffffff8111156137bc576137bb61331b565b5b6137c88482850161338c565b60808301525060a082015167ffffffffffffffff8111156137ec576137eb61331b565b5b6137f88482850161338c565b60a08301525092915050565b60006020828403121561381a576138196119a0565b5b600082015167ffffffffffffffff811115613838576138376119a5565b5b6138448482850161372c565b91505092915050565b600060c0828403121561386357613862613316565b5b61386d60c0611a83565b9050600061387d84828501613320565b600083015250602061389184828501613335565b602083015250604082015167ffffffffffffffff8111156138b5576138b461331b565b5b6138c18482850161338c565b604083015250606082015167ffffffffffffffff8111156138e5576138e461331b565b5b6138f18482850161338c565b606083015250608082015167ffffffffffffffff8111156139155761391461331b565b5b6139218482850161338c565b60808301525060a082015167ffffffffffffffff8111156139455761394461331b565b5b6139518482850161344f565b60a08301525092915050565b600060208284031215613973576139726119a0565b5b600082015167ffffffffffffffff811115613991576139906119a5565b5b61399d8482850161384d565b91505092915050565b600067ffffffffffffffff8211156139c1576139c0611a23565b5b602082029050602081019050919050565b60006139e56139e0846139a6565b611a83565b90508083825260208201905060208402830185811115613a0857613a07613311565b5b835b81811015613a4f57805167ffffffffffffffff811115613a2d57613a2c611a08565b5b808601613a3a898261384d565b85526020850194505050602081019050613a0a565b5050509392505050565b600082601f830112613a6e57613a6d611a08565b5b8151613a7e8482602086016139d2565b91505092915050565b600060208284031215613a9d57613a9c6119a0565b5b600082015167ffffffffffffffff811115613abb57613aba6119a5565b5b613ac784828501613a59565b91505092915050565b8082525050565b8082525050565b613ae7816119ca565b82525050565b6000606082019050613b026000830186613ad0565b613b0f6020830185613ad7565b613b1c6040830184613ade565b949350505050565b600067ffffffffffffffff821115613b3f57613b3e611a23565b5b602082029050602081019050919050565b600060a08284031215613b6657613b65613316565b5b613b7060a0611a83565b90506000613b8084828501613320565b6000830152506020613b9484828501613320565b6020830152506040613ba884828501613320565b6040830152506060613bbc84828501613320565b6060830152506080613bd084828501613320565b60808301525092915050565b6000613bef613bea84613b24565b611a83565b90508083825260208201905060a08402830185811115613c1257613c11613311565b5b835b81811015613c3b5780613c278882613b50565b84526020840193505060a081019050613c14565b5050509392505050565b600082601f830112613c5a57613c59611a08565b5b8151613c6a848260208601613bdc565b91505092915050565b600060208284031215613c8957613c886119a0565b5b600082015167ffffffffffffffff811115613ca757613ca66119a5565b5b613cb384828501613c45565b91505092915050565b7f566f7573206e27c3aa7465732070617320656e72656769737472c3a920656e2060008201527f74616e742071756520646f6e6174657572000000000000000000000000000000602082015250565b6000613d18603183611e9e565b9150613d2382613cbc565b604082019050919050565b60006020820190508181036000830152613d4781613d0b565b9050919050565b6000613d5982611c09565b9150613d6483611c09565b9250817fffffffffffffffffffffffffffffffffffffffffffffffffffffffffffffffff0483118215151615613d9d57613d9c613166565b5b828202905092915050565b6000613db382611c09565b9150613dbe83611c09565b9250827fffffffffffffffffffffffffffffffffffffffffffffffffffffffffffffffff03821115613df357613df2613166565b5b828201905092915050565b7f4c612063616d7061676e6520657374207465726d696ec3a96500000000000000600082015250565b6000613e34601983611e9e565b9150613e3f82613dfe565b602082019050919050565b60006020820190508181036000830152613e6381613e27565b9050919050565b6000606082019050613e7f6000830186611e84565b613e8c6020830185611e84565b613e996040830184611e75565b949350505050565b600060a082019050613eb66000830188611e75565b613ec36020830187611e75565b613ed06040830186611e75565b613edd6060830185611e75565b613eea6080830184611e75565b9695505050505050565b8082525050565b6000604082019050613f106000830185613ef4565b613f1d60208301846136f4565b9392505050565b600067ffffffffffffffff821115613f3f57613f3e611a23565b5b602082029050602081019050919050565b60078110613f5d57600080fd5b50565b600081519050613f6f81613f50565b92915050565b60006101e08284031215613f8c57613f8b613316565b5b613f976101e0611a83565b90506000613fa784828501613320565b6000830152506020613fbb84828501613320565b6020830152506040613fcf84828501613320565b6040830152506060613fe384828501613320565b6060830152506080613ff784828501613320565b60808301525060a061400b84828501613320565b60a08301525060c061401f84828501613320565b60c08301525060e061403384828501613320565b60e08301525061010061404884828501613335565b6101008301525061012061405e84828501613f60565b6101208301525061014082015167ffffffffffffffff8111156140845761408361331b565b5b6140908482850161338c565b6101408301525061016082015167ffffffffffffffff8111156140b6576140b561331b565b5b6140c28482850161338c565b6101608301525061018082015167ffffffffffffffff8111156140e8576140e761331b565b5b6140f48482850161338c565b610180830152506101a082015167ffffffffffffffff81111561411a5761411961331b565b5b6141268482850161344f565b6101a0830152506101c082015167ffffffffffffffff81111561414c5761414b61331b565b5b6141588482850161344f565b6101c08301525092915050565b600061417861417384613f24565b611a83565b9050808382526020820190506020840283018581111561419b5761419a613311565b5b835b818110156141e257805167ffffffffffffffff8111156141c0576141bf611a08565b5b8086016141cd8982613f75565b8552602085019450505060208101905061419d565b5050509392505050565b600082601f83011261420157614200611a08565b5b8151614211848260208601614165565b91505092915050565b6000602082840312156142305761422f6119a0565b5b600082015167ffffffffffffffff81111561424e5761424d6119a5565b5b61425a848285016141ec565b91505092915050565b60006040820190506142786000830185613ad7565b61428560208301846136f4565b9392505050565b600060a082840312156142a2576142a16119a0565b5b60006142b084828501613b50565b91505092915050565b6000602082840312156142cf576142ce6119a0565b5b600082015167ffffffffffffffff8111156142ed576142ec6119a5565b5b6142f984828501613f75565b91505092915050565b7f4f776e61626c653a206e6577206f776e657220697320746865207a65726f206160008201527f6464726573730000000000000000000000000000000000000000000000000000602082015250565b600061435e602683611e9e565b915061436982614302565b604082019050919050565b6000602082019050818103600083015261438d81614351565b9050919050565b6000602082840312156143aa576143a96119a0565b5b600082015167ffffffffffffffff8111156143c8576143c76119a5565b5b6143d48482850161347d565b9150509291505056fea26469706673582212209a2e12489c3e99334b4b009bc194ebea93744c1ac3204ba03ad3b2bfe88c240164736f6c634300080b0033",
  "immutableReferences": {},
  "source": "// SPDX-License-Identifier: MIT\r\npragma solidity 0.8.11;\r\n \r\nimport \"@openzeppelin/contracts/token/ERC20/ERC20.sol\";\r\nimport \"@openzeppelin/contracts/access/Ownable.sol\";\r\nimport \"./EthicOnChainLib.sol\";\r\nimport \"./IEocNpo.sol\";\r\nimport \"./IEocDonor.sol\";\r\nimport \"./IEocProject.sol\";\r\n\r\n/// @title EthicOnChain \r\n/// @author Lahcen E. Dev / Jrme Gauthier\r\n/// @notice EthicOnChain contract to manage NPOs, Projects and Donors\r\ncontract EthicOnChain is Ownable {\r\n    \r\n    enum ProjectCause {\r\n        LutteContreLaPauvreteEtExclusion,\r\n        EnvironnementEtLesAnimaux,\r\n        Education,\r\n        ArtEtLaCulture,\r\n        SanteEtLaRecherche,\r\n        DroitsDeLHomme,\r\n        InfrastructureRoutiere\r\n    }\r\n\r\n    enum ProjectStatus {\r\n        ProjectProposal, \r\n        WaitingOpening,\r\n        OpenFundRaising,\r\n        CloseFundRaising\r\n    }\r\n\r\n    // Donors\r\n    mapping (address => EthicOnChainLib.Donor) public donorAddresses; //Mapping of all donors \r\n    mapping (uint => address) private donorMap;\r\n    uint private donorCount; \r\n    \r\n    // Projects\r\n    mapping (uint => EthicOnChainLib.Project) projectMap;\r\n    uint projectCount;\r\n    \r\n    // Donations\r\n    mapping (uint => EthicOnChainLib.Donation) private donationMap;\r\n    uint private donationCount;\r\n\r\n    // Withdrawal Informations\r\n    mapping (uint => EthicOnChainLib.Withdrawal) private withdrawalMap;\r\n    uint private withdrawalCount;\r\n\r\n    // EOC Token address\r\n    address eocTokenAddress;\r\n    // NPO deployed contract address\r\n    address eocNpoAddress;\r\n    // Donor deployed contract address\r\n    address eocDonorAddress;\r\n    // Project deployed contract address\r\n    address eocProjectAddress;\r\n\r\n    event ProjectAdded(uint _projectId, string _title, uint _startDate, uint _endDate, uint _minAmount, uint _maxAmount);\r\n    event DonationAdded(uint _donationId, uint _projectId, uint _donorId, uint _donationDate, uint donationAmount);\r\n    event WithdrawalAdded(uint _withdrawalId ,uint _projectId, uint _amount, address _addressRecipent);\r\n    \r\n    /// @dev Initialise the deployed EOC token address for swap\r\n    /// @param _eocTokenAddress EOC Token address\r\n    constructor(address _eocTokenAddress, address _eocNpoAddress, address _eocDonorAddress, address _eocProjectAddress) {\r\n       eocTokenAddress =  _eocTokenAddress;\r\n       eocNpoAddress = _eocNpoAddress;\r\n       eocDonorAddress = _eocDonorAddress;\r\n       eocProjectAddress = _eocProjectAddress;\r\n    }\r\n\r\n    /// @dev The administrator can add a new NPO\r\n    /// @param _npoErc20Address the ERC20 address of the npo\r\n    /// @param _denomination Demonination of the NPO\r\n    /// @param _postalAddress Postal address of the NPO\r\n    /// @param _object object of NPO\r\n    /// @param _npoType Type of npo organization\r\n    function addNpo(\r\n        address _npoErc20Address,\r\n        string memory _denomination,\r\n        string memory _postalAddress,\r\n        string memory _object,\r\n        string memory _npoType) public onlyOwner {\r\n        IEocNpo(eocNpoAddress).addNpo(\r\n            _npoErc20Address,\r\n            _denomination,\r\n            _postalAddress,\r\n            _object,\r\n            _npoType\r\n        );\r\n    }\r\n \r\n    /// @dev  get an NPO via its erc20 address\r\n    /// @param _npoErc20Address erc20 address of the NPO\r\n    /// @return returns the corresponding NPO struct\r\n    function getNpo(address _npoErc20Address) public view returns(IEocNpo.NPO memory) {\r\n        return IEocNpo(eocNpoAddress).getNpo(_npoErc20Address);\r\n    }\r\n\r\n    /// @dev  get an NPO via its id\r\n    /// @param _npoId id of the NPO\r\n    /// @return returns the corresponding NPO struct\r\n    function getNpoByIndex(uint _npoId) internal view returns(IEocNpo.NPO memory) {\r\n        return IEocNpo(eocNpoAddress).getNpoByIndex(_npoId);\r\n    }\r\n\r\n    /// @dev  get all NPOs\r\n    /// @return returns an array of all NPOs\r\n    function getNpos() public view returns(IEocNpo.NPO [] memory) {\r\n        return IEocNpo(eocNpoAddress).getNpos();\r\n    }\r\n\r\n    /// @dev The administrator/contract can add a new Donor\r\n    /// @param _donorErc20Address ERC20 address of the donor\r\n    /// @param _name Name of the Donor\r\n    /// @param _surName Surname of the Donor\r\n    /// @param _postalAddress postal address of the donor\r\n    function addDonor(\r\n        address _donorErc20Address,\r\n        string memory _name,\r\n        string memory _surName,\r\n        string memory _postalAddress) public onlyOwner {\r\n        IEocDonor(eocDonorAddress).addDonor(\r\n            _donorErc20Address,\r\n            _name,\r\n            _surName,\r\n            _postalAddress\r\n        );\r\n    }\r\n\r\n    /// @dev  get a Donor via its erc20 address\r\n    /// @param _donorErc20Address erc20 address of the Donor\r\n    /// @return returns the corresponding Donor struct\r\n    function getDonor(address _donorErc20Address) public view returns(IEocDonor.Donor memory) {\r\n        return IEocDonor(eocDonorAddress).getDonor(_donorErc20Address);\r\n    }\r\n\r\n    /// @dev  get a Donor via its id\r\n    /// @param _donorId id of the Donor\r\n    /// @return returns the corresponding Donor struct\r\n    function getDonorByIndex(uint _donorId) internal view returns(IEocDonor.Donor memory) {\r\n        return IEocDonor(eocDonorAddress).getDonorByIndex(_donorId);\r\n    }\r\n\r\n    /// @dev  get all Donors\r\n    /// @return returns an array of all Donors\r\n    function getDonors() public view returns(IEocDonor.Donor [] memory) {\r\n        return IEocDonor(eocDonorAddress).getDonors();\r\n    }\r\n \r\n    /// @dev This function will allow to add a project, the owner will be the one who calls the function. \r\n    /// @param _title The title of the project\r\n    /// @param _description description of the project\r\n    /// @param _geographicalArea the geographical area where the project will be located.\r\n    /// @param _startDate The start date of the project\r\n    /// @param _endDate The end of the project\r\n    /// @param _campaignStartDate the beginning of the collection of funds\r\n    /// @param _campaignDurationInDays the duration of the collection of funds\r\n    /// @param _minAmount The minimum price for the project to be valid\r\n    /// @param _maxAmount The maximum price to make the project a success \r\n    function addProject(\r\n        string memory _title,\r\n        string memory _description,\r\n        string memory _geographicalArea,\r\n        uint _startDate,\r\n        uint _endDate,\r\n        uint _campaignStartDate,\r\n        uint _campaignDurationInDays,\r\n        uint _minAmount,\r\n        uint _maxAmount\r\n    ) public {\r\n        IEocProject(eocProjectAddress).addProject(\r\n            _title,\r\n            _description,\r\n            _geographicalArea,\r\n            _startDate,\r\n            _endDate,\r\n            _campaignStartDate,\r\n            _campaignDurationInDays,\r\n            _minAmount,\r\n            _maxAmount\r\n        );\r\n    } \r\n\r\n    /// @dev Add a Donation struct in global donationMap\r\n    /// @param _projectId id of the project for which the donation is done\r\n    /// @param _donationAmount amount of the donation in EOC tokens\r\n    function addDonation(uint _projectId, uint _donationAmount) public {\r\n        EthicOnChainLib.Donor storage donationDonor = donorAddresses[msg.sender];\r\n        require(donationDonor.donorErc20Address != address(0), unicode\"Vous n'tes pas enregistr en tant que donateur\"); // concept de KYC\r\n        EthicOnChainLib.Project storage donationProject = projectMap[_projectId];\r\n        require(bytes(donationProject.title).length != 0, \"Projet inconnu\");\r\n        // donation possible seulement si dans priode de campagne\r\n        uint campaignEndDate = donationProject.campaignStartDate + donationProject.campaignDurationInDays * 1 days;\r\n        require(block.timestamp > donationProject.campaignStartDate, unicode\"La campagne n'est pas commence\");\r\n        require(block.timestamp < campaignEndDate, unicode\"La campagne est termine\");\r\n\r\n        EthicOnChainLib.Donation storage newDonation = donationMap[donationCount];\r\n        newDonation.donationId = donationCount;\r\n        newDonation.projectId = _projectId;\r\n        newDonation.donorId = donationDonor.donorId;\r\n        newDonation.donationDate = block.timestamp;\r\n        newDonation.donationAmount = _donationAmount;\r\n        \r\n        donationDonor.donationIds.push(donationCount); // mise  jour de l'historique des donations pour le donateur\r\n        \r\n        donationProject.projectBalance += _donationAmount; // mise  jour de la balance du projet\r\n        donationProject.donationIds.push(donationCount); // mise  jour de l'historique des donations pour le projet\r\n        donationCount++;\r\n        \r\n        // transfert de la donation du donateur vers le contrat\r\n        // le donateur devra avoir pralablement approuv (fonction approve du token - un minimum = le montant  transfrer)\r\n        // le contrat  transfrer les tokens de l'addresse du donateur vers l'adresse du contrat\r\n        IERC20(eocTokenAddress).transferFrom(msg.sender, address(this), _donationAmount);\r\n        //TODO PLUS TARD creation d'un escrow contract pour ne pas verser tous les tokens dans le mme contrat gnral\r\n        emit DonationAdded(newDonation.donationId, newDonation.projectId, newDonation.donorId, newDonation.donationDate, newDonation.donationAmount);\r\n    }\r\n\r\n    /// @dev Allows an NPO to withdraw funds from a project \r\n    /// @param _projectId project id \r\n    /// @param _amount Amount of withdrawal\r\n    /// @param _title title of the withdrawal\r\n    /// @param _description description of the withdrawal\r\n    function withdrawTokens (uint _projectId, uint _amount,string memory _title,string memory _description) public {\r\n        IEocNpo.NPO memory withdrawalNpo = getNpo(msg.sender);\r\n        require(bytes(withdrawalNpo.denomination).length != 0, unicode\"Vous n'tes pas enregistr en tant que NPO\");\r\n        require(bytes(projectMap[_projectId].title).length != 0, \"Projet inconnu\");\r\n        uint256 balance = projectMap[_projectId].projectBalance;\r\n        require(balance >= _amount, \"Balance insuffisante\");\r\n        // Widthdraw possible si seulement la campagne est termine\r\n        require(block.timestamp > projectMap[_projectId].campaignStartDate, unicode\"La campagne n'est pas commence\");\r\n        // TODO = uncomment below lines if it should not be possible to withdraw some amount before the end of the campaign\r\n        // uint campaignEndDate = projectMap[_projectId].campaignStartDate + projectMap[_projectId].campaignDurationInDays * 1 days;\r\n        // require(block.timestamp > campaignEndDate, unicode\"La campagne est toujours en cours\");\r\n\r\n        EthicOnChainLib.Withdrawal storage newWithdrawal = withdrawalMap[withdrawalCount];\r\n        newWithdrawal.withdrawalId = withdrawalCount;\r\n        newWithdrawal.projectId = _projectId;\r\n        newWithdrawal.title = _title;\r\n        newWithdrawal.amount = _amount;\r\n        newWithdrawal.withdrawalDate = block.timestamp;\r\n        newWithdrawal.description = _description;\r\n\r\n// TODO = create a new function into the future WithdrawalContract class\r\n//        withdrawalNpo.withdrawalIds.push(withdrawalCount); // mise  jour de l'historique des retraits pour le NPO\r\n        projectMap[_projectId].projectBalance -= _amount; // mise  jour de la balance du projet\r\n        projectMap[_projectId].withdrawalIds.push(withdrawalCount); // mise  jour de l'historique des retraits pour le projet\r\n        withdrawalCount++;\r\n        IERC20(eocTokenAddress).transfer(msg.sender,_amount);\r\n        emit WithdrawalAdded(newWithdrawal.withdrawalId,newWithdrawal.projectId,newWithdrawal.amount,msg.sender);\r\n    }\r\n\r\n    /// @dev Returns a single Project\r\n    /// @param _projectId project unique id\r\n    /// @return the Project struct instance corresponding to _projectId\r\n    function getProject(uint _projectId) public view returns(EthicOnChainLib.Project memory) {\r\n        return EthicOnChainLib.libGetProject(projectMap, _projectId);\r\n    }\r\n\r\n    /// @dev  get all projects\r\n    /// @return returns an array of all Project\r\n    function getProjects() public view returns(EthicOnChainLib.Project [] memory) {\r\n        return EthicOnChainLib.libGetProjects(projectMap, projectCount);\r\n    }\r\n    \r\n    /// @dev Allows to know all the projects of a single NPO\r\n    /// @param _addressNpo id which represents the index\r\n    /// @return Returns an array of all projects of a single NPO\r\n//    function getProjectsPerNpo(address _addressNpo) public view  returns(EthicOnChainLib.Project [] memory ) {\r\n//        return EthicOnChainLib.libGetProjectsPerNpo(npoAddresses, projectMap, _addressNpo);\r\n//    }\r\n\r\n    /// @dev  get Donation by id\r\n    /// param _id index pour retrouver la donation a retourner\r\n    /// @return a struct donation \r\n    function getDonation(uint _id) public view returns(EthicOnChainLib.Donation memory) {\r\n        return EthicOnChainLib.libGetDonation(donationMap, _id);\r\n    }\r\n\r\n    /// @dev Allows to know all the donations of a single donor\r\n    /// @param _addressNpo id which represents the index\r\n    /// @return Returns an array of all donation of a single donor\r\n    function getDonationPerDonor(address _addressNpo) public view  returns(EthicOnChainLib.Donation [] memory ) {\r\n        return EthicOnChainLib.libGetDonationPerDonor(donorAddresses, donationMap, _addressNpo);\r\n    }\r\n\r\n    /// @dev  get Withdrawal by id\r\n    /// param _id index pour retrouver le withdrawal a retourner\r\n    /// @return a struct retait \r\n    function getWithdrawal(uint _id) public view returns(EthicOnChainLib.Withdrawal memory) {\r\n        return EthicOnChainLib.libGetWithdrawal(withdrawalMap, _id);\r\n    }\r\n\r\n    /// @dev Allows to know all the donations of a single donor\r\n    /// @param _addressNpo id which represents the index\r\n    /// @return Returns an array of all donation of a single donor\r\n//    function getWithdrawalPerNpo(address _addressNpo) public view  returns(EthicOnChainLib.Withdrawal [] memory ) {\r\n//        return EthicOnChainLib.libGetWithdrawalPerNpo(npoAddresses, withdrawalMap, _addressNpo);\r\n//    }\r\n\r\n}",
  "sourcePath": "C:\\Appli.crypto\\ethic-on-chain\\contracts\\EthicOnChain.sol",
  "compiler": {
    "name": "solc",
    "version": "0.8.11+commit.d7f03943.Emscripten.clang"
  },
  "schemaVersion": "3.4.4",
  "updatedAt": "2022-01-11T17:56:45.151Z",
  "devdoc": {
    "author": "Lahcen E. Dev / Jrme Gauthier",
    "kind": "dev",
    "methods": {
      "addDonation(uint256,uint256)": {
        "details": "Add a Donation struct in global donationMap",
        "params": {
          "_donationAmount": "amount of the donation in EOC tokens",
          "_projectId": "id of the project for which the donation is done"
        }
      },
      "addDonor(address,string,string,string)": {
        "details": "The administrator/contract can add a new Donor",
        "params": {
          "_donorErc20Address": "ERC20 address of the donor",
          "_name": "Name of the Donor",
          "_postalAddress": "postal address of the donor",
          "_surName": "Surname of the Donor"
        }
      },
      "addNpo(address,string,string,string,string)": {
        "details": "The administrator can add a new NPO",
        "params": {
          "_denomination": "Demonination of the NPO",
          "_npoErc20Address": "the ERC20 address of the npo",
          "_npoType": "Type of npo organization",
          "_object": "object of NPO",
          "_postalAddress": "Postal address of the NPO"
        }
      },
      "addProject(string,string,string,uint256,uint256,uint256,uint256,uint256,uint256)": {
        "details": "This function will allow to add a project, the owner will be the one who calls the function. ",
        "params": {
          "_campaignDurationInDays": "the duration of the collection of funds",
          "_campaignStartDate": "the beginning of the collection of funds",
          "_description": "description of the project",
          "_endDate": "The end of the project",
          "_geographicalArea": "the geographical area where the project will be located.",
          "_maxAmount": "The maximum price to make the project a success ",
          "_minAmount": "The minimum price for the project to be valid",
          "_startDate": "The start date of the project",
          "_title": "The title of the project"
        }
      },
      "constructor": {
        "details": "Initialise the deployed EOC token address for swap",
        "params": {
          "_eocTokenAddress": "EOC Token address"
        }
      },
      "getDonation(uint256)": {
        "details": "get Donation by id param _id index pour retrouver la donation a retourner",
        "returns": {
          "_0": "a struct donation "
        }
      },
      "getDonationPerDonor(address)": {
        "details": "Allows to know all the donations of a single donor",
        "params": {
          "_addressNpo": "id which represents the index"
        },
        "returns": {
          "_0": "Returns an array of all donation of a single donor"
        }
      },
      "getDonor(address)": {
        "details": "get a Donor via its erc20 address",
        "params": {
          "_donorErc20Address": "erc20 address of the Donor"
        },
        "returns": {
          "_0": "returns the corresponding Donor struct"
        }
      },
      "getDonors()": {
        "details": "get all Donors",
        "returns": {
          "_0": "returns an array of all Donors"
        }
      },
      "getNpo(address)": {
        "details": "get an NPO via its erc20 address",
        "params": {
          "_npoErc20Address": "erc20 address of the NPO"
        },
        "returns": {
          "_0": "returns the corresponding NPO struct"
        }
      },
      "getNpos()": {
        "details": "get all NPOs",
        "returns": {
          "_0": "returns an array of all NPOs"
        }
      },
      "getProject(uint256)": {
        "details": "Returns a single Project",
        "params": {
          "_projectId": "project unique id"
        },
        "returns": {
          "_0": "the Project struct instance corresponding to _projectId"
        }
      },
      "getProjects()": {
        "details": "get all projects",
        "returns": {
          "_0": "returns an array of all Project"
        }
      },
      "getWithdrawal(uint256)": {
        "details": "get Withdrawal by id param _id index pour retrouver le withdrawal a retourner",
        "returns": {
          "_0": "a struct retait "
        }
      },
      "owner()": {
        "details": "Returns the address of the current owner."
      },
      "renounceOwnership()": {
        "details": "Leaves the contract without owner. It will not be possible to call `onlyOwner` functions anymore. Can only be called by the current owner. NOTE: Renouncing ownership will leave the contract without an owner, thereby removing any functionality that is only available to the owner."
      },
      "transferOwnership(address)": {
        "details": "Transfers ownership of the contract to a new account (`newOwner`). Can only be called by the current owner."
      },
      "withdrawTokens(uint256,uint256,string,string)": {
        "details": "Allows an NPO to withdraw funds from a project ",
        "params": {
          "_amount": "Amount of withdrawal",
          "_description": "description of the withdrawal",
          "_projectId": "project id ",
          "_title": "title of the withdrawal"
        }
      }
    },
    "title": "EthicOnChain ",
    "version": 1
  },
  "userdoc": {
    "kind": "user",
    "methods": {},
    "notice": "EthicOnChain contract to manage NPOs, Projects and Donors",
    "version": 1
  }
}