{
  "contractName": "EthicOnChain",
  "abi": [
    {
      "inputs": [
        {
          "internalType": "address",
          "name": "_eocTokenAddress",
          "type": "address"
        }
      ],
      "stateMutability": "nonpayable",
      "type": "constructor"
    },
    {
      "anonymous": false,
      "inputs": [
        {
          "indexed": false,
          "internalType": "uint256",
          "name": "_donationId",
          "type": "uint256"
        },
        {
          "indexed": false,
          "internalType": "uint256",
          "name": "_projectId",
          "type": "uint256"
        },
        {
          "indexed": false,
          "internalType": "uint256",
          "name": "_donorId",
          "type": "uint256"
        },
        {
          "indexed": false,
          "internalType": "uint256",
          "name": "_donationDate",
          "type": "uint256"
        },
        {
          "indexed": false,
          "internalType": "uint256",
          "name": "donationAmount",
          "type": "uint256"
        }
      ],
      "name": "DonationAdded",
      "type": "event"
    },
    {
      "anonymous": false,
      "inputs": [
        {
          "indexed": false,
          "internalType": "uint256",
          "name": "_donorId",
          "type": "uint256"
        },
        {
          "indexed": false,
          "internalType": "address",
          "name": "_donorErc20Address",
          "type": "address"
        },
        {
          "indexed": false,
          "internalType": "string",
          "name": "_donorName",
          "type": "string"
        }
      ],
      "name": "DonorAdded",
      "type": "event"
    },
    {
      "anonymous": false,
      "inputs": [
        {
          "indexed": false,
          "internalType": "uint256",
          "name": "_poId",
          "type": "uint256"
        },
        {
          "indexed": false,
          "internalType": "address",
          "name": "_npoErc20Address",
          "type": "address"
        },
        {
          "indexed": false,
          "internalType": "string",
          "name": "_denomination",
          "type": "string"
        }
      ],
      "name": "NpoAdded",
      "type": "event"
    },
    {
      "anonymous": false,
      "inputs": [
        {
          "indexed": true,
          "internalType": "address",
          "name": "previousOwner",
          "type": "address"
        },
        {
          "indexed": true,
          "internalType": "address",
          "name": "newOwner",
          "type": "address"
        }
      ],
      "name": "OwnershipTransferred",
      "type": "event"
    },
    {
      "anonymous": false,
      "inputs": [
        {
          "indexed": false,
          "internalType": "uint256",
          "name": "_projectId",
          "type": "uint256"
        },
        {
          "indexed": false,
          "internalType": "string",
          "name": "_title",
          "type": "string"
        },
        {
          "indexed": false,
          "internalType": "uint256",
          "name": "_startDate",
          "type": "uint256"
        },
        {
          "indexed": false,
          "internalType": "uint256",
          "name": "_endDate",
          "type": "uint256"
        },
        {
          "indexed": false,
          "internalType": "uint256",
          "name": "_minAmount",
          "type": "uint256"
        },
        {
          "indexed": false,
          "internalType": "uint256",
          "name": "_maxAmount",
          "type": "uint256"
        }
      ],
      "name": "ProjectAdded",
      "type": "event"
    },
    {
      "inputs": [
        {
          "internalType": "address",
          "name": "",
          "type": "address"
        }
      ],
      "name": "donorAddresses",
      "outputs": [
        {
          "internalType": "uint256",
          "name": "donorId",
          "type": "uint256"
        },
        {
          "internalType": "address",
          "name": "donorErc20Address",
          "type": "address"
        },
        {
          "internalType": "string",
          "name": "name",
          "type": "string"
        },
        {
          "internalType": "string",
          "name": "surName",
          "type": "string"
        },
        {
          "internalType": "string",
          "name": "postalAddress",
          "type": "string"
        }
      ],
      "stateMutability": "view",
      "type": "function",
      "constant": true
    },
    {
      "inputs": [
        {
          "internalType": "address",
          "name": "",
          "type": "address"
        }
      ],
      "name": "npoAddresses",
      "outputs": [
        {
          "internalType": "uint256",
          "name": "npoId",
          "type": "uint256"
        },
        {
          "internalType": "address",
          "name": "npoErc20Address",
          "type": "address"
        },
        {
          "internalType": "string",
          "name": "denomination",
          "type": "string"
        },
        {
          "internalType": "string",
          "name": "postalAddress",
          "type": "string"
        },
        {
          "internalType": "string",
          "name": "object",
          "type": "string"
        },
        {
          "internalType": "string",
          "name": "npoType",
          "type": "string"
        }
      ],
      "stateMutability": "view",
      "type": "function",
      "constant": true
    },
    {
      "inputs": [],
      "name": "owner",
      "outputs": [
        {
          "internalType": "address",
          "name": "",
          "type": "address"
        }
      ],
      "stateMutability": "view",
      "type": "function",
      "constant": true
    },
    {
      "inputs": [],
      "name": "renounceOwnership",
      "outputs": [],
      "stateMutability": "nonpayable",
      "type": "function"
    },
    {
      "inputs": [
        {
          "internalType": "address",
          "name": "newOwner",
          "type": "address"
        }
      ],
      "name": "transferOwnership",
      "outputs": [],
      "stateMutability": "nonpayable",
      "type": "function"
    },
    {
      "inputs": [
        {
          "internalType": "address",
          "name": "_npoErc20Address",
          "type": "address"
        },
        {
          "internalType": "string",
          "name": "_denomination",
          "type": "string"
        },
        {
          "internalType": "string",
          "name": "_postalAddress",
          "type": "string"
        },
        {
          "internalType": "string",
          "name": "_object",
          "type": "string"
        },
        {
          "internalType": "string",
          "name": "_npoType",
          "type": "string"
        }
      ],
      "name": "addNpo",
      "outputs": [],
      "stateMutability": "nonpayable",
      "type": "function"
    },
    {
      "inputs": [
        {
          "internalType": "address",
          "name": "_donorErc20Address",
          "type": "address"
        },
        {
          "internalType": "string",
          "name": "_name",
          "type": "string"
        },
        {
          "internalType": "string",
          "name": "_surName",
          "type": "string"
        },
        {
          "internalType": "string",
          "name": "_postalAddress",
          "type": "string"
        }
      ],
      "name": "addDonor",
      "outputs": [],
      "stateMutability": "nonpayable",
      "type": "function"
    },
    {
      "inputs": [
        {
          "internalType": "string",
          "name": "_title",
          "type": "string"
        },
        {
          "internalType": "string",
          "name": "_description",
          "type": "string"
        },
        {
          "internalType": "string",
          "name": "_geographicalArea",
          "type": "string"
        },
        {
          "internalType": "uint256",
          "name": "_startDate",
          "type": "uint256"
        },
        {
          "internalType": "uint256",
          "name": "_endDate",
          "type": "uint256"
        },
        {
          "internalType": "uint256",
          "name": "_campaignStartDate",
          "type": "uint256"
        },
        {
          "internalType": "uint256",
          "name": "_campaignDurationInDays",
          "type": "uint256"
        },
        {
          "internalType": "uint256",
          "name": "_minAmount",
          "type": "uint256"
        },
        {
          "internalType": "uint256",
          "name": "_maxAmount",
          "type": "uint256"
        }
      ],
      "name": "addProject",
      "outputs": [],
      "stateMutability": "nonpayable",
      "type": "function"
    },
    {
      "inputs": [
        {
          "internalType": "uint256",
          "name": "_projectId",
          "type": "uint256"
        },
        {
          "internalType": "uint256",
          "name": "_donationAmount",
          "type": "uint256"
        }
      ],
      "name": "addDonation",
      "outputs": [],
      "stateMutability": "nonpayable",
      "type": "function"
    },
    {
      "inputs": [
        {
          "internalType": "address",
          "name": "_npoErc20Address",
          "type": "address"
        }
      ],
      "name": "getNpo",
      "outputs": [
        {
          "components": [
            {
              "internalType": "uint256",
              "name": "npoId",
              "type": "uint256"
            },
            {
              "internalType": "address",
              "name": "npoErc20Address",
              "type": "address"
            },
            {
              "internalType": "string",
              "name": "denomination",
              "type": "string"
            },
            {
              "internalType": "string",
              "name": "postalAddress",
              "type": "string"
            },
            {
              "internalType": "string",
              "name": "object",
              "type": "string"
            },
            {
              "internalType": "string",
              "name": "npoType",
              "type": "string"
            },
            {
              "internalType": "uint256[]",
              "name": "projectIds",
              "type": "uint256[]"
            }
          ],
          "internalType": "struct EthicOnChain.NPO",
          "name": "",
          "type": "tuple"
        }
      ],
      "stateMutability": "view",
      "type": "function",
      "constant": true
    },
    {
      "inputs": [],
      "name": "getNpos",
      "outputs": [
        {
          "components": [
            {
              "internalType": "uint256",
              "name": "npoId",
              "type": "uint256"
            },
            {
              "internalType": "address",
              "name": "npoErc20Address",
              "type": "address"
            },
            {
              "internalType": "string",
              "name": "denomination",
              "type": "string"
            },
            {
              "internalType": "string",
              "name": "postalAddress",
              "type": "string"
            },
            {
              "internalType": "string",
              "name": "object",
              "type": "string"
            },
            {
              "internalType": "string",
              "name": "npoType",
              "type": "string"
            },
            {
              "internalType": "uint256[]",
              "name": "projectIds",
              "type": "uint256[]"
            }
          ],
          "internalType": "struct EthicOnChain.NPO[]",
          "name": "",
          "type": "tuple[]"
        }
      ],
      "stateMutability": "view",
      "type": "function",
      "constant": true
    },
    {
      "inputs": [
        {
          "internalType": "address",
          "name": "_donorErc20Address",
          "type": "address"
        }
      ],
      "name": "getDonor",
      "outputs": [
        {
          "components": [
            {
              "internalType": "uint256",
              "name": "donorId",
              "type": "uint256"
            },
            {
              "internalType": "address",
              "name": "donorErc20Address",
              "type": "address"
            },
            {
              "internalType": "string",
              "name": "name",
              "type": "string"
            },
            {
              "internalType": "string",
              "name": "surName",
              "type": "string"
            },
            {
              "internalType": "string",
              "name": "postalAddress",
              "type": "string"
            },
            {
              "internalType": "uint256[]",
              "name": "donationIds",
              "type": "uint256[]"
            }
          ],
          "internalType": "struct EthicOnChain.Donor",
          "name": "",
          "type": "tuple"
        }
      ],
      "stateMutability": "view",
      "type": "function",
      "constant": true
    },
    {
      "inputs": [],
      "name": "getDonors",
      "outputs": [
        {
          "components": [
            {
              "internalType": "uint256",
              "name": "donorId",
              "type": "uint256"
            },
            {
              "internalType": "address",
              "name": "donorErc20Address",
              "type": "address"
            },
            {
              "internalType": "string",
              "name": "name",
              "type": "string"
            },
            {
              "internalType": "string",
              "name": "surName",
              "type": "string"
            },
            {
              "internalType": "string",
              "name": "postalAddress",
              "type": "string"
            },
            {
              "internalType": "uint256[]",
              "name": "donationIds",
              "type": "uint256[]"
            }
          ],
          "internalType": "struct EthicOnChain.Donor[]",
          "name": "",
          "type": "tuple[]"
        }
      ],
      "stateMutability": "view",
      "type": "function",
      "constant": true
    },
    {
      "inputs": [
        {
          "internalType": "uint256",
          "name": "_projectId",
          "type": "uint256"
        }
      ],
      "name": "getProject",
      "outputs": [
        {
          "components": [
            {
              "internalType": "uint256",
              "name": "projectId",
              "type": "uint256"
            },
            {
              "internalType": "uint256",
              "name": "startDate",
              "type": "uint256"
            },
            {
              "internalType": "uint256",
              "name": "endDate",
              "type": "uint256"
            },
            {
              "internalType": "uint256",
              "name": "campaignStartDate",
              "type": "uint256"
            },
            {
              "internalType": "uint256",
              "name": "campaignDurationInDays",
              "type": "uint256"
            },
            {
              "internalType": "address",
              "name": "npoErc20Address",
              "type": "address"
            },
            {
              "internalType": "enum EthicOnChain.ProjectCause",
              "name": "cause",
              "type": "uint8"
            },
            {
              "internalType": "string",
              "name": "title",
              "type": "string"
            },
            {
              "internalType": "string",
              "name": "description",
              "type": "string"
            },
            {
              "internalType": "string",
              "name": "geographicalArea",
              "type": "string"
            },
            {
              "internalType": "uint256",
              "name": "minAmount",
              "type": "uint256"
            },
            {
              "internalType": "uint256",
              "name": "maxAmount",
              "type": "uint256"
            },
            {
              "internalType": "uint256",
              "name": "projectBalance",
              "type": "uint256"
            },
            {
              "internalType": "uint256[]",
              "name": "donationIds",
              "type": "uint256[]"
            }
          ],
          "internalType": "struct EthicOnChain.Project",
          "name": "",
          "type": "tuple"
        }
      ],
      "stateMutability": "view",
      "type": "function",
      "constant": true
    },
    {
      "inputs": [],
      "name": "getProjects",
      "outputs": [
        {
          "components": [
            {
              "internalType": "uint256",
              "name": "projectId",
              "type": "uint256"
            },
            {
              "internalType": "uint256",
              "name": "startDate",
              "type": "uint256"
            },
            {
              "internalType": "uint256",
              "name": "endDate",
              "type": "uint256"
            },
            {
              "internalType": "uint256",
              "name": "campaignStartDate",
              "type": "uint256"
            },
            {
              "internalType": "uint256",
              "name": "campaignDurationInDays",
              "type": "uint256"
            },
            {
              "internalType": "address",
              "name": "npoErc20Address",
              "type": "address"
            },
            {
              "internalType": "enum EthicOnChain.ProjectCause",
              "name": "cause",
              "type": "uint8"
            },
            {
              "internalType": "string",
              "name": "title",
              "type": "string"
            },
            {
              "internalType": "string",
              "name": "description",
              "type": "string"
            },
            {
              "internalType": "string",
              "name": "geographicalArea",
              "type": "string"
            },
            {
              "internalType": "uint256",
              "name": "minAmount",
              "type": "uint256"
            },
            {
              "internalType": "uint256",
              "name": "maxAmount",
              "type": "uint256"
            },
            {
              "internalType": "uint256",
              "name": "projectBalance",
              "type": "uint256"
            },
            {
              "internalType": "uint256[]",
              "name": "donationIds",
              "type": "uint256[]"
            }
          ],
          "internalType": "struct EthicOnChain.Project[]",
          "name": "",
          "type": "tuple[]"
        }
      ],
      "stateMutability": "view",
      "type": "function",
      "constant": true
    },
    {
      "inputs": [
        {
          "internalType": "uint256",
          "name": "_id",
          "type": "uint256"
        }
      ],
      "name": "getDonation",
      "outputs": [
        {
          "components": [
            {
              "internalType": "uint256",
              "name": "donationId",
              "type": "uint256"
            },
            {
              "internalType": "uint256",
              "name": "projectId",
              "type": "uint256"
            },
            {
              "internalType": "uint256",
              "name": "donorId",
              "type": "uint256"
            },
            {
              "internalType": "uint256",
              "name": "donationDate",
              "type": "uint256"
            },
            {
              "internalType": "uint256",
              "name": "donationAmount",
              "type": "uint256"
            }
          ],
          "internalType": "struct EthicOnChain.Donation",
          "name": "",
          "type": "tuple"
        }
      ],
      "stateMutability": "view",
      "type": "function",
      "constant": true
    },
    {
      "inputs": [
        {
          "internalType": "address",
          "name": "_addressNpo",
          "type": "address"
        }
      ],
      "name": "getDonationPerDonor",
      "outputs": [
        {
          "components": [
            {
              "internalType": "uint256",
              "name": "donationId",
              "type": "uint256"
            },
            {
              "internalType": "uint256",
              "name": "projectId",
              "type": "uint256"
            },
            {
              "internalType": "uint256",
              "name": "donorId",
              "type": "uint256"
            },
            {
              "internalType": "uint256",
              "name": "donationDate",
              "type": "uint256"
            },
            {
              "internalType": "uint256",
              "name": "donationAmount",
              "type": "uint256"
            }
          ],
          "internalType": "struct EthicOnChain.Donation[]",
          "name": "",
          "type": "tuple[]"
        }
      ],
      "stateMutability": "view",
      "type": "function",
      "constant": true
    },
    {
      "inputs": [
        {
          "internalType": "address",
          "name": "_addressNpo",
          "type": "address"
        }
      ],
      "name": "getProjectsPerNpo",
      "outputs": [
        {
          "components": [
            {
              "internalType": "uint256",
              "name": "projectId",
              "type": "uint256"
            },
            {
              "internalType": "uint256",
              "name": "startDate",
              "type": "uint256"
            },
            {
              "internalType": "uint256",
              "name": "endDate",
              "type": "uint256"
            },
            {
              "internalType": "uint256",
              "name": "campaignStartDate",
              "type": "uint256"
            },
            {
              "internalType": "uint256",
              "name": "campaignDurationInDays",
              "type": "uint256"
            },
            {
              "internalType": "address",
              "name": "npoErc20Address",
              "type": "address"
            },
            {
              "internalType": "enum EthicOnChain.ProjectCause",
              "name": "cause",
              "type": "uint8"
            },
            {
              "internalType": "string",
              "name": "title",
              "type": "string"
            },
            {
              "internalType": "string",
              "name": "description",
              "type": "string"
            },
            {
              "internalType": "string",
              "name": "geographicalArea",
              "type": "string"
            },
            {
              "internalType": "uint256",
              "name": "minAmount",
              "type": "uint256"
            },
            {
              "internalType": "uint256",
              "name": "maxAmount",
              "type": "uint256"
            },
            {
              "internalType": "uint256",
              "name": "projectBalance",
              "type": "uint256"
            },
            {
              "internalType": "uint256[]",
              "name": "donationIds",
              "type": "uint256[]"
            }
          ],
          "internalType": "struct EthicOnChain.Project[]",
          "name": "",
          "type": "tuple[]"
        }
      ],
      "stateMutability": "view",
      "type": "function",
      "constant": true
    }
  ],
  "bytecode": "0x60806040523480156200001157600080fd5b5060405162005898380380620058988339818101604052810190620000379190620001d5565b620000576200004b6200009f60201b60201c565b620000a760201b60201c565b80600b60006101000a81548173ffffffffffffffffffffffffffffffffffffffff021916908373ffffffffffffffffffffffffffffffffffffffff1602179055505062000207565b600033905090565b60008060009054906101000a900473ffffffffffffffffffffffffffffffffffffffff169050816000806101000a81548173ffffffffffffffffffffffffffffffffffffffff021916908373ffffffffffffffffffffffffffffffffffffffff1602179055508173ffffffffffffffffffffffffffffffffffffffff168173ffffffffffffffffffffffffffffffffffffffff167f8be0079c531659141344cd1fd0a4f28419497f9722a3daafe3b4186f6b6457e060405160405180910390a35050565b600080fd5b600073ffffffffffffffffffffffffffffffffffffffff82169050919050565b60006200019d8262000170565b9050919050565b620001af8162000190565b8114620001bb57600080fd5b50565b600081519050620001cf81620001a4565b92915050565b600060208284031215620001ee57620001ed6200016b565b5b6000620001fe84828501620001be565b91505092915050565b61568180620002176000396000f3fe608060405234801561001057600080fd5b50600436106101165760003560e01c806396f300d4116100a2578063dcc6012811610071578063dcc60128146102e8578063ef07a81f14610306578063f0f3f2c814610336578063f2fde38b14610366578063ff6d56ef1461038257610116565b806396f300d41461024e578063a90f73331461026c578063b3c9020b1461029c578063d87ffb70146102cc57610116565b806362e13e7d116100e957806362e13e7d146101a4578063715018a6146101d85780637d1887f8146101e25780638da5cb5b1461020057806396c590431461021e57610116565b806319ccf9ed1461011b5780631f1ffb1c146101375780633f9754c9146101535780634913cdb01461016f575b600080fd5b6101356004803603810190610130919061362e565b6103b2565b005b610151600480360381019061014c919061371f565b6106fc565b005b61016d6004803603810190610168919061383d565b610bb0565b005b61018960048036038101906101849190613928565b610fe4565b60405161019b969594939291906139fb565b60405180910390f35b6101be60048036038101906101b99190613928565b611260565b6040516101cf959493929190613a78565b60405180910390f35b6101e061144e565b005b6101ea6114d6565b6040516101f79190613d71565b60405180910390f35b610208611585565b6040516102159190613d93565b60405180910390f35b61023860048036038101906102339190613928565b6115ae565b6040516102459190613e4c565b60405180910390f35b610256611875565b6040516102639190613fce565b60405180910390f35b61028660048036038101906102819190613928565b611924565b6040516102939190614107565b60405180910390f35b6102b660048036038101906102b19190613928565b611a7c565b6040516102c391906143a5565b60405180910390f35b6102e660048036038101906102e191906143c7565b611bd4565b005b6102f0611f9b565b6040516102fd91906143a5565b60405180910390f35b610320600480360381019061031b9190614407565b61234f565b60405161032d919061449c565b60405180910390f35b610350600480360381019061034b9190614407565b6123ae565b60405161035d91906145fa565b60405180910390f35b610380600480360381019061037b9190613928565b6126cb565b005b61039c60048036038101906103979190613928565b6127c3565b6040516103a991906146d4565b60405180910390f35b6103ba612b1c565b73ffffffffffffffffffffffffffffffffffffffff166103d8611585565b73ffffffffffffffffffffffffffffffffffffffff161461042e576040517f08c379a000000000000000000000000000000000000000000000000000000000815260040161042590614742565b60405180910390fd5b600073ffffffffffffffffffffffffffffffffffffffff168473ffffffffffffffffffffffffffffffffffffffff161161049d576040517f08c379a0000000000000000000000000000000000000000000000000000000008152600401610494906147d4565b60405180910390fd5b600073ffffffffffffffffffffffffffffffffffffffff16600460008673ffffffffffffffffffffffffffffffffffffffff1673ffffffffffffffffffffffffffffffffffffffff16815260200190815260200160002060010160009054906101000a900473ffffffffffffffffffffffffffffffffffffffff1673ffffffffffffffffffffffffffffffffffffffff161461056e576040517f08c379a000000000000000000000000000000000000000000000000000000000815260040161056590614840565b60405180910390fd5b6000600460008673ffffffffffffffffffffffffffffffffffffffff1673ffffffffffffffffffffffffffffffffffffffff16815260200190815260200160002090506006548160000181905550838160020190805190602001906105d492919061326e565b50828160030190805190602001906105ed92919061326e565b50848160010160006101000a81548173ffffffffffffffffffffffffffffffffffffffff021916908373ffffffffffffffffffffffffffffffffffffffff1602179055508181600401908051906020019061064992919061326e565b508460056000600654815260200190815260200160002060006101000a81548173ffffffffffffffffffffffffffffffffffffffff021916908373ffffffffffffffffffffffffffffffffffffffff160217905550600660008154809291906106b19061488f565b91905055507ff1a73eeb2b4ddced9fb956e389a13618a37205f30bf1694dbf5ba71b1bbfc25c816000015486866040516106ed939291906148d8565b60405180910390a15050505050565b6000600160003373ffffffffffffffffffffffffffffffffffffffff1673ffffffffffffffffffffffffffffffffffffffff1681526020019081526020016000209050600081600201805461075090614945565b90501415610793576040517f08c379a000000000000000000000000000000000000000000000000000000000815260040161078a906149e9565b60405180910390fd5b60008a51116107d7576040517f08c379a00000000000000000000000000000000000000000000000000000000081526004016107ce90614a55565b60405180910390fd5b600089511161081b576040517f08c379a000000000000000000000000000000000000000000000000000000000815260040161081290614ac1565b60405180910390fd5b6000871161085e576040517f08c379a000000000000000000000000000000000000000000000000000000000815260040161085590614b53565b60405180910390fd5b600086116108a1576040517f08c379a000000000000000000000000000000000000000000000000000000000815260040161089890614be5565b60405180910390fd5b600083116108e4576040517f08c379a00000000000000000000000000000000000000000000000000000000081526004016108db90614c51565b60405180910390fd5b60008211610927576040517f08c379a000000000000000000000000000000000000000000000000000000000815260040161091e90614cbd565b60405180910390fd5b6000851161096a576040517f08c379a000000000000000000000000000000000000000000000000000000000815260040161096190614d4f565b60405180910390fd5b600084116109ad576040517f08c379a00000000000000000000000000000000000000000000000000000000081526004016109a490614dbb565b60405180910390fd5b8587106109ef576040517f08c379a00000000000000000000000000000000000000000000000000000000081526004016109e690614e4d565b60405180910390fd5b818310610a31576040517f08c379a0000000000000000000000000000000000000000000000000000000008152600401610a2890614edf565b60405180910390fd5b600060076000600854815260200190815260200160002090506008548160000181905550338160050160006101000a81548173ffffffffffffffffffffffffffffffffffffffff021916908373ffffffffffffffffffffffffffffffffffffffff1602179055508a816006019080519060200190610ab092919061326e565b5089816007019080519060200190610ac992919061326e565b5088816008019080519060200190610ae292919061326e565b508781600101819055508681600201819055508581600301819055508481600401819055508381600901819055508281600a018190555081600601600854908060018154018082558091505060019003906000526020600020016000909190919091505560086000815480929190610b599061488f565b91905055507ff9702874e260ae597ee7c3acbf77aad0ce01f26c14650d5afbc5b43a62b34af381600001548c8a8a8888604051610b9b96959493929190614eff565b60405180910390a15050505050505050505050565b610bb8612b1c565b73ffffffffffffffffffffffffffffffffffffffff16610bd6611585565b73ffffffffffffffffffffffffffffffffffffffff1614610c2c576040517f08c379a0000000000000000000000000000000000000000000000000000000008152600401610c2390614742565b60405180910390fd5b600073ffffffffffffffffffffffffffffffffffffffff168573ffffffffffffffffffffffffffffffffffffffff1611610c9b576040517f08c379a0000000000000000000000000000000000000000000000000000000008152600401610c9290614fd9565b60405180910390fd5b6000845111610cdf576040517f08c379a0000000000000000000000000000000000000000000000000000000008152600401610cd690615045565b60405180910390fd5b6000835111610d23576040517f08c379a0000000000000000000000000000000000000000000000000000000008152600401610d1a906150b1565b60405180910390fd5b6000825111610d67576040517f08c379a0000000000000000000000000000000000000000000000000000000008152600401610d5e9061511d565b60405180910390fd5b6000815111610dab576040517f08c379a0000000000000000000000000000000000000000000000000000000008152600401610da290615189565b60405180910390fd5b6000600160008773ffffffffffffffffffffffffffffffffffffffff1673ffffffffffffffffffffffffffffffffffffffff1681526020019081526020016000206002018054610dfa90614945565b905014610e3c576040517f08c379a0000000000000000000000000000000000000000000000000000000008152600401610e33906151f5565b60405180910390fd5b6000600160008773ffffffffffffffffffffffffffffffffffffffff1673ffffffffffffffffffffffffffffffffffffffff16815260200190815260200160002090506003548160000181905550858160010160006101000a81548173ffffffffffffffffffffffffffffffffffffffff021916908373ffffffffffffffffffffffffffffffffffffffff16021790555084816002019080519060200190610ee592919061326e565b5083816003019080519060200190610efe92919061326e565b5082816004019080519060200190610f1792919061326e565b5081816005019080519060200190610f3092919061326e565b508560026000600354815260200190815260200160002060006101000a81548173ffffffffffffffffffffffffffffffffffffffff021916908373ffffffffffffffffffffffffffffffffffffffff16021790555060036000815480929190610f989061488f565b91905055507f1a9e41b629a15a636da77b06f2707c109021423f307b3f34f33ded411423ef1481600001548787604051610fd4939291906148d8565b60405180910390a1505050505050565b60016020528060005260406000206000915090508060000154908060010160009054906101000a900473ffffffffffffffffffffffffffffffffffffffff169080600201805461103390614945565b80601f016020809104026020016040519081016040528092919081815260200182805461105f90614945565b80156110ac5780601f10611081576101008083540402835291602001916110ac565b820191906000526020600020905b81548152906001019060200180831161108f57829003601f168201915b5050505050908060030180546110c190614945565b80601f01602080910402602001604051908101604052809291908181526020018280546110ed90614945565b801561113a5780601f1061110f5761010080835404028352916020019161113a565b820191906000526020600020905b81548152906001019060200180831161111d57829003601f168201915b50505050509080600401805461114f90614945565b80601f016020809104026020016040519081016040528092919081815260200182805461117b90614945565b80156111c85780601f1061119d576101008083540402835291602001916111c8565b820191906000526020600020905b8154815290600101906020018083116111ab57829003601f168201915b5050505050908060050180546111dd90614945565b80601f016020809104026020016040519081016040528092919081815260200182805461120990614945565b80156112565780601f1061122b57610100808354040283529160200191611256565b820191906000526020600020905b81548152906001019060200180831161123957829003601f168201915b5050505050905086565b60046020528060005260406000206000915090508060000154908060010160009054906101000a900473ffffffffffffffffffffffffffffffffffffffff16908060020180546112af90614945565b80601f01602080910402602001604051908101604052809291908181526020018280546112db90614945565b80156113285780601f106112fd57610100808354040283529160200191611328565b820191906000526020600020905b81548152906001019060200180831161130b57829003601f168201915b50505050509080600301805461133d90614945565b80601f016020809104026020016040519081016040528092919081815260200182805461136990614945565b80156113b65780601f1061138b576101008083540402835291602001916113b6565b820191906000526020600020905b81548152906001019060200180831161139957829003601f168201915b5050505050908060040180546113cb90614945565b80601f01602080910402602001604051908101604052809291908181526020018280546113f790614945565b80156114445780601f1061141957610100808354040283529160200191611444565b820191906000526020600020905b81548152906001019060200180831161142757829003601f168201915b5050505050905085565b611456612b1c565b73ffffffffffffffffffffffffffffffffffffffff16611474611585565b73ffffffffffffffffffffffffffffffffffffffff16146114ca576040517f08c379a00000000000000000000000000000000000000000000000000000000081526004016114c190614742565b60405180910390fd5b6114d46000612b24565b565b60606000600354905060008167ffffffffffffffff8111156114fb576114fa613503565b5b60405190808252806020026020018201604052801561153457816020015b6115216132f4565b8152602001906001900390816115195790505b50905060005b8281101561157c5761154b81612be8565b82828151811061155e5761155d615215565b5b602002602001018190525080806115749061488f565b91505061153a565b50809250505090565b60008060009054906101000a900473ffffffffffffffffffffffffffffffffffffffff16905090565b6115b6613347565b600460008373ffffffffffffffffffffffffffffffffffffffff1673ffffffffffffffffffffffffffffffffffffffff1681526020019081526020016000206040518060c0016040529081600082015481526020016001820160009054906101000a900473ffffffffffffffffffffffffffffffffffffffff1673ffffffffffffffffffffffffffffffffffffffff1673ffffffffffffffffffffffffffffffffffffffff16815260200160028201805461167090614945565b80601f016020809104026020016040519081016040528092919081815260200182805461169c90614945565b80156116e95780601f106116be576101008083540402835291602001916116e9565b820191906000526020600020905b8154815290600101906020018083116116cc57829003601f168201915b5050505050815260200160038201805461170290614945565b80601f016020809104026020016040519081016040528092919081815260200182805461172e90614945565b801561177b5780601f106117505761010080835404028352916020019161177b565b820191906000526020600020905b81548152906001019060200180831161175e57829003601f168201915b5050505050815260200160048201805461179490614945565b80601f01602080910402602001604051908101604052809291908181526020018280546117c090614945565b801561180d5780601f106117e25761010080835404028352916020019161180d565b820191906000526020600020905b8154815290600101906020018083116117f057829003601f168201915b505050505081526020016005820180548060200260200160405190810160405280929190818152602001828054801561186557602002820191906000526020600020905b815481526020019060010190808311611851575b5050505050815250509050919050565b60606000600654905060008167ffffffffffffffff81111561189a57611899613503565b5b6040519080825280602002602001820160405280156118d357816020015b6118c0613347565b8152602001906001900390816118b85790505b50905060005b8281101561191b576118ea81612f74565b8282815181106118fd576118fc615215565b5b602002602001018190525080806119139061488f565b9150506118d9565b50809250505090565b60606000600460008473ffffffffffffffffffffffffffffffffffffffff1673ffffffffffffffffffffffffffffffffffffffff16815260200190815260200160002060050180549050905060008167ffffffffffffffff81111561198c5761198b613503565b5b6040519080825280602002602001820160405280156119c557816020015b6119b2613393565b8152602001906001900390816119aa5790505b50905060005b82811015611a71576000600460008773ffffffffffffffffffffffffffffffffffffffff1673ffffffffffffffffffffffffffffffffffffffff1681526020019081526020016000206005018281548110611a2957611a28615215565b5b90600052602060002001549050611a3f8161234f565b838381518110611a5257611a51615215565b5b6020026020010181905250508080611a699061488f565b9150506119cb565b508092505050919050565b60606000600160008473ffffffffffffffffffffffffffffffffffffffff1673ffffffffffffffffffffffffffffffffffffffff16815260200190815260200160002060060180549050905060008167ffffffffffffffff811115611ae457611ae3613503565b5b604051908082528060200260200182016040528015611b1d57816020015b611b0a6133c2565b815260200190600190039081611b025790505b50905060005b82811015611bc9576000600160008773ffffffffffffffffffffffffffffffffffffffff1673ffffffffffffffffffffffffffffffffffffffff1681526020019081526020016000206006018281548110611b8157611b80615215565b5b90600052602060002001549050611b97816123ae565b838381518110611baa57611ba9615215565b5b6020026020010181905250508080611bc19061488f565b915050611b23565b508092505050919050565b6000600460003373ffffffffffffffffffffffffffffffffffffffff1673ffffffffffffffffffffffffffffffffffffffff1681526020019081526020016000209050600073ffffffffffffffffffffffffffffffffffffffff168160010160009054906101000a900473ffffffffffffffffffffffffffffffffffffffff1673ffffffffffffffffffffffffffffffffffffffff161415611cab576040517f08c379a0000000000000000000000000000000000000000000000000000000008152600401611ca2906152b6565b60405180910390fd5b60006007600085815260200190815260200160002090506000816006018054611cd390614945565b90501415611d16576040517f08c379a0000000000000000000000000000000000000000000000000000000008152600401611d0d90615322565b60405180910390fd5b6000620151808260040154611d2b9190615342565b8260030154611d3a919061539c565b905081600301544211611d82576040517f08c379a0000000000000000000000000000000000000000000000000000000008152600401611d799061543e565b60405180910390fd5b804210611dc4576040517f08c379a0000000000000000000000000000000000000000000000000000000008152600401611dbb906154aa565b60405180910390fd5b600060096000600a5481526020019081526020016000209050600a5481600001819055508581600101819055508360000154816002018190555042816003018190555084816004018190555083600501600a5490806001815401808255809150506001900390600052602060002001600090919091909150558483600b016000828254611e51919061539c565b9250508190555082600c01600a549080600181540180825580915050600190039060005260206000200160009091909190915055600a6000815480929190611e989061488f565b9190505550600b60009054906101000a900473ffffffffffffffffffffffffffffffffffffffff1673ffffffffffffffffffffffffffffffffffffffff166323b872dd3330886040518463ffffffff1660e01b8152600401611efc939291906154ca565b6020604051808303816000875af1158015611f1b573d6000803e3d6000fd5b505050506040513d601f19601f82011682018060405250810190611f3f9190615539565b507f5b01b3cbb79f6d6de617795637d44cf4ec173dab689fb0804ab8dbbd88f4302b81600001548260010154836002015484600301548560040154604051611f8b959493929190615566565b60405180910390a1505050505050565b60606000600854905060008167ffffffffffffffff811115611fc057611fbf613503565b5b604051908082528060200260200182016040528015611ff957816020015b611fe66133c2565b815260200190600190039081611fde5790505b50905060005b828110156123465760076000828152602001908152602001600020604051806101c001604052908160008201548152602001600182015481526020016002820154815260200160038201548152602001600482015481526020016005820160009054906101000a900473ffffffffffffffffffffffffffffffffffffffff1673ffffffffffffffffffffffffffffffffffffffff1673ffffffffffffffffffffffffffffffffffffffff1681526020016005820160149054906101000a900460ff1660068111156120d3576120d2614155565b5b60068111156120e5576120e4614155565b5b81526020016006820180546120f990614945565b80601f016020809104026020016040519081016040528092919081815260200182805461212590614945565b80156121725780601f1061214757610100808354040283529160200191612172565b820191906000526020600020905b81548152906001019060200180831161215557829003601f168201915b5050505050815260200160078201805461218b90614945565b80601f01602080910402602001604051908101604052809291908181526020018280546121b790614945565b80156122045780601f106121d957610100808354040283529160200191612204565b820191906000526020600020905b8154815290600101906020018083116121e757829003601f168201915b5050505050815260200160088201805461221d90614945565b80601f016020809104026020016040519081016040528092919081815260200182805461224990614945565b80156122965780601f1061226b57610100808354040283529160200191612296565b820191906000526020600020905b81548152906001019060200180831161227957829003601f168201915b5050505050815260200160098201548152602001600a8201548152602001600b8201548152602001600c820180548060200260200160405190810160405280929190818152602001828054801561230c57602002820191906000526020600020905b8154815260200190600101908083116122f8575b50505050508152505082828151811061232857612327615215565b5b6020026020010181905250808061233e9061488f565b915050611fff565b50809250505090565b612357613393565b600960008381526020019081526020016000206040518060a0016040529081600082015481526020016001820154815260200160028201548152602001600382015481526020016004820154815250509050919050565b6123b66133c2565b60076000838152602001908152602001600020604051806101c001604052908160008201548152602001600182015481526020016002820154815260200160038201548152602001600482015481526020016005820160009054906101000a900473ffffffffffffffffffffffffffffffffffffffff1673ffffffffffffffffffffffffffffffffffffffff1673ffffffffffffffffffffffffffffffffffffffff1681526020016005820160149054906101000a900460ff16600681111561248257612481614155565b5b600681111561249457612493614155565b5b81526020016006820180546124a890614945565b80601f01602080910402602001604051908101604052809291908181526020018280546124d490614945565b80156125215780601f106124f657610100808354040283529160200191612521565b820191906000526020600020905b81548152906001019060200180831161250457829003601f168201915b5050505050815260200160078201805461253a90614945565b80601f016020809104026020016040519081016040528092919081815260200182805461256690614945565b80156125b35780601f10612588576101008083540402835291602001916125b3565b820191906000526020600020905b81548152906001019060200180831161259657829003601f168201915b505050505081526020016008820180546125cc90614945565b80601f01602080910402602001604051908101604052809291908181526020018280546125f890614945565b80156126455780601f1061261a57610100808354040283529160200191612645565b820191906000526020600020905b81548152906001019060200180831161262857829003601f168201915b5050505050815260200160098201548152602001600a8201548152602001600b8201548152602001600c82018054806020026020016040519081016040528092919081815260200182805480156126bb57602002820191906000526020600020905b8154815260200190600101908083116126a7575b5050505050815250509050919050565b6126d3612b1c565b73ffffffffffffffffffffffffffffffffffffffff166126f1611585565b73ffffffffffffffffffffffffffffffffffffffff1614612747576040517f08c379a000000000000000000000000000000000000000000000000000000000815260040161273e90614742565b60405180910390fd5b600073ffffffffffffffffffffffffffffffffffffffff168173ffffffffffffffffffffffffffffffffffffffff1614156127b7576040517f08c379a00000000000000000000000000000000000000000000000000000000081526004016127ae9061562b565b60405180910390fd5b6127c081612b24565b50565b6127cb6132f4565b600160008373ffffffffffffffffffffffffffffffffffffffff1673ffffffffffffffffffffffffffffffffffffffff1681526020019081526020016000206040518060e0016040529081600082015481526020016001820160009054906101000a900473ffffffffffffffffffffffffffffffffffffffff1673ffffffffffffffffffffffffffffffffffffffff1673ffffffffffffffffffffffffffffffffffffffff16815260200160028201805461288590614945565b80601f01602080910402602001604051908101604052809291908181526020018280546128b190614945565b80156128fe5780601f106128d3576101008083540402835291602001916128fe565b820191906000526020600020905b8154815290600101906020018083116128e157829003601f168201915b5050505050815260200160038201805461291790614945565b80601f016020809104026020016040519081016040528092919081815260200182805461294390614945565b80156129905780601f1061296557610100808354040283529160200191612990565b820191906000526020600020905b81548152906001019060200180831161297357829003601f168201915b505050505081526020016004820180546129a990614945565b80601f01602080910402602001604051908101604052809291908181526020018280546129d590614945565b8015612a225780601f106129f757610100808354040283529160200191612a22565b820191906000526020600020905b815481529060010190602001808311612a0557829003601f168201915b50505050508152602001600582018054612a3b90614945565b80601f0160208091040260200160405190810160405280929190818152602001828054612a6790614945565b8015612ab45780601f10612a8957610100808354040283529160200191612ab4565b820191906000526020600020905b815481529060010190602001808311612a9757829003601f168201915b5050505050815260200160068201805480602002602001604051908101604052809291908181526020018280548015612b0c57602002820191906000526020600020905b815481526020019060010190808311612af8575b5050505050815250509050919050565b600033905090565b60008060009054906101000a900473ffffffffffffffffffffffffffffffffffffffff169050816000806101000a81548173ffffffffffffffffffffffffffffffffffffffff021916908373ffffffffffffffffffffffffffffffffffffffff1602179055508173ffffffffffffffffffffffffffffffffffffffff168173ffffffffffffffffffffffffffffffffffffffff167f8be0079c531659141344cd1fd0a4f28419497f9722a3daafe3b4186f6b6457e060405160405180910390a35050565b612bf06132f4565b600160006002600085815260200190815260200160002060009054906101000a900473ffffffffffffffffffffffffffffffffffffffff1673ffffffffffffffffffffffffffffffffffffffff1673ffffffffffffffffffffffffffffffffffffffff1681526020019081526020016000206040518060e0016040529081600082015481526020016001820160009054906101000a900473ffffffffffffffffffffffffffffffffffffffff1673ffffffffffffffffffffffffffffffffffffffff1673ffffffffffffffffffffffffffffffffffffffff168152602001600282018054612cdd90614945565b80601f0160208091040260200160405190810160405280929190818152602001828054612d0990614945565b8015612d565780601f10612d2b57610100808354040283529160200191612d56565b820191906000526020600020905b815481529060010190602001808311612d3957829003601f168201915b50505050508152602001600382018054612d6f90614945565b80601f0160208091040260200160405190810160405280929190818152602001828054612d9b90614945565b8015612de85780601f10612dbd57610100808354040283529160200191612de8565b820191906000526020600020905b815481529060010190602001808311612dcb57829003601f168201915b50505050508152602001600482018054612e0190614945565b80601f0160208091040260200160405190810160405280929190818152602001828054612e2d90614945565b8015612e7a5780601f10612e4f57610100808354040283529160200191612e7a565b820191906000526020600020905b815481529060010190602001808311612e5d57829003601f168201915b50505050508152602001600582018054612e9390614945565b80601f0160208091040260200160405190810160405280929190818152602001828054612ebf90614945565b8015612f0c5780601f10612ee157610100808354040283529160200191612f0c565b820191906000526020600020905b815481529060010190602001808311612eef57829003601f168201915b5050505050815260200160068201805480602002602001604051908101604052809291908181526020018280548015612f6457602002820191906000526020600020905b815481526020019060010190808311612f50575b5050505050815250509050919050565b612f7c613347565b600460006005600085815260200190815260200160002060009054906101000a900473ffffffffffffffffffffffffffffffffffffffff1673ffffffffffffffffffffffffffffffffffffffff1673ffffffffffffffffffffffffffffffffffffffff1681526020019081526020016000206040518060c0016040529081600082015481526020016001820160009054906101000a900473ffffffffffffffffffffffffffffffffffffffff1673ffffffffffffffffffffffffffffffffffffffff1673ffffffffffffffffffffffffffffffffffffffff16815260200160028201805461306990614945565b80601f016020809104026020016040519081016040528092919081815260200182805461309590614945565b80156130e25780601f106130b7576101008083540402835291602001916130e2565b820191906000526020600020905b8154815290600101906020018083116130c557829003601f168201915b505050505081526020016003820180546130fb90614945565b80601f016020809104026020016040519081016040528092919081815260200182805461312790614945565b80156131745780601f1061314957610100808354040283529160200191613174565b820191906000526020600020905b81548152906001019060200180831161315757829003601f168201915b5050505050815260200160048201805461318d90614945565b80601f01602080910402602001604051908101604052809291908181526020018280546131b990614945565b80156132065780601f106131db57610100808354040283529160200191613206565b820191906000526020600020905b8154815290600101906020018083116131e957829003601f168201915b505050505081526020016005820180548060200260200160405190810160405280929190818152602001828054801561325e57602002820191906000526020600020905b81548152602001906001019080831161324a575b5050505050815250509050919050565b82805461327a90614945565b90600052602060002090601f01602090048101928261329c57600085556132e3565b82601f106132b557805160ff19168380011785556132e3565b828001600101855582156132e3579182015b828111156132e25782518255916020019190600101906132c7565b5b5090506132f09190613459565b5090565b6040518060e0016040528060008152602001600073ffffffffffffffffffffffffffffffffffffffff16815260200160608152602001606081526020016060815260200160608152602001606081525090565b6040518060c0016040528060008152602001600073ffffffffffffffffffffffffffffffffffffffff168152602001606081526020016060815260200160608152602001606081525090565b6040518060a0016040528060008152602001600081526020016000815260200160008152602001600081525090565b604051806101c001604052806000815260200160008152602001600081526020016000815260200160008152602001600073ffffffffffffffffffffffffffffffffffffffff1681526020016000600681111561342257613421614155565b5b8152602001606081526020016060815260200160608152602001600081526020016000815260200160008152602001606081525090565b5b8082111561347257600081600090555060010161345a565b5090565b6000604051905090565b600080fd5b600080fd5b600073ffffffffffffffffffffffffffffffffffffffff82169050919050565b60006134b58261348a565b9050919050565b6134c5816134aa565b81146134d057600080fd5b50565b6000813590506134e2816134bc565b92915050565b600080fd5b600080fd5b6000601f19601f8301169050919050565b7f4e487b7100000000000000000000000000000000000000000000000000000000600052604160045260246000fd5b61353b826134f2565b810181811067ffffffffffffffff8211171561355a57613559613503565b5b80604052505050565b600061356d613476565b90506135798282613532565b919050565b600067ffffffffffffffff82111561359957613598613503565b5b6135a2826134f2565b9050602081019050919050565b82818337600083830152505050565b60006135d16135cc8461357e565b613563565b9050828152602081018484840111156135ed576135ec6134ed565b5b6135f88482856135af565b509392505050565b600082601f830112613615576136146134e8565b5b81356136258482602086016135be565b91505092915050565b6000806000806080858703121561364857613647613480565b5b6000613656878288016134d3565b945050602085013567ffffffffffffffff81111561367757613676613485565b5b61368387828801613600565b935050604085013567ffffffffffffffff8111156136a4576136a3613485565b5b6136b087828801613600565b925050606085013567ffffffffffffffff8111156136d1576136d0613485565b5b6136dd87828801613600565b91505092959194509250565b6000819050919050565b6136fc816136e9565b811461370757600080fd5b50565b600081359050613719816136f3565b92915050565b60008060008060008060008060006101208a8c03121561374257613741613480565b5b60008a013567ffffffffffffffff8111156137605761375f613485565b5b61376c8c828d01613600565b99505060208a013567ffffffffffffffff81111561378d5761378c613485565b5b6137998c828d01613600565b98505060408a013567ffffffffffffffff8111156137ba576137b9613485565b5b6137c68c828d01613600565b97505060606137d78c828d0161370a565b96505060806137e88c828d0161370a565b95505060a06137f98c828d0161370a565b94505060c061380a8c828d0161370a565b93505060e061381b8c828d0161370a565b92505061010061382d8c828d0161370a565b9150509295985092959850929598565b600080600080600060a0868803121561385957613858613480565b5b6000613867888289016134d3565b955050602086013567ffffffffffffffff81111561388857613887613485565b5b61389488828901613600565b945050604086013567ffffffffffffffff8111156138b5576138b4613485565b5b6138c188828901613600565b935050606086013567ffffffffffffffff8111156138e2576138e1613485565b5b6138ee88828901613600565b925050608086013567ffffffffffffffff81111561390f5761390e613485565b5b61391b88828901613600565b9150509295509295909350565b60006020828403121561393e5761393d613480565b5b600061394c848285016134d3565b91505092915050565b61395e816136e9565b82525050565b61396d816134aa565b82525050565b600081519050919050565b600082825260208201905092915050565b60005b838110156139ad578082015181840152602081019050613992565b838111156139bc576000848401525b50505050565b60006139cd82613973565b6139d7818561397e565b93506139e781856020860161398f565b6139f0816134f2565b840191505092915050565b600060c082019050613a106000830189613955565b613a1d6020830188613964565b8181036040830152613a2f81876139c2565b90508181036060830152613a4381866139c2565b90508181036080830152613a5781856139c2565b905081810360a0830152613a6b81846139c2565b9050979650505050505050565b600060a082019050613a8d6000830188613955565b613a9a6020830187613964565b8181036040830152613aac81866139c2565b90508181036060830152613ac081856139c2565b90508181036080830152613ad481846139c2565b90509695505050505050565b600081519050919050565b600082825260208201905092915050565b6000819050602082019050919050565b613b15816136e9565b82525050565b613b24816134aa565b82525050565b600082825260208201905092915050565b6000613b4682613973565b613b508185613b2a565b9350613b6081856020860161398f565b613b69816134f2565b840191505092915050565b600081519050919050565b600082825260208201905092915050565b6000819050602082019050919050565b6000613bac8383613b0c565b60208301905092915050565b6000602082019050919050565b6000613bd082613b74565b613bda8185613b7f565b9350613be583613b90565b8060005b83811015613c16578151613bfd8882613ba0565b9750613c0883613bb8565b925050600181019050613be9565b5085935050505092915050565b600060e083016000830151613c3b6000860182613b0c565b506020830151613c4e6020860182613b1b565b5060408301518482036040860152613c668282613b3b565b91505060608301518482036060860152613c808282613b3b565b91505060808301518482036080860152613c9a8282613b3b565b91505060a083015184820360a0860152613cb48282613b3b565b91505060c083015184820360c0860152613cce8282613bc5565b9150508091505092915050565b6000613ce78383613c23565b905092915050565b6000602082019050919050565b6000613d0782613ae0565b613d118185613aeb565b935083602082028501613d2385613afc565b8060005b85811015613d5f5784840389528151613d408582613cdb565b9450613d4b83613cef565b925060208a01995050600181019050613d27565b50829750879550505050505092915050565b60006020820190508181036000830152613d8b8184613cfc565b905092915050565b6000602082019050613da86000830184613964565b92915050565b600060c083016000830151613dc66000860182613b0c565b506020830151613dd96020860182613b1b565b5060408301518482036040860152613df18282613b3b565b91505060608301518482036060860152613e0b8282613b3b565b91505060808301518482036080860152613e258282613b3b565b91505060a083015184820360a0860152613e3f8282613bc5565b9150508091505092915050565b60006020820190508181036000830152613e668184613dae565b905092915050565b600081519050919050565b600082825260208201905092915050565b6000819050602082019050919050565b600060c083016000830151613eb26000860182613b0c565b506020830151613ec56020860182613b1b565b5060408301518482036040860152613edd8282613b3b565b91505060608301518482036060860152613ef78282613b3b565b91505060808301518482036080860152613f118282613b3b565b91505060a083015184820360a0860152613f2b8282613bc5565b9150508091505092915050565b6000613f448383613e9a565b905092915050565b6000602082019050919050565b6000613f6482613e6e565b613f6e8185613e79565b935083602082028501613f8085613e8a565b8060005b85811015613fbc5784840389528151613f9d8582613f38565b9450613fa883613f4c565b925060208a01995050600181019050613f84565b50829750879550505050505092915050565b60006020820190508181036000830152613fe88184613f59565b905092915050565b600081519050919050565b600082825260208201905092915050565b6000819050602082019050919050565b60a0820160008201516140326000850182613b0c565b5060208201516140456020850182613b0c565b5060408201516140586040850182613b0c565b50606082015161406b6060850182613b0c565b50608082015161407e6080850182613b0c565b50505050565b6000614090838361401c565b60a08301905092915050565b6000602082019050919050565b60006140b482613ff0565b6140be8185613ffb565b93506140c98361400c565b8060005b838110156140fa5781516140e18882614084565b97506140ec8361409c565b9250506001810190506140cd565b5085935050505092915050565b6000602082019050818103600083015261412181846140a9565b905092915050565b600081519050919050565b600082825260208201905092915050565b6000819050602082019050919050565b7f4e487b7100000000000000000000000000000000000000000000000000000000600052602160045260246000fd5b6007811061419557614194614155565b5b50565b60008190506141a682614184565b919050565b60006141b682614198565b9050919050565b6141c6816141ab565b82525050565b60006101c0830160008301516141e56000860182613b0c565b5060208301516141f86020860182613b0c565b50604083015161420b6040860182613b0c565b50606083015161421e6060860182613b0c565b5060808301516142316080860182613b0c565b5060a083015161424460a0860182613b1b565b5060c083015161425760c08601826141bd565b5060e083015184820360e086015261426f8282613b3b565b91505061010083015184820361010086015261428b8282613b3b565b9150506101208301518482036101208601526142a78282613b3b565b9150506101408301516142be610140860182613b0c565b506101608301516142d3610160860182613b0c565b506101808301516142e8610180860182613b0c565b506101a08301518482036101a08601526143028282613bc5565b9150508091505092915050565b600061431b83836141cc565b905092915050565b6000602082019050919050565b600061433b82614129565b6143458185614134565b93508360208202850161435785614145565b8060005b858110156143935784840389528151614374858261430f565b945061437f83614323565b925060208a0199505060018101905061435b565b50829750879550505050505092915050565b600060208201905081810360008301526143bf8184614330565b905092915050565b600080604083850312156143de576143dd613480565b5b60006143ec8582860161370a565b92505060206143fd8582860161370a565b9150509250929050565b60006020828403121561441d5761441c613480565b5b600061442b8482850161370a565b91505092915050565b60a08201600082015161444a6000850182613b0c565b50602082015161445d6020850182613b0c565b5060408201516144706040850182613b0c565b5060608201516144836060850182613b0c565b5060808201516144966080850182613b0c565b50505050565b600060a0820190506144b16000830184614434565b92915050565b60006101c0830160008301516144d06000860182613b0c565b5060208301516144e36020860182613b0c565b5060408301516144f66040860182613b0c565b5060608301516145096060860182613b0c565b50608083015161451c6080860182613b0c565b5060a083015161452f60a0860182613b1b565b5060c083015161454260c08601826141bd565b5060e083015184820360e086015261455a8282613b3b565b9150506101008301518482036101008601526145768282613b3b565b9150506101208301518482036101208601526145928282613b3b565b9150506101408301516145a9610140860182613b0c565b506101608301516145be610160860182613b0c565b506101808301516145d3610180860182613b0c565b506101a08301518482036101a08601526145ed8282613bc5565b9150508091505092915050565b6000602082019050818103600083015261461481846144b7565b905092915050565b600060e0830160008301516146346000860182613b0c565b5060208301516146476020860182613b1b565b506040830151848203604086015261465f8282613b3b565b915050606083015184820360608601526146798282613b3b565b915050608083015184820360808601526146938282613b3b565b91505060a083015184820360a08601526146ad8282613b3b565b91505060c083015184820360c08601526146c78282613bc5565b9150508091505092915050565b600060208201905081810360008301526146ee818461461c565b905092915050565b7f4f776e61626c653a2063616c6c6572206973206e6f7420746865206f776e6572600082015250565b600061472c60208361397e565b9150614737826146f6565b602082019050919050565b6000602082019050818103600083015261475b8161471f565b9050919050565b7f4c276164726573736520647520646f6e617465757220646f697420c3aa74726560008201527f2064696666c3a972656e7465206465207ac3a9726f0000000000000000000000602082015250565b60006147be60358361397e565b91506147c982614762565b604082019050919050565b600060208201905081810360008301526147ed816147b1565b9050919050565b7f446f6e6f722064c3a96ac3a020656e72656769737472c3a90000000000000000600082015250565b600061482a60188361397e565b9150614835826147f4565b602082019050919050565b600060208201905081810360008301526148598161481d565b9050919050565b7f4e487b7100000000000000000000000000000000000000000000000000000000600052601160045260246000fd5b600061489a826136e9565b91507fffffffffffffffffffffffffffffffffffffffffffffffffffffffffffffffff8214156148cd576148cc614860565b5b600182019050919050565b60006060820190506148ed6000830186613955565b6148fa6020830185613964565b818103604083015261490c81846139c2565b9050949350505050565b7f4e487b7100000000000000000000000000000000000000000000000000000000600052602260045260246000fd5b6000600282049050600182168061495d57607f821691505b6020821081141561497157614970614916565b5b50919050565b7f566f7573206e27c3aa7465732070617320656e72656769737472c3a920656e2060008201527f74616e7420717565204e504f0000000000000000000000000000000000000000602082015250565b60006149d3602c8361397e565b91506149de82614977565b604082019050919050565b60006020820190508181036000830152614a02816149c6565b9050919050565b7f4c6520746974726520657374206f626c696761746f6972650000000000000000600082015250565b6000614a3f60188361397e565b9150614a4a82614a09565b602082019050919050565b60006020820190508181036000830152614a6e81614a32565b9050919050565b7f4c61206465736372697074696f6e20657374206f626c696761746f6972650000600082015250565b6000614aab601e8361397e565b9150614ab682614a75565b602082019050919050565b60006020820190508181036000830152614ada81614a9e565b9050919050565b7f446174652064652064c3a96275742064652070726f6a6574206f626c6967617460008201527f6f69726500000000000000000000000000000000000000000000000000000000602082015250565b6000614b3d60248361397e565b9150614b4882614ae1565b604082019050919050565b60006020820190508181036000830152614b6c81614b30565b9050919050565b7f446174652064652066696e2064652070726f6a6574206f626c696761746f697260008201527f6500000000000000000000000000000000000000000000000000000000000000602082015250565b6000614bcf60218361397e565b9150614bda82614b73565b604082019050919050565b60006020820190508181036000830152614bfe81614bc2565b9050919050565b7f4d6f6e74616e74206d696e696d616c206f626c696761746f6972650000000000600082015250565b6000614c3b601b8361397e565b9150614c4682614c05565b602082019050919050565b60006020820190508181036000830152614c6a81614c2e565b9050919050565b7f4d6f6e74616e74206d6178696d616c206f626c696761746f6972650000000000600082015250565b6000614ca7601b8361397e565b9150614cb282614c71565b602082019050919050565b60006020820190508181036000830152614cd681614c9a565b9050919050565b7f446174652064652064c3a96275742064652063616d7061676e65206f626c696760008201527f61746f6972650000000000000000000000000000000000000000000000000000602082015250565b6000614d3960268361397e565b9150614d4482614cdd565b604082019050919050565b60006020820190508181036000830152614d6881614d2c565b9050919050565b7f447572c3a9652064652063616d7061676e65206f626c696761746f6972650000600082015250565b6000614da5601e8361397e565b9150614db082614d6f565b602082019050919050565b60006020820190508181036000830152614dd481614d98565b9050919050565b7f4c6120646174652064c3a96275742064652070726f6a657420646f697420c3aa60008201527f747265206176616e74206c612066696e00000000000000000000000000000000602082015250565b6000614e3760308361397e565b9150614e4282614ddb565b604082019050919050565b60006020820190508181036000830152614e6681614e2a565b9050919050565b7f4c65206d6f6e74616e74206d696e696d616c20646f697420c3aa74726520696e60008201527f66c3a97269657572206175206d6f6e74616e74206d6178696d616c0000000000602082015250565b6000614ec9603b8361397e565b9150614ed482614e6d565b604082019050919050565b60006020820190508181036000830152614ef881614ebc565b9050919050565b600060c082019050614f146000830189613955565b8181036020830152614f2681886139c2565b9050614f356040830187613955565b614f426060830186613955565b614f4f6080830185613955565b614f5c60a0830184613955565b979650505050505050565b7f4c2761647265737365206475204e504f20646f697420c3aa747265206469666660008201527fc3a972656e7465206465207ac3a9726f00000000000000000000000000000000602082015250565b6000614fc360308361397e565b9150614fce82614f67565b604082019050919050565b60006020820190508181036000830152614ff281614fb6565b9050919050565b7f4c612064c3a96e6f6d696e6174696f6e20657374206f626c696761746f697265600082015250565b600061502f60208361397e565b915061503a82614ff9565b602082019050919050565b6000602082019050818103600083015261505e81615022565b9050919050565b7f4c276164726573736520657374206f626c696761746f69726500000000000000600082015250565b600061509b60198361397e565b91506150a682615065565b602082019050919050565b600060208201905081810360008301526150ca8161508e565b9050919050565b7f4c276f626a657420657374206f626c696761746f697265000000000000000000600082015250565b600061510760178361397e565b9150615112826150d1565b602082019050919050565b60006020820190508181036000830152615136816150fa565b9050919050565b7f4c65207479706520657374206f626c696761746f697265000000000000000000600082015250565b600061517360178361397e565b915061517e8261513d565b602082019050919050565b600060208201905081810360008301526151a281615166565b9050919050565b7f4e504f2064c3a96ac3a020656e72656769737472c3a900000000000000000000600082015250565b60006151df60168361397e565b91506151ea826151a9565b602082019050919050565b6000602082019050818103600083015261520e816151d2565b9050919050565b7f4e487b7100000000000000000000000000000000000000000000000000000000600052603260045260246000fd5b7f566f7573206e27c3aa7465732070617320656e72656769737472c3a920656e2060008201527f74616e742071756520646f6e6174657572000000000000000000000000000000602082015250565b60006152a060318361397e565b91506152ab82615244565b604082019050919050565b600060208201905081810360008301526152cf81615293565b9050919050565b7f50726f6a657420696e636f6e6e75000000000000000000000000000000000000600082015250565b600061530c600e8361397e565b9150615317826152d6565b602082019050919050565b6000602082019050818103600083015261533b816152ff565b9050919050565b600061534d826136e9565b9150615358836136e9565b9250817fffffffffffffffffffffffffffffffffffffffffffffffffffffffffffffffff048311821515161561539157615390614860565b5b828202905092915050565b60006153a7826136e9565b91506153b2836136e9565b9250827fffffffffffffffffffffffffffffffffffffffffffffffffffffffffffffffff038211156153e7576153e6614860565b5b828201905092915050565b7f4c612063616d7061676e65206e276573742070617320636f6d6d656e63c3a965600082015250565b600061542860208361397e565b9150615433826153f2565b602082019050919050565b600060208201905081810360008301526154578161541b565b9050919050565b7f4c612063616d7061676e6520657374207465726d696ec3a96500000000000000600082015250565b600061549460198361397e565b915061549f8261545e565b602082019050919050565b600060208201905081810360008301526154c381615487565b9050919050565b60006060820190506154df6000830186613964565b6154ec6020830185613964565b6154f96040830184613955565b949350505050565b60008115159050919050565b61551681615501565b811461552157600080fd5b50565b6000815190506155338161550d565b92915050565b60006020828403121561554f5761554e613480565b5b600061555d84828501615524565b91505092915050565b600060a08201905061557b6000830188613955565b6155886020830187613955565b6155956040830186613955565b6155a26060830185613955565b6155af6080830184613955565b9695505050505050565b7f4f776e61626c653a206e6577206f776e657220697320746865207a65726f206160008201527f6464726573730000000000000000000000000000000000000000000000000000602082015250565b600061561560268361397e565b9150615620826155b9565b604082019050919050565b6000602082019050818103600083015261564481615608565b905091905056fea264697066735822122014b9b67e95da1923b329a5b55cb15fad4e3c81ed30bf27a559ca6bcd8fd469c664736f6c634300080b0033",
  "immutableReferences": {},
  "source": "// SPDX-License-Identifier: MIT\r\npragma solidity 0.8.11;\r\n \r\nimport \"@openzeppelin/contracts/token/ERC20/ERC20.sol\";\r\nimport \"@openzeppelin/contracts/access/Ownable.sol\";\r\n\r\n/// @title EthicOnChain \r\n/// @author Lahcen E. Dev / Jrme Gauthier\r\n/// @notice EthicOnChain contract to manage NPOs, Projects and Donors\r\ncontract EthicOnChain is Ownable {\r\n    \r\n    struct NPO {\r\n        uint npoId;\r\n        address npoErc20Address;\r\n        string denomination;\r\n        string postalAddress;\r\n        string object;\r\n        string npoType;\r\n        uint[] projectIds;\r\n    }\r\n\r\n    struct Donor {\r\n        uint donorId;\r\n        address donorErc20Address;\r\n        string name;\r\n        string surName;\r\n        string postalAddress;\r\n        uint[] donationIds;\r\n    }\r\n\r\n    struct Project {\r\n        uint projectId; // cl primaire\r\n        uint startDate;\r\n        uint endDate;\r\n        uint campaignStartDate;\r\n        uint campaignDurationInDays;\r\n        address npoErc20Address;\r\n        ProjectCause cause;\r\n        string title;\r\n        string description;\r\n        string geographicalArea;\r\n        uint minAmount;\r\n        uint maxAmount;\r\n        uint projectBalance;\r\n        uint[] donationIds;\r\n    } \r\n\r\n    struct Donation {\r\n        uint donationId; // cl primaire\r\n        uint projectId;\r\n        uint donorId;\r\n        uint donationDate;\r\n        uint donationAmount;\r\n    }     \r\n\r\n    enum ProjectCause {\r\n        LutteContreLaPauvreteEtExclusion,\r\n        EnvironnementEtLesAnimaux,\r\n        Education,\r\n        ArtEtLaCulture,\r\n        SanteEtLaRecherche,\r\n        DroitsDeLHomme,\r\n        InfrastructureRoutiere\r\n    }\r\n\r\n    enum ProjectStatus {\r\n        ProjectProposal, \r\n        WaitingOpening,\r\n        OpenFundRaising,\r\n        CloseFundRaising\r\n    }\r\n\r\n    // NPOs\r\n    mapping (address => NPO) public npoAddresses; //Mapping of all NPO \r\n    mapping (uint => address) private npoMap;\r\n    uint private npoCount; \r\n\r\n    // Donors\r\n    mapping (address => Donor) public donorAddresses; //Mapping of all donors \r\n    mapping (uint => address) private donorMap;\r\n    uint private donorCount; \r\n    \r\n    // Projects\r\n    mapping (uint => Project) projectMap;\r\n    uint projectCount;\r\n    \r\n    // Donations\r\n    mapping (uint => Donation) private donationMap;\r\n    uint private donationCount;\r\n\r\n    // EOC Token address\r\n    address eocTokenAddress;\r\n\r\n    event NpoAdded(uint _poId, address _npoErc20Address, string _denomination);\r\n    event DonorAdded(uint _donorId, address _donorErc20Address, string _donorName);\r\n    event ProjectAdded(uint _projectId, string _title, uint _startDate, uint _endDate, uint _minAmount, uint _maxAmount);\r\n    event DonationAdded(uint _donationId, uint _projectId, uint _donorId, uint _donationDate, uint donationAmount);\r\n    \r\n    /// @dev Initialise the deployed EOC token address for swap\r\n    /// @param _eocTokenAddress EOC Token address\r\n    constructor(address _eocTokenAddress) {\r\n       eocTokenAddress =  _eocTokenAddress;\r\n    }\r\n\r\n    /// @dev The administrator can add a new NPO\r\n    /// @param _npoErc20Address the ERC20 address of the npo\r\n    /// @param _denomination Demonination of the NPO\r\n    /// @param _postalAddress Postal address of the NPO\r\n    /// @param _object object of NPO\r\n    /// @param _npoType Type of npo organization\r\n    function addNpo(\r\n        address _npoErc20Address,\r\n        string memory _denomination,\r\n        string memory _postalAddress,\r\n        string memory _object,\r\n        string memory _npoType) public onlyOwner {\r\n        // Mandatory fields\r\n        require(_npoErc20Address > address(0), unicode\"L'adresse du NPO doit tre diffrente de zro\");\r\n        require(bytes(_denomination).length > 0, unicode\"La dnomination est obligatoire\");\r\n        require(bytes(_postalAddress).length > 0, \"L'adresse est obligatoire\");\r\n        require(bytes(_object).length > 0, \"L'objet est obligatoire\");\r\n        require(bytes(_npoType).length > 0, \"Le type est obligatoire\");\r\n        require(bytes(npoAddresses[_npoErc20Address].denomination).length == 0, unicode\"NPO dj enregistr\");\r\n        \r\n        NPO storage newNpo = npoAddresses[_npoErc20Address];\r\n        newNpo.npoId = npoCount;\r\n        newNpo.npoErc20Address = _npoErc20Address;\r\n        newNpo.denomination = _denomination;\r\n        newNpo.postalAddress = _postalAddress;\r\n        newNpo.object = _object;\r\n        newNpo.npoType = _npoType;\r\n        npoMap[npoCount] = _npoErc20Address;\r\n        npoCount++;\r\n        emit NpoAdded(newNpo.npoId, _npoErc20Address, _denomination);\r\n    }\r\n \r\n    /// @dev The administrator/contract can add a new Donor\r\n    /// @param _donorErc20Address ERC20 address of the donor\r\n    /// @param _name Name of the Donor\r\n    /// @param _surName Surname of the Donor\r\n    /// @param _postalAddress postal address of the donor\r\n    function addDonor(\r\n        address _donorErc20Address,\r\n        string memory _name,\r\n        string memory _surName,\r\n        string memory _postalAddress) public onlyOwner {\r\n        // Mandatory fields\r\n        require(_donorErc20Address > address(0), unicode\"L'adresse du donateur doit tre diffrente de zro\");\r\n        require(donorAddresses[_donorErc20Address].donorErc20Address == address(0), unicode\"Donor dj enregistr\");\r\n\r\n        Donor storage newDonor = donorAddresses[_donorErc20Address];\r\n        newDonor.donorId = donorCount;\r\n        newDonor.name = _name;\r\n        newDonor.surName = _surName;\r\n        newDonor.donorErc20Address=_donorErc20Address;\r\n        newDonor.postalAddress = _postalAddress;\r\n        donorMap[donorCount] = _donorErc20Address;\r\n        donorCount++;\r\n        emit DonorAdded(newDonor.donorId, _donorErc20Address, _name);\r\n    }\r\n \r\n    /// @dev This function will allow to add a project, the owner will be the one who calls the function. \r\n    /// @param _title The title of the project\r\n    /// @param _description description of the project\r\n    /// @param _geographicalArea the geographical area where the project will be located.\r\n    /// @param _startDate The start date of the project\r\n    /// @param _endDate The end of the project\r\n    /// @param _campaignStartDate the beginning of the collection of funds\r\n    /// @param _campaignDurationInDays the duration of the collection of funds\r\n    /// @param _minAmount The minimum price for the project to be valid\r\n    /// @param _maxAmount The maximum price to make the project a success \r\n    function addProject(\r\n        string memory _title,\r\n        string memory _description,\r\n        string memory _geographicalArea,\r\n        uint _startDate,\r\n        uint _endDate,\r\n        uint _campaignStartDate,\r\n        uint _campaignDurationInDays,\r\n        uint _minAmount,\r\n        uint _maxAmount\r\n    ) public {\r\n        NPO storage projectNpo = npoAddresses[msg.sender];\r\n        require(bytes(projectNpo.denomination).length != 0, unicode\"Vous n'tes pas enregistr en tant que NPO\");\r\n        // Mandatory fields\r\n        require(bytes(_title).length > 0, \"Le titre est obligatoire\");\r\n        require(bytes(_description).length > 0, \"La description est obligatoire\");\r\n        require(_startDate > 0, unicode\"Date de dbut de projet obligatoire\");\r\n        require(_endDate > 0, \"Date de fin de projet obligatoire\");\r\n        require(_minAmount > 0, \"Montant minimal obligatoire\");\r\n        require(_maxAmount > 0, \"Montant maximal obligatoire\");\r\n        require(_campaignStartDate > 0, unicode\"Date de dbut de campagne obligatoire\");\r\n        require(_campaignDurationInDays > 0, unicode\"Dure de campagne obligatoire\");\r\n        // Comparisons\r\n        require(_startDate < _endDate, unicode\"La date dbut de projet doit tre avant la fin\");\r\n        require(_minAmount < _maxAmount, unicode\"Le montant minimal doit tre infrieur au montant maximal\");\r\n\r\n        Project storage newProject = projectMap[projectCount];\r\n        newProject.projectId = projectCount;\r\n        newProject.npoErc20Address = msg.sender;\r\n        newProject.title = _title;\r\n        // TODO = voir comment grer le Project Cause en fonction de son enum\r\n        newProject.description = _description;\r\n        newProject.geographicalArea = _geographicalArea;\r\n        newProject.startDate = _startDate;\r\n        newProject.endDate = _endDate;\r\n        newProject.campaignStartDate = _campaignStartDate;\r\n        newProject.campaignDurationInDays = _campaignDurationInDays;\r\n        newProject.minAmount = _minAmount;\r\n        newProject.maxAmount = _maxAmount;\r\n        projectNpo.projectIds.push(projectCount);\r\n\r\n        projectCount++;\r\n        emit ProjectAdded(newProject.projectId, _title,  _startDate, _endDate, _minAmount, _maxAmount);\r\n    } \r\n\r\n    /// @dev Add a Donation struct in global donationMap\r\n    /// @param _projectId id of the project for which the donation is done\r\n    /// @param _donationAmount amount of the donation in EOC tokens\r\n    function addDonation(uint _projectId, uint _donationAmount) public {\r\n        Donor storage donationDonor = donorAddresses[msg.sender];\r\n        require(donationDonor.donorErc20Address != address(0), unicode\"Vous n'tes pas enregistr en tant que donateur\"); // concept de KYC\r\n        Project storage donationProject = projectMap[_projectId];\r\n        require(bytes(donationProject.title).length != 0, \"Projet inconnu\");\r\n        // donation possible seulement si dans priode de campagne\r\n        uint campaignEndDate = donationProject.campaignStartDate + donationProject.campaignDurationInDays * 1 days;\r\n        require(block.timestamp > donationProject.campaignStartDate, unicode\"La campagne n'est pas commence\");\r\n        require(block.timestamp < campaignEndDate, unicode\"La campagne est termine\");\r\n\r\n        Donation storage newDonation = donationMap[donationCount];\r\n        newDonation.donationId = donationCount;\r\n        newDonation.projectId = _projectId;\r\n        newDonation.donorId = donationDonor.donorId;\r\n        newDonation.donationDate = block.timestamp;\r\n        newDonation.donationAmount = _donationAmount;\r\n        \r\n        donationDonor.donationIds.push(donationCount); // mise  jour de l'historique des donations pour le donateur\r\n        \r\n        donationProject.projectBalance += _donationAmount; // mise  jour de la balance du projet\r\n        donationProject.donationIds.push(donationCount); // mise  jour de l'historique des donations pour le projet\r\n        donationCount++;\r\n        \r\n        // transfert de la donation du donateur vers le contrat\r\n        // le donateur devra avoir pralablement approuv (fonction approve du token - un minimum = le montant  transfrer)\r\n        // le contrat  transfrer les tokens de l'addresse du donateur vers l'adresse du contrat\r\n        IERC20(eocTokenAddress).transferFrom(msg.sender, address(this), _donationAmount);\r\n        //TODO PLUS TARD creation d'un escrow contract pour ne pas verser tous les tokens dans le mme contrat gnral\r\n        emit DonationAdded(newDonation.donationId, newDonation.projectId, newDonation.donorId, newDonation.donationDate, newDonation.donationAmount);\r\n    }\r\n\r\n    /// @dev  get an NPO via its erc20 address\r\n    /// @param _npoErc20Address erc20 address of the NPO\r\n    /// @return returns the corresponding NPO struct\r\n    function getNpo(address _npoErc20Address) public view returns(NPO memory) {\r\n        return npoAddresses[_npoErc20Address];\r\n    }\r\n\r\n    /// @dev  get an NPO via its id\r\n    /// @param _npoId id of the NPO\r\n    /// @return returns the corresponding NPO struct\r\n    function getNpoByIndex(uint _npoId) internal view returns(NPO memory) {\r\n        return npoAddresses[npoMap[_npoId]];\r\n    }\r\n\r\n    /// @dev  get all NPOs\r\n    /// @return returns an array of all NPOs\r\n    function getNpos() public view returns(NPO [] memory) {\r\n        uint arraySize = npoCount;\r\n        NPO [] memory result= new NPO[](arraySize);\r\n        for(uint i; i < arraySize; i++) {\r\n            result[i] = getNpoByIndex(i);     \r\n        }\r\n        return result;\r\n    }\r\n\r\n    /// @dev  get a Donor via its erc20 address\r\n    /// @param _donorErc20Address erc20 address of the Donor\r\n    /// @return returns the corresponding Donor struct\r\n    function getDonor(address _donorErc20Address) public view returns(Donor memory) {\r\n        return donorAddresses[_donorErc20Address];\r\n    }\r\n\r\n    /// @dev  get a Donor via its id\r\n    /// @param _donorId id of the Donor\r\n    /// @return returns the corresponding Donor struct\r\n    function getDonorByIndex(uint _donorId) internal view returns(Donor memory) {\r\n        return donorAddresses[donorMap[_donorId]];\r\n    }\r\n\r\n    /// @dev  get all Donors\r\n    /// @return returns an array of all Donors\r\n    function getDonors() public view returns(Donor [] memory) {\r\n        uint arraySize = donorCount;\r\n        Donor [] memory result = new Donor[](arraySize);\r\n        for(uint i; i < arraySize; i++) {\r\n            result[i] = getDonorByIndex(i);     \r\n        }\r\n        return result;\r\n    }\r\n\r\n    /// @dev Returns a single Project\r\n    /// @param _projectId project unique id\r\n    /// @return the Project struct instance corresponding to _projectId\r\n    function getProject(uint _projectId) public view returns(Project memory) {\r\n        return projectMap[_projectId];\r\n    }\r\n\r\n    /// @dev  get all projects\r\n    /// @return returns an array of all Project\r\n    function getProjects() public view returns(Project [] memory) {\r\n        uint arraySize = projectCount;\r\n        Project [] memory result= new Project[](arraySize);\r\n        for(uint i; i < arraySize; i++) {\r\n            result[i] = projectMap[i];     \r\n        }\r\n        return result;\r\n    }\r\n    /// @dev  get Donation by id\r\n    /// param _id index pour retrouver la donation a retourner\r\n    /// @return a struct donation \r\n    function getDonation(uint _id) public view returns(Donation memory) {\r\n        return donationMap[_id];\r\n    }\r\n\r\n    /// @dev Allows to know all the donations of a single donor\r\n    /// @param _addressNpo id which represents the index\r\n    /// @return Returns an array of all donation of a single donor\r\n    function getDonationPerDonor(address _addressNpo) public view  returns(Donation [] memory ) {\r\n        uint arraySize = donorAddresses[_addressNpo].donationIds.length;\r\n        Donation [] memory result= new Donation[](arraySize);\r\n        for(uint i; i < arraySize; i++) {\r\n            uint index = donorAddresses[_addressNpo].donationIds[i];\r\n            result[i] = getDonation(index);     \r\n        }\r\n        return result;\r\n    }\r\n\r\n\r\n    /// @dev Allows to know all the projects of a single NPO\r\n    /// @param _addressNpo id which represents the index\r\n    /// @return Returns an array of all projects of a single NPO\r\n    function getProjectsPerNpo(address _addressNpo) public view  returns(Project [] memory ) {\r\n        uint arraySize = npoAddresses[_addressNpo].projectIds.length;\r\n        Project [] memory result= new Project[](arraySize);\r\n        for(uint i; i < arraySize; i++) {\r\n            uint index = npoAddresses[_addressNpo].projectIds[i];\r\n            result[i] = getProject(index);     \r\n        }\r\n        return result;\r\n    }\r\n}",
  "sourcePath": "D:\\DOCUMENTS\\ALYRA\\PROJET\\ethic-on-chain\\contracts\\EthicOnChain.sol",
  "compiler": {
    "name": "solc",
    "version": "0.8.11+commit.d7f03943.Emscripten.clang"
  },
  "schemaVersion": "3.4.4",
  "updatedAt": "2022-01-02T16:53:00.022Z",
  "networkType": "ethereum",
  "devdoc": {
    "author": "Lahcen E. Dev / Jrme Gauthier",
    "kind": "dev",
    "methods": {
      "addDonation(uint256,uint256)": {
        "details": "Add a Donation struct in global donationMap",
        "params": {
          "_donationAmount": "amount of the donation in EOC tokens",
          "_projectId": "id of the project for which the donation is done"
        }
      },
      "addDonor(address,string,string,string)": {
        "details": "The administrator/contract can add a new Donor",
        "params": {
          "_donorErc20Address": "ERC20 address of the donor",
          "_name": "Name of the Donor",
          "_postalAddress": "postal address of the donor",
          "_surName": "Surname of the Donor"
        }
      },
      "addNpo(address,string,string,string,string)": {
        "details": "The administrator can add a new NPO",
        "params": {
          "_denomination": "Demonination of the NPO",
          "_npoErc20Address": "the ERC20 address of the npo",
          "_npoType": "Type of npo organization",
          "_object": "object of NPO",
          "_postalAddress": "Postal address of the NPO"
        }
      },
      "addProject(string,string,string,uint256,uint256,uint256,uint256,uint256,uint256)": {
        "details": "This function will allow to add a project, the owner will be the one who calls the function. ",
        "params": {
          "_campaignDurationInDays": "the duration of the collection of funds",
          "_campaignStartDate": "the beginning of the collection of funds",
          "_description": "description of the project",
          "_endDate": "The end of the project",
          "_geographicalArea": "the geographical area where the project will be located.",
          "_maxAmount": "The maximum price to make the project a success ",
          "_minAmount": "The minimum price for the project to be valid",
          "_startDate": "The start date of the project",
          "_title": "The title of the project"
        }
      },
      "constructor": {
        "details": "Initialise the deployed EOC token address for swap",
        "params": {
          "_eocTokenAddress": "EOC Token address"
        }
      },
      "getDonation(uint256)": {
        "details": "get Donation by id param _id index pour retrouver la donation a retourner",
        "returns": {
          "_0": "a struct donation "
        }
      },
      "getDonationPerDonor(address)": {
        "details": "Allows to know all the donations of a single donor",
        "params": {
          "_addressNpo": "id which represents the index"
        },
        "returns": {
          "_0": "Returns an array of all donation of a single donor"
        }
      },
      "getDonor(address)": {
        "details": "get a Donor via its erc20 address",
        "params": {
          "_donorErc20Address": "erc20 address of the Donor"
        },
        "returns": {
          "_0": "returns the corresponding Donor struct"
        }
      },
      "getDonors()": {
        "details": "get all Donors",
        "returns": {
          "_0": "returns an array of all Donors"
        }
      },
      "getNpo(address)": {
        "details": "get an NPO via its erc20 address",
        "params": {
          "_npoErc20Address": "erc20 address of the NPO"
        },
        "returns": {
          "_0": "returns the corresponding NPO struct"
        }
      },
      "getNpos()": {
        "details": "get all NPOs",
        "returns": {
          "_0": "returns an array of all NPOs"
        }
      },
      "getProject(uint256)": {
        "details": "Returns a single Project",
        "params": {
          "_projectId": "project unique id"
        },
        "returns": {
          "_0": "the Project struct instance corresponding to _projectId"
        }
      },
      "getProjects()": {
        "details": "get all projects",
        "returns": {
          "_0": "returns an array of all Project"
        }
      },
      "getProjectsPerNpo(address)": {
        "details": "Allows to know all the projects of a single NPO",
        "params": {
          "_addressNpo": "id which represents the index"
        },
        "returns": {
          "_0": "Returns an array of all projects of a single NPO"
        }
      },
      "owner()": {
        "details": "Returns the address of the current owner."
      },
      "renounceOwnership()": {
        "details": "Leaves the contract without owner. It will not be possible to call `onlyOwner` functions anymore. Can only be called by the current owner. NOTE: Renouncing ownership will leave the contract without an owner, thereby removing any functionality that is only available to the owner."
      },
      "transferOwnership(address)": {
        "details": "Transfers ownership of the contract to a new account (`newOwner`). Can only be called by the current owner."
      }
    },
    "title": "EthicOnChain ",
    "version": 1
  },
  "userdoc": {
    "kind": "user",
    "methods": {},
    "notice": "EthicOnChain contract to manage NPOs, Projects and Donors",
    "version": 1
  }
}