{
  "contractName": "EthicOnChain",
  "abi": [
    {
      "inputs": [
        {
          "internalType": "address",
          "name": "_eocTokenAddress",
          "type": "address"
        }
      ],
      "stateMutability": "nonpayable",
      "type": "constructor"
    },
    {
      "anonymous": false,
      "inputs": [
        {
          "indexed": false,
          "internalType": "uint256",
          "name": "_donationId",
          "type": "uint256"
        },
        {
          "indexed": false,
          "internalType": "uint256",
          "name": "_projectId",
          "type": "uint256"
        },
        {
          "indexed": false,
          "internalType": "uint256",
          "name": "_donorId",
          "type": "uint256"
        },
        {
          "indexed": false,
          "internalType": "uint256",
          "name": "_donationDate",
          "type": "uint256"
        },
        {
          "indexed": false,
          "internalType": "uint256",
          "name": "donationAmount",
          "type": "uint256"
        }
      ],
      "name": "DonationAdded",
      "type": "event"
    },
    {
      "anonymous": false,
      "inputs": [
        {
          "indexed": false,
          "internalType": "uint256",
          "name": "_donorId",
          "type": "uint256"
        },
        {
          "indexed": false,
          "internalType": "address",
          "name": "_donorErc20Address",
          "type": "address"
        },
        {
          "indexed": false,
          "internalType": "string",
          "name": "_donorName",
          "type": "string"
        }
      ],
      "name": "DonorAdded",
      "type": "event"
    },
    {
      "anonymous": false,
      "inputs": [
        {
          "indexed": false,
          "internalType": "uint256",
          "name": "_poId",
          "type": "uint256"
        },
        {
          "indexed": false,
          "internalType": "address",
          "name": "_npoErc20Address",
          "type": "address"
        },
        {
          "indexed": false,
          "internalType": "string",
          "name": "_denomination",
          "type": "string"
        }
      ],
      "name": "NpoAdded",
      "type": "event"
    },
    {
      "anonymous": false,
      "inputs": [
        {
          "indexed": true,
          "internalType": "address",
          "name": "previousOwner",
          "type": "address"
        },
        {
          "indexed": true,
          "internalType": "address",
          "name": "newOwner",
          "type": "address"
        }
      ],
      "name": "OwnershipTransferred",
      "type": "event"
    },
    {
      "anonymous": false,
      "inputs": [
        {
          "indexed": false,
          "internalType": "uint256",
          "name": "_projectId",
          "type": "uint256"
        },
        {
          "indexed": false,
          "internalType": "string",
          "name": "_title",
          "type": "string"
        },
        {
          "indexed": false,
          "internalType": "uint256",
          "name": "_startDate",
          "type": "uint256"
        },
        {
          "indexed": false,
          "internalType": "uint256",
          "name": "_endDate",
          "type": "uint256"
        },
        {
          "indexed": false,
          "internalType": "uint256",
          "name": "_minAmount",
          "type": "uint256"
        },
        {
          "indexed": false,
          "internalType": "uint256",
          "name": "_maxAmount",
          "type": "uint256"
        }
      ],
      "name": "ProjectAdded",
      "type": "event"
    },
    {
      "anonymous": false,
      "inputs": [
        {
          "indexed": false,
          "internalType": "uint256",
          "name": "_withdrawalId",
          "type": "uint256"
        },
        {
          "indexed": false,
          "internalType": "uint256",
          "name": "_projectId",
          "type": "uint256"
        },
        {
          "indexed": false,
          "internalType": "uint256",
          "name": "_amount",
          "type": "uint256"
        },
        {
          "indexed": false,
          "internalType": "address",
          "name": "_addressRecipent",
          "type": "address"
        }
      ],
      "name": "TokensWithdrawn",
      "type": "event"
    },
    {
      "inputs": [
        {
          "internalType": "address",
          "name": "",
          "type": "address"
        }
      ],
      "name": "donorAddresses",
      "outputs": [
        {
          "internalType": "uint256",
          "name": "donorId",
          "type": "uint256"
        },
        {
          "internalType": "address",
          "name": "donorErc20Address",
          "type": "address"
        },
        {
          "internalType": "string",
          "name": "name",
          "type": "string"
        },
        {
          "internalType": "string",
          "name": "surName",
          "type": "string"
        },
        {
          "internalType": "string",
          "name": "postalAddress",
          "type": "string"
        }
      ],
      "stateMutability": "view",
      "type": "function",
      "constant": true
    },
    {
      "inputs": [
        {
          "internalType": "address",
          "name": "",
          "type": "address"
        }
      ],
      "name": "npoAddresses",
      "outputs": [
        {
          "internalType": "uint256",
          "name": "npoId",
          "type": "uint256"
        },
        {
          "internalType": "address",
          "name": "npoErc20Address",
          "type": "address"
        },
        {
          "internalType": "string",
          "name": "denomination",
          "type": "string"
        },
        {
          "internalType": "string",
          "name": "postalAddress",
          "type": "string"
        },
        {
          "internalType": "string",
          "name": "object",
          "type": "string"
        },
        {
          "internalType": "string",
          "name": "npoType",
          "type": "string"
        }
      ],
      "stateMutability": "view",
      "type": "function",
      "constant": true
    },
    {
      "inputs": [],
      "name": "owner",
      "outputs": [
        {
          "internalType": "address",
          "name": "",
          "type": "address"
        }
      ],
      "stateMutability": "view",
      "type": "function",
      "constant": true
    },
    {
      "inputs": [],
      "name": "renounceOwnership",
      "outputs": [],
      "stateMutability": "nonpayable",
      "type": "function"
    },
    {
      "inputs": [
        {
          "internalType": "address",
          "name": "newOwner",
          "type": "address"
        }
      ],
      "name": "transferOwnership",
      "outputs": [],
      "stateMutability": "nonpayable",
      "type": "function"
    },
    {
      "inputs": [
        {
          "internalType": "address",
          "name": "_npoErc20Address",
          "type": "address"
        },
        {
          "internalType": "string",
          "name": "_denomination",
          "type": "string"
        },
        {
          "internalType": "string",
          "name": "_postalAddress",
          "type": "string"
        },
        {
          "internalType": "string",
          "name": "_object",
          "type": "string"
        },
        {
          "internalType": "string",
          "name": "_npoType",
          "type": "string"
        }
      ],
      "name": "addNpo",
      "outputs": [],
      "stateMutability": "nonpayable",
      "type": "function"
    },
    {
      "inputs": [
        {
          "internalType": "address",
          "name": "_donorErc20Address",
          "type": "address"
        },
        {
          "internalType": "string",
          "name": "_name",
          "type": "string"
        },
        {
          "internalType": "string",
          "name": "_surName",
          "type": "string"
        },
        {
          "internalType": "string",
          "name": "_postalAddress",
          "type": "string"
        }
      ],
      "name": "addDonor",
      "outputs": [],
      "stateMutability": "nonpayable",
      "type": "function"
    },
    {
      "inputs": [
        {
          "internalType": "string",
          "name": "_title",
          "type": "string"
        },
        {
          "internalType": "string",
          "name": "_description",
          "type": "string"
        },
        {
          "internalType": "string",
          "name": "_geographicalArea",
          "type": "string"
        },
        {
          "internalType": "uint256",
          "name": "_startDate",
          "type": "uint256"
        },
        {
          "internalType": "uint256",
          "name": "_endDate",
          "type": "uint256"
        },
        {
          "internalType": "uint256",
          "name": "_campaignStartDate",
          "type": "uint256"
        },
        {
          "internalType": "uint256",
          "name": "_campaignDurationInDays",
          "type": "uint256"
        },
        {
          "internalType": "uint256",
          "name": "_minAmount",
          "type": "uint256"
        },
        {
          "internalType": "uint256",
          "name": "_maxAmount",
          "type": "uint256"
        }
      ],
      "name": "addProject",
      "outputs": [],
      "stateMutability": "nonpayable",
      "type": "function"
    },
    {
      "inputs": [
        {
          "internalType": "uint256",
          "name": "_projectId",
          "type": "uint256"
        },
        {
          "internalType": "uint256",
          "name": "_donationAmount",
          "type": "uint256"
        }
      ],
      "name": "addDonation",
      "outputs": [],
      "stateMutability": "nonpayable",
      "type": "function"
    },
    {
      "inputs": [
        {
          "internalType": "uint256",
          "name": "_projectId",
          "type": "uint256"
        },
        {
          "internalType": "uint256",
          "name": "_amount",
          "type": "uint256"
        },
        {
          "internalType": "string",
          "name": "_title",
          "type": "string"
        },
        {
          "internalType": "string",
          "name": "_description",
          "type": "string"
        }
      ],
      "name": "withdrawTokens",
      "outputs": [],
      "stateMutability": "nonpayable",
      "type": "function"
    },
    {
      "inputs": [
        {
          "internalType": "address",
          "name": "_npoErc20Address",
          "type": "address"
        }
      ],
      "name": "getNpo",
      "outputs": [
        {
          "components": [
            {
              "internalType": "uint256",
              "name": "npoId",
              "type": "uint256"
            },
            {
              "internalType": "address",
              "name": "npoErc20Address",
              "type": "address"
            },
            {
              "internalType": "string",
              "name": "denomination",
              "type": "string"
            },
            {
              "internalType": "string",
              "name": "postalAddress",
              "type": "string"
            },
            {
              "internalType": "string",
              "name": "object",
              "type": "string"
            },
            {
              "internalType": "string",
              "name": "npoType",
              "type": "string"
            },
            {
              "internalType": "uint256[]",
              "name": "projectIds",
              "type": "uint256[]"
            },
            {
              "internalType": "uint256[]",
              "name": "withdrawalIds",
              "type": "uint256[]"
            }
          ],
          "internalType": "struct EthicOnChainLib.NPO",
          "name": "",
          "type": "tuple"
        }
      ],
      "stateMutability": "view",
      "type": "function",
      "constant": true
    },
    {
      "inputs": [],
      "name": "getNpos",
      "outputs": [
        {
          "components": [
            {
              "internalType": "uint256",
              "name": "npoId",
              "type": "uint256"
            },
            {
              "internalType": "address",
              "name": "npoErc20Address",
              "type": "address"
            },
            {
              "internalType": "string",
              "name": "denomination",
              "type": "string"
            },
            {
              "internalType": "string",
              "name": "postalAddress",
              "type": "string"
            },
            {
              "internalType": "string",
              "name": "object",
              "type": "string"
            },
            {
              "internalType": "string",
              "name": "npoType",
              "type": "string"
            },
            {
              "internalType": "uint256[]",
              "name": "projectIds",
              "type": "uint256[]"
            },
            {
              "internalType": "uint256[]",
              "name": "withdrawalIds",
              "type": "uint256[]"
            }
          ],
          "internalType": "struct EthicOnChainLib.NPO[]",
          "name": "",
          "type": "tuple[]"
        }
      ],
      "stateMutability": "view",
      "type": "function",
      "constant": true
    },
    {
      "inputs": [
        {
          "internalType": "address",
          "name": "_donorErc20Address",
          "type": "address"
        }
      ],
      "name": "getDonor",
      "outputs": [
        {
          "components": [
            {
              "internalType": "uint256",
              "name": "donorId",
              "type": "uint256"
            },
            {
              "internalType": "address",
              "name": "donorErc20Address",
              "type": "address"
            },
            {
              "internalType": "string",
              "name": "name",
              "type": "string"
            },
            {
              "internalType": "string",
              "name": "surName",
              "type": "string"
            },
            {
              "internalType": "string",
              "name": "postalAddress",
              "type": "string"
            },
            {
              "internalType": "uint256[]",
              "name": "donationIds",
              "type": "uint256[]"
            }
          ],
          "internalType": "struct EthicOnChainLib.Donor",
          "name": "",
          "type": "tuple"
        }
      ],
      "stateMutability": "view",
      "type": "function",
      "constant": true
    },
    {
      "inputs": [],
      "name": "getDonors",
      "outputs": [
        {
          "components": [
            {
              "internalType": "uint256",
              "name": "donorId",
              "type": "uint256"
            },
            {
              "internalType": "address",
              "name": "donorErc20Address",
              "type": "address"
            },
            {
              "internalType": "string",
              "name": "name",
              "type": "string"
            },
            {
              "internalType": "string",
              "name": "surName",
              "type": "string"
            },
            {
              "internalType": "string",
              "name": "postalAddress",
              "type": "string"
            },
            {
              "internalType": "uint256[]",
              "name": "donationIds",
              "type": "uint256[]"
            }
          ],
          "internalType": "struct EthicOnChainLib.Donor[]",
          "name": "",
          "type": "tuple[]"
        }
      ],
      "stateMutability": "view",
      "type": "function",
      "constant": true
    },
    {
      "inputs": [
        {
          "internalType": "uint256",
          "name": "_projectId",
          "type": "uint256"
        }
      ],
      "name": "getProject",
      "outputs": [
        {
          "components": [
            {
              "internalType": "uint256",
              "name": "projectId",
              "type": "uint256"
            },
            {
              "internalType": "uint256",
              "name": "startDate",
              "type": "uint256"
            },
            {
              "internalType": "uint256",
              "name": "endDate",
              "type": "uint256"
            },
            {
              "internalType": "uint256",
              "name": "campaignStartDate",
              "type": "uint256"
            },
            {
              "internalType": "uint256",
              "name": "campaignDurationInDays",
              "type": "uint256"
            },
            {
              "internalType": "uint256",
              "name": "minAmount",
              "type": "uint256"
            },
            {
              "internalType": "uint256",
              "name": "maxAmount",
              "type": "uint256"
            },
            {
              "internalType": "uint256",
              "name": "projectBalance",
              "type": "uint256"
            },
            {
              "internalType": "uint256",
              "name": "projectTotalDonations",
              "type": "uint256"
            },
            {
              "internalType": "address",
              "name": "npoErc20Address",
              "type": "address"
            },
            {
              "internalType": "enum EthicOnChainLib.ProjectCause",
              "name": "cause",
              "type": "uint8"
            },
            {
              "internalType": "enum EthicOnChainLib.ProjectStatus",
              "name": "status",
              "type": "uint8"
            },
            {
              "internalType": "string",
              "name": "title",
              "type": "string"
            },
            {
              "internalType": "string",
              "name": "description",
              "type": "string"
            },
            {
              "internalType": "string",
              "name": "geographicalArea",
              "type": "string"
            },
            {
              "internalType": "uint256[]",
              "name": "donationIds",
              "type": "uint256[]"
            },
            {
              "internalType": "uint256[]",
              "name": "withdrawalIds",
              "type": "uint256[]"
            }
          ],
          "internalType": "struct EthicOnChainLib.Project",
          "name": "",
          "type": "tuple"
        }
      ],
      "stateMutability": "view",
      "type": "function",
      "constant": true
    },
    {
      "inputs": [],
      "name": "getProjects",
      "outputs": [
        {
          "components": [
            {
              "internalType": "uint256",
              "name": "projectId",
              "type": "uint256"
            },
            {
              "internalType": "uint256",
              "name": "startDate",
              "type": "uint256"
            },
            {
              "internalType": "uint256",
              "name": "endDate",
              "type": "uint256"
            },
            {
              "internalType": "uint256",
              "name": "campaignStartDate",
              "type": "uint256"
            },
            {
              "internalType": "uint256",
              "name": "campaignDurationInDays",
              "type": "uint256"
            },
            {
              "internalType": "uint256",
              "name": "minAmount",
              "type": "uint256"
            },
            {
              "internalType": "uint256",
              "name": "maxAmount",
              "type": "uint256"
            },
            {
              "internalType": "uint256",
              "name": "projectBalance",
              "type": "uint256"
            },
            {
              "internalType": "uint256",
              "name": "projectTotalDonations",
              "type": "uint256"
            },
            {
              "internalType": "address",
              "name": "npoErc20Address",
              "type": "address"
            },
            {
              "internalType": "enum EthicOnChainLib.ProjectCause",
              "name": "cause",
              "type": "uint8"
            },
            {
              "internalType": "enum EthicOnChainLib.ProjectStatus",
              "name": "status",
              "type": "uint8"
            },
            {
              "internalType": "string",
              "name": "title",
              "type": "string"
            },
            {
              "internalType": "string",
              "name": "description",
              "type": "string"
            },
            {
              "internalType": "string",
              "name": "geographicalArea",
              "type": "string"
            },
            {
              "internalType": "uint256[]",
              "name": "donationIds",
              "type": "uint256[]"
            },
            {
              "internalType": "uint256[]",
              "name": "withdrawalIds",
              "type": "uint256[]"
            }
          ],
          "internalType": "struct EthicOnChainLib.Project[]",
          "name": "",
          "type": "tuple[]"
        }
      ],
      "stateMutability": "view",
      "type": "function",
      "constant": true
    },
    {
      "inputs": [
        {
          "internalType": "address",
          "name": "_addressNpo",
          "type": "address"
        }
      ],
      "name": "getProjectsPerNpo",
      "outputs": [
        {
          "components": [
            {
              "internalType": "uint256",
              "name": "projectId",
              "type": "uint256"
            },
            {
              "internalType": "uint256",
              "name": "startDate",
              "type": "uint256"
            },
            {
              "internalType": "uint256",
              "name": "endDate",
              "type": "uint256"
            },
            {
              "internalType": "uint256",
              "name": "campaignStartDate",
              "type": "uint256"
            },
            {
              "internalType": "uint256",
              "name": "campaignDurationInDays",
              "type": "uint256"
            },
            {
              "internalType": "uint256",
              "name": "minAmount",
              "type": "uint256"
            },
            {
              "internalType": "uint256",
              "name": "maxAmount",
              "type": "uint256"
            },
            {
              "internalType": "uint256",
              "name": "projectBalance",
              "type": "uint256"
            },
            {
              "internalType": "uint256",
              "name": "projectTotalDonations",
              "type": "uint256"
            },
            {
              "internalType": "address",
              "name": "npoErc20Address",
              "type": "address"
            },
            {
              "internalType": "enum EthicOnChainLib.ProjectCause",
              "name": "cause",
              "type": "uint8"
            },
            {
              "internalType": "enum EthicOnChainLib.ProjectStatus",
              "name": "status",
              "type": "uint8"
            },
            {
              "internalType": "string",
              "name": "title",
              "type": "string"
            },
            {
              "internalType": "string",
              "name": "description",
              "type": "string"
            },
            {
              "internalType": "string",
              "name": "geographicalArea",
              "type": "string"
            },
            {
              "internalType": "uint256[]",
              "name": "donationIds",
              "type": "uint256[]"
            },
            {
              "internalType": "uint256[]",
              "name": "withdrawalIds",
              "type": "uint256[]"
            }
          ],
          "internalType": "struct EthicOnChainLib.Project[]",
          "name": "",
          "type": "tuple[]"
        }
      ],
      "stateMutability": "view",
      "type": "function",
      "constant": true
    },
    {
      "inputs": [
        {
          "internalType": "uint256",
          "name": "_id",
          "type": "uint256"
        }
      ],
      "name": "getDonation",
      "outputs": [
        {
          "components": [
            {
              "internalType": "uint256",
              "name": "donationId",
              "type": "uint256"
            },
            {
              "internalType": "uint256",
              "name": "projectId",
              "type": "uint256"
            },
            {
              "internalType": "uint256",
              "name": "donorId",
              "type": "uint256"
            },
            {
              "internalType": "uint256",
              "name": "donationDate",
              "type": "uint256"
            },
            {
              "internalType": "uint256",
              "name": "donationAmount",
              "type": "uint256"
            }
          ],
          "internalType": "struct EthicOnChainLib.Donation",
          "name": "",
          "type": "tuple"
        }
      ],
      "stateMutability": "view",
      "type": "function",
      "constant": true
    },
    {
      "inputs": [
        {
          "internalType": "address",
          "name": "_donorAddress",
          "type": "address"
        }
      ],
      "name": "getDonationPerDonor",
      "outputs": [
        {
          "components": [
            {
              "internalType": "uint256",
              "name": "donationId",
              "type": "uint256"
            },
            {
              "internalType": "uint256",
              "name": "projectId",
              "type": "uint256"
            },
            {
              "internalType": "uint256",
              "name": "donorId",
              "type": "uint256"
            },
            {
              "internalType": "uint256",
              "name": "donationDate",
              "type": "uint256"
            },
            {
              "internalType": "uint256",
              "name": "donationAmount",
              "type": "uint256"
            }
          ],
          "internalType": "struct EthicOnChainLib.Donation[]",
          "name": "",
          "type": "tuple[]"
        }
      ],
      "stateMutability": "view",
      "type": "function",
      "constant": true
    },
    {
      "inputs": [],
      "name": "getDonations",
      "outputs": [
        {
          "components": [
            {
              "internalType": "uint256",
              "name": "donationId",
              "type": "uint256"
            },
            {
              "internalType": "uint256",
              "name": "projectId",
              "type": "uint256"
            },
            {
              "internalType": "uint256",
              "name": "donorId",
              "type": "uint256"
            },
            {
              "internalType": "uint256",
              "name": "donationDate",
              "type": "uint256"
            },
            {
              "internalType": "uint256",
              "name": "donationAmount",
              "type": "uint256"
            }
          ],
          "internalType": "struct EthicOnChainLib.Donation[]",
          "name": "",
          "type": "tuple[]"
        }
      ],
      "stateMutability": "view",
      "type": "function",
      "constant": true
    },
    {
      "inputs": [
        {
          "internalType": "uint256",
          "name": "_id",
          "type": "uint256"
        }
      ],
      "name": "getWithdrawal",
      "outputs": [
        {
          "components": [
            {
              "internalType": "uint256",
              "name": "withdrawalId",
              "type": "uint256"
            },
            {
              "internalType": "uint256",
              "name": "projectId",
              "type": "uint256"
            },
            {
              "internalType": "uint256",
              "name": "amount",
              "type": "uint256"
            },
            {
              "internalType": "uint256",
              "name": "withdrawalDate",
              "type": "uint256"
            },
            {
              "internalType": "string",
              "name": "title",
              "type": "string"
            },
            {
              "internalType": "string",
              "name": "description",
              "type": "string"
            }
          ],
          "internalType": "struct EthicOnChainLib.Withdrawal",
          "name": "",
          "type": "tuple"
        }
      ],
      "stateMutability": "view",
      "type": "function",
      "constant": true
    },
    {
      "inputs": [
        {
          "internalType": "address",
          "name": "_addressNpo",
          "type": "address"
        }
      ],
      "name": "getWithdrawalPerNpo",
      "outputs": [
        {
          "components": [
            {
              "internalType": "uint256",
              "name": "withdrawalId",
              "type": "uint256"
            },
            {
              "internalType": "uint256",
              "name": "projectId",
              "type": "uint256"
            },
            {
              "internalType": "uint256",
              "name": "amount",
              "type": "uint256"
            },
            {
              "internalType": "uint256",
              "name": "withdrawalDate",
              "type": "uint256"
            },
            {
              "internalType": "string",
              "name": "title",
              "type": "string"
            },
            {
              "internalType": "string",
              "name": "description",
              "type": "string"
            }
          ],
          "internalType": "struct EthicOnChainLib.Withdrawal[]",
          "name": "",
          "type": "tuple[]"
        }
      ],
      "stateMutability": "view",
      "type": "function",
      "constant": true
    }
  ],
  "bytecode": "0x60806040523480156200001157600080fd5b50604051620061db380380620061db8339818101604052810190620000379190620001d5565b620000576200004b6200009f60201b60201c565b620000a760201b60201c565b80600d60006101000a81548173ffffffffffffffffffffffffffffffffffffffff021916908373ffffffffffffffffffffffffffffffffffffffff1602179055505062000207565b600033905090565b60008060009054906101000a900473ffffffffffffffffffffffffffffffffffffffff169050816000806101000a81548173ffffffffffffffffffffffffffffffffffffffff021916908373ffffffffffffffffffffffffffffffffffffffff1602179055508173ffffffffffffffffffffffffffffffffffffffff168173ffffffffffffffffffffffffffffffffffffffff167f8be0079c531659141344cd1fd0a4f28419497f9722a3daafe3b4186f6b6457e060405160405180910390a35050565b600080fd5b600073ffffffffffffffffffffffffffffffffffffffff82169050919050565b60006200019d8262000170565b9050919050565b620001af8162000190565b8114620001bb57600080fd5b50565b600081519050620001cf81620001a4565b92915050565b600060208284031215620001ee57620001ed6200016b565b5b6000620001fe84828501620001be565b91505092915050565b615fc480620002176000396000f3fe608060405234801561001057600080fd5b50600436106101425760003560e01c806396c59043116100b8578063dcc601281161007c578063dcc6012814610390578063e25f8416146103ae578063ef07a81f146103cc578063f0f3f2c8146103fc578063f2fde38b1461042c578063ff6d56ef1461044857610142565b806396c59043146102c657806396f300d4146102f6578063a90f733314610314578063b3c9020b14610344578063d87ffb701461037457610142565b806362e13e7d1161010a57806362e13e7d14610200578063678f04cc14610234578063715018a6146102505780637d1887f81461025a5780638a4fb16a146102785780638da5cb5b146102a857610142565b80630a0aaa271461014757806319ccf9ed146101775780631f1ffb1c146101935780633f9754c9146101af5780634913cdb0146101cb575b600080fd5b610161600480360381019061015c91906128e4565b610478565b60405161016e9190612b15565b60405180910390f35b610191600480360381019061018c9190612c6c565b610504565b005b6101ad60048036038101906101a89190612d53565b61084e565b005b6101c960048036038101906101c49190612e71565b610d02565b005b6101e560048036038101906101e091906128e4565b611136565b6040516101f796959493929190612fc4565b60405180910390f35b61021a600480360381019061021591906128e4565b6113b2565b60405161022b959493929190613041565b60405180910390f35b61024e600480360381019061024991906130a9565b6115a0565b005b6102586119a6565b005b610262611a2e565b60405161026f919061339b565b60405180910390f35b610292600480360381019061028d91906133bd565b611aba565b60405161029f919061347a565b60405180910390f35b6102b0611b49565b6040516102bd919061349c565b60405180910390f35b6102e060048036038101906102db91906128e4565b611b72565b6040516102ed9190613555565b60405180910390f35b6102fe611c01565b60405161030b91906136d7565b60405180910390f35b61032e600480360381019061032991906128e4565b611c8d565b60405161033b9190613810565b60405180910390f35b61035e600480360381019061035991906128e4565b611d19565b60405161036b9190613b3c565b60405180910390f35b61038e60048036038101906103899190613b5e565b611da5565b005b610398612187565b6040516103a59190613b3c565b60405180910390f35b6103b6612210565b6040516103c39190613810565b60405180910390f35b6103e660048036038101906103e191906133bd565b612299565b6040516103f39190613c06565b60405180910390f35b610416600480360381019061041191906133bd565b612323565b6040516104239190613daa565b60405180910390f35b610446600480360381019061044191906128e4565b6123b2565b005b610462600480360381019061045d91906128e4565b6124aa565b60405161046f9190613e9f565b60405180910390f35b606073__EthicOnChainLib_______________________632c77488e6001600b856040518463ffffffff1660e01b81526004016104b793929190613ede565b600060405180830381865af41580156104d4573d6000803e3d6000fd5b505050506040513d6000823e3d601f19601f820116820180604052508101906104fd9190614162565b9050919050565b61050c612539565b73ffffffffffffffffffffffffffffffffffffffff1661052a611b49565b73ffffffffffffffffffffffffffffffffffffffff1614610580576040517f08c379a0000000000000000000000000000000000000000000000000000000008152600401610577906141f7565b60405180910390fd5b600073ffffffffffffffffffffffffffffffffffffffff168473ffffffffffffffffffffffffffffffffffffffff16116105ef576040517f08c379a00000000000000000000000000000000000000000000000000000000081526004016105e690614289565b60405180910390fd5b600073ffffffffffffffffffffffffffffffffffffffff16600460008673ffffffffffffffffffffffffffffffffffffffff1673ffffffffffffffffffffffffffffffffffffffff16815260200190815260200160002060010160009054906101000a900473ffffffffffffffffffffffffffffffffffffffff1673ffffffffffffffffffffffffffffffffffffffff16146106c0576040517f08c379a00000000000000000000000000000000000000000000000000000000081526004016106b7906142f5565b60405180910390fd5b6000600460008673ffffffffffffffffffffffffffffffffffffffff1673ffffffffffffffffffffffffffffffffffffffff1681526020019081526020016000209050600654816000018190555083816002019080519060200190610726929190612605565b508281600301908051906020019061073f929190612605565b50848160010160006101000a81548173ffffffffffffffffffffffffffffffffffffffff021916908373ffffffffffffffffffffffffffffffffffffffff1602179055508181600401908051906020019061079b929190612605565b508460056000600654815260200190815260200160002060006101000a81548173ffffffffffffffffffffffffffffffffffffffff021916908373ffffffffffffffffffffffffffffffffffffffff1602179055506006600081548092919061080390614344565b91905055507ff1a73eeb2b4ddced9fb956e389a13618a37205f30bf1694dbf5ba71b1bbfc25c8160000154868660405161083f9392919061438d565b60405180910390a15050505050565b6000600160003373ffffffffffffffffffffffffffffffffffffffff1673ffffffffffffffffffffffffffffffffffffffff168152602001908152602001600020905060008160020180546108a2906143fa565b905014156108e5576040517f08c379a00000000000000000000000000000000000000000000000000000000081526004016108dc90614478565b60405180910390fd5b60008a5111610929576040517f08c379a0000000000000000000000000000000000000000000000000000000008152600401610920906144e4565b60405180910390fd5b600089511161096d576040517f08c379a000000000000000000000000000000000000000000000000000000000815260040161096490614550565b60405180910390fd5b600087116109b0576040517f08c379a00000000000000000000000000000000000000000000000000000000081526004016109a7906145e2565b60405180910390fd5b600086116109f3576040517f08c379a00000000000000000000000000000000000000000000000000000000081526004016109ea90614674565b60405180910390fd5b60008311610a36576040517f08c379a0000000000000000000000000000000000000000000000000000000008152600401610a2d906146e0565b60405180910390fd5b60008211610a79576040517f08c379a0000000000000000000000000000000000000000000000000000000008152600401610a709061474c565b60405180910390fd5b60008511610abc576040517f08c379a0000000000000000000000000000000000000000000000000000000008152600401610ab3906147de565b60405180910390fd5b60008411610aff576040517f08c379a0000000000000000000000000000000000000000000000000000000008152600401610af69061484a565b60405180910390fd5b858710610b41576040517f08c379a0000000000000000000000000000000000000000000000000000000008152600401610b38906148dc565b60405180910390fd5b818310610b83576040517f08c379a0000000000000000000000000000000000000000000000000000000008152600401610b7a9061496e565b60405180910390fd5b600060076000600854815260200190815260200160002090506008548160000181905550338160090160006101000a81548173ffffffffffffffffffffffffffffffffffffffff021916908373ffffffffffffffffffffffffffffffffffffffff1602179055508a81600a019080519060200190610c02929190612605565b508981600b019080519060200190610c1b929190612605565b508881600c019080519060200190610c34929190612605565b5087816001018190555086816002018190555085816003018190555084816004018190555083816005018190555082816006018190555081600601600854908060018154018082558091505060019003906000526020600020016000909190919091505560086000815480929190610cab90614344565b91905055507ff9702874e260ae597ee7c3acbf77aad0ce01f26c14650d5afbc5b43a62b34af381600001548c8a8a8888604051610ced9695949392919061498e565b60405180910390a15050505050505050505050565b610d0a612539565b73ffffffffffffffffffffffffffffffffffffffff16610d28611b49565b73ffffffffffffffffffffffffffffffffffffffff1614610d7e576040517f08c379a0000000000000000000000000000000000000000000000000000000008152600401610d75906141f7565b60405180910390fd5b600073ffffffffffffffffffffffffffffffffffffffff168573ffffffffffffffffffffffffffffffffffffffff1611610ded576040517f08c379a0000000000000000000000000000000000000000000000000000000008152600401610de490614a68565b60405180910390fd5b6000845111610e31576040517f08c379a0000000000000000000000000000000000000000000000000000000008152600401610e2890614ad4565b60405180910390fd5b6000835111610e75576040517f08c379a0000000000000000000000000000000000000000000000000000000008152600401610e6c90614b40565b60405180910390fd5b6000825111610eb9576040517f08c379a0000000000000000000000000000000000000000000000000000000008152600401610eb090614bac565b60405180910390fd5b6000815111610efd576040517f08c379a0000000000000000000000000000000000000000000000000000000008152600401610ef490614c18565b60405180910390fd5b6000600160008773ffffffffffffffffffffffffffffffffffffffff1673ffffffffffffffffffffffffffffffffffffffff1681526020019081526020016000206002018054610f4c906143fa565b905014610f8e576040517f08c379a0000000000000000000000000000000000000000000000000000000008152600401610f8590614c84565b60405180910390fd5b6000600160008773ffffffffffffffffffffffffffffffffffffffff1673ffffffffffffffffffffffffffffffffffffffff16815260200190815260200160002090506003548160000181905550858160010160006101000a81548173ffffffffffffffffffffffffffffffffffffffff021916908373ffffffffffffffffffffffffffffffffffffffff16021790555084816002019080519060200190611037929190612605565b5083816003019080519060200190611050929190612605565b5082816004019080519060200190611069929190612605565b5081816005019080519060200190611082929190612605565b508560026000600354815260200190815260200160002060006101000a81548173ffffffffffffffffffffffffffffffffffffffff021916908373ffffffffffffffffffffffffffffffffffffffff160217905550600360008154809291906110ea90614344565b91905055507f1a9e41b629a15a636da77b06f2707c109021423f307b3f34f33ded411423ef14816000015487876040516111269392919061438d565b60405180910390a1505050505050565b60016020528060005260406000206000915090508060000154908060010160009054906101000a900473ffffffffffffffffffffffffffffffffffffffff1690806002018054611185906143fa565b80601f01602080910402602001604051908101604052809291908181526020018280546111b1906143fa565b80156111fe5780601f106111d3576101008083540402835291602001916111fe565b820191906000526020600020905b8154815290600101906020018083116111e157829003601f168201915b505050505090806003018054611213906143fa565b80601f016020809104026020016040519081016040528092919081815260200182805461123f906143fa565b801561128c5780601f106112615761010080835404028352916020019161128c565b820191906000526020600020905b81548152906001019060200180831161126f57829003601f168201915b5050505050908060040180546112a1906143fa565b80601f01602080910402602001604051908101604052809291908181526020018280546112cd906143fa565b801561131a5780601f106112ef5761010080835404028352916020019161131a565b820191906000526020600020905b8154815290600101906020018083116112fd57829003601f168201915b50505050509080600501805461132f906143fa565b80601f016020809104026020016040519081016040528092919081815260200182805461135b906143fa565b80156113a85780601f1061137d576101008083540402835291602001916113a8565b820191906000526020600020905b81548152906001019060200180831161138b57829003601f168201915b5050505050905086565b60046020528060005260406000206000915090508060000154908060010160009054906101000a900473ffffffffffffffffffffffffffffffffffffffff1690806002018054611401906143fa565b80601f016020809104026020016040519081016040528092919081815260200182805461142d906143fa565b801561147a5780601f1061144f5761010080835404028352916020019161147a565b820191906000526020600020905b81548152906001019060200180831161145d57829003601f168201915b50505050509080600301805461148f906143fa565b80601f01602080910402602001604051908101604052809291908181526020018280546114bb906143fa565b80156115085780601f106114dd57610100808354040283529160200191611508565b820191906000526020600020905b8154815290600101906020018083116114eb57829003601f168201915b50505050509080600401805461151d906143fa565b80601f0160208091040260200160405190810160405280929190818152602001828054611549906143fa565b80156115965780601f1061156b57610100808354040283529160200191611596565b820191906000526020600020905b81548152906001019060200180831161157957829003601f168201915b5050505050905085565b6000600160003373ffffffffffffffffffffffffffffffffffffffff1673ffffffffffffffffffffffffffffffffffffffff16815260200190815260200160002090506000600160003373ffffffffffffffffffffffffffffffffffffffff1673ffffffffffffffffffffffffffffffffffffffff1681526020019081526020016000206002018054611632906143fa565b90501415611675576040517f08c379a000000000000000000000000000000000000000000000000000000000815260040161166c90614478565b60405180910390fd5b600060076000878152602001908152602001600020600a018054611698906143fa565b905014156116db576040517f08c379a00000000000000000000000000000000000000000000000000000000081526004016116d290614cf0565b60405180910390fd5b60076000868152602001908152602001600020600301544211611733576040517f08c379a000000000000000000000000000000000000000000000000000000000815260040161172a90614d5c565b60405180910390fd5b60006007600087815260200190815260200160002060070154905084811015611791576040517f08c379a000000000000000000000000000000000000000000000000000000000815260040161178890614dc8565b60405180910390fd5b6000600b6000600c5481526020019081526020016000209050600c548160000181905550868160010181905550848160040190805190602001906117d6929190612605565b5085816002018190555042816003018190555083816005019080519060200190611801929190612605565b5082600701600c549080600181540180825580915050600190039060005260206000200160009091909190915055856007600089815260200190815260200160002060070160008282546118559190614de8565b9250508190555060076000888152602001908152602001600020600e01600c549080600181540180825580915050600190039060005260206000200160009091909190915055600c60008154809291906118ae90614344565b9190505550600d60009054906101000a900473ffffffffffffffffffffffffffffffffffffffff1673ffffffffffffffffffffffffffffffffffffffff1663a9059cbb33886040518363ffffffff1660e01b8152600401611910929190614e1c565b6020604051808303816000875af115801561192f573d6000803e3d6000fd5b505050506040513d601f19601f820116820180604052508101906119539190614e7d565b507f6584d90ddbb422689586649f31c804fbe9302f09a265a73b622cc2516c010823816000015482600101548360020154336040516119959493929190614eaa565b60405180910390a150505050505050565b6119ae612539565b73ffffffffffffffffffffffffffffffffffffffff166119cc611b49565b73ffffffffffffffffffffffffffffffffffffffff1614611a22576040517f08c379a0000000000000000000000000000000000000000000000000000000008152600401611a19906141f7565b60405180910390fd5b611a2c6000612541565b565b606073__EthicOnChainLib_______________________63e17414e7600160026003546040518463ffffffff1660e01b8152600401611a6f93929190614f05565b600060405180830381865af4158015611a8c573d6000803e3d6000fd5b505050506040513d6000823e3d601f19601f82011682018060405250810190611ab59190615267565b905090565b611ac261268b565b73__EthicOnChainLib_______________________635454999f600b846040518363ffffffff1660e01b8152600401611afc9291906152b0565b600060405180830381865af4158015611b19573d6000803e3d6000fd5b505050506040513d6000823e3d601f19601f82011682018060405250810190611b4291906152d9565b9050919050565b60008060009054906101000a900473ffffffffffffffffffffffffffffffffffffffff16905090565b611b7a6126c1565b73__EthicOnChainLib_______________________6357ee7aae6004846040518363ffffffff1660e01b8152600401611bb4929190615329565b600060405180830381865af4158015611bd1573d6000803e3d6000fd5b505050506040513d6000823e3d601f19601f82011682018060405250810190611bfa9190615462565b9050919050565b606073__EthicOnChainLib_______________________638d85a169600460056006546040518463ffffffff1660e01b8152600401611c42939291906154ab565b600060405180830381865af4158015611c5f573d6000803e3d6000fd5b505050506040513d6000823e3d601f19601f82011682018060405250810190611c8891906155c3565b905090565b606073__EthicOnChainLib_______________________6381e9c89b60046009856040518463ffffffff1660e01b8152600401611ccc93929190615613565b600060405180830381865af4158015611ce9573d6000803e3d6000fd5b505050506040513d6000823e3d601f19601f82011682018060405250810190611d129190615799565b9050919050565b606073__EthicOnChainLib_______________________6304ae0c6560016007856040518463ffffffff1660e01b8152600401611d58939291906157e9565b600060405180830381865af4158015611d75573d6000803e3d6000fd5b505050506040513d6000823e3d601f19601f82011682018060405250810190611d9e9190615b67565b9050919050565b6000600460003373ffffffffffffffffffffffffffffffffffffffff1673ffffffffffffffffffffffffffffffffffffffff1681526020019081526020016000209050600073ffffffffffffffffffffffffffffffffffffffff168160010160009054906101000a900473ffffffffffffffffffffffffffffffffffffffff1673ffffffffffffffffffffffffffffffffffffffff161415611e7c576040517f08c379a0000000000000000000000000000000000000000000000000000000008152600401611e7390615bfc565b60405180910390fd5b6000600760008581526020019081526020016000209050600081600a018054611ea4906143fa565b90501415611ee7576040517f08c379a0000000000000000000000000000000000000000000000000000000008152600401611ede90614cf0565b60405180910390fd5b6000620151808260040154611efc9190615c1c565b8260030154611f0b9190615c76565b905081600301544211611f53576040517f08c379a0000000000000000000000000000000000000000000000000000000008152600401611f4a90614d5c565b60405180910390fd5b804210611f95576040517f08c379a0000000000000000000000000000000000000000000000000000000008152600401611f8c90615d18565b60405180910390fd5b600060096000600a5481526020019081526020016000209050600a5481600001819055508581600101819055508360000154816002018190555042816003018190555084816004018190555083600501600a549080600181540180825580915050600190039060005260206000200160009091909190915055848360070160008282546120229190615c76565b925050819055508483600801600082825461203d9190615c76565b9250508190555082600d01600a549080600181540180825580915050600190039060005260206000200160009091909190915055600a600081548092919061208490614344565b9190505550600d60009054906101000a900473ffffffffffffffffffffffffffffffffffffffff1673ffffffffffffffffffffffffffffffffffffffff166323b872dd3330886040518463ffffffff1660e01b81526004016120e893929190615d38565b6020604051808303816000875af1158015612107573d6000803e3d6000fd5b505050506040513d601f19601f8201168201806040525081019061212b9190614e7d565b507f5b01b3cbb79f6d6de617795637d44cf4ec173dab689fb0804ab8dbbd88f4302b81600001548260010154836002015484600301548560040154604051612177959493929190615d6f565b60405180910390a1505050505050565b606073__EthicOnChainLib_______________________6388439ce460076008546040518363ffffffff1660e01b81526004016121c5929190615dc2565b600060405180830381865af41580156121e2573d6000803e3d6000fd5b505050506040513d6000823e3d601f19601f8201168201806040525081019061220b9190615b67565b905090565b606073__EthicOnChainLib_______________________633e9329316009600a546040518363ffffffff1660e01b815260040161224e929190615deb565b600060405180830381865af415801561226b573d6000803e3d6000fd5b505050506040513d6000823e3d601f19601f820116820180604052508101906122949190615799565b905090565b6122a161270d565b73__EthicOnChainLib_______________________63599ed5916009846040518363ffffffff1660e01b81526004016122db929190615deb565b60a060405180830381865af41580156122f8573d6000803e3d6000fd5b505050506040513d601f19601f8201168201806040525081019061231c9190615e14565b9050919050565b61232b61273c565b73__EthicOnChainLib_______________________637f9824d06007846040518363ffffffff1660e01b8152600401612365929190615dc2565b600060405180830381865af4158015612382573d6000803e3d6000fd5b505050506040513d6000823e3d601f19601f820116820180604052508101906123ab9190615e41565b9050919050565b6123ba612539565b73ffffffffffffffffffffffffffffffffffffffff166123d8611b49565b73ffffffffffffffffffffffffffffffffffffffff161461242e576040517f08c379a0000000000000000000000000000000000000000000000000000000008152600401612425906141f7565b60405180910390fd5b600073ffffffffffffffffffffffffffffffffffffffff168173ffffffffffffffffffffffffffffffffffffffff16141561249e576040517f08c379a000000000000000000000000000000000000000000000000000000000815260040161249590615efc565b60405180910390fd5b6124a781612541565b50565b6124b26127fa565b73__EthicOnChainLib_______________________639bed72486001846040518363ffffffff1660e01b81526004016124ec929190615f1c565b600060405180830381865af4158015612509573d6000803e3d6000fd5b505050506040513d6000823e3d601f19601f820116820180604052508101906125329190615f45565b9050919050565b600033905090565b60008060009054906101000a900473ffffffffffffffffffffffffffffffffffffffff169050816000806101000a81548173ffffffffffffffffffffffffffffffffffffffff021916908373ffffffffffffffffffffffffffffffffffffffff1602179055508173ffffffffffffffffffffffffffffffffffffffff168173ffffffffffffffffffffffffffffffffffffffff167f8be0079c531659141344cd1fd0a4f28419497f9722a3daafe3b4186f6b6457e060405160405180910390a35050565b828054612611906143fa565b90600052602060002090601f016020900481019282612633576000855561267a565b82601f1061264c57805160ff191683800117855561267a565b8280016001018555821561267a579182015b8281111561267957825182559160200191906001019061265e565b5b5090506126879190612855565b5090565b6040518060c001604052806000815260200160008152602001600081526020016000815260200160608152602001606081525090565b6040518060c0016040528060008152602001600073ffffffffffffffffffffffffffffffffffffffff168152602001606081526020016060815260200160608152602001606081525090565b6040518060a0016040528060008152602001600081526020016000815260200160008152602001600081525090565b604051806102200160405280600081526020016000815260200160008152602001600081526020016000815260200160008152602001600081526020016000815260200160008152602001600073ffffffffffffffffffffffffffffffffffffffff168152602001600060068111156127b8576127b761385e565b5b8152602001600060058111156127d1576127d061385e565b5b815260200160608152602001606081526020016060815260200160608152602001606081525090565b60405180610100016040528060008152602001600073ffffffffffffffffffffffffffffffffffffffff1681526020016060815260200160608152602001606081526020016060815260200160608152602001606081525090565b5b8082111561286e576000816000905550600101612856565b5090565b6000604051905090565b600080fd5b600080fd5b600073ffffffffffffffffffffffffffffffffffffffff82169050919050565b60006128b182612886565b9050919050565b6128c1816128a6565b81146128cc57600080fd5b50565b6000813590506128de816128b8565b92915050565b6000602082840312156128fa576128f961287c565b5b6000612908848285016128cf565b91505092915050565b600081519050919050565b600082825260208201905092915050565b6000819050602082019050919050565b6000819050919050565b6129508161293d565b82525050565b600081519050919050565b600082825260208201905092915050565b60005b83811015612990578082015181840152602081019050612975565b8381111561299f576000848401525b50505050565b6000601f19601f8301169050919050565b60006129c182612956565b6129cb8185612961565b93506129db818560208601612972565b6129e4816129a5565b840191505092915050565b600060c083016000830151612a076000860182612947565b506020830151612a1a6020860182612947565b506040830151612a2d6040860182612947565b506060830151612a406060860182612947565b5060808301518482036080860152612a5882826129b6565b91505060a083015184820360a0860152612a7282826129b6565b9150508091505092915050565b6000612a8b83836129ef565b905092915050565b6000602082019050919050565b6000612aab82612911565b612ab5818561291c565b935083602082028501612ac78561292d565b8060005b85811015612b035784840389528151612ae48582612a7f565b9450612aef83612a93565b925060208a01995050600181019050612acb565b50829750879550505050505092915050565b60006020820190508181036000830152612b2f8184612aa0565b905092915050565b600080fd5b600080fd5b7f4e487b7100000000000000000000000000000000000000000000000000000000600052604160045260246000fd5b612b79826129a5565b810181811067ffffffffffffffff82111715612b9857612b97612b41565b5b80604052505050565b6000612bab612872565b9050612bb78282612b70565b919050565b600067ffffffffffffffff821115612bd757612bd6612b41565b5b612be0826129a5565b9050602081019050919050565b82818337600083830152505050565b6000612c0f612c0a84612bbc565b612ba1565b905082815260208101848484011115612c2b57612c2a612b3c565b5b612c36848285612bed565b509392505050565b600082601f830112612c5357612c52612b37565b5b8135612c63848260208601612bfc565b91505092915050565b60008060008060808587031215612c8657612c8561287c565b5b6000612c94878288016128cf565b945050602085013567ffffffffffffffff811115612cb557612cb4612881565b5b612cc187828801612c3e565b935050604085013567ffffffffffffffff811115612ce257612ce1612881565b5b612cee87828801612c3e565b925050606085013567ffffffffffffffff811115612d0f57612d0e612881565b5b612d1b87828801612c3e565b91505092959194509250565b612d308161293d565b8114612d3b57600080fd5b50565b600081359050612d4d81612d27565b92915050565b60008060008060008060008060006101208a8c031215612d7657612d7561287c565b5b60008a013567ffffffffffffffff811115612d9457612d93612881565b5b612da08c828d01612c3e565b99505060208a013567ffffffffffffffff811115612dc157612dc0612881565b5b612dcd8c828d01612c3e565b98505060408a013567ffffffffffffffff811115612dee57612ded612881565b5b612dfa8c828d01612c3e565b9750506060612e0b8c828d01612d3e565b9650506080612e1c8c828d01612d3e565b95505060a0612e2d8c828d01612d3e565b94505060c0612e3e8c828d01612d3e565b93505060e0612e4f8c828d01612d3e565b925050610100612e618c828d01612d3e565b9150509295985092959850929598565b600080600080600060a08688031215612e8d57612e8c61287c565b5b6000612e9b888289016128cf565b955050602086013567ffffffffffffffff811115612ebc57612ebb612881565b5b612ec888828901612c3e565b945050604086013567ffffffffffffffff811115612ee957612ee8612881565b5b612ef588828901612c3e565b935050606086013567ffffffffffffffff811115612f1657612f15612881565b5b612f2288828901612c3e565b925050608086013567ffffffffffffffff811115612f4357612f42612881565b5b612f4f88828901612c3e565b9150509295509295909350565b612f658161293d565b82525050565b612f74816128a6565b82525050565b600082825260208201905092915050565b6000612f9682612956565b612fa08185612f7a565b9350612fb0818560208601612972565b612fb9816129a5565b840191505092915050565b600060c082019050612fd96000830189612f5c565b612fe66020830188612f6b565b8181036040830152612ff88187612f8b565b9050818103606083015261300c8186612f8b565b905081810360808301526130208185612f8b565b905081810360a08301526130348184612f8b565b9050979650505050505050565b600060a0820190506130566000830188612f5c565b6130636020830187612f6b565b81810360408301526130758186612f8b565b905081810360608301526130898185612f8b565b9050818103608083015261309d8184612f8b565b90509695505050505050565b600080600080608085870312156130c3576130c261287c565b5b60006130d187828801612d3e565b94505060206130e287828801612d3e565b935050604085013567ffffffffffffffff81111561310357613102612881565b5b61310f87828801612c3e565b925050606085013567ffffffffffffffff8111156131305761312f612881565b5b61313c87828801612c3e565b91505092959194509250565b600081519050919050565b600082825260208201905092915050565b6000819050602082019050919050565b61317d816128a6565b82525050565b600081519050919050565b600082825260208201905092915050565b6000819050602082019050919050565b60006131bb8383612947565b60208301905092915050565b6000602082019050919050565b60006131df82613183565b6131e9818561318e565b93506131f48361319f565b8060005b8381101561322557815161320c88826131af565b9750613217836131c7565b9250506001810190506131f8565b5085935050505092915050565b60006101008301600083015161324b6000860182612947565b50602083015161325e6020860182613174565b506040830151848203604086015261327682826129b6565b9150506060830151848203606086015261329082826129b6565b915050608083015184820360808601526132aa82826129b6565b91505060a083015184820360a08601526132c482826129b6565b91505060c083015184820360c08601526132de82826131d4565b91505060e083015184820360e08601526132f882826131d4565b9150508091505092915050565b60006133118383613232565b905092915050565b6000602082019050919050565b600061333182613148565b61333b8185613153565b93508360208202850161334d85613164565b8060005b85811015613389578484038952815161336a8582613305565b945061337583613319565b925060208a01995050600181019050613351565b50829750879550505050505092915050565b600060208201905081810360008301526133b58184613326565b905092915050565b6000602082840312156133d3576133d261287c565b5b60006133e184828501612d3e565b91505092915050565b600060c0830160008301516134026000860182612947565b5060208301516134156020860182612947565b5060408301516134286040860182612947565b50606083015161343b6060860182612947565b506080830151848203608086015261345382826129b6565b91505060a083015184820360a086015261346d82826129b6565b9150508091505092915050565b6000602082019050818103600083015261349481846133ea565b905092915050565b60006020820190506134b16000830184612f6b565b92915050565b600060c0830160008301516134cf6000860182612947565b5060208301516134e26020860182613174565b50604083015184820360408601526134fa82826129b6565b9150506060830151848203606086015261351482826129b6565b9150506080830151848203608086015261352e82826129b6565b91505060a083015184820360a086015261354882826131d4565b9150508091505092915050565b6000602082019050818103600083015261356f81846134b7565b905092915050565b600081519050919050565b600082825260208201905092915050565b6000819050602082019050919050565b600060c0830160008301516135bb6000860182612947565b5060208301516135ce6020860182613174565b50604083015184820360408601526135e682826129b6565b9150506060830151848203606086015261360082826129b6565b9150506080830151848203608086015261361a82826129b6565b91505060a083015184820360a086015261363482826131d4565b9150508091505092915050565b600061364d83836135a3565b905092915050565b6000602082019050919050565b600061366d82613577565b6136778185613582565b93508360208202850161368985613593565b8060005b858110156136c557848403895281516136a68582613641565b94506136b183613655565b925060208a0199505060018101905061368d565b50829750879550505050505092915050565b600060208201905081810360008301526136f18184613662565b905092915050565b600081519050919050565b600082825260208201905092915050565b6000819050602082019050919050565b60a08201600082015161373b6000850182612947565b50602082015161374e6020850182612947565b5060408201516137616040850182612947565b5060608201516137746060850182612947565b5060808201516137876080850182612947565b50505050565b60006137998383613725565b60a08301905092915050565b6000602082019050919050565b60006137bd826136f9565b6137c78185613704565b93506137d283613715565b8060005b838110156138035781516137ea888261378d565b97506137f5836137a5565b9250506001810190506137d6565b5085935050505092915050565b6000602082019050818103600083015261382a81846137b2565b905092915050565b600081519050919050565b600082825260208201905092915050565b6000819050602082019050919050565b7f4e487b7100000000000000000000000000000000000000000000000000000000600052602160045260246000fd5b6007811061389e5761389d61385e565b5b50565b60008190506138af8261388d565b919050565b60006138bf826138a1565b9050919050565b6138cf816138b4565b82525050565b600681106138e6576138e561385e565b5b50565b60008190506138f7826138d5565b919050565b6000613907826138e9565b9050919050565b613917816138fc565b82525050565b6000610220830160008301516139366000860182612947565b5060208301516139496020860182612947565b50604083015161395c6040860182612947565b50606083015161396f6060860182612947565b5060808301516139826080860182612947565b5060a083015161399560a0860182612947565b5060c08301516139a860c0860182612947565b5060e08301516139bb60e0860182612947565b506101008301516139d0610100860182612947565b506101208301516139e5610120860182613174565b506101408301516139fa6101408601826138c6565b50610160830151613a0f61016086018261390e565b50610180830151848203610180860152613a2982826129b6565b9150506101a08301518482036101a0860152613a4582826129b6565b9150506101c08301518482036101c0860152613a6182826129b6565b9150506101e08301518482036101e0860152613a7d82826131d4565b915050610200830151848203610200860152613a9982826131d4565b9150508091505092915050565b6000613ab2838361391d565b905092915050565b6000602082019050919050565b6000613ad282613832565b613adc818561383d565b935083602082028501613aee8561384e565b8060005b85811015613b2a5784840389528151613b0b8582613aa6565b9450613b1683613aba565b925060208a01995050600181019050613af2565b50829750879550505050505092915050565b60006020820190508181036000830152613b568184613ac7565b905092915050565b60008060408385031215613b7557613b7461287c565b5b6000613b8385828601612d3e565b9250506020613b9485828601612d3e565b9150509250929050565b60a082016000820151613bb46000850182612947565b506020820151613bc76020850182612947565b506040820151613bda6040850182612947565b506060820151613bed6060850182612947565b506080820151613c006080850182612947565b50505050565b600060a082019050613c1b6000830184613b9e565b92915050565b600061022083016000830151613c3a6000860182612947565b506020830151613c4d6020860182612947565b506040830151613c606040860182612947565b506060830151613c736060860182612947565b506080830151613c866080860182612947565b5060a0830151613c9960a0860182612947565b5060c0830151613cac60c0860182612947565b5060e0830151613cbf60e0860182612947565b50610100830151613cd4610100860182612947565b50610120830151613ce9610120860182613174565b50610140830151613cfe6101408601826138c6565b50610160830151613d1361016086018261390e565b50610180830151848203610180860152613d2d82826129b6565b9150506101a08301518482036101a0860152613d4982826129b6565b9150506101c08301518482036101c0860152613d6582826129b6565b9150506101e08301518482036101e0860152613d8182826131d4565b915050610200830151848203610200860152613d9d82826131d4565b9150508091505092915050565b60006020820190508181036000830152613dc48184613c21565b905092915050565b600061010083016000830151613de56000860182612947565b506020830151613df86020860182613174565b5060408301518482036040860152613e1082826129b6565b91505060608301518482036060860152613e2a82826129b6565b91505060808301518482036080860152613e4482826129b6565b91505060a083015184820360a0860152613e5e82826129b6565b91505060c083015184820360c0860152613e7882826131d4565b91505060e083015184820360e0860152613e9282826131d4565b9150508091505092915050565b60006020820190508181036000830152613eb98184613dcc565b905092915050565b8082525050565b8082525050565b613ed8816128a6565b82525050565b6000606082019050613ef36000830186613ec1565b613f006020830185613ec8565b613f0d6040830184613ecf565b949350505050565b600067ffffffffffffffff821115613f3057613f2f612b41565b5b602082029050602081019050919050565b600080fd5b600080fd5b600080fd5b600081519050613f5f81612d27565b92915050565b6000613f78613f7384612bbc565b612ba1565b905082815260208101848484011115613f9457613f93612b3c565b5b613f9f848285612972565b509392505050565b600082601f830112613fbc57613fbb612b37565b5b8151613fcc848260208601613f65565b91505092915050565b600060c08284031215613feb57613fea613f46565b5b613ff560c0612ba1565b9050600061400584828501613f50565b600083015250602061401984828501613f50565b602083015250604061402d84828501613f50565b604083015250606061404184828501613f50565b606083015250608082015167ffffffffffffffff81111561406557614064613f4b565b5b61407184828501613fa7565b60808301525060a082015167ffffffffffffffff81111561409557614094613f4b565b5b6140a184828501613fa7565b60a08301525092915050565b60006140c06140bb84613f15565b612ba1565b905080838252602082019050602084028301858111156140e3576140e2613f41565b5b835b8181101561412a57805167ffffffffffffffff81111561410857614107612b37565b5b8086016141158982613fd5565b855260208501945050506020810190506140e5565b5050509392505050565b600082601f83011261414957614148612b37565b5b81516141598482602086016140ad565b91505092915050565b6000602082840312156141785761417761287c565b5b600082015167ffffffffffffffff81111561419657614195612881565b5b6141a284828501614134565b91505092915050565b7f4f776e61626c653a2063616c6c6572206973206e6f7420746865206f776e6572600082015250565b60006141e1602083612f7a565b91506141ec826141ab565b602082019050919050565b60006020820190508181036000830152614210816141d4565b9050919050565b7f4c276164726573736520647520646f6e617465757220646f697420c3aa74726560008201527f2064696666c3a972656e7465206465207ac3a9726f0000000000000000000000602082015250565b6000614273603583612f7a565b915061427e82614217565b604082019050919050565b600060208201905081810360008301526142a281614266565b9050919050565b7f446f6e6f722064c3a96ac3a020656e72656769737472c3a90000000000000000600082015250565b60006142df601883612f7a565b91506142ea826142a9565b602082019050919050565b6000602082019050818103600083015261430e816142d2565b9050919050565b7f4e487b7100000000000000000000000000000000000000000000000000000000600052601160045260246000fd5b600061434f8261293d565b91507fffffffffffffffffffffffffffffffffffffffffffffffffffffffffffffffff82141561438257614381614315565b5b600182019050919050565b60006060820190506143a26000830186612f5c565b6143af6020830185612f6b565b81810360408301526143c18184612f8b565b9050949350505050565b7f4e487b7100000000000000000000000000000000000000000000000000000000600052602260045260246000fd5b6000600282049050600182168061441257607f821691505b60208210811415614426576144256143cb565b5b50919050565b7f4e504f20696e636f6e6e75000000000000000000000000000000000000000000600082015250565b6000614462600b83612f7a565b915061446d8261442c565b602082019050919050565b6000602082019050818103600083015261449181614455565b9050919050565b7f4c6520746974726520657374206f626c696761746f6972650000000000000000600082015250565b60006144ce601883612f7a565b91506144d982614498565b602082019050919050565b600060208201905081810360008301526144fd816144c1565b9050919050565b7f4c61206465736372697074696f6e20657374206f626c696761746f6972650000600082015250565b600061453a601e83612f7a565b915061454582614504565b602082019050919050565b600060208201905081810360008301526145698161452d565b9050919050565b7f446174652064652064c3a96275742064652070726f6a6574206f626c6967617460008201527f6f69726500000000000000000000000000000000000000000000000000000000602082015250565b60006145cc602483612f7a565b91506145d782614570565b604082019050919050565b600060208201905081810360008301526145fb816145bf565b9050919050565b7f446174652064652066696e2064652070726f6a6574206f626c696761746f697260008201527f6500000000000000000000000000000000000000000000000000000000000000602082015250565b600061465e602183612f7a565b915061466982614602565b604082019050919050565b6000602082019050818103600083015261468d81614651565b9050919050565b7f4d6f6e74616e74206d696e696d616c206f626c696761746f6972650000000000600082015250565b60006146ca601b83612f7a565b91506146d582614694565b602082019050919050565b600060208201905081810360008301526146f9816146bd565b9050919050565b7f4d6f6e74616e74206d6178696d616c206f626c696761746f6972650000000000600082015250565b6000614736601b83612f7a565b915061474182614700565b602082019050919050565b6000602082019050818103600083015261476581614729565b9050919050565b7f446174652064652064c3a96275742064652063616d7061676e65206f626c696760008201527f61746f6972650000000000000000000000000000000000000000000000000000602082015250565b60006147c8602683612f7a565b91506147d38261476c565b604082019050919050565b600060208201905081810360008301526147f7816147bb565b9050919050565b7f447572c3a9652064652063616d7061676e65206f626c696761746f6972650000600082015250565b6000614834601e83612f7a565b915061483f826147fe565b602082019050919050565b6000602082019050818103600083015261486381614827565b9050919050565b7f4c6120646174652064c3a96275742064652070726f6a657420646f697420c3aa60008201527f747265206176616e74206c612066696e00000000000000000000000000000000602082015250565b60006148c6603083612f7a565b91506148d18261486a565b604082019050919050565b600060208201905081810360008301526148f5816148b9565b9050919050565b7f4c65206d6f6e74616e74206d696e696d616c20646f697420c3aa74726520696e60008201527f66c3a97269657572206175206d6f6e74616e74206d6178696d616c0000000000602082015250565b6000614958603b83612f7a565b9150614963826148fc565b604082019050919050565b600060208201905081810360008301526149878161494b565b9050919050565b600060c0820190506149a36000830189612f5c565b81810360208301526149b58188612f8b565b90506149c46040830187612f5c565b6149d16060830186612f5c565b6149de6080830185612f5c565b6149eb60a0830184612f5c565b979650505050505050565b7f4c2761647265737365206475204e504f20646f697420c3aa747265206469666660008201527fc3a972656e7465206465207ac3a9726f00000000000000000000000000000000602082015250565b6000614a52603083612f7a565b9150614a5d826149f6565b604082019050919050565b60006020820190508181036000830152614a8181614a45565b9050919050565b7f4c612064c3a96e6f6d696e6174696f6e20657374206f626c696761746f697265600082015250565b6000614abe602083612f7a565b9150614ac982614a88565b602082019050919050565b60006020820190508181036000830152614aed81614ab1565b9050919050565b7f4c276164726573736520657374206f626c696761746f69726500000000000000600082015250565b6000614b2a601983612f7a565b9150614b3582614af4565b602082019050919050565b60006020820190508181036000830152614b5981614b1d565b9050919050565b7f4c276f626a657420657374206f626c696761746f697265000000000000000000600082015250565b6000614b96601783612f7a565b9150614ba182614b60565b602082019050919050565b60006020820190508181036000830152614bc581614b89565b9050919050565b7f4c65207479706520657374206f626c696761746f697265000000000000000000600082015250565b6000614c02601783612f7a565b9150614c0d82614bcc565b602082019050919050565b60006020820190508181036000830152614c3181614bf5565b9050919050565b7f4e504f2064c3a96ac3a020656e72656769737472c3a900000000000000000000600082015250565b6000614c6e601683612f7a565b9150614c7982614c38565b602082019050919050565b60006020820190508181036000830152614c9d81614c61565b9050919050565b7f50726f6a657420696e636f6e6e75000000000000000000000000000000000000600082015250565b6000614cda600e83612f7a565b9150614ce582614ca4565b602082019050919050565b60006020820190508181036000830152614d0981614ccd565b9050919050565b7f4c612063616d7061676e65206e276573742070617320636f6d6d656e63c3a965600082015250565b6000614d46602083612f7a565b9150614d5182614d10565b602082019050919050565b60006020820190508181036000830152614d7581614d39565b9050919050565b7f42616c616e636520696e737566666973616e7465000000000000000000000000600082015250565b6000614db2601483612f7a565b9150614dbd82614d7c565b602082019050919050565b60006020820190508181036000830152614de181614da5565b9050919050565b6000614df38261293d565b9150614dfe8361293d565b925082821015614e1157614e10614315565b5b828203905092915050565b6000604082019050614e316000830185612f6b565b614e3e6020830184612f5c565b9392505050565b60008115159050919050565b614e5a81614e45565b8114614e6557600080fd5b50565b600081519050614e7781614e51565b92915050565b600060208284031215614e9357614e9261287c565b5b6000614ea184828501614e68565b91505092915050565b6000608082019050614ebf6000830187612f5c565b614ecc6020830186612f5c565b614ed96040830185612f5c565b614ee66060830184612f6b565b95945050505050565b8082525050565b614eff8161293d565b82525050565b6000606082019050614f1a6000830186613ec1565b614f276020830185614eef565b614f346040830184614ef6565b949350505050565b600067ffffffffffffffff821115614f5757614f56612b41565b5b602082029050602081019050919050565b600081519050614f77816128b8565b92915050565b600067ffffffffffffffff821115614f9857614f97612b41565b5b602082029050602081019050919050565b6000614fbc614fb784614f7d565b612ba1565b90508083825260208201905060208402830185811115614fdf57614fde613f41565b5b835b818110156150085780614ff48882613f50565b845260208401935050602081019050614fe1565b5050509392505050565b600082601f83011261502757615026612b37565b5b8151615037848260208601614fa9565b91505092915050565b6000610100828403121561505757615056613f46565b5b615062610100612ba1565b9050600061507284828501613f50565b600083015250602061508684828501614f68565b602083015250604082015167ffffffffffffffff8111156150aa576150a9613f4b565b5b6150b684828501613fa7565b604083015250606082015167ffffffffffffffff8111156150da576150d9613f4b565b5b6150e684828501613fa7565b606083015250608082015167ffffffffffffffff81111561510a57615109613f4b565b5b61511684828501613fa7565b60808301525060a082015167ffffffffffffffff81111561513a57615139613f4b565b5b61514684828501613fa7565b60a08301525060c082015167ffffffffffffffff81111561516a57615169613f4b565b5b61517684828501615012565b60c08301525060e082015167ffffffffffffffff81111561519a57615199613f4b565b5b6151a684828501615012565b60e08301525092915050565b60006151c56151c084614f3c565b612ba1565b905080838252602082019050602084028301858111156151e8576151e7613f41565b5b835b8181101561522f57805167ffffffffffffffff81111561520d5761520c612b37565b5b80860161521a8982615040565b855260208501945050506020810190506151ea565b5050509392505050565b600082601f83011261524e5761524d612b37565b5b815161525e8482602086016151b2565b91505092915050565b60006020828403121561527d5761527c61287c565b5b600082015167ffffffffffffffff81111561529b5761529a612881565b5b6152a784828501615239565b91505092915050565b60006040820190506152c56000830185613ec8565b6152d26020830184614ef6565b9392505050565b6000602082840312156152ef576152ee61287c565b5b600082015167ffffffffffffffff81111561530d5761530c612881565b5b61531984828501613fd5565b91505092915050565b8082525050565b600060408201905061533e6000830185615322565b61534b6020830184613ecf565b9392505050565b600060c0828403121561536857615367613f46565b5b61537260c0612ba1565b9050600061538284828501613f50565b600083015250602061539684828501614f68565b602083015250604082015167ffffffffffffffff8111156153ba576153b9613f4b565b5b6153c684828501613fa7565b604083015250606082015167ffffffffffffffff8111156153ea576153e9613f4b565b5b6153f684828501613fa7565b606083015250608082015167ffffffffffffffff81111561541a57615419613f4b565b5b61542684828501613fa7565b60808301525060a082015167ffffffffffffffff81111561544a57615449613f4b565b5b61545684828501615012565b60a08301525092915050565b6000602082840312156154785761547761287c565b5b600082015167ffffffffffffffff81111561549657615495612881565b5b6154a284828501615352565b91505092915050565b60006060820190506154c06000830186615322565b6154cd6020830185614eef565b6154da6040830184614ef6565b949350505050565b600067ffffffffffffffff8211156154fd576154fc612b41565b5b602082029050602081019050919050565b600061552161551c846154e2565b612ba1565b9050808382526020820190506020840283018581111561554457615543613f41565b5b835b8181101561558b57805167ffffffffffffffff81111561556957615568612b37565b5b8086016155768982615352565b85526020850194505050602081019050615546565b5050509392505050565b600082601f8301126155aa576155a9612b37565b5b81516155ba84826020860161550e565b91505092915050565b6000602082840312156155d9576155d861287c565b5b600082015167ffffffffffffffff8111156155f7576155f6612881565b5b61560384828501615595565b91505092915050565b8082525050565b60006060820190506156286000830186615322565b615635602083018561560c565b6156426040830184613ecf565b949350505050565b600067ffffffffffffffff82111561566557615664612b41565b5b602082029050602081019050919050565b600060a0828403121561568c5761568b613f46565b5b61569660a0612ba1565b905060006156a684828501613f50565b60008301525060206156ba84828501613f50565b60208301525060406156ce84828501613f50565b60408301525060606156e284828501613f50565b60608301525060806156f684828501613f50565b60808301525092915050565b60006157156157108461564a565b612ba1565b90508083825260208201905060a0840283018581111561573857615737613f41565b5b835b81811015615761578061574d8882615676565b84526020840193505060a08101905061573a565b5050509392505050565b600082601f8301126157805761577f612b37565b5b8151615790848260208601615702565b91505092915050565b6000602082840312156157af576157ae61287c565b5b600082015167ffffffffffffffff8111156157cd576157cc612881565b5b6157d98482850161576b565b91505092915050565b8082525050565b60006060820190506157fe6000830186613ec1565b61580b60208301856157e2565b6158186040830184613ecf565b949350505050565b600067ffffffffffffffff82111561583b5761583a612b41565b5b602082029050602081019050919050565b6007811061585957600080fd5b50565b60008151905061586b8161584c565b92915050565b6006811061587e57600080fd5b50565b60008151905061589081615871565b92915050565b600061022082840312156158ad576158ac613f46565b5b6158b8610220612ba1565b905060006158c884828501613f50565b60008301525060206158dc84828501613f50565b60208301525060406158f084828501613f50565b604083015250606061590484828501613f50565b606083015250608061591884828501613f50565b60808301525060a061592c84828501613f50565b60a08301525060c061594084828501613f50565b60c08301525060e061595484828501613f50565b60e08301525061010061596984828501613f50565b6101008301525061012061597f84828501614f68565b610120830152506101406159958482850161585c565b610140830152506101606159ab84828501615881565b6101608301525061018082015167ffffffffffffffff8111156159d1576159d0613f4b565b5b6159dd84828501613fa7565b610180830152506101a082015167ffffffffffffffff811115615a0357615a02613f4b565b5b615a0f84828501613fa7565b6101a0830152506101c082015167ffffffffffffffff811115615a3557615a34613f4b565b5b615a4184828501613fa7565b6101c0830152506101e082015167ffffffffffffffff811115615a6757615a66613f4b565b5b615a7384828501615012565b6101e08301525061020082015167ffffffffffffffff811115615a9957615a98613f4b565b5b615aa584828501615012565b6102008301525092915050565b6000615ac5615ac084615820565b612ba1565b90508083825260208201905060208402830185811115615ae857615ae7613f41565b5b835b81811015615b2f57805167ffffffffffffffff811115615b0d57615b0c612b37565b5b808601615b1a8982615896565b85526020850194505050602081019050615aea565b5050509392505050565b600082601f830112615b4e57615b4d612b37565b5b8151615b5e848260208601615ab2565b91505092915050565b600060208284031215615b7d57615b7c61287c565b5b600082015167ffffffffffffffff811115615b9b57615b9a612881565b5b615ba784828501615b39565b91505092915050565b7f446f6e617465757220696e636f6e6e7500000000000000000000000000000000600082015250565b6000615be6601083612f7a565b9150615bf182615bb0565b602082019050919050565b60006020820190508181036000830152615c1581615bd9565b9050919050565b6000615c278261293d565b9150615c328361293d565b9250817fffffffffffffffffffffffffffffffffffffffffffffffffffffffffffffffff0483118215151615615c6b57615c6a614315565b5b828202905092915050565b6000615c818261293d565b9150615c8c8361293d565b9250827fffffffffffffffffffffffffffffffffffffffffffffffffffffffffffffffff03821115615cc157615cc0614315565b5b828201905092915050565b7f4c612063616d7061676e6520657374207465726d696ec3a96500000000000000600082015250565b6000615d02601983612f7a565b9150615d0d82615ccc565b602082019050919050565b60006020820190508181036000830152615d3181615cf5565b9050919050565b6000606082019050615d4d6000830186612f6b565b615d5a6020830185612f6b565b615d676040830184612f5c565b949350505050565b600060a082019050615d846000830188612f5c565b615d916020830187612f5c565b615d9e6040830186612f5c565b615dab6060830185612f5c565b615db86080830184612f5c565b9695505050505050565b6000604082019050615dd760008301856157e2565b615de46020830184614ef6565b9392505050565b6000604082019050615e00600083018561560c565b615e0d6020830184614ef6565b9392505050565b600060a08284031215615e2a57615e2961287c565b5b6000615e3884828501615676565b91505092915050565b600060208284031215615e5757615e5661287c565b5b600082015167ffffffffffffffff811115615e7557615e74612881565b5b615e8184828501615896565b91505092915050565b7f4f776e61626c653a206e6577206f776e657220697320746865207a65726f206160008201527f6464726573730000000000000000000000000000000000000000000000000000602082015250565b6000615ee6602683612f7a565b9150615ef182615e8a565b604082019050919050565b60006020820190508181036000830152615f1581615ed9565b9050919050565b6000604082019050615f316000830185613ec1565b615f3e6020830184613ecf565b9392505050565b600060208284031215615f5b57615f5a61287c565b5b600082015167ffffffffffffffff811115615f7957615f78612881565b5b615f8584828501615040565b9150509291505056fea2646970667358221220cde5575745876d5072ae063b8d137c17b04a6b5c35fb290b8574490cfc59bb7e64736f6c634300080b0033",
  "immutableReferences": {},
  "source": "// SPDX-License-Identifier: MIT\r\npragma solidity 0.8.11;\r\n \r\nimport \"@openzeppelin/contracts/token/ERC20/ERC20.sol\";\r\nimport \"@openzeppelin/contracts/access/Ownable.sol\";\r\nimport \"./EthicOnChainLib.sol\";\r\n\r\n/// @title EthicOnChain \r\n/// @author Lahcen E. Dev / Jrme Gauthier\r\n/// @notice EthicOnChain contract to manage NPOs, Projects and Donors\r\ncontract EthicOnChain is Ownable {\r\n    \r\n    // NPOs\r\n    mapping (address => EthicOnChainLib.NPO) public npoAddresses; //Mapping of all NPO \r\n    mapping (uint => address) private npoMap;\r\n    uint private npoCount; \r\n\r\n    // Donors\r\n    mapping (address => EthicOnChainLib.Donor) public donorAddresses; //Mapping of all donors \r\n    mapping (uint => address) private donorMap;\r\n    uint private donorCount; \r\n    \r\n    // Projects\r\n    mapping (uint => EthicOnChainLib.Project) projectMap;\r\n    uint projectCount;\r\n    \r\n    // Donations\r\n    mapping (uint => EthicOnChainLib.Donation) private donationMap;\r\n    uint private donationCount;\r\n\r\n    // Withdrawal Informations\r\n    mapping (uint => EthicOnChainLib.Withdrawal) private withdrawalMap;\r\n    uint private withdrawalCount;\r\n\r\n    // EOC Token address\r\n    address eocTokenAddress;\r\n\r\n    event NpoAdded(uint _poId, address _npoErc20Address, string _denomination);\r\n    event DonorAdded(uint _donorId, address _donorErc20Address, string _donorName);\r\n    event ProjectAdded(uint _projectId, string _title, uint _startDate, uint _endDate, uint _minAmount, uint _maxAmount);\r\n    event DonationAdded(uint _donationId, uint _projectId, uint _donorId, uint _donationDate, uint donationAmount);\r\n    event TokensWithdrawn(uint _withdrawalId ,uint _projectId, uint _amount, address _addressRecipent);\r\n    \r\n    /// @dev Initialise the deployed EOC token address for swap\r\n    /// @param _eocTokenAddress EOC Token address\r\n    constructor(address _eocTokenAddress) {\r\n       eocTokenAddress =  _eocTokenAddress;\r\n    }\r\n\r\n    /// @dev The administrator can add a new NPO\r\n    /// @param _npoErc20Address the ERC20 address of the npo\r\n    /// @param _denomination Demonination of the NPO\r\n    /// @param _postalAddress Postal address of the NPO\r\n    /// @param _object object of NPO\r\n    /// @param _npoType Type of npo organization\r\n    function addNpo(\r\n        address _npoErc20Address,\r\n        string memory _denomination,\r\n        string memory _postalAddress,\r\n        string memory _object,\r\n        string memory _npoType) public onlyOwner {\r\n        // Mandatory fields\r\n        require(_npoErc20Address > address(0), unicode\"L'adresse du NPO doit tre diffrente de zro\");\r\n        require(bytes(_denomination).length > 0, unicode\"La dnomination est obligatoire\");\r\n        require(bytes(_postalAddress).length > 0, \"L'adresse est obligatoire\");\r\n        require(bytes(_object).length > 0, \"L'objet est obligatoire\");\r\n        require(bytes(_npoType).length > 0, \"Le type est obligatoire\");\r\n        require(bytes(npoAddresses[_npoErc20Address].denomination).length == 0, unicode\"NPO dj enregistr\");\r\n        \r\n        EthicOnChainLib.NPO storage newNpo = npoAddresses[_npoErc20Address];\r\n        newNpo.npoId = npoCount;\r\n        newNpo.npoErc20Address = _npoErc20Address;\r\n        newNpo.denomination = _denomination;\r\n        newNpo.postalAddress = _postalAddress;\r\n        newNpo.object = _object;\r\n        newNpo.npoType = _npoType;\r\n        npoMap[npoCount] = _npoErc20Address;\r\n        npoCount++;\r\n        emit NpoAdded(newNpo.npoId, _npoErc20Address, _denomination);\r\n    }\r\n \r\n    /// @dev The administrator/contract can add a new Donor\r\n    /// @param _donorErc20Address ERC20 address of the donor\r\n    /// @param _name Name of the Donor\r\n    /// @param _surName Surname of the Donor\r\n    /// @param _postalAddress postal address of the donor\r\n    function addDonor(\r\n        address _donorErc20Address,\r\n        string memory _name,\r\n        string memory _surName,\r\n        string memory _postalAddress) public onlyOwner {\r\n        // Mandatory fields\r\n        require(_donorErc20Address > address(0), unicode\"L'adresse du donateur doit tre diffrente de zro\");\r\n        require(donorAddresses[_donorErc20Address].donorErc20Address == address(0), unicode\"Donor dj enregistr\");\r\n\r\n        EthicOnChainLib.Donor storage newDonor = donorAddresses[_donorErc20Address];\r\n        newDonor.donorId = donorCount;\r\n        newDonor.name = _name;\r\n        newDonor.surName = _surName;\r\n        newDonor.donorErc20Address=_donorErc20Address;\r\n        newDonor.postalAddress = _postalAddress;\r\n        donorMap[donorCount] = _donorErc20Address;\r\n        donorCount++;\r\n        emit DonorAdded(newDonor.donorId, _donorErc20Address, _name);\r\n    }\r\n \r\n    /// @dev This function will allow to add a project, the owner will be the one who calls the function. \r\n    /// @param _title The title of the project\r\n    /// @param _description description of the project\r\n    /// @param _geographicalArea the geographical area where the project will be located.\r\n    /// @param _startDate The start date of the project\r\n    /// @param _endDate The end of the project\r\n    /// @param _campaignStartDate the beginning of the collection of funds\r\n    /// @param _campaignDurationInDays the duration of the collection of funds\r\n    /// @param _minAmount The minimum price for the project to be valid\r\n    /// @param _maxAmount The maximum price to make the project a success \r\n    function addProject(\r\n        string memory _title,\r\n        string memory _description,\r\n        string memory _geographicalArea,\r\n        uint _startDate,\r\n        uint _endDate,\r\n        uint _campaignStartDate,\r\n        uint _campaignDurationInDays,\r\n        uint _minAmount,\r\n        uint _maxAmount\r\n    ) public {\r\n        EthicOnChainLib.NPO storage projectNpo = npoAddresses[msg.sender];\r\n        require(bytes(projectNpo.denomination).length != 0, \"NPO inconnu\");\r\n        // Mandatory fields\r\n        require(bytes(_title).length > 0, \"Le titre est obligatoire\");\r\n        require(bytes(_description).length > 0, \"La description est obligatoire\");\r\n        require(_startDate > 0, unicode\"Date de dbut de projet obligatoire\");\r\n        require(_endDate > 0, \"Date de fin de projet obligatoire\");\r\n        require(_minAmount > 0, \"Montant minimal obligatoire\");\r\n        require(_maxAmount > 0, \"Montant maximal obligatoire\");\r\n        require(_campaignStartDate > 0, unicode\"Date de dbut de campagne obligatoire\");\r\n        require(_campaignDurationInDays > 0, unicode\"Dure de campagne obligatoire\");\r\n        // Comparisons\r\n        require(_startDate < _endDate, unicode\"La date dbut de projet doit tre avant la fin\");\r\n        require(_minAmount < _maxAmount, unicode\"Le montant minimal doit tre infrieur au montant maximal\");\r\n\r\n        EthicOnChainLib.Project storage newProject = projectMap[projectCount];\r\n        newProject.projectId = projectCount;\r\n        newProject.npoErc20Address = msg.sender;\r\n        newProject.title = _title;\r\n        // TODO = voir comment grer le Project Cause en fonction de son enum\r\n        newProject.description = _description;\r\n        newProject.geographicalArea = _geographicalArea;\r\n        newProject.startDate = _startDate;\r\n        newProject.endDate = _endDate;\r\n        newProject.campaignStartDate = _campaignStartDate;\r\n        newProject.campaignDurationInDays = _campaignDurationInDays;\r\n        newProject.minAmount = _minAmount;\r\n        newProject.maxAmount = _maxAmount;\r\n        projectNpo.projectIds.push(projectCount);\r\n\r\n        projectCount++;\r\n        emit ProjectAdded(newProject.projectId, _title,  _startDate, _endDate, _minAmount, _maxAmount);\r\n    } \r\n\r\n    /// @dev Add a Donation struct in global donationMap\r\n    /// @param _projectId id of the project for which the donation is done\r\n    /// @param _donationAmount amount of the donation in EOC tokens\r\n    function addDonation(uint _projectId, uint _donationAmount) public {\r\n        EthicOnChainLib.Donor storage donationDonor = donorAddresses[msg.sender];\r\n        require(donationDonor.donorErc20Address != address(0), \"Donateur inconnu\"); // concept de KYC\r\n        EthicOnChainLib.Project storage donationProject = projectMap[_projectId];\r\n        require(bytes(donationProject.title).length != 0, \"Projet inconnu\");\r\n        // donation possible seulement si dans priode de campagne\r\n        uint campaignEndDate = donationProject.campaignStartDate + donationProject.campaignDurationInDays * 1 days;\r\n        require(block.timestamp > donationProject.campaignStartDate, unicode\"La campagne n'est pas commence\");\r\n        require(block.timestamp < campaignEndDate, unicode\"La campagne est termine\");\r\n\r\n        EthicOnChainLib.Donation storage newDonation = donationMap[donationCount];\r\n        newDonation.donationId = donationCount;\r\n        newDonation.projectId = _projectId;\r\n        newDonation.donorId = donationDonor.donorId;\r\n        newDonation.donationDate = block.timestamp;\r\n        newDonation.donationAmount = _donationAmount;\r\n        \r\n        donationDonor.donationIds.push(donationCount); // mise  jour de l'historique des donations pour le donateur\r\n        \r\n        donationProject.projectBalance += _donationAmount; // mise  jour de la balance du projet\r\n        donationProject.projectTotalDonations += _donationAmount; // et du total des donations\r\n        donationProject.donationIds.push(donationCount); // mise  jour de l'historique des donations pour le projet\r\n        donationCount++;\r\n        \r\n        // transfert de la donation du donateur vers le contrat\r\n        // le donateur devra avoir pralablement approuv (fonction approve du token - un minimum = le montant  transfrer)\r\n        // le contrat  transfrer les tokens de l'addresse du donateur vers l'adresse du contrat\r\n        IERC20(eocTokenAddress).transferFrom(msg.sender, address(this), _donationAmount);\r\n        //TODO PLUS TARD creation d'un escrow contract pour ne pas verser tous les tokens dans le mme contrat gnral\r\n        emit DonationAdded(newDonation.donationId, newDonation.projectId, newDonation.donorId, newDonation.donationDate, newDonation.donationAmount);\r\n    }\r\n\r\n    /// @dev Allows an NPO to withdraw funds from a project \r\n    /// @param _projectId project id \r\n    /// @param _amount Amount of withdrawal\r\n    /// @param _title title of the withdrawal\r\n    /// @param _description description of the withdrawal\r\n    function withdrawTokens (uint _projectId, uint _amount,string memory _title,string memory _description) public {\r\n        EthicOnChainLib.NPO storage withdrawalNpo = npoAddresses[msg.sender];\r\n        require(bytes(npoAddresses[msg.sender].denomination).length != 0, \"NPO inconnu\");\r\n        require(bytes(projectMap[_projectId].title).length != 0, \"Projet inconnu\");\r\n        require(block.timestamp > projectMap[_projectId].campaignStartDate, unicode\"La campagne n'est pas commence\");\r\n        uint256 balance = projectMap[_projectId].projectBalance;\r\n        require(balance >= _amount, \"Balance insuffisante\");\r\n\r\n        EthicOnChainLib.Withdrawal storage newWithdrawal = withdrawalMap[withdrawalCount];\r\n        newWithdrawal.withdrawalId = withdrawalCount;\r\n        newWithdrawal.projectId = _projectId;\r\n        newWithdrawal.title = _title;\r\n        newWithdrawal.amount = _amount;\r\n        newWithdrawal.withdrawalDate = block.timestamp;\r\n        newWithdrawal.description = _description;\r\n\r\n        withdrawalNpo.withdrawalIds.push(withdrawalCount); // mise  jour de l'historique des retraits pour le NPO\r\n        projectMap[_projectId].projectBalance -= _amount; // mise  jour de la balance du projet\r\n        projectMap[_projectId].withdrawalIds.push(withdrawalCount); // mise  jour de l'historique des retraits pour le projet\r\n        withdrawalCount++;\r\n        IERC20(eocTokenAddress).transfer(msg.sender,_amount);\r\n        emit TokensWithdrawn(newWithdrawal.withdrawalId,newWithdrawal.projectId,newWithdrawal.amount,msg.sender);\r\n    }\r\n\r\n\r\n    /// @dev  get an NPO via its erc20 address\r\n    /// @param _npoErc20Address erc20 address of the NPO\r\n    /// @return returns the corresponding NPO struct\r\n    function getNpo(address _npoErc20Address) public view returns(EthicOnChainLib.NPO memory) {\r\n        return EthicOnChainLib.libGetNpo(npoAddresses, _npoErc20Address);\r\n    }\r\n\r\n    /// @dev  get an NPO via its id\r\n    /// @param _npoId id of the NPO\r\n    /// @return returns the corresponding NPO struct\r\n    function getNpoByIndex(uint _npoId) internal view returns(EthicOnChainLib.NPO memory) {\r\n        return EthicOnChainLib.libGetNpoByIndex(npoAddresses, npoMap, _npoId);\r\n    }\r\n\r\n    /// @dev  get all NPOs\r\n    /// @return returns an array of all NPOs\r\n    function getNpos() public view returns(EthicOnChainLib.NPO [] memory) {\r\n        return EthicOnChainLib.libGetNpos(npoAddresses, npoMap, npoCount);\r\n    }\r\n\r\n    /// @dev  get a Donor via its erc20 address\r\n    /// @param _donorErc20Address erc20 address of the Donor\r\n    /// @return returns the corresponding Donor struct\r\n    function getDonor(address _donorErc20Address) public view returns(EthicOnChainLib.Donor memory) {\r\n        return EthicOnChainLib.libGetDonor(donorAddresses, _donorErc20Address);\r\n    }\r\n\r\n    /// @dev  get a Donor via its id\r\n    /// @param _donorId id of the Donor\r\n    /// @return returns the corresponding Donor struct\r\n    function getDonorByIndex(uint _donorId) internal view returns(EthicOnChainLib.Donor memory) {\r\n        return EthicOnChainLib.libGetDonorByIndex(donorAddresses, donorMap, _donorId);\r\n    }\r\n\r\n    /// @dev  get all Donors\r\n    /// @return returns an array of all Donors\r\n    function getDonors() public view returns(EthicOnChainLib.Donor [] memory) {\r\n        return EthicOnChainLib.libGetDonors(donorAddresses, donorMap, donorCount);\r\n    }\r\n\r\n    /// @dev Returns a single Project\r\n    /// @param _projectId project unique id\r\n    /// @return the Project struct instance corresponding to _projectId\r\n    function getProject(uint _projectId) public view returns(EthicOnChainLib.Project memory) {\r\n        return EthicOnChainLib.libGetProject(projectMap, _projectId);\r\n    }\r\n\r\n    /// @dev  get all projects\r\n    /// @return returns an array of all Project\r\n    function getProjects() public view returns(EthicOnChainLib.Project [] memory) {\r\n        return EthicOnChainLib.libGetProjects(projectMap, projectCount);\r\n    }\r\n    \r\n    /// @dev Allows to know all the projects of an NPO\r\n    /// @param _addressNpo ERC20 address of the NPO\r\n    /// @return Returns an array of projects\r\n    function getProjectsPerNpo(address _addressNpo) public view  returns(EthicOnChainLib.Project [] memory ) {\r\n        return EthicOnChainLib.libGetProjectsPerNpo(npoAddresses, projectMap, _addressNpo);\r\n    }\r\n\r\n    /// @dev  get Donation by id\r\n    /// param _id index pour retrouver la donation a retourner\r\n    /// @return a struct donation \r\n    function getDonation(uint _id) public view returns(EthicOnChainLib.Donation memory) {\r\n        return EthicOnChainLib.libGetDonation(donationMap, _id);\r\n    }\r\n\r\n    /// @dev Allows to know all the donations of a single donor\r\n    /// @param _donorAddress id which represents the index\r\n    /// @return Returns an array of all donation of a single donor\r\n    function getDonationPerDonor(address _donorAddress) public view  returns(EthicOnChainLib.Donation [] memory ) {\r\n        return EthicOnChainLib.libGetDonationPerDonor(donorAddresses, donationMap, _donorAddress);\r\n    }\r\n\r\n    /// @dev list all the donations made in the contract, whatever the Donor and the NPO\r\n    /// @return Returns an array of all donation of a single donor\r\n    function getDonations() public view  returns(EthicOnChainLib.Donation [] memory ) {\r\n        return EthicOnChainLib.libGetDonations(donationMap, donationCount);\r\n    }\r\n\r\n    /// @dev  get Withdrawal by id\r\n    /// param _id index pour retrouver le withdrawal a retourner\r\n    /// @return a struct retait \r\n    function getWithdrawal(uint _id) public view returns(EthicOnChainLib.Withdrawal memory) {\r\n        return EthicOnChainLib.libGetWithdrawal(withdrawalMap, _id);\r\n    }\r\n\r\n    /// @dev Allows to know all the donations of a single donor\r\n    /// @param _addressNpo id which represents the index\r\n    /// @return Returns an array of all donation of a single donor\r\n    function getWithdrawalPerNpo(address _addressNpo) public view  returns(EthicOnChainLib.Withdrawal [] memory ) {\r\n        return EthicOnChainLib.libGetWithdrawalPerNpo(npoAddresses, withdrawalMap, _addressNpo);\r\n    }\r\n\r\n}",
  "sourcePath": "D:\\DOCUMENTS\\ALYRA\\PROJET\\ethic-on-chain\\contracts\\EthicOnChain.sol",
  "compiler": {
    "name": "solc",
    "version": "0.8.11+commit.d7f03943.Emscripten.clang"
  },
  "schemaVersion": "3.4.4",
  "updatedAt": "2022-01-17T16:57:25.053Z",
  "networkType": "ethereum",
  "devdoc": {
    "author": "Lahcen E. Dev / Jrme Gauthier",
    "kind": "dev",
    "methods": {
      "addDonation(uint256,uint256)": {
        "details": "Add a Donation struct in global donationMap",
        "params": {
          "_donationAmount": "amount of the donation in EOC tokens",
          "_projectId": "id of the project for which the donation is done"
        }
      },
      "addDonor(address,string,string,string)": {
        "details": "The administrator/contract can add a new Donor",
        "params": {
          "_donorErc20Address": "ERC20 address of the donor",
          "_name": "Name of the Donor",
          "_postalAddress": "postal address of the donor",
          "_surName": "Surname of the Donor"
        }
      },
      "addNpo(address,string,string,string,string)": {
        "details": "The administrator can add a new NPO",
        "params": {
          "_denomination": "Demonination of the NPO",
          "_npoErc20Address": "the ERC20 address of the npo",
          "_npoType": "Type of npo organization",
          "_object": "object of NPO",
          "_postalAddress": "Postal address of the NPO"
        }
      },
      "addProject(string,string,string,uint256,uint256,uint256,uint256,uint256,uint256)": {
        "details": "This function will allow to add a project, the owner will be the one who calls the function. ",
        "params": {
          "_campaignDurationInDays": "the duration of the collection of funds",
          "_campaignStartDate": "the beginning of the collection of funds",
          "_description": "description of the project",
          "_endDate": "The end of the project",
          "_geographicalArea": "the geographical area where the project will be located.",
          "_maxAmount": "The maximum price to make the project a success ",
          "_minAmount": "The minimum price for the project to be valid",
          "_startDate": "The start date of the project",
          "_title": "The title of the project"
        }
      },
      "constructor": {
        "details": "Initialise the deployed EOC token address for swap",
        "params": {
          "_eocTokenAddress": "EOC Token address"
        }
      },
      "getDonation(uint256)": {
        "details": "get Donation by id param _id index pour retrouver la donation a retourner",
        "returns": {
          "_0": "a struct donation "
        }
      },
      "getDonationPerDonor(address)": {
        "details": "Allows to know all the donations of a single donor",
        "params": {
          "_donorAddress": "id which represents the index"
        },
        "returns": {
          "_0": "Returns an array of all donation of a single donor"
        }
      },
      "getDonations()": {
        "details": "list all the donations made in the contract, whatever the Donor and the NPO",
        "returns": {
          "_0": "Returns an array of all donation of a single donor"
        }
      },
      "getDonor(address)": {
        "details": "get a Donor via its erc20 address",
        "params": {
          "_donorErc20Address": "erc20 address of the Donor"
        },
        "returns": {
          "_0": "returns the corresponding Donor struct"
        }
      },
      "getDonors()": {
        "details": "get all Donors",
        "returns": {
          "_0": "returns an array of all Donors"
        }
      },
      "getNpo(address)": {
        "details": "get an NPO via its erc20 address",
        "params": {
          "_npoErc20Address": "erc20 address of the NPO"
        },
        "returns": {
          "_0": "returns the corresponding NPO struct"
        }
      },
      "getNpos()": {
        "details": "get all NPOs",
        "returns": {
          "_0": "returns an array of all NPOs"
        }
      },
      "getProject(uint256)": {
        "details": "Returns a single Project",
        "params": {
          "_projectId": "project unique id"
        },
        "returns": {
          "_0": "the Project struct instance corresponding to _projectId"
        }
      },
      "getProjects()": {
        "details": "get all projects",
        "returns": {
          "_0": "returns an array of all Project"
        }
      },
      "getProjectsPerNpo(address)": {
        "details": "Allows to know all the projects of an NPO",
        "params": {
          "_addressNpo": "ERC20 address of the NPO"
        },
        "returns": {
          "_0": "Returns an array of projects"
        }
      },
      "getWithdrawal(uint256)": {
        "details": "get Withdrawal by id param _id index pour retrouver le withdrawal a retourner",
        "returns": {
          "_0": "a struct retait "
        }
      },
      "getWithdrawalPerNpo(address)": {
        "details": "Allows to know all the donations of a single donor",
        "params": {
          "_addressNpo": "id which represents the index"
        },
        "returns": {
          "_0": "Returns an array of all donation of a single donor"
        }
      },
      "owner()": {
        "details": "Returns the address of the current owner."
      },
      "renounceOwnership()": {
        "details": "Leaves the contract without owner. It will not be possible to call `onlyOwner` functions anymore. Can only be called by the current owner. NOTE: Renouncing ownership will leave the contract without an owner, thereby removing any functionality that is only available to the owner."
      },
      "transferOwnership(address)": {
        "details": "Transfers ownership of the contract to a new account (`newOwner`). Can only be called by the current owner."
      },
      "withdrawTokens(uint256,uint256,string,string)": {
        "details": "Allows an NPO to withdraw funds from a project ",
        "params": {
          "_amount": "Amount of withdrawal",
          "_description": "description of the withdrawal",
          "_projectId": "project id ",
          "_title": "title of the withdrawal"
        }
      }
    },
    "title": "EthicOnChain ",
    "version": 1
  },
  "userdoc": {
    "kind": "user",
    "methods": {},
    "notice": "EthicOnChain contract to manage NPOs, Projects and Donors",
    "version": 1
  }
}