{
  "contractName": "EthicOnChainLib",
  "abi": [
    {
      "inputs": [
        {
          "components": [
            {
              "internalType": "uint256",
              "name": "projectId",
              "type": "uint256"
            },
            {
              "internalType": "uint256",
              "name": "startDate",
              "type": "uint256"
            },
            {
              "internalType": "uint256",
              "name": "endDate",
              "type": "uint256"
            },
            {
              "internalType": "uint256",
              "name": "campaignStartDate",
              "type": "uint256"
            },
            {
              "internalType": "uint256",
              "name": "campaignDurationInDays",
              "type": "uint256"
            },
            {
              "internalType": "uint256",
              "name": "minAmount",
              "type": "uint256"
            },
            {
              "internalType": "uint256",
              "name": "maxAmount",
              "type": "uint256"
            },
            {
              "internalType": "uint256",
              "name": "projectBalance",
              "type": "uint256"
            },
            {
              "internalType": "uint256",
              "name": "projectTotalDonations",
              "type": "uint256"
            },
            {
              "internalType": "address",
              "name": "npoErc20Address",
              "type": "address"
            },
            {
              "internalType": "enum EthicOnChainLib.ProjectCause",
              "name": "cause",
              "type": "EthicOnChainLib.ProjectCause"
            },
            {
              "internalType": "enum EthicOnChainLib.ProjectStatus",
              "name": "status",
              "type": "EthicOnChainLib.ProjectStatus"
            },
            {
              "internalType": "string",
              "name": "title",
              "type": "string"
            },
            {
              "internalType": "string",
              "name": "description",
              "type": "string"
            },
            {
              "internalType": "string",
              "name": "geographicalArea",
              "type": "string"
            },
            {
              "internalType": "uint256[]",
              "name": "donationIds",
              "type": "uint256[]"
            },
            {
              "internalType": "uint256[]",
              "name": "withdrawalIds",
              "type": "uint256[]"
            }
          ],
          "internalType": "struct EthicOnChainLib.Project",
          "name": "_project",
          "type": "tuple"
        }
      ],
      "name": "getProjectStatus",
      "outputs": [
        {
          "internalType": "enum EthicOnChainLib.ProjectStatus",
          "name": "_status",
          "type": "EthicOnChainLib.ProjectStatus"
        }
      ],
      "stateMutability": "view",
      "type": "function",
      "constant": true
    }
  ],
  "bytecode": "0x613d6c610053600b82828239805160001a607314610046577f4e487b7100000000000000000000000000000000000000000000000000000000600052600060045260246000fd5b30600052607381538281f3fe73000000000000000000000000000000000000000030146080604052600436106100be5760003560e01c806381e9c89b1161007b57806381e9c89b146101e3578063871a60b31461021357806388439ce4146102435780638d85a169146102735780639bed7248146102a3578063e17414e7146102d3576100be565b806304ae0c65146100c35780632c77488e146100f35780635454999f1461012357806357ee7aae14610153578063599ed591146101835780637f9824d0146101b3575b600080fd5b6100dd60048036038101906100d891906123a4565b610303565b6040516100ea9190612871565b60405180910390f35b61010d600480360381019061010891906128c9565b61045c565b60405161011a9190612a6e565b60405180910390f35b61013d60048036038101906101389190612abc565b6105b5565b60405161014a9190612b8c565b60405180910390f35b61016d60048036038101906101689190612be4565b61072e565b60405161017a9190612cc2565b60405180910390f35b61019d60048036038101906101989190612d1a565b6109f5565b6040516101aa9190612dc2565b60405180910390f35b6101cd60048036038101906101c89190612ddd565b610a54565b6040516101da9190612fa6565b60405180910390f35b6101fd60048036038101906101f89190612fc8565b610e53565b60405161020a9190613132565b60405180910390f35b61022d600480360381019061022891906135c1565b610fac565b60405161023a9190613619565b60405180910390f35b61025d60048036038101906102589190612ddd565b6110b4565b60405161026a9190612871565b60405180910390f35b61028d6004803603810190610288919061366a565b611505565b60405161029a919061381d565b60405180910390f35b6102bd60048036038101906102b8919061383f565b6115b8565b6040516102ca9190613952565b60405180910390f35b6102ed60048036038101906102e89190613974565b61196a565b6040516102fa9190613b5c565b60405180910390f35b606060008460008473ffffffffffffffffffffffffffffffffffffffff1673ffffffffffffffffffffffffffffffffffffffff16815260200190815260200160002060060180549050905060008167ffffffffffffffff81111561036a57610369613159565b5b6040519080825280602002602001820160405280156103a357816020015b6103906120fc565b8152602001906001900390816103885790505b50905060005b8281101561044f5760008760008773ffffffffffffffffffffffffffffffffffffffff1673ffffffffffffffffffffffffffffffffffffffff168152602001908152602001600020600601828154811061040657610405613b7e565b5b9060005260206000200154905061041d8782610a54565b8383815181106104305761042f613b7e565b5b602002602001018190525050808061044790613bdc565b9150506103a9565b5080925050509392505050565b606060008460008473ffffffffffffffffffffffffffffffffffffffff1673ffffffffffffffffffffffffffffffffffffffff16815260200190815260200160002060070180549050905060008167ffffffffffffffff8111156104c3576104c2613159565b5b6040519080825280602002602001820160405280156104fc57816020015b6104e96121ba565b8152602001906001900390816104e15790505b50905060005b828110156105a85760008760008773ffffffffffffffffffffffffffffffffffffffff1673ffffffffffffffffffffffffffffffffffffffff168152602001908152602001600020600701828154811061055f5761055e613b7e565b5b9060005260206000200154905061057687826105b5565b83838151811061058957610588613b7e565b5b60200260200101819052505080806105a090613bdc565b915050610502565b5080925050509392505050565b6105bd6121ba565b8260008381526020019081526020016000206040518060c00160405290816000820154815260200160018201548152602001600282015481526020016003820154815260200160048201805461061290613c54565b80601f016020809104026020016040519081016040528092919081815260200182805461063e90613c54565b801561068b5780601f106106605761010080835404028352916020019161068b565b820191906000526020600020905b81548152906001019060200180831161066e57829003601f168201915b505050505081526020016005820180546106a490613c54565b80601f01602080910402602001604051908101604052809291908181526020018280546106d090613c54565b801561071d5780601f106106f25761010080835404028352916020019161071d565b820191906000526020600020905b81548152906001019060200180831161070057829003601f168201915b505050505081525050905092915050565b6107366121f0565b8260008373ffffffffffffffffffffffffffffffffffffffff1673ffffffffffffffffffffffffffffffffffffffff1681526020019081526020016000206040518060c0016040529081600082015481526020016001820160009054906101000a900473ffffffffffffffffffffffffffffffffffffffff1673ffffffffffffffffffffffffffffffffffffffff1673ffffffffffffffffffffffffffffffffffffffff1681526020016002820180546107ef90613c54565b80601f016020809104026020016040519081016040528092919081815260200182805461081b90613c54565b80156108685780601f1061083d57610100808354040283529160200191610868565b820191906000526020600020905b81548152906001019060200180831161084b57829003601f168201915b5050505050815260200160038201805461088190613c54565b80601f01602080910402602001604051908101604052809291908181526020018280546108ad90613c54565b80156108fa5780601f106108cf576101008083540402835291602001916108fa565b820191906000526020600020905b8154815290600101906020018083116108dd57829003601f168201915b5050505050815260200160048201805461091390613c54565b80601f016020809104026020016040519081016040528092919081815260200182805461093f90613c54565b801561098c5780601f106109615761010080835404028352916020019161098c565b820191906000526020600020905b81548152906001019060200180831161096f57829003601f168201915b50505050508152602001600582018054806020026020016040519081016040528092919081815260200182805480156109e457602002820191906000526020600020905b8154815260200190600101908083116109d0575b505050505081525050905092915050565b6109fd61223c565b8260008381526020019081526020016000206040518060a001604052908160008201548152602001600182015481526020016002820154815260200160038201548152602001600482015481525050905092915050565b610a5c6120fc565b610a646120fc565b836000848152602001908152602001600020604051806102200160405290816000820154815260200160018201548152602001600282015481526020016003820154815260200160048201548152602001600582015481526020016006820154815260200160078201548152602001600882015481526020016009820160009054906101000a900473ffffffffffffffffffffffffffffffffffffffff1673ffffffffffffffffffffffffffffffffffffffff1673ffffffffffffffffffffffffffffffffffffffff1681526020016009820160149054906101000a900460ff166006811115610b5757610b5661244b565b5b6006811115610b6957610b6861244b565b5b81526020016009820160159054906101000a900460ff166005811115610b9257610b9161244b565b5b6005811115610ba457610ba361244b565b5b8152602001600a82018054610bb890613c54565b80601f0160208091040260200160405190810160405280929190818152602001828054610be490613c54565b8015610c315780601f10610c0657610100808354040283529160200191610c31565b820191906000526020600020905b815481529060010190602001808311610c1457829003601f168201915b50505050508152602001600b82018054610c4a90613c54565b80601f0160208091040260200160405190810160405280929190818152602001828054610c7690613c54565b8015610cc35780601f10610c9857610100808354040283529160200191610cc3565b820191906000526020600020905b815481529060010190602001808311610ca657829003601f168201915b50505050508152602001600c82018054610cdc90613c54565b80601f0160208091040260200160405190810160405280929190818152602001828054610d0890613c54565b8015610d555780601f10610d2a57610100808354040283529160200191610d55565b820191906000526020600020905b815481529060010190602001808311610d3857829003601f168201915b50505050508152602001600d8201805480602002602001604051908101604052809291908181526020018280548015610dad57602002820191906000526020600020905b815481526020019060010190808311610d99575b50505050508152602001600e8201805480602002602001604051908101604052809291908181526020018280548015610e0557602002820191906000526020600020905b815481526020019060010190808311610df1575b5050505050815250509050610e1981610fac565b8161016001906005811115610e3157610e3061244b565b5b90816005811115610e4557610e4461244b565b5b815250508091505092915050565b606060008460008473ffffffffffffffffffffffffffffffffffffffff1673ffffffffffffffffffffffffffffffffffffffff16815260200190815260200160002060050180549050905060008167ffffffffffffffff811115610eba57610eb9613159565b5b604051908082528060200260200182016040528015610ef357816020015b610ee061223c565b815260200190600190039081610ed85790505b50905060005b82811015610f9f5760008760008773ffffffffffffffffffffffffffffffffffffffff1673ffffffffffffffffffffffffffffffffffffffff1681526020019081526020016000206005018281548110610f5657610f55613b7e565b5b90600052602060002001549050610f6d87826109f5565b838381518110610f8057610f7f613b7e565b5b6020026020010181905250508080610f9790613bdc565b915050610ef9565b5080925050509392505050565b6000806000620151808460800151610fc49190613c86565b8460600151610fd39190613ce0565b90504284606001511115610fea57600191506110aa565b42846060015111158015610ffe5750804211155b1561100c57600291506110a9565b804211801561102457508360a0015184610100015110155b8015611034575042846020015111155b8015611044575083604001514211155b1561105257600391506110a8565b804211801561106957508360a00151846101000151105b1561107757600391506110a7565b83604001514211801561109357508360a0015184610100015110155b156110a157600391506110a6565b600091505b5b5b5b5b8192505050919050565b6060600082905060008167ffffffffffffffff8111156110d7576110d6613159565b5b60405190808252806020026020018201604052801561111057816020015b6110fd6120fc565b8152602001906001900390816110f55790505b50905060005b828110156114f957856000828152602001908152602001600020604051806102200160405290816000820154815260200160018201548152602001600282015481526020016003820154815260200160048201548152602001600582015481526020016006820154815260200160078201548152602001600882015481526020016009820160009054906101000a900473ffffffffffffffffffffffffffffffffffffffff1673ffffffffffffffffffffffffffffffffffffffff1673ffffffffffffffffffffffffffffffffffffffff1681526020016009820160149054906101000a900460ff1660068111156112115761121061244b565b5b60068111156112235761122261244b565b5b81526020016009820160159054906101000a900460ff16600581111561124c5761124b61244b565b5b600581111561125e5761125d61244b565b5b8152602001600a8201805461127290613c54565b80601f016020809104026020016040519081016040528092919081815260200182805461129e90613c54565b80156112eb5780601f106112c0576101008083540402835291602001916112eb565b820191906000526020600020905b8154815290600101906020018083116112ce57829003601f168201915b50505050508152602001600b8201805461130490613c54565b80601f016020809104026020016040519081016040528092919081815260200182805461133090613c54565b801561137d5780601f106113525761010080835404028352916020019161137d565b820191906000526020600020905b81548152906001019060200180831161136057829003601f168201915b50505050508152602001600c8201805461139690613c54565b80601f01602080910402602001604051908101604052809291908181526020018280546113c290613c54565b801561140f5780601f106113e45761010080835404028352916020019161140f565b820191906000526020600020905b8154815290600101906020018083116113f257829003601f168201915b50505050508152602001600d820180548060200260200160405190810160405280929190818152602001828054801561146757602002820191906000526020600020905b815481526020019060010190808311611453575b50505050508152602001600e82018054806020026020016040519081016040528092919081815260200182805480156114bf57602002820191906000526020600020905b8154815260200190600101908083116114ab575b5050505050815250508282815181106114db576114da613b7e565b5b602002602001018190525080806114f190613bdc565b915050611116565b50809250505092915050565b6060600082905060008167ffffffffffffffff81111561152857611527613159565b5b60405190808252806020026020018201604052801561156157816020015b61154e6121f0565b8152602001906001900390816115465790505b50905060005b828110156115ab5761157a878783611a1d565b82828151811061158d5761158c613b7e565b5b602002602001018190525080806115a390613bdc565b915050611567565b5080925050509392505050565b6115c061226b565b8260008373ffffffffffffffffffffffffffffffffffffffff1673ffffffffffffffffffffffffffffffffffffffff16815260200190815260200160002060405180610100016040529081600082015481526020016001820160009054906101000a900473ffffffffffffffffffffffffffffffffffffffff1673ffffffffffffffffffffffffffffffffffffffff1673ffffffffffffffffffffffffffffffffffffffff16815260200160028201805461167a90613c54565b80601f01602080910402602001604051908101604052809291908181526020018280546116a690613c54565b80156116f35780601f106116c8576101008083540402835291602001916116f3565b820191906000526020600020905b8154815290600101906020018083116116d657829003601f168201915b5050505050815260200160038201805461170c90613c54565b80601f016020809104026020016040519081016040528092919081815260200182805461173890613c54565b80156117855780601f1061175a57610100808354040283529160200191611785565b820191906000526020600020905b81548152906001019060200180831161176857829003601f168201915b5050505050815260200160048201805461179e90613c54565b80601f01602080910402602001604051908101604052809291908181526020018280546117ca90613c54565b80156118175780601f106117ec57610100808354040283529160200191611817565b820191906000526020600020905b8154815290600101906020018083116117fa57829003601f168201915b5050505050815260200160058201805461183090613c54565b80601f016020809104026020016040519081016040528092919081815260200182805461185c90613c54565b80156118a95780601f1061187e576101008083540402835291602001916118a9565b820191906000526020600020905b81548152906001019060200180831161188c57829003601f168201915b505050505081526020016006820180548060200260200160405190810160405280929190818152602001828054801561190157602002820191906000526020600020905b8154815260200190600101908083116118ed575b505050505081526020016007820180548060200260200160405190810160405280929190818152602001828054801561195957602002820191906000526020600020905b815481526020019060010190808311611945575b505050505081525050905092915050565b6060600082905060008167ffffffffffffffff81111561198d5761198c613159565b5b6040519080825280602002602001820160405280156119c657816020015b6119b361226b565b8152602001906001900390816119ab5790505b50905060005b82811015611a10576119df878783611d17565b8282815181106119f2576119f1613b7e565b5b60200260200101819052508080611a0890613bdc565b9150506119cc565b5080925050509392505050565b611a256121f0565b83600084600085815260200190815260200160002060009054906101000a900473ffffffffffffffffffffffffffffffffffffffff1673ffffffffffffffffffffffffffffffffffffffff1673ffffffffffffffffffffffffffffffffffffffff1681526020019081526020016000206040518060c0016040529081600082015481526020016001820160009054906101000a900473ffffffffffffffffffffffffffffffffffffffff1673ffffffffffffffffffffffffffffffffffffffff1673ffffffffffffffffffffffffffffffffffffffff168152602001600282018054611b1090613c54565b80601f0160208091040260200160405190810160405280929190818152602001828054611b3c90613c54565b8015611b895780601f10611b5e57610100808354040283529160200191611b89565b820191906000526020600020905b815481529060010190602001808311611b6c57829003601f168201915b50505050508152602001600382018054611ba290613c54565b80601f0160208091040260200160405190810160405280929190818152602001828054611bce90613c54565b8015611c1b5780601f10611bf057610100808354040283529160200191611c1b565b820191906000526020600020905b815481529060010190602001808311611bfe57829003601f168201915b50505050508152602001600482018054611c3490613c54565b80601f0160208091040260200160405190810160405280929190818152602001828054611c6090613c54565b8015611cad5780601f10611c8257610100808354040283529160200191611cad565b820191906000526020600020905b815481529060010190602001808311611c9057829003601f168201915b5050505050815260200160058201805480602002602001604051908101604052809291908181526020018280548015611d0557602002820191906000526020600020905b815481526020019060010190808311611cf1575b50505050508152505090509392505050565b611d1f61226b565b83600084600085815260200190815260200160002060009054906101000a900473ffffffffffffffffffffffffffffffffffffffff1673ffffffffffffffffffffffffffffffffffffffff1673ffffffffffffffffffffffffffffffffffffffff16815260200190815260200160002060405180610100016040529081600082015481526020016001820160009054906101000a900473ffffffffffffffffffffffffffffffffffffffff1673ffffffffffffffffffffffffffffffffffffffff1673ffffffffffffffffffffffffffffffffffffffff168152602001600282018054611e0b90613c54565b80601f0160208091040260200160405190810160405280929190818152602001828054611e3790613c54565b8015611e845780601f10611e5957610100808354040283529160200191611e84565b820191906000526020600020905b815481529060010190602001808311611e6757829003601f168201915b50505050508152602001600382018054611e9d90613c54565b80601f0160208091040260200160405190810160405280929190818152602001828054611ec990613c54565b8015611f165780601f10611eeb57610100808354040283529160200191611f16565b820191906000526020600020905b815481529060010190602001808311611ef957829003601f168201915b50505050508152602001600482018054611f2f90613c54565b80601f0160208091040260200160405190810160405280929190818152602001828054611f5b90613c54565b8015611fa85780601f10611f7d57610100808354040283529160200191611fa8565b820191906000526020600020905b815481529060010190602001808311611f8b57829003601f168201915b50505050508152602001600582018054611fc190613c54565b80601f0160208091040260200160405190810160405280929190818152602001828054611fed90613c54565b801561203a5780601f1061200f5761010080835404028352916020019161203a565b820191906000526020600020905b81548152906001019060200180831161201d57829003601f168201915b505050505081526020016006820180548060200260200160405190810160405280929190818152602001828054801561209257602002820191906000526020600020905b81548152602001906001019080831161207e575b50505050508152602001600782018054806020026020016040519081016040528092919081815260200182805480156120ea57602002820191906000526020600020905b8154815260200190600101908083116120d6575b50505050508152505090509392505050565b604051806102200160405280600081526020016000815260200160008152602001600081526020016000815260200160008152602001600081526020016000815260200160008152602001600073ffffffffffffffffffffffffffffffffffffffff168152602001600060068111156121785761217761244b565b5b8152602001600060058111156121915761219061244b565b5b815260200160608152602001606081526020016060815260200160608152602001606081525090565b6040518060c001604052806000815260200160008152602001600081526020016000815260200160608152602001606081525090565b6040518060c0016040528060008152602001600073ffffffffffffffffffffffffffffffffffffffff168152602001606081526020016060815260200160608152602001606081525090565b6040518060a0016040528060008152602001600081526020016000815260200160008152602001600081525090565b60405180610100016040528060008152602001600073ffffffffffffffffffffffffffffffffffffffff1681526020016060815260200160608152602001606081526020016060815260200160608152602001606081525090565b6000604051905090565b600080fd5b600080fd5b6000819050919050565b6122ed816122da565b81146122f857600080fd5b50565b60008135905061230a816122e4565b92915050565b6000819050919050565b61232381612310565b811461232e57600080fd5b50565b6000813590506123408161231a565b92915050565b600073ffffffffffffffffffffffffffffffffffffffff82169050919050565b600061237182612346565b9050919050565b61238181612366565b811461238c57600080fd5b50565b60008135905061239e81612378565b92915050565b6000806000606084860312156123bd576123bc6122d0565b5b60006123cb868287016122fb565b93505060206123dc86828701612331565b92505060406123ed8682870161238f565b9150509250925092565b600081519050919050565b600082825260208201905092915050565b6000819050602082019050919050565b6000819050919050565b61243681612423565b82525050565b61244581612366565b82525050565b7f4e487b7100000000000000000000000000000000000000000000000000000000600052602160045260246000fd5b6007811061248b5761248a61244b565b5b50565b600081905061249c8261247a565b919050565b60006124ac8261248e565b9050919050565b6124bc816124a1565b82525050565b600681106124d3576124d261244b565b5b50565b60008190506124e4826124c2565b919050565b60006124f4826124d6565b9050919050565b612504816124e9565b82525050565b600081519050919050565b600082825260208201905092915050565b60005b83811015612544578082015181840152602081019050612529565b83811115612553576000848401525b50505050565b6000601f19601f8301169050919050565b60006125758261250a565b61257f8185612515565b935061258f818560208601612526565b61259881612559565b840191505092915050565b600081519050919050565b600082825260208201905092915050565b6000819050602082019050919050565b60006125db838361242d565b60208301905092915050565b6000602082019050919050565b60006125ff826125a3565b61260981856125ae565b9350612614836125bf565b8060005b8381101561264557815161262c88826125cf565b9750612637836125e7565b925050600181019050612618565b5085935050505092915050565b60006102208301600083015161266b600086018261242d565b50602083015161267e602086018261242d565b506040830151612691604086018261242d565b5060608301516126a4606086018261242d565b5060808301516126b7608086018261242d565b5060a08301516126ca60a086018261242d565b5060c08301516126dd60c086018261242d565b5060e08301516126f060e086018261242d565b5061010083015161270561010086018261242d565b5061012083015161271a61012086018261243c565b5061014083015161272f6101408601826124b3565b506101608301516127446101608601826124fb565b5061018083015184820361018086015261275e828261256a565b9150506101a08301518482036101a086015261277a828261256a565b9150506101c08301518482036101c0860152612796828261256a565b9150506101e08301518482036101e08601526127b282826125f4565b9150506102008301518482036102008601526127ce82826125f4565b9150508091505092915050565b60006127e78383612652565b905092915050565b6000602082019050919050565b6000612807826123f7565b6128118185612402565b93508360208202850161282385612413565b8060005b8581101561285f578484038952815161284085826127db565b945061284b836127ef565b925060208a01995050600181019050612827565b50829750879550505050505092915050565b6000602082019050818103600083015261288b81846127fc565b905092915050565b6000819050919050565b6128a681612893565b81146128b157600080fd5b50565b6000813590506128c38161289d565b92915050565b6000806000606084860312156128e2576128e16122d0565b5b60006128f0868287016122fb565b9350506020612901868287016128b4565b92505060406129128682870161238f565b9150509250925092565b600081519050919050565b600082825260208201905092915050565b6000819050602082019050919050565b600060c083016000830151612960600086018261242d565b506020830151612973602086018261242d565b506040830151612986604086018261242d565b506060830151612999606086018261242d565b50608083015184820360808601526129b1828261256a565b91505060a083015184820360a08601526129cb828261256a565b9150508091505092915050565b60006129e48383612948565b905092915050565b6000602082019050919050565b6000612a048261291c565b612a0e8185612927565b935083602082028501612a2085612938565b8060005b85811015612a5c5784840389528151612a3d85826129d8565b9450612a48836129ec565b925060208a01995050600181019050612a24565b50829750879550505050505092915050565b60006020820190508181036000830152612a8881846129f9565b905092915050565b612a9981612423565b8114612aa457600080fd5b50565b600081359050612ab681612a90565b92915050565b60008060408385031215612ad357612ad26122d0565b5b6000612ae1858286016128b4565b9250506020612af285828601612aa7565b9150509250929050565b600060c083016000830151612b14600086018261242d565b506020830151612b27602086018261242d565b506040830151612b3a604086018261242d565b506060830151612b4d606086018261242d565b5060808301518482036080860152612b65828261256a565b91505060a083015184820360a0860152612b7f828261256a565b9150508091505092915050565b60006020820190508181036000830152612ba68184612afc565b905092915050565b6000819050919050565b612bc181612bae565b8114612bcc57600080fd5b50565b600081359050612bde81612bb8565b92915050565b60008060408385031215612bfb57612bfa6122d0565b5b6000612c0985828601612bcf565b9250506020612c1a8582860161238f565b9150509250929050565b600060c083016000830151612c3c600086018261242d565b506020830151612c4f602086018261243c565b5060408301518482036040860152612c67828261256a565b91505060608301518482036060860152612c81828261256a565b91505060808301518482036080860152612c9b828261256a565b91505060a083015184820360a0860152612cb582826125f4565b9150508091505092915050565b60006020820190508181036000830152612cdc8184612c24565b905092915050565b6000819050919050565b612cf781612ce4565b8114612d0257600080fd5b50565b600081359050612d1481612cee565b92915050565b60008060408385031215612d3157612d306122d0565b5b6000612d3f85828601612d05565b9250506020612d5085828601612aa7565b9150509250929050565b60a082016000820151612d70600085018261242d565b506020820151612d83602085018261242d565b506040820151612d96604085018261242d565b506060820151612da9606085018261242d565b506080820151612dbc608085018261242d565b50505050565b600060a082019050612dd76000830184612d5a565b92915050565b60008060408385031215612df457612df36122d0565b5b6000612e0285828601612331565b9250506020612e1385828601612aa7565b9150509250929050565b600061022083016000830151612e36600086018261242d565b506020830151612e49602086018261242d565b506040830151612e5c604086018261242d565b506060830151612e6f606086018261242d565b506080830151612e82608086018261242d565b5060a0830151612e9560a086018261242d565b5060c0830151612ea860c086018261242d565b5060e0830151612ebb60e086018261242d565b50610100830151612ed061010086018261242d565b50610120830151612ee561012086018261243c565b50610140830151612efa6101408601826124b3565b50610160830151612f0f6101608601826124fb565b50610180830151848203610180860152612f29828261256a565b9150506101a08301518482036101a0860152612f45828261256a565b9150506101c08301518482036101c0860152612f61828261256a565b9150506101e08301518482036101e0860152612f7d82826125f4565b915050610200830151848203610200860152612f9982826125f4565b9150508091505092915050565b60006020820190508181036000830152612fc08184612e1d565b905092915050565b600080600060608486031215612fe157612fe06122d0565b5b6000612fef86828701612bcf565b935050602061300086828701612d05565b92505060406130118682870161238f565b9150509250925092565b600081519050919050565b600082825260208201905092915050565b6000819050602082019050919050565b60a08201600082015161305d600085018261242d565b506020820151613070602085018261242d565b506040820151613083604085018261242d565b506060820151613096606085018261242d565b5060808201516130a9608085018261242d565b50505050565b60006130bb8383613047565b60a08301905092915050565b6000602082019050919050565b60006130df8261301b565b6130e98185613026565b93506130f483613037565b8060005b8381101561312557815161310c88826130af565b9750613117836130c7565b9250506001810190506130f8565b5085935050505092915050565b6000602082019050818103600083015261314c81846130d4565b905092915050565b600080fd5b7f4e487b7100000000000000000000000000000000000000000000000000000000600052604160045260246000fd5b61319182612559565b810181811067ffffffffffffffff821117156131b0576131af613159565b5b80604052505050565b60006131c36122c6565b90506131cf8282613188565b919050565b600080fd5b600781106131e657600080fd5b50565b6000813590506131f8816131d9565b92915050565b6006811061320b57600080fd5b50565b60008135905061321d816131fe565b92915050565b600080fd5b600080fd5b600067ffffffffffffffff82111561324857613247613159565b5b61325182612559565b9050602081019050919050565b82818337600083830152505050565b600061328061327b8461322d565b6131b9565b90508281526020810184848401111561329c5761329b613228565b5b6132a784828561325e565b509392505050565b600082601f8301126132c4576132c3613223565b5b81356132d484826020860161326d565b91505092915050565b600067ffffffffffffffff8211156132f8576132f7613159565b5b602082029050602081019050919050565b600080fd5b600061332161331c846132dd565b6131b9565b9050808382526020820190506020840283018581111561334457613343613309565b5b835b8181101561336d57806133598882612aa7565b845260208401935050602081019050613346565b5050509392505050565b600082601f83011261338c5761338b613223565b5b813561339c84826020860161330e565b91505092915050565b600061022082840312156133bc576133bb613154565b5b6133c76102206131b9565b905060006133d784828501612aa7565b60008301525060206133eb84828501612aa7565b60208301525060406133ff84828501612aa7565b604083015250606061341384828501612aa7565b606083015250608061342784828501612aa7565b60808301525060a061343b84828501612aa7565b60a08301525060c061344f84828501612aa7565b60c08301525060e061346384828501612aa7565b60e08301525061010061347884828501612aa7565b6101008301525061012061348e8482850161238f565b610120830152506101406134a4848285016131e9565b610140830152506101606134ba8482850161320e565b6101608301525061018082013567ffffffffffffffff8111156134e0576134df6131d4565b5b6134ec848285016132af565b610180830152506101a082013567ffffffffffffffff811115613512576135116131d4565b5b61351e848285016132af565b6101a0830152506101c082013567ffffffffffffffff811115613544576135436131d4565b5b613550848285016132af565b6101c0830152506101e082013567ffffffffffffffff811115613576576135756131d4565b5b61358284828501613377565b6101e08301525061020082013567ffffffffffffffff8111156135a8576135a76131d4565b5b6135b484828501613377565b6102008301525092915050565b6000602082840312156135d7576135d66122d0565b5b600082013567ffffffffffffffff8111156135f5576135f46122d5565b5b613601848285016133a5565b91505092915050565b613613816124e9565b82525050565b600060208201905061362e600083018461360a565b92915050565b6000819050919050565b61364781613634565b811461365257600080fd5b50565b6000813590506136648161363e565b92915050565b600080600060608486031215613683576136826122d0565b5b600061369186828701612bcf565b93505060206136a286828701613655565b92505060406136b386828701612aa7565b9150509250925092565b600081519050919050565b600082825260208201905092915050565b6000819050602082019050919050565b600060c083016000830151613701600086018261242d565b506020830151613714602086018261243c565b506040830151848203604086015261372c828261256a565b91505060608301518482036060860152613746828261256a565b91505060808301518482036080860152613760828261256a565b91505060a083015184820360a086015261377a82826125f4565b9150508091505092915050565b600061379383836136e9565b905092915050565b6000602082019050919050565b60006137b3826136bd565b6137bd81856136c8565b9350836020820285016137cf856136d9565b8060005b8581101561380b57848403895281516137ec8582613787565b94506137f78361379b565b925060208a019950506001810190506137d3565b50829750879550505050505092915050565b6000602082019050818103600083015261383781846137a8565b905092915050565b60008060408385031215613856576138556122d0565b5b6000613864858286016122fb565b92505060206138758582860161238f565b9150509250929050565b600061010083016000830151613898600086018261242d565b5060208301516138ab602086018261243c565b50604083015184820360408601526138c3828261256a565b915050606083015184820360608601526138dd828261256a565b915050608083015184820360808601526138f7828261256a565b91505060a083015184820360a0860152613911828261256a565b91505060c083015184820360c086015261392b82826125f4565b91505060e083015184820360e086015261394582826125f4565b9150508091505092915050565b6000602082019050818103600083015261396c818461387f565b905092915050565b60008060006060848603121561398d5761398c6122d0565b5b600061399b868287016122fb565b93505060206139ac86828701613655565b92505060406139bd86828701612aa7565b9150509250925092565b600081519050919050565b600082825260208201905092915050565b6000819050602082019050919050565b600061010083016000830151613a0c600086018261242d565b506020830151613a1f602086018261243c565b5060408301518482036040860152613a37828261256a565b91505060608301518482036060860152613a51828261256a565b91505060808301518482036080860152613a6b828261256a565b91505060a083015184820360a0860152613a85828261256a565b91505060c083015184820360c0860152613a9f82826125f4565b91505060e083015184820360e0860152613ab982826125f4565b9150508091505092915050565b6000613ad283836139f3565b905092915050565b6000602082019050919050565b6000613af2826139c7565b613afc81856139d2565b935083602082028501613b0e856139e3565b8060005b85811015613b4a5784840389528151613b2b8582613ac6565b9450613b3683613ada565b925060208a01995050600181019050613b12565b50829750879550505050505092915050565b60006020820190508181036000830152613b768184613ae7565b905092915050565b7f4e487b7100000000000000000000000000000000000000000000000000000000600052603260045260246000fd5b7f4e487b7100000000000000000000000000000000000000000000000000000000600052601160045260246000fd5b6000613be782612423565b91507fffffffffffffffffffffffffffffffffffffffffffffffffffffffffffffffff821415613c1a57613c19613bad565b5b600182019050919050565b7f4e487b7100000000000000000000000000000000000000000000000000000000600052602260045260246000fd5b60006002820490506001821680613c6c57607f821691505b60208210811415613c8057613c7f613c25565b5b50919050565b6000613c9182612423565b9150613c9c83612423565b9250817fffffffffffffffffffffffffffffffffffffffffffffffffffffffffffffffff0483118215151615613cd557613cd4613bad565b5b828202905092915050565b6000613ceb82612423565b9150613cf683612423565b9250827fffffffffffffffffffffffffffffffffffffffffffffffffffffffffffffffff03821115613d2b57613d2a613bad565b5b82820190509291505056fea2646970667358221220666098883a7ac0d9d586d56d12079b49fc8e2bbbe70ab86c0f718ea52ca477ff64736f6c634300080b0033",
  "immutableReferences": {},
  "source": "// SPDX-License-Identifier: MIT\r\npragma solidity 0.8.11;\r\n \r\n/// @title EthicOnChainLib \r\n/// @author Lahcen E. Dev / Jrme Gauthier\r\n/// @notice EthicOnChain library to manage struct and getters\r\nlibrary EthicOnChainLib {\r\n    \r\n    struct NPO {\r\n        uint npoId;\r\n        address npoErc20Address;\r\n        string denomination;\r\n        string postalAddress;\r\n        string object;\r\n        string npoType;\r\n        uint[] projectIds;\r\n        uint[] withdrawalIds;\r\n    }\r\n\r\n    struct Donor {\r\n        uint donorId;\r\n        address donorErc20Address;\r\n        string name;\r\n        string surName;\r\n        string postalAddress;\r\n        uint[] donationIds;\r\n    }\r\n\r\n    struct Project {\r\n        uint projectId; // primary key\r\n        uint startDate;\r\n        uint endDate;\r\n        uint campaignStartDate;\r\n        uint campaignDurationInDays;\r\n        uint minAmount;\r\n        uint maxAmount;\r\n        uint projectBalance;\r\n        uint projectTotalDonations;\r\n        address npoErc20Address;\r\n        ProjectCause cause;\r\n        ProjectStatus status;\r\n        string title;\r\n        string description;\r\n        string geographicalArea;\r\n        uint[] donationIds;\r\n        uint[] withdrawalIds;\r\n    } \r\n\r\n    struct Donation {\r\n        uint donationId; // primary key\r\n        uint projectId;\r\n        uint donorId;\r\n        uint donationDate;\r\n        uint donationAmount;\r\n    }     \r\n\r\n    struct Withdrawal {\r\n        uint withdrawalId; // primary key\r\n        uint projectId;\r\n        uint amount;\r\n        uint withdrawalDate;\r\n        string title;\r\n        string description;\r\n    }\r\n\r\n    enum ProjectCause {\r\n        LutteContreLaPauvreteEtExclusion,\r\n        EnvironnementEtLesAnimaux,\r\n        Education,\r\n        ArtEtLaCulture,\r\n        SanteEtLaRecherche,\r\n        DroitsDeLHomme,\r\n        InfrastructureRoutiere\r\n    }\r\n\r\n    enum ProjectStatus {\r\n        Undefined,\r\n        UnderCreation, \r\n        UnderCampaign,\r\n        InProgress,\r\n        Cancelled,\r\n        Closed\r\n    }\r\n\r\n    /// @dev Get an NPO via its erc20 address\r\n    /// @param _npoAddresses mapping of NPO addresses to NPO Struct\r\n    /// @param _npoErc20Address erc20 address of the NPO Struct\r\n    /// @return returns the corresponding NPO struct\r\n    function libGetNpo(mapping (address => NPO) storage _npoAddresses, address _npoErc20Address) public view returns(NPO memory) {\r\n        return _npoAddresses[_npoErc20Address];\r\n    }\r\n    \r\n    /// @dev Get an NPO via its id\r\n    /// @param _npoAddresses mapping of NPO addresses to NPO Struct\r\n    /// @param _npoMap mapping of NPO id to NPO Struct\r\n    /// @param _npoId id of the NPO\r\n    /// @return returns the corresponding NPO struct\r\n    function libGetNpoByIndex(mapping (address => NPO) storage _npoAddresses, mapping (uint => address) storage _npoMap, uint _npoId) internal view returns(NPO memory) {\r\n        return _npoAddresses[_npoMap[_npoId]];\r\n    }\r\n\r\n    /// @dev Get all NPOs\r\n    /// @param _npoAddresses mapping of NPO addresses to NPO Struct\r\n    /// @param _npoMap mapping of NPO id to NPO Struct\r\n    /// @param _npoCount current index for NPO = total count of NPOs\r\n    /// @return returns an array of all NPOs\r\n    function libGetNpos(mapping (address => NPO) storage _npoAddresses, mapping (uint => address) storage _npoMap, uint _npoCount) public view returns(NPO [] memory) {\r\n        uint arraySize = _npoCount;\r\n        NPO [] memory result= new NPO[](arraySize);\r\n        for(uint i; i < arraySize; i++) {\r\n            result[i] = libGetNpoByIndex(_npoAddresses, _npoMap, i);     \r\n        }\r\n        return result;\r\n    }\r\n\r\n    /// @dev  get a Donor via its erc20 address\r\n    /// @param _donorAddresses mapping of Donors addresses to Donor Struct\r\n    /// @param _donorErc20Address erc20 address of the Donor\r\n    /// @return returns the corresponding Donor struct\r\n    function libGetDonor(mapping (address => Donor) storage _donorAddresses, address _donorErc20Address) public view returns(Donor memory) {\r\n        return _donorAddresses[_donorErc20Address];\r\n    }\r\n\r\n    /// @dev  get a Donor via its id\r\n    /// @param _donorAddresses mapping of Donors addresses to Donor Struct\r\n    /// @param _donorMap mapping of Donor id to Donor Struct\r\n    /// @param _donorId id of the Donor\r\n    /// @return returns the corresponding Donor struct\r\n    function libGetDonorByIndex(mapping (address => Donor) storage _donorAddresses, mapping (uint => address) storage _donorMap, uint _donorId) internal view returns(Donor memory) {\r\n        return _donorAddresses[_donorMap[_donorId]];\r\n    }\r\n\r\n    /// @dev  get all Donors\r\n    /// @param _donorAddresses mapping of Donors addresses to Donor Struct\r\n    /// @param _donorMap mapping of Donor id to Donor Struct\r\n    /// @param _donorCount current index for Donor = total count of Donors\r\n    /// @return returns an array of all Donors\r\n    function libGetDonors(mapping (address => Donor) storage _donorAddresses, mapping (uint => address) storage _donorMap, uint _donorCount) public view returns(Donor [] memory) {\r\n        uint arraySize = _donorCount;\r\n        Donor [] memory result = new Donor[](arraySize);\r\n        for(uint i; i < arraySize; i++) {\r\n            result[i] = libGetDonorByIndex(_donorAddresses, _donorMap, i);\r\n        }\r\n        return result;\r\n    }\r\n\r\n    /// @dev Returns a single Project\r\n    /// @param _projectMap mapping of Project id to Project Struct\r\n    /// @param _projectId project unique id\r\n    /// @return the Project struct instance corresponding to _projectId\r\n    function libGetProject(mapping (uint => Project) storage _projectMap, uint _projectId) public view returns(Project memory) {\r\n        Project memory returnedProject;\r\n        returnedProject = _projectMap[_projectId];\r\n        returnedProject.status = getProjectStatus(returnedProject);\r\n        return returnedProject;\r\n    }\r\n\r\n    /// @dev  get all projects\r\n    /// @param _projectMap mapping of Project id to Project Struct\r\n    /// @param _projectCount current index for Project = total count of Projects\r\n    /// @return returns an array of all Project\r\n    function libGetProjects(mapping (uint => Project) storage _projectMap, uint _projectCount) public view returns(Project [] memory) {\r\n        uint arraySize = _projectCount;\r\n        Project [] memory result= new Project[](arraySize);\r\n        for(uint i; i < arraySize; i++) {\r\n            result[i] = _projectMap[i];     \r\n        }\r\n        return result;\r\n    }\r\n    \r\n    /// @dev Allows to know all the projects of an NPO\r\n    /// @param _npoAddresses mapping of NPO addresses to NPO Struct\r\n    /// @param _projectMap mapping of Project id to Project Struct\r\n    /// @param _addressNpo ERC20 address of the NPO\r\n    /// @return Returns an array of projects\r\n    function libGetProjectsPerNpo(mapping (address => NPO) storage _npoAddresses, mapping (uint => Project) storage _projectMap, address _addressNpo) public view  returns(Project [] memory ) {\r\n        uint arraySize = _npoAddresses[_addressNpo].projectIds.length;\r\n        Project [] memory result = new Project[](arraySize);\r\n        for(uint i; i < arraySize; i++) {\r\n            uint index = _npoAddresses[_addressNpo].projectIds[i];\r\n            result[i] = libGetProject(_projectMap, index);     \r\n        }\r\n        return result;\r\n    }\r\n\r\n    /// @dev  get Donation by id\r\n    /// @param _donationMap mapping of Donation id to Donation Struct\r\n    /// @param _id index pour retrouver la donation a retourner\r\n    /// @return a struct donation \r\n    function libGetDonation(mapping (uint => Donation) storage _donationMap, uint _id) public view returns(Donation memory) {\r\n        return _donationMap[_id];\r\n    }\r\n\r\n    /// @dev Allows to know all the donations of a single donor\r\n    /// @param _donorAddresses mapping of Donors addresses to Donor Struct\r\n    /// @param _donationMap mapping of Donation id to Donation Struct\r\n    /// @param _addressNpo id which represents the index\r\n    /// @return Returns an array of all donation of a single donor\r\n    function libGetDonationPerDonor(mapping (address => Donor) storage _donorAddresses, mapping (uint => Donation) storage _donationMap, address _addressNpo) public view  returns(Donation [] memory ) {\r\n        uint arraySize = _donorAddresses[_addressNpo].donationIds.length;\r\n        Donation [] memory result= new Donation[](arraySize);\r\n        for(uint i; i < arraySize; i++) {\r\n            uint index = _donorAddresses[_addressNpo].donationIds[i];\r\n            result[i] = libGetDonation(_donationMap, index);     \r\n        }\r\n        return result;\r\n    }\r\n\r\n    /// @dev  get Withdrawal by id\r\n    /// @param _withdrawalMap mapping of Withdrawal id to Withdrawal Struct\r\n    /// @param _id index pour retrouver le withdrawal a retourner\r\n    /// @return a struct retait \r\n    function libGetWithdrawal(mapping (uint => Withdrawal) storage _withdrawalMap, uint _id) public view returns(Withdrawal memory) {\r\n        return _withdrawalMap[_id];\r\n    }\r\n\r\n    /// @dev Allows to know all the donations of a single donor\r\n    /// @param _npoAddresses mapping of NPO addresses to NPO Struct\r\n    /// @param _withdrawalMap mapping of Withdrawal id to Withdrawal Struct\r\n    /// @param _addressNpo id which represents the index\r\n    /// @return Returns an array of all donation of a single donor\r\n    function libGetWithdrawalPerNpo(mapping (address => NPO) storage _npoAddresses, mapping (uint => Withdrawal) storage _withdrawalMap, address _addressNpo) public view  returns(Withdrawal [] memory ) {\r\n        uint arraySize = _npoAddresses[_addressNpo].withdrawalIds.length;\r\n        Withdrawal [] memory result= new Withdrawal[](arraySize);\r\n        for(uint i; i < arraySize; i++) {\r\n            uint index = _npoAddresses[_addressNpo].withdrawalIds[i];\r\n            result[i] = libGetWithdrawal(_withdrawalMap, index);     \r\n        }\r\n        return result;\r\n    }\r\n\r\n    /// @dev get the project status\r\n    /// @param _project Project\r\n    /// @return _status the Project status based on Project information\r\n    function getProjectStatus(Project memory _project) public view returns(ProjectStatus _status) {\r\n        ProjectStatus returnedStatus;\r\n        uint campaignEndDate = _project.campaignStartDate + _project.campaignDurationInDays * 1 days;\r\n        // Under Creation\r\n        if (_project.campaignStartDate > block.timestamp) {\r\n            returnedStatus = ProjectStatus.UnderCreation;\r\n        }\r\n        // Under Campaign\r\n        else if (_project.campaignStartDate <= block.timestamp && block.timestamp <= campaignEndDate) {\r\n            returnedStatus = ProjectStatus.UnderCampaign;\r\n        }\r\n        // In Progress\r\n        else if (block.timestamp > campaignEndDate && _project.projectTotalDonations >= _project.minAmount &&\r\n                 _project.startDate <= block.timestamp && block.timestamp <= _project.endDate) {\r\n            returnedStatus = ProjectStatus.InProgress;\r\n        }\r\n        // Cancelled\r\n        else if (block.timestamp > campaignEndDate && _project.projectTotalDonations < _project.minAmount) {\r\n            returnedStatus = ProjectStatus.InProgress;\r\n        }\r\n        // Closed\r\n        else if (block.timestamp > _project.endDate && _project.projectTotalDonations >= _project.minAmount) {\r\n            returnedStatus = ProjectStatus.InProgress;\r\n        }\r\n        // otherwise Undefined\r\n        else {\r\n            returnedStatus = ProjectStatus.Undefined;\r\n        }\r\n        return returnedStatus;\r\n    }\r\n\r\n}",
  "sourcePath": "D:\\DOCUMENTS\\ALYRA\\PROJET\\ethic-on-chain\\contracts\\EthicOnChainLib.sol",
  "compiler": {
    "name": "solc",
    "version": "0.8.11+commit.d7f03943.Emscripten.clang"
  },
  "schemaVersion": "3.4.4",
  "updatedAt": "2022-01-15T15:10:23.985Z",
  "networkType": "ethereum",
  "devdoc": {
    "author": "Lahcen E. Dev / Jrme Gauthier",
    "kind": "dev",
    "methods": {
      "getProjectStatus(EthicOnChainLib.Project)": {
        "details": "get the project status",
        "params": {
          "_project": "Project"
        },
        "returns": {
          "_status": "the Project status based on Project information"
        }
      },
      "libGetDonation(mapping(uint256 => EthicOnChainLib.Donation) storage,uint256)": {
        "details": "get Donation by id",
        "params": {
          "_donationMap": "mapping of Donation id to Donation Struct",
          "_id": "index pour retrouver la donation a retourner"
        },
        "returns": {
          "_0": "a struct donation "
        }
      },
      "libGetDonationPerDonor(mapping(address => EthicOnChainLib.Donor) storage,mapping(uint256 => EthicOnChainLib.Donation) storage,address)": {
        "details": "Allows to know all the donations of a single donor",
        "params": {
          "_addressNpo": "id which represents the index",
          "_donationMap": "mapping of Donation id to Donation Struct",
          "_donorAddresses": "mapping of Donors addresses to Donor Struct"
        },
        "returns": {
          "_0": "Returns an array of all donation of a single donor"
        }
      },
      "libGetDonor(mapping(address => EthicOnChainLib.Donor) storage,address)": {
        "details": "get a Donor via its erc20 address",
        "params": {
          "_donorAddresses": "mapping of Donors addresses to Donor Struct",
          "_donorErc20Address": "erc20 address of the Donor"
        },
        "returns": {
          "_0": "returns the corresponding Donor struct"
        }
      },
      "libGetDonors(mapping(address => EthicOnChainLib.Donor) storage,mapping(uint256 => address) storage,uint256)": {
        "details": "get all Donors",
        "params": {
          "_donorAddresses": "mapping of Donors addresses to Donor Struct",
          "_donorCount": "current index for Donor = total count of Donors",
          "_donorMap": "mapping of Donor id to Donor Struct"
        },
        "returns": {
          "_0": "returns an array of all Donors"
        }
      },
      "libGetNpo(mapping(address => EthicOnChainLib.NPO) storage,address)": {
        "details": "Get an NPO via its erc20 address",
        "params": {
          "_npoAddresses": "mapping of NPO addresses to NPO Struct",
          "_npoErc20Address": "erc20 address of the NPO Struct"
        },
        "returns": {
          "_0": "returns the corresponding NPO struct"
        }
      },
      "libGetNpos(mapping(address => EthicOnChainLib.NPO) storage,mapping(uint256 => address) storage,uint256)": {
        "details": "Get all NPOs",
        "params": {
          "_npoAddresses": "mapping of NPO addresses to NPO Struct",
          "_npoCount": "current index for NPO = total count of NPOs",
          "_npoMap": "mapping of NPO id to NPO Struct"
        },
        "returns": {
          "_0": "returns an array of all NPOs"
        }
      },
      "libGetProject(mapping(uint256 => EthicOnChainLib.Project) storage,uint256)": {
        "details": "Returns a single Project",
        "params": {
          "_projectId": "project unique id",
          "_projectMap": "mapping of Project id to Project Struct"
        },
        "returns": {
          "_0": "the Project struct instance corresponding to _projectId"
        }
      },
      "libGetProjects(mapping(uint256 => EthicOnChainLib.Project) storage,uint256)": {
        "details": "get all projects",
        "params": {
          "_projectCount": "current index for Project = total count of Projects",
          "_projectMap": "mapping of Project id to Project Struct"
        },
        "returns": {
          "_0": "returns an array of all Project"
        }
      },
      "libGetProjectsPerNpo(mapping(address => EthicOnChainLib.NPO) storage,mapping(uint256 => EthicOnChainLib.Project) storage,address)": {
        "details": "Allows to know all the projects of an NPO",
        "params": {
          "_addressNpo": "ERC20 address of the NPO",
          "_npoAddresses": "mapping of NPO addresses to NPO Struct",
          "_projectMap": "mapping of Project id to Project Struct"
        },
        "returns": {
          "_0": "Returns an array of projects"
        }
      },
      "libGetWithdrawal(mapping(uint256 => EthicOnChainLib.Withdrawal) storage,uint256)": {
        "details": "get Withdrawal by id",
        "params": {
          "_id": "index pour retrouver le withdrawal a retourner",
          "_withdrawalMap": "mapping of Withdrawal id to Withdrawal Struct"
        },
        "returns": {
          "_0": "a struct retait "
        }
      },
      "libGetWithdrawalPerNpo(mapping(address => EthicOnChainLib.NPO) storage,mapping(uint256 => EthicOnChainLib.Withdrawal) storage,address)": {
        "details": "Allows to know all the donations of a single donor",
        "params": {
          "_addressNpo": "id which represents the index",
          "_npoAddresses": "mapping of NPO addresses to NPO Struct",
          "_withdrawalMap": "mapping of Withdrawal id to Withdrawal Struct"
        },
        "returns": {
          "_0": "Returns an array of all donation of a single donor"
        }
      }
    },
    "title": "EthicOnChainLib ",
    "version": 1
  },
  "userdoc": {
    "kind": "user",
    "methods": {},
    "notice": "EthicOnChain library to manage struct and getters",
    "version": 1
  }
}