{
  "contractName": "EthicOnChain",
  "abi": [
    {
      "inputs": [
        {
          "internalType": "address",
          "name": "_eocTokenAddress",
          "type": "address"
        }
      ],
      "stateMutability": "nonpayable",
      "type": "constructor"
    },
    {
      "anonymous": false,
      "inputs": [
        {
          "indexed": false,
          "internalType": "uint256",
          "name": "_donationId",
          "type": "uint256"
        },
        {
          "indexed": false,
          "internalType": "uint256",
          "name": "_projectId",
          "type": "uint256"
        },
        {
          "indexed": false,
          "internalType": "uint256",
          "name": "_donorId",
          "type": "uint256"
        },
        {
          "indexed": false,
          "internalType": "uint256",
          "name": "_donationDate",
          "type": "uint256"
        },
        {
          "indexed": false,
          "internalType": "uint256",
          "name": "donationAmount",
          "type": "uint256"
        }
      ],
      "name": "DonationAdded",
      "type": "event"
    },
    {
      "anonymous": false,
      "inputs": [
        {
          "indexed": false,
          "internalType": "uint256",
          "name": "_donorId",
          "type": "uint256"
        },
        {
          "indexed": false,
          "internalType": "address",
          "name": "_donorErc20Address",
          "type": "address"
        },
        {
          "indexed": false,
          "internalType": "string",
          "name": "_donorName",
          "type": "string"
        }
      ],
      "name": "DonorAdded",
      "type": "event"
    },
    {
      "anonymous": false,
      "inputs": [
        {
          "indexed": false,
          "internalType": "uint256",
          "name": "_poId",
          "type": "uint256"
        },
        {
          "indexed": false,
          "internalType": "address",
          "name": "_npoErc20Address",
          "type": "address"
        },
        {
          "indexed": false,
          "internalType": "string",
          "name": "_denomination",
          "type": "string"
        }
      ],
      "name": "NpoAdded",
      "type": "event"
    },
    {
      "anonymous": false,
      "inputs": [
        {
          "indexed": true,
          "internalType": "address",
          "name": "previousOwner",
          "type": "address"
        },
        {
          "indexed": true,
          "internalType": "address",
          "name": "newOwner",
          "type": "address"
        }
      ],
      "name": "OwnershipTransferred",
      "type": "event"
    },
    {
      "anonymous": false,
      "inputs": [
        {
          "indexed": false,
          "internalType": "uint256",
          "name": "_projectId",
          "type": "uint256"
        },
        {
          "indexed": false,
          "internalType": "string",
          "name": "_title",
          "type": "string"
        },
        {
          "indexed": false,
          "internalType": "uint256",
          "name": "_startDate",
          "type": "uint256"
        },
        {
          "indexed": false,
          "internalType": "uint256",
          "name": "_endDate",
          "type": "uint256"
        },
        {
          "indexed": false,
          "internalType": "uint256",
          "name": "_minAmount",
          "type": "uint256"
        },
        {
          "indexed": false,
          "internalType": "uint256",
          "name": "_maxAmount",
          "type": "uint256"
        }
      ],
      "name": "ProjectAdded",
      "type": "event"
    },
    {
      "anonymous": false,
      "inputs": [
        {
          "indexed": false,
          "internalType": "uint256",
          "name": "_withdrawalId",
          "type": "uint256"
        },
        {
          "indexed": false,
          "internalType": "uint256",
          "name": "_projectId",
          "type": "uint256"
        },
        {
          "indexed": false,
          "internalType": "uint256",
          "name": "_amount",
          "type": "uint256"
        },
        {
          "indexed": false,
          "internalType": "address",
          "name": "_addressRecipent",
          "type": "address"
        }
      ],
      "name": "WithdrawalAdded",
      "type": "event"
    },
    {
      "inputs": [
        {
          "internalType": "address",
          "name": "",
          "type": "address"
        }
      ],
      "name": "donorAddresses",
      "outputs": [
        {
          "internalType": "uint256",
          "name": "donorId",
          "type": "uint256"
        },
        {
          "internalType": "address",
          "name": "donorErc20Address",
          "type": "address"
        },
        {
          "internalType": "string",
          "name": "name",
          "type": "string"
        },
        {
          "internalType": "string",
          "name": "surName",
          "type": "string"
        },
        {
          "internalType": "string",
          "name": "postalAddress",
          "type": "string"
        }
      ],
      "stateMutability": "view",
      "type": "function",
      "constant": true
    },
    {
      "inputs": [
        {
          "internalType": "address",
          "name": "",
          "type": "address"
        }
      ],
      "name": "npoAddresses",
      "outputs": [
        {
          "internalType": "uint256",
          "name": "npoId",
          "type": "uint256"
        },
        {
          "internalType": "address",
          "name": "npoErc20Address",
          "type": "address"
        },
        {
          "internalType": "string",
          "name": "denomination",
          "type": "string"
        },
        {
          "internalType": "string",
          "name": "postalAddress",
          "type": "string"
        },
        {
          "internalType": "string",
          "name": "object",
          "type": "string"
        },
        {
          "internalType": "string",
          "name": "npoType",
          "type": "string"
        }
      ],
      "stateMutability": "view",
      "type": "function",
      "constant": true
    },
    {
      "inputs": [],
      "name": "owner",
      "outputs": [
        {
          "internalType": "address",
          "name": "",
          "type": "address"
        }
      ],
      "stateMutability": "view",
      "type": "function",
      "constant": true
    },
    {
      "inputs": [],
      "name": "renounceOwnership",
      "outputs": [],
      "stateMutability": "nonpayable",
      "type": "function"
    },
    {
      "inputs": [
        {
          "internalType": "address",
          "name": "newOwner",
          "type": "address"
        }
      ],
      "name": "transferOwnership",
      "outputs": [],
      "stateMutability": "nonpayable",
      "type": "function"
    },
    {
      "inputs": [
        {
          "internalType": "address",
          "name": "_npoErc20Address",
          "type": "address"
        },
        {
          "internalType": "string",
          "name": "_denomination",
          "type": "string"
        },
        {
          "internalType": "string",
          "name": "_postalAddress",
          "type": "string"
        },
        {
          "internalType": "string",
          "name": "_object",
          "type": "string"
        },
        {
          "internalType": "string",
          "name": "_npoType",
          "type": "string"
        }
      ],
      "name": "addNpo",
      "outputs": [],
      "stateMutability": "nonpayable",
      "type": "function"
    },
    {
      "inputs": [
        {
          "internalType": "address",
          "name": "_donorErc20Address",
          "type": "address"
        },
        {
          "internalType": "string",
          "name": "_name",
          "type": "string"
        },
        {
          "internalType": "string",
          "name": "_surName",
          "type": "string"
        },
        {
          "internalType": "string",
          "name": "_postalAddress",
          "type": "string"
        }
      ],
      "name": "addDonor",
      "outputs": [],
      "stateMutability": "nonpayable",
      "type": "function"
    },
    {
      "inputs": [
        {
          "internalType": "string",
          "name": "_title",
          "type": "string"
        },
        {
          "internalType": "string",
          "name": "_description",
          "type": "string"
        },
        {
          "internalType": "string",
          "name": "_geographicalArea",
          "type": "string"
        },
        {
          "internalType": "uint256",
          "name": "_startDate",
          "type": "uint256"
        },
        {
          "internalType": "uint256",
          "name": "_endDate",
          "type": "uint256"
        },
        {
          "internalType": "uint256",
          "name": "_campaignStartDate",
          "type": "uint256"
        },
        {
          "internalType": "uint256",
          "name": "_campaignDurationInDays",
          "type": "uint256"
        },
        {
          "internalType": "uint256",
          "name": "_minAmount",
          "type": "uint256"
        },
        {
          "internalType": "uint256",
          "name": "_maxAmount",
          "type": "uint256"
        }
      ],
      "name": "addProject",
      "outputs": [],
      "stateMutability": "nonpayable",
      "type": "function"
    },
    {
      "inputs": [
        {
          "internalType": "uint256",
          "name": "_projectId",
          "type": "uint256"
        },
        {
          "internalType": "uint256",
          "name": "_donationAmount",
          "type": "uint256"
        }
      ],
      "name": "addDonation",
      "outputs": [],
      "stateMutability": "nonpayable",
      "type": "function"
    },
    {
      "inputs": [
        {
          "internalType": "uint256",
          "name": "_projectId",
          "type": "uint256"
        },
        {
          "internalType": "uint256",
          "name": "_amount",
          "type": "uint256"
        },
        {
          "internalType": "string",
          "name": "_title",
          "type": "string"
        },
        {
          "internalType": "string",
          "name": "_description",
          "type": "string"
        }
      ],
      "name": "withdrawTokens",
      "outputs": [],
      "stateMutability": "nonpayable",
      "type": "function"
    },
    {
      "inputs": [
        {
          "internalType": "address",
          "name": "_npoErc20Address",
          "type": "address"
        }
      ],
      "name": "getNpo",
      "outputs": [
        {
          "components": [
            {
              "internalType": "uint256",
              "name": "npoId",
              "type": "uint256"
            },
            {
              "internalType": "address",
              "name": "npoErc20Address",
              "type": "address"
            },
            {
              "internalType": "string",
              "name": "denomination",
              "type": "string"
            },
            {
              "internalType": "string",
              "name": "postalAddress",
              "type": "string"
            },
            {
              "internalType": "string",
              "name": "object",
              "type": "string"
            },
            {
              "internalType": "string",
              "name": "npoType",
              "type": "string"
            },
            {
              "internalType": "uint256[]",
              "name": "projectIds",
              "type": "uint256[]"
            },
            {
              "internalType": "uint256[]",
              "name": "withdrawalIds",
              "type": "uint256[]"
            }
          ],
          "internalType": "struct EthicOnChainLib.NPO",
          "name": "",
          "type": "tuple"
        }
      ],
      "stateMutability": "view",
      "type": "function",
      "constant": true
    },
    {
      "inputs": [],
      "name": "getNpos",
      "outputs": [
        {
          "components": [
            {
              "internalType": "uint256",
              "name": "npoId",
              "type": "uint256"
            },
            {
              "internalType": "address",
              "name": "npoErc20Address",
              "type": "address"
            },
            {
              "internalType": "string",
              "name": "denomination",
              "type": "string"
            },
            {
              "internalType": "string",
              "name": "postalAddress",
              "type": "string"
            },
            {
              "internalType": "string",
              "name": "object",
              "type": "string"
            },
            {
              "internalType": "string",
              "name": "npoType",
              "type": "string"
            },
            {
              "internalType": "uint256[]",
              "name": "projectIds",
              "type": "uint256[]"
            },
            {
              "internalType": "uint256[]",
              "name": "withdrawalIds",
              "type": "uint256[]"
            }
          ],
          "internalType": "struct EthicOnChainLib.NPO[]",
          "name": "",
          "type": "tuple[]"
        }
      ],
      "stateMutability": "view",
      "type": "function",
      "constant": true
    },
    {
      "inputs": [
        {
          "internalType": "address",
          "name": "_donorErc20Address",
          "type": "address"
        }
      ],
      "name": "getDonor",
      "outputs": [
        {
          "components": [
            {
              "internalType": "uint256",
              "name": "donorId",
              "type": "uint256"
            },
            {
              "internalType": "address",
              "name": "donorErc20Address",
              "type": "address"
            },
            {
              "internalType": "string",
              "name": "name",
              "type": "string"
            },
            {
              "internalType": "string",
              "name": "surName",
              "type": "string"
            },
            {
              "internalType": "string",
              "name": "postalAddress",
              "type": "string"
            },
            {
              "internalType": "uint256[]",
              "name": "donationIds",
              "type": "uint256[]"
            }
          ],
          "internalType": "struct EthicOnChainLib.Donor",
          "name": "",
          "type": "tuple"
        }
      ],
      "stateMutability": "view",
      "type": "function",
      "constant": true
    },
    {
      "inputs": [],
      "name": "getDonors",
      "outputs": [
        {
          "components": [
            {
              "internalType": "uint256",
              "name": "donorId",
              "type": "uint256"
            },
            {
              "internalType": "address",
              "name": "donorErc20Address",
              "type": "address"
            },
            {
              "internalType": "string",
              "name": "name",
              "type": "string"
            },
            {
              "internalType": "string",
              "name": "surName",
              "type": "string"
            },
            {
              "internalType": "string",
              "name": "postalAddress",
              "type": "string"
            },
            {
              "internalType": "uint256[]",
              "name": "donationIds",
              "type": "uint256[]"
            }
          ],
          "internalType": "struct EthicOnChainLib.Donor[]",
          "name": "",
          "type": "tuple[]"
        }
      ],
      "stateMutability": "view",
      "type": "function",
      "constant": true
    },
    {
      "inputs": [
        {
          "internalType": "uint256",
          "name": "_projectId",
          "type": "uint256"
        }
      ],
      "name": "getProject",
      "outputs": [
        {
          "components": [
            {
              "internalType": "uint256",
              "name": "projectId",
              "type": "uint256"
            },
            {
              "internalType": "uint256",
              "name": "startDate",
              "type": "uint256"
            },
            {
              "internalType": "uint256",
              "name": "endDate",
              "type": "uint256"
            },
            {
              "internalType": "uint256",
              "name": "campaignStartDate",
              "type": "uint256"
            },
            {
              "internalType": "uint256",
              "name": "campaignDurationInDays",
              "type": "uint256"
            },
            {
              "internalType": "uint256",
              "name": "minAmount",
              "type": "uint256"
            },
            {
              "internalType": "uint256",
              "name": "maxAmount",
              "type": "uint256"
            },
            {
              "internalType": "uint256",
              "name": "projectBalance",
              "type": "uint256"
            },
            {
              "internalType": "address",
              "name": "npoErc20Address",
              "type": "address"
            },
            {
              "internalType": "enum EthicOnChainLib.ProjectCause",
              "name": "cause",
              "type": "uint8"
            },
            {
              "internalType": "string",
              "name": "title",
              "type": "string"
            },
            {
              "internalType": "string",
              "name": "description",
              "type": "string"
            },
            {
              "internalType": "string",
              "name": "geographicalArea",
              "type": "string"
            },
            {
              "internalType": "uint256[]",
              "name": "donationIds",
              "type": "uint256[]"
            },
            {
              "internalType": "uint256[]",
              "name": "withdrawalIds",
              "type": "uint256[]"
            }
          ],
          "internalType": "struct EthicOnChainLib.Project",
          "name": "",
          "type": "tuple"
        }
      ],
      "stateMutability": "view",
      "type": "function",
      "constant": true
    },
    {
      "inputs": [],
      "name": "getProjects",
      "outputs": [
        {
          "components": [
            {
              "internalType": "uint256",
              "name": "projectId",
              "type": "uint256"
            },
            {
              "internalType": "uint256",
              "name": "startDate",
              "type": "uint256"
            },
            {
              "internalType": "uint256",
              "name": "endDate",
              "type": "uint256"
            },
            {
              "internalType": "uint256",
              "name": "campaignStartDate",
              "type": "uint256"
            },
            {
              "internalType": "uint256",
              "name": "campaignDurationInDays",
              "type": "uint256"
            },
            {
              "internalType": "uint256",
              "name": "minAmount",
              "type": "uint256"
            },
            {
              "internalType": "uint256",
              "name": "maxAmount",
              "type": "uint256"
            },
            {
              "internalType": "uint256",
              "name": "projectBalance",
              "type": "uint256"
            },
            {
              "internalType": "address",
              "name": "npoErc20Address",
              "type": "address"
            },
            {
              "internalType": "enum EthicOnChainLib.ProjectCause",
              "name": "cause",
              "type": "uint8"
            },
            {
              "internalType": "string",
              "name": "title",
              "type": "string"
            },
            {
              "internalType": "string",
              "name": "description",
              "type": "string"
            },
            {
              "internalType": "string",
              "name": "geographicalArea",
              "type": "string"
            },
            {
              "internalType": "uint256[]",
              "name": "donationIds",
              "type": "uint256[]"
            },
            {
              "internalType": "uint256[]",
              "name": "withdrawalIds",
              "type": "uint256[]"
            }
          ],
          "internalType": "struct EthicOnChainLib.Project[]",
          "name": "",
          "type": "tuple[]"
        }
      ],
      "stateMutability": "view",
      "type": "function",
      "constant": true
    },
    {
      "inputs": [
        {
          "internalType": "address",
          "name": "_addressNpo",
          "type": "address"
        }
      ],
      "name": "getProjectsPerNpo",
      "outputs": [
        {
          "components": [
            {
              "internalType": "uint256",
              "name": "projectId",
              "type": "uint256"
            },
            {
              "internalType": "uint256",
              "name": "startDate",
              "type": "uint256"
            },
            {
              "internalType": "uint256",
              "name": "endDate",
              "type": "uint256"
            },
            {
              "internalType": "uint256",
              "name": "campaignStartDate",
              "type": "uint256"
            },
            {
              "internalType": "uint256",
              "name": "campaignDurationInDays",
              "type": "uint256"
            },
            {
              "internalType": "uint256",
              "name": "minAmount",
              "type": "uint256"
            },
            {
              "internalType": "uint256",
              "name": "maxAmount",
              "type": "uint256"
            },
            {
              "internalType": "uint256",
              "name": "projectBalance",
              "type": "uint256"
            },
            {
              "internalType": "address",
              "name": "npoErc20Address",
              "type": "address"
            },
            {
              "internalType": "enum EthicOnChainLib.ProjectCause",
              "name": "cause",
              "type": "uint8"
            },
            {
              "internalType": "string",
              "name": "title",
              "type": "string"
            },
            {
              "internalType": "string",
              "name": "description",
              "type": "string"
            },
            {
              "internalType": "string",
              "name": "geographicalArea",
              "type": "string"
            },
            {
              "internalType": "uint256[]",
              "name": "donationIds",
              "type": "uint256[]"
            },
            {
              "internalType": "uint256[]",
              "name": "withdrawalIds",
              "type": "uint256[]"
            }
          ],
          "internalType": "struct EthicOnChainLib.Project[]",
          "name": "",
          "type": "tuple[]"
        }
      ],
      "stateMutability": "view",
      "type": "function",
      "constant": true
    },
    {
      "inputs": [
        {
          "internalType": "uint256",
          "name": "_id",
          "type": "uint256"
        }
      ],
      "name": "getDonation",
      "outputs": [
        {
          "components": [
            {
              "internalType": "uint256",
              "name": "donationId",
              "type": "uint256"
            },
            {
              "internalType": "uint256",
              "name": "projectId",
              "type": "uint256"
            },
            {
              "internalType": "uint256",
              "name": "donorId",
              "type": "uint256"
            },
            {
              "internalType": "uint256",
              "name": "donationDate",
              "type": "uint256"
            },
            {
              "internalType": "uint256",
              "name": "donationAmount",
              "type": "uint256"
            }
          ],
          "internalType": "struct EthicOnChainLib.Donation",
          "name": "",
          "type": "tuple"
        }
      ],
      "stateMutability": "view",
      "type": "function",
      "constant": true
    },
    {
      "inputs": [
        {
          "internalType": "address",
          "name": "_addressNpo",
          "type": "address"
        }
      ],
      "name": "getDonationPerDonor",
      "outputs": [
        {
          "components": [
            {
              "internalType": "uint256",
              "name": "donationId",
              "type": "uint256"
            },
            {
              "internalType": "uint256",
              "name": "projectId",
              "type": "uint256"
            },
            {
              "internalType": "uint256",
              "name": "donorId",
              "type": "uint256"
            },
            {
              "internalType": "uint256",
              "name": "donationDate",
              "type": "uint256"
            },
            {
              "internalType": "uint256",
              "name": "donationAmount",
              "type": "uint256"
            }
          ],
          "internalType": "struct EthicOnChainLib.Donation[]",
          "name": "",
          "type": "tuple[]"
        }
      ],
      "stateMutability": "view",
      "type": "function",
      "constant": true
    },
    {
      "inputs": [
        {
          "internalType": "uint256",
          "name": "_id",
          "type": "uint256"
        }
      ],
      "name": "getWithdrawal",
      "outputs": [
        {
          "components": [
            {
              "internalType": "uint256",
              "name": "withdrawalId",
              "type": "uint256"
            },
            {
              "internalType": "uint256",
              "name": "projectId",
              "type": "uint256"
            },
            {
              "internalType": "uint256",
              "name": "amount",
              "type": "uint256"
            },
            {
              "internalType": "uint256",
              "name": "withdrawalDate",
              "type": "uint256"
            },
            {
              "internalType": "string",
              "name": "title",
              "type": "string"
            },
            {
              "internalType": "string",
              "name": "description",
              "type": "string"
            }
          ],
          "internalType": "struct EthicOnChainLib.Withdrawal",
          "name": "",
          "type": "tuple"
        }
      ],
      "stateMutability": "view",
      "type": "function",
      "constant": true
    },
    {
      "inputs": [
        {
          "internalType": "address",
          "name": "_addressNpo",
          "type": "address"
        }
      ],
      "name": "getWithdrawalPerNpo",
      "outputs": [
        {
          "components": [
            {
              "internalType": "uint256",
              "name": "withdrawalId",
              "type": "uint256"
            },
            {
              "internalType": "uint256",
              "name": "projectId",
              "type": "uint256"
            },
            {
              "internalType": "uint256",
              "name": "amount",
              "type": "uint256"
            },
            {
              "internalType": "uint256",
              "name": "withdrawalDate",
              "type": "uint256"
            },
            {
              "internalType": "string",
              "name": "title",
              "type": "string"
            },
            {
              "internalType": "string",
              "name": "description",
              "type": "string"
            }
          ],
          "internalType": "struct EthicOnChainLib.Withdrawal[]",
          "name": "",
          "type": "tuple[]"
        }
      ],
      "stateMutability": "view",
      "type": "function",
      "constant": true
    }
  ],
  "bytecode": "0x60806040523480156200001157600080fd5b5060405162006098380380620060988339818101604052810190620000379190620001d5565b620000576200004b6200009f60201b60201c565b620000a760201b60201c565b80600d60006101000a81548173ffffffffffffffffffffffffffffffffffffffff021916908373ffffffffffffffffffffffffffffffffffffffff1602179055505062000207565b600033905090565b60008060009054906101000a900473ffffffffffffffffffffffffffffffffffffffff169050816000806101000a81548173ffffffffffffffffffffffffffffffffffffffff021916908373ffffffffffffffffffffffffffffffffffffffff1602179055508173ffffffffffffffffffffffffffffffffffffffff168173ffffffffffffffffffffffffffffffffffffffff167f8be0079c531659141344cd1fd0a4f28419497f9722a3daafe3b4186f6b6457e060405160405180910390a35050565b600080fd5b600073ffffffffffffffffffffffffffffffffffffffff82169050919050565b60006200019d8262000170565b9050919050565b620001af8162000190565b8114620001bb57600080fd5b50565b600081519050620001cf81620001a4565b92915050565b600060208284031215620001ee57620001ed6200016b565b5b6000620001fe84828501620001be565b91505092915050565b615e8180620002176000396000f3fe608060405234801561001057600080fd5b50600436106101375760003560e01c80638da5cb5b116100b8578063d87ffb701161007c578063d87ffb7014610369578063dcc6012814610385578063ef07a81f146103a3578063f0f3f2c8146103d3578063f2fde38b14610403578063ff6d56ef1461041f57610137565b80638da5cb5b1461029d57806396c59043146102bb57806396f300d4146102eb578063a90f733314610309578063b3c9020b1461033957610137565b806362e13e7d116100ff57806362e13e7d146101f5578063678f04cc14610229578063715018a6146102455780637d1887f81461024f5780638a4fb16a1461026d57610137565b80630a0aaa271461013c57806319ccf9ed1461016c5780631f1ffb1c146101885780633f9754c9146101a45780634913cdb0146101c0575b600080fd5b61015660048036038101906101519190612842565b61044f565b6040516101639190612a73565b60405180910390f35b61018660048036038101906101819190612bca565b6104db565b005b6101a2600480360381019061019d9190612cb1565b610825565b005b6101be60048036038101906101b99190612dcf565b610cd9565b005b6101da60048036038101906101d59190612842565b61110d565b6040516101ec96959493929190612f22565b60405180910390f35b61020f600480360381019061020a9190612842565b611389565b604051610220959493929190612f9f565b60405180910390f35b610243600480360381019061023e9190613007565b611577565b005b61024d6119c8565b005b610257611a50565b60405161026491906132f9565b60405180910390f35b6102876004803603810190610282919061331b565b611adc565b60405161029491906133d8565b60405180910390f35b6102a5611b6b565b6040516102b291906133fa565b60405180910390f35b6102d560048036038101906102d09190612842565b611b94565b6040516102e291906134b3565b60405180910390f35b6102f3611c23565b6040516103009190613635565b60405180910390f35b610323600480360381019061031e9190612842565b611caf565b604051610330919061376e565b60405180910390f35b610353600480360381019061034e9190612842565b611d3b565b6040516103609190613a28565b60405180910390f35b610383600480360381019061037e9190613a4a565b611dc7565b005b61038d61218e565b60405161039a9190613a28565b60405180910390f35b6103bd60048036038101906103b8919061331b565b612217565b6040516103ca9190613af2565b60405180910390f35b6103ed60048036038101906103e8919061331b565b6122a1565b6040516103fa9190613c6c565b60405180910390f35b61041d60048036038101906104189190612842565b612330565b005b61043960048036038101906104349190612842565b612428565b6040516104469190613d61565b60405180910390f35b606073__EthicOnChainLib_______________________632c77488e6001600b856040518463ffffffff1660e01b815260040161048e93929190613da0565b600060405180830381865af41580156104ab573d6000803e3d6000fd5b505050506040513d6000823e3d601f19601f820116820180604052508101906104d49190614024565b9050919050565b6104e36124b7565b73ffffffffffffffffffffffffffffffffffffffff16610501611b6b565b73ffffffffffffffffffffffffffffffffffffffff1614610557576040517f08c379a000000000000000000000000000000000000000000000000000000000815260040161054e906140b9565b60405180910390fd5b600073ffffffffffffffffffffffffffffffffffffffff168473ffffffffffffffffffffffffffffffffffffffff16116105c6576040517f08c379a00000000000000000000000000000000000000000000000000000000081526004016105bd9061414b565b60405180910390fd5b600073ffffffffffffffffffffffffffffffffffffffff16600460008673ffffffffffffffffffffffffffffffffffffffff1673ffffffffffffffffffffffffffffffffffffffff16815260200190815260200160002060010160009054906101000a900473ffffffffffffffffffffffffffffffffffffffff1673ffffffffffffffffffffffffffffffffffffffff1614610697576040517f08c379a000000000000000000000000000000000000000000000000000000000815260040161068e906141b7565b60405180910390fd5b6000600460008673ffffffffffffffffffffffffffffffffffffffff1673ffffffffffffffffffffffffffffffffffffffff16815260200190815260200160002090506006548160000181905550838160020190805190602001906106fd929190612583565b5082816003019080519060200190610716929190612583565b50848160010160006101000a81548173ffffffffffffffffffffffffffffffffffffffff021916908373ffffffffffffffffffffffffffffffffffffffff16021790555081816004019080519060200190610772929190612583565b508460056000600654815260200190815260200160002060006101000a81548173ffffffffffffffffffffffffffffffffffffffff021916908373ffffffffffffffffffffffffffffffffffffffff160217905550600660008154809291906107da90614206565b91905055507ff1a73eeb2b4ddced9fb956e389a13618a37205f30bf1694dbf5ba71b1bbfc25c816000015486866040516108169392919061424f565b60405180910390a15050505050565b6000600160003373ffffffffffffffffffffffffffffffffffffffff1673ffffffffffffffffffffffffffffffffffffffff16815260200190815260200160002090506000816002018054610879906142bc565b905014156108bc576040517f08c379a00000000000000000000000000000000000000000000000000000000081526004016108b390614360565b60405180910390fd5b60008a5111610900576040517f08c379a00000000000000000000000000000000000000000000000000000000081526004016108f7906143cc565b60405180910390fd5b6000895111610944576040517f08c379a000000000000000000000000000000000000000000000000000000000815260040161093b90614438565b60405180910390fd5b60008711610987576040517f08c379a000000000000000000000000000000000000000000000000000000000815260040161097e906144ca565b60405180910390fd5b600086116109ca576040517f08c379a00000000000000000000000000000000000000000000000000000000081526004016109c19061455c565b60405180910390fd5b60008311610a0d576040517f08c379a0000000000000000000000000000000000000000000000000000000008152600401610a04906145c8565b60405180910390fd5b60008211610a50576040517f08c379a0000000000000000000000000000000000000000000000000000000008152600401610a4790614634565b60405180910390fd5b60008511610a93576040517f08c379a0000000000000000000000000000000000000000000000000000000008152600401610a8a906146c6565b60405180910390fd5b60008411610ad6576040517f08c379a0000000000000000000000000000000000000000000000000000000008152600401610acd90614732565b60405180910390fd5b858710610b18576040517f08c379a0000000000000000000000000000000000000000000000000000000008152600401610b0f906147c4565b60405180910390fd5b818310610b5a576040517f08c379a0000000000000000000000000000000000000000000000000000000008152600401610b5190614856565b60405180910390fd5b600060076000600854815260200190815260200160002090506008548160000181905550338160080160006101000a81548173ffffffffffffffffffffffffffffffffffffffff021916908373ffffffffffffffffffffffffffffffffffffffff1602179055508a816009019080519060200190610bd9929190612583565b508981600a019080519060200190610bf2929190612583565b508881600b019080519060200190610c0b929190612583565b5087816001018190555086816002018190555085816003018190555084816004018190555083816005018190555082816006018190555081600601600854908060018154018082558091505060019003906000526020600020016000909190919091505560086000815480929190610c8290614206565b91905055507ff9702874e260ae597ee7c3acbf77aad0ce01f26c14650d5afbc5b43a62b34af381600001548c8a8a8888604051610cc496959493929190614876565b60405180910390a15050505050505050505050565b610ce16124b7565b73ffffffffffffffffffffffffffffffffffffffff16610cff611b6b565b73ffffffffffffffffffffffffffffffffffffffff1614610d55576040517f08c379a0000000000000000000000000000000000000000000000000000000008152600401610d4c906140b9565b60405180910390fd5b600073ffffffffffffffffffffffffffffffffffffffff168573ffffffffffffffffffffffffffffffffffffffff1611610dc4576040517f08c379a0000000000000000000000000000000000000000000000000000000008152600401610dbb90614950565b60405180910390fd5b6000845111610e08576040517f08c379a0000000000000000000000000000000000000000000000000000000008152600401610dff906149bc565b60405180910390fd5b6000835111610e4c576040517f08c379a0000000000000000000000000000000000000000000000000000000008152600401610e4390614a28565b60405180910390fd5b6000825111610e90576040517f08c379a0000000000000000000000000000000000000000000000000000000008152600401610e8790614a94565b60405180910390fd5b6000815111610ed4576040517f08c379a0000000000000000000000000000000000000000000000000000000008152600401610ecb90614b00565b60405180910390fd5b6000600160008773ffffffffffffffffffffffffffffffffffffffff1673ffffffffffffffffffffffffffffffffffffffff1681526020019081526020016000206002018054610f23906142bc565b905014610f65576040517f08c379a0000000000000000000000000000000000000000000000000000000008152600401610f5c90614b6c565b60405180910390fd5b6000600160008773ffffffffffffffffffffffffffffffffffffffff1673ffffffffffffffffffffffffffffffffffffffff16815260200190815260200160002090506003548160000181905550858160010160006101000a81548173ffffffffffffffffffffffffffffffffffffffff021916908373ffffffffffffffffffffffffffffffffffffffff1602179055508481600201908051906020019061100e929190612583565b5083816003019080519060200190611027929190612583565b5082816004019080519060200190611040929190612583565b5081816005019080519060200190611059929190612583565b508560026000600354815260200190815260200160002060006101000a81548173ffffffffffffffffffffffffffffffffffffffff021916908373ffffffffffffffffffffffffffffffffffffffff160217905550600360008154809291906110c190614206565b91905055507f1a9e41b629a15a636da77b06f2707c109021423f307b3f34f33ded411423ef14816000015487876040516110fd9392919061424f565b60405180910390a1505050505050565b60016020528060005260406000206000915090508060000154908060010160009054906101000a900473ffffffffffffffffffffffffffffffffffffffff169080600201805461115c906142bc565b80601f0160208091040260200160405190810160405280929190818152602001828054611188906142bc565b80156111d55780601f106111aa576101008083540402835291602001916111d5565b820191906000526020600020905b8154815290600101906020018083116111b857829003601f168201915b5050505050908060030180546111ea906142bc565b80601f0160208091040260200160405190810160405280929190818152602001828054611216906142bc565b80156112635780601f1061123857610100808354040283529160200191611263565b820191906000526020600020905b81548152906001019060200180831161124657829003601f168201915b505050505090806004018054611278906142bc565b80601f01602080910402602001604051908101604052809291908181526020018280546112a4906142bc565b80156112f15780601f106112c6576101008083540402835291602001916112f1565b820191906000526020600020905b8154815290600101906020018083116112d457829003601f168201915b505050505090806005018054611306906142bc565b80601f0160208091040260200160405190810160405280929190818152602001828054611332906142bc565b801561137f5780601f106113545761010080835404028352916020019161137f565b820191906000526020600020905b81548152906001019060200180831161136257829003601f168201915b5050505050905086565b60046020528060005260406000206000915090508060000154908060010160009054906101000a900473ffffffffffffffffffffffffffffffffffffffff16908060020180546113d8906142bc565b80601f0160208091040260200160405190810160405280929190818152602001828054611404906142bc565b80156114515780601f1061142657610100808354040283529160200191611451565b820191906000526020600020905b81548152906001019060200180831161143457829003601f168201915b505050505090806003018054611466906142bc565b80601f0160208091040260200160405190810160405280929190818152602001828054611492906142bc565b80156114df5780601f106114b4576101008083540402835291602001916114df565b820191906000526020600020905b8154815290600101906020018083116114c257829003601f168201915b5050505050908060040180546114f4906142bc565b80601f0160208091040260200160405190810160405280929190818152602001828054611520906142bc565b801561156d5780601f106115425761010080835404028352916020019161156d565b820191906000526020600020905b81548152906001019060200180831161155057829003601f168201915b5050505050905085565b6000600160003373ffffffffffffffffffffffffffffffffffffffff1673ffffffffffffffffffffffffffffffffffffffff16815260200190815260200160002090506000600160003373ffffffffffffffffffffffffffffffffffffffff1673ffffffffffffffffffffffffffffffffffffffff1681526020019081526020016000206002018054611609906142bc565b9050141561164c576040517f08c379a000000000000000000000000000000000000000000000000000000000815260040161164390614360565b60405180910390fd5b600060076000878152602001908152602001600020600901805461166f906142bc565b905014156116b2576040517f08c379a00000000000000000000000000000000000000000000000000000000081526004016116a990614bd8565b60405180910390fd5b60006007600087815260200190815260200160002060070154905084811015611710576040517f08c379a000000000000000000000000000000000000000000000000000000000815260040161170790614c44565b60405180910390fd5b60006201518060076000898152602001908152602001600020600401546117379190614c64565b60076000898152602001908152602001600020600301546117589190614cbe565b9050600760008881526020019081526020016000206003015442116117b2576040517f08c379a00000000000000000000000000000000000000000000000000000000081526004016117a990614d60565b60405180910390fd5b6000600b6000600c5481526020019081526020016000209050600c548160000181905550878160010181905550858160040190805190602001906117f7929190612583565b5086816002018190555042816003018190555084816005019080519060200190611822929190612583565b5083600701600c54908060018154018082558091505060019003906000526020600020016000909190919091505586600760008a815260200190815260200160002060070160008282546118769190614d80565b9250508190555060076000898152602001908152602001600020600d01600c549080600181540180825580915050600190039060005260206000200160009091909190915055600c60008154809291906118cf90614206565b9190505550600d60009054906101000a900473ffffffffffffffffffffffffffffffffffffffff1673ffffffffffffffffffffffffffffffffffffffff1663a9059cbb33896040518363ffffffff1660e01b8152600401611931929190614db4565b6020604051808303816000875af1158015611950573d6000803e3d6000fd5b505050506040513d601f19601f820116820180604052508101906119749190614e15565b507f38b2ce41ee33d013c6288339b87fd2c9f7af7d6881611651dbb6c2ba145d71d7816000015482600101548360020154336040516119b69493929190614e42565b60405180910390a15050505050505050565b6119d06124b7565b73ffffffffffffffffffffffffffffffffffffffff166119ee611b6b565b73ffffffffffffffffffffffffffffffffffffffff1614611a44576040517f08c379a0000000000000000000000000000000000000000000000000000000008152600401611a3b906140b9565b60405180910390fd5b611a4e60006124bf565b565b606073__EthicOnChainLib_______________________63e17414e7600160026003546040518463ffffffff1660e01b8152600401611a9193929190614e9d565b600060405180830381865af4158015611aae573d6000803e3d6000fd5b505050506040513d6000823e3d601f19601f82011682018060405250810190611ad791906151ff565b905090565b611ae4612609565b73__EthicOnChainLib_______________________635454999f600b846040518363ffffffff1660e01b8152600401611b1e929190615248565b600060405180830381865af4158015611b3b573d6000803e3d6000fd5b505050506040513d6000823e3d601f19601f82011682018060405250810190611b649190615271565b9050919050565b60008060009054906101000a900473ffffffffffffffffffffffffffffffffffffffff16905090565b611b9c61263f565b73__EthicOnChainLib_______________________6357ee7aae6004846040518363ffffffff1660e01b8152600401611bd69291906152c1565b600060405180830381865af4158015611bf3573d6000803e3d6000fd5b505050506040513d6000823e3d601f19601f82011682018060405250810190611c1c91906153fa565b9050919050565b606073__EthicOnChainLib_______________________638d85a169600460056006546040518463ffffffff1660e01b8152600401611c6493929190615443565b600060405180830381865af4158015611c81573d6000803e3d6000fd5b505050506040513d6000823e3d601f19601f82011682018060405250810190611caa919061555b565b905090565b606073__EthicOnChainLib_______________________6381e9c89b60046009856040518463ffffffff1660e01b8152600401611cee939291906155ab565b600060405180830381865af4158015611d0b573d6000803e3d6000fd5b505050506040513d6000823e3d601f19601f82011682018060405250810190611d349190615731565b9050919050565b606073__EthicOnChainLib_______________________6304ae0c6560016007856040518463ffffffff1660e01b8152600401611d7a93929190615781565b600060405180830381865af4158015611d97573d6000803e3d6000fd5b505050506040513d6000823e3d601f19601f82011682018060405250810190611dc09190615aae565b9050919050565b6000600460003373ffffffffffffffffffffffffffffffffffffffff1673ffffffffffffffffffffffffffffffffffffffff1681526020019081526020016000209050600073ffffffffffffffffffffffffffffffffffffffff168160010160009054906101000a900473ffffffffffffffffffffffffffffffffffffffff1673ffffffffffffffffffffffffffffffffffffffff161415611e9e576040517f08c379a0000000000000000000000000000000000000000000000000000000008152600401611e9590615b69565b60405180910390fd5b60006007600085815260200190815260200160002090506000816009018054611ec6906142bc565b90501415611f09576040517f08c379a0000000000000000000000000000000000000000000000000000000008152600401611f0090614bd8565b60405180910390fd5b6000620151808260040154611f1e9190614c64565b8260030154611f2d9190614cbe565b905081600301544211611f75576040517f08c379a0000000000000000000000000000000000000000000000000000000008152600401611f6c90614d60565b60405180910390fd5b804210611fb7576040517f08c379a0000000000000000000000000000000000000000000000000000000008152600401611fae90615bd5565b60405180910390fd5b600060096000600a5481526020019081526020016000209050600a5481600001819055508581600101819055508360000154816002018190555042816003018190555084816004018190555083600501600a549080600181540180825580915050600190039060005260206000200160009091909190915055848360070160008282546120449190614cbe565b9250508190555082600c01600a549080600181540180825580915050600190039060005260206000200160009091909190915055600a600081548092919061208b90614206565b9190505550600d60009054906101000a900473ffffffffffffffffffffffffffffffffffffffff1673ffffffffffffffffffffffffffffffffffffffff166323b872dd3330886040518463ffffffff1660e01b81526004016120ef93929190615bf5565b6020604051808303816000875af115801561210e573d6000803e3d6000fd5b505050506040513d601f19601f820116820180604052508101906121329190614e15565b507f5b01b3cbb79f6d6de617795637d44cf4ec173dab689fb0804ab8dbbd88f4302b8160000154826001015483600201548460030154856004015460405161217e959493929190615c2c565b60405180910390a1505050505050565b606073__EthicOnChainLib_______________________6388439ce460076008546040518363ffffffff1660e01b81526004016121cc929190615c7f565b600060405180830381865af41580156121e9573d6000803e3d6000fd5b505050506040513d6000823e3d601f19601f820116820180604052508101906122129190615aae565b905090565b61221f61268b565b73__EthicOnChainLib_______________________63599ed5916009846040518363ffffffff1660e01b8152600401612259929190615ca8565b60a060405180830381865af4158015612276573d6000803e3d6000fd5b505050506040513d601f19601f8201168201806040525081019061229a9190615cd1565b9050919050565b6122a96126ba565b73__EthicOnChainLib_______________________637f9824d06007846040518363ffffffff1660e01b81526004016122e3929190615c7f565b600060405180830381865af4158015612300573d6000803e3d6000fd5b505050506040513d6000823e3d601f19601f820116820180604052508101906123299190615cfe565b9050919050565b6123386124b7565b73ffffffffffffffffffffffffffffffffffffffff16612356611b6b565b73ffffffffffffffffffffffffffffffffffffffff16146123ac576040517f08c379a00000000000000000000000000000000000000000000000000000000081526004016123a3906140b9565b60405180910390fd5b600073ffffffffffffffffffffffffffffffffffffffff168173ffffffffffffffffffffffffffffffffffffffff16141561241c576040517f08c379a000000000000000000000000000000000000000000000000000000000815260040161241390615db9565b60405180910390fd5b612425816124bf565b50565b612430612758565b73__EthicOnChainLib_______________________639bed72486001846040518363ffffffff1660e01b815260040161246a929190615dd9565b600060405180830381865af4158015612487573d6000803e3d6000fd5b505050506040513d6000823e3d601f19601f820116820180604052508101906124b09190615e02565b9050919050565b600033905090565b60008060009054906101000a900473ffffffffffffffffffffffffffffffffffffffff169050816000806101000a81548173ffffffffffffffffffffffffffffffffffffffff021916908373ffffffffffffffffffffffffffffffffffffffff1602179055508173ffffffffffffffffffffffffffffffffffffffff168173ffffffffffffffffffffffffffffffffffffffff167f8be0079c531659141344cd1fd0a4f28419497f9722a3daafe3b4186f6b6457e060405160405180910390a35050565b82805461258f906142bc565b90600052602060002090601f0160209004810192826125b157600085556125f8565b82601f106125ca57805160ff19168380011785556125f8565b828001600101855582156125f8579182015b828111156125f75782518255916020019190600101906125dc565b5b50905061260591906127b3565b5090565b6040518060c001604052806000815260200160008152602001600081526020016000815260200160608152602001606081525090565b6040518060c0016040528060008152602001600073ffffffffffffffffffffffffffffffffffffffff168152602001606081526020016060815260200160608152602001606081525090565b6040518060a0016040528060008152602001600081526020016000815260200160008152602001600081525090565b604051806101e001604052806000815260200160008152602001600081526020016000815260200160008152602001600081526020016000815260200160008152602001600073ffffffffffffffffffffffffffffffffffffffff1681526020016000600681111561272f5761272e6137bc565b5b815260200160608152602001606081526020016060815260200160608152602001606081525090565b60405180610100016040528060008152602001600073ffffffffffffffffffffffffffffffffffffffff1681526020016060815260200160608152602001606081526020016060815260200160608152602001606081525090565b5b808211156127cc5760008160009055506001016127b4565b5090565b6000604051905090565b600080fd5b600080fd5b600073ffffffffffffffffffffffffffffffffffffffff82169050919050565b600061280f826127e4565b9050919050565b61281f81612804565b811461282a57600080fd5b50565b60008135905061283c81612816565b92915050565b600060208284031215612858576128576127da565b5b60006128668482850161282d565b91505092915050565b600081519050919050565b600082825260208201905092915050565b6000819050602082019050919050565b6000819050919050565b6128ae8161289b565b82525050565b600081519050919050565b600082825260208201905092915050565b60005b838110156128ee5780820151818401526020810190506128d3565b838111156128fd576000848401525b50505050565b6000601f19601f8301169050919050565b600061291f826128b4565b61292981856128bf565b93506129398185602086016128d0565b61294281612903565b840191505092915050565b600060c08301600083015161296560008601826128a5565b50602083015161297860208601826128a5565b50604083015161298b60408601826128a5565b50606083015161299e60608601826128a5565b50608083015184820360808601526129b68282612914565b91505060a083015184820360a08601526129d08282612914565b9150508091505092915050565b60006129e9838361294d565b905092915050565b6000602082019050919050565b6000612a098261286f565b612a13818561287a565b935083602082028501612a258561288b565b8060005b85811015612a615784840389528151612a4285826129dd565b9450612a4d836129f1565b925060208a01995050600181019050612a29565b50829750879550505050505092915050565b60006020820190508181036000830152612a8d81846129fe565b905092915050565b600080fd5b600080fd5b7f4e487b7100000000000000000000000000000000000000000000000000000000600052604160045260246000fd5b612ad782612903565b810181811067ffffffffffffffff82111715612af657612af5612a9f565b5b80604052505050565b6000612b096127d0565b9050612b158282612ace565b919050565b600067ffffffffffffffff821115612b3557612b34612a9f565b5b612b3e82612903565b9050602081019050919050565b82818337600083830152505050565b6000612b6d612b6884612b1a565b612aff565b905082815260208101848484011115612b8957612b88612a9a565b5b612b94848285612b4b565b509392505050565b600082601f830112612bb157612bb0612a95565b5b8135612bc1848260208601612b5a565b91505092915050565b60008060008060808587031215612be457612be36127da565b5b6000612bf28782880161282d565b945050602085013567ffffffffffffffff811115612c1357612c126127df565b5b612c1f87828801612b9c565b935050604085013567ffffffffffffffff811115612c4057612c3f6127df565b5b612c4c87828801612b9c565b925050606085013567ffffffffffffffff811115612c6d57612c6c6127df565b5b612c7987828801612b9c565b91505092959194509250565b612c8e8161289b565b8114612c9957600080fd5b50565b600081359050612cab81612c85565b92915050565b60008060008060008060008060006101208a8c031215612cd457612cd36127da565b5b60008a013567ffffffffffffffff811115612cf257612cf16127df565b5b612cfe8c828d01612b9c565b99505060208a013567ffffffffffffffff811115612d1f57612d1e6127df565b5b612d2b8c828d01612b9c565b98505060408a013567ffffffffffffffff811115612d4c57612d4b6127df565b5b612d588c828d01612b9c565b9750506060612d698c828d01612c9c565b9650506080612d7a8c828d01612c9c565b95505060a0612d8b8c828d01612c9c565b94505060c0612d9c8c828d01612c9c565b93505060e0612dad8c828d01612c9c565b925050610100612dbf8c828d01612c9c565b9150509295985092959850929598565b600080600080600060a08688031215612deb57612dea6127da565b5b6000612df98882890161282d565b955050602086013567ffffffffffffffff811115612e1a57612e196127df565b5b612e2688828901612b9c565b945050604086013567ffffffffffffffff811115612e4757612e466127df565b5b612e5388828901612b9c565b935050606086013567ffffffffffffffff811115612e7457612e736127df565b5b612e8088828901612b9c565b925050608086013567ffffffffffffffff811115612ea157612ea06127df565b5b612ead88828901612b9c565b9150509295509295909350565b612ec38161289b565b82525050565b612ed281612804565b82525050565b600082825260208201905092915050565b6000612ef4826128b4565b612efe8185612ed8565b9350612f0e8185602086016128d0565b612f1781612903565b840191505092915050565b600060c082019050612f376000830189612eba565b612f446020830188612ec9565b8181036040830152612f568187612ee9565b90508181036060830152612f6a8186612ee9565b90508181036080830152612f7e8185612ee9565b905081810360a0830152612f928184612ee9565b9050979650505050505050565b600060a082019050612fb46000830188612eba565b612fc16020830187612ec9565b8181036040830152612fd38186612ee9565b90508181036060830152612fe78185612ee9565b90508181036080830152612ffb8184612ee9565b90509695505050505050565b60008060008060808587031215613021576130206127da565b5b600061302f87828801612c9c565b945050602061304087828801612c9c565b935050604085013567ffffffffffffffff811115613061576130606127df565b5b61306d87828801612b9c565b925050606085013567ffffffffffffffff81111561308e5761308d6127df565b5b61309a87828801612b9c565b91505092959194509250565b600081519050919050565b600082825260208201905092915050565b6000819050602082019050919050565b6130db81612804565b82525050565b600081519050919050565b600082825260208201905092915050565b6000819050602082019050919050565b600061311983836128a5565b60208301905092915050565b6000602082019050919050565b600061313d826130e1565b61314781856130ec565b9350613152836130fd565b8060005b8381101561318357815161316a888261310d565b975061317583613125565b925050600181019050613156565b5085935050505092915050565b6000610100830160008301516131a960008601826128a5565b5060208301516131bc60208601826130d2565b50604083015184820360408601526131d48282612914565b915050606083015184820360608601526131ee8282612914565b915050608083015184820360808601526132088282612914565b91505060a083015184820360a08601526132228282612914565b91505060c083015184820360c086015261323c8282613132565b91505060e083015184820360e08601526132568282613132565b9150508091505092915050565b600061326f8383613190565b905092915050565b6000602082019050919050565b600061328f826130a6565b61329981856130b1565b9350836020820285016132ab856130c2565b8060005b858110156132e757848403895281516132c88582613263565b94506132d383613277565b925060208a019950506001810190506132af565b50829750879550505050505092915050565b600060208201905081810360008301526133138184613284565b905092915050565b600060208284031215613331576133306127da565b5b600061333f84828501612c9c565b91505092915050565b600060c08301600083015161336060008601826128a5565b50602083015161337360208601826128a5565b50604083015161338660408601826128a5565b50606083015161339960608601826128a5565b50608083015184820360808601526133b18282612914565b91505060a083015184820360a08601526133cb8282612914565b9150508091505092915050565b600060208201905081810360008301526133f28184613348565b905092915050565b600060208201905061340f6000830184612ec9565b92915050565b600060c08301600083015161342d60008601826128a5565b50602083015161344060208601826130d2565b50604083015184820360408601526134588282612914565b915050606083015184820360608601526134728282612914565b9150506080830151848203608086015261348c8282612914565b91505060a083015184820360a08601526134a68282613132565b9150508091505092915050565b600060208201905081810360008301526134cd8184613415565b905092915050565b600081519050919050565b600082825260208201905092915050565b6000819050602082019050919050565b600060c08301600083015161351960008601826128a5565b50602083015161352c60208601826130d2565b50604083015184820360408601526135448282612914565b9150506060830151848203606086015261355e8282612914565b915050608083015184820360808601526135788282612914565b91505060a083015184820360a08601526135928282613132565b9150508091505092915050565b60006135ab8383613501565b905092915050565b6000602082019050919050565b60006135cb826134d5565b6135d581856134e0565b9350836020820285016135e7856134f1565b8060005b858110156136235784840389528151613604858261359f565b945061360f836135b3565b925060208a019950506001810190506135eb565b50829750879550505050505092915050565b6000602082019050818103600083015261364f81846135c0565b905092915050565b600081519050919050565b600082825260208201905092915050565b6000819050602082019050919050565b60a08201600082015161369960008501826128a5565b5060208201516136ac60208501826128a5565b5060408201516136bf60408501826128a5565b5060608201516136d260608501826128a5565b5060808201516136e560808501826128a5565b50505050565b60006136f78383613683565b60a08301905092915050565b6000602082019050919050565b600061371b82613657565b6137258185613662565b935061373083613673565b8060005b8381101561376157815161374888826136eb565b975061375383613703565b925050600181019050613734565b5085935050505092915050565b600060208201905081810360008301526137888184613710565b905092915050565b600081519050919050565b600082825260208201905092915050565b6000819050602082019050919050565b7f4e487b7100000000000000000000000000000000000000000000000000000000600052602160045260246000fd5b600781106137fc576137fb6137bc565b5b50565b600081905061380d826137eb565b919050565b600061381d826137ff565b9050919050565b61382d81613812565b82525050565b60006101e08301600083015161384c60008601826128a5565b50602083015161385f60208601826128a5565b50604083015161387260408601826128a5565b50606083015161388560608601826128a5565b50608083015161389860808601826128a5565b5060a08301516138ab60a08601826128a5565b5060c08301516138be60c08601826128a5565b5060e08301516138d160e08601826128a5565b506101008301516138e66101008601826130d2565b506101208301516138fb610120860182613824565b506101408301518482036101408601526139158282612914565b9150506101608301518482036101608601526139318282612914565b91505061018083015184820361018086015261394d8282612914565b9150506101a08301518482036101a08601526139698282613132565b9150506101c08301518482036101c08601526139858282613132565b9150508091505092915050565b600061399e8383613833565b905092915050565b6000602082019050919050565b60006139be82613790565b6139c8818561379b565b9350836020820285016139da856137ac565b8060005b85811015613a1657848403895281516139f78582613992565b9450613a02836139a6565b925060208a019950506001810190506139de565b50829750879550505050505092915050565b60006020820190508181036000830152613a4281846139b3565b905092915050565b60008060408385031215613a6157613a606127da565b5b6000613a6f85828601612c9c565b9250506020613a8085828601612c9c565b9150509250929050565b60a082016000820151613aa060008501826128a5565b506020820151613ab360208501826128a5565b506040820151613ac660408501826128a5565b506060820151613ad960608501826128a5565b506080820151613aec60808501826128a5565b50505050565b600060a082019050613b076000830184613a8a565b92915050565b60006101e083016000830151613b2660008601826128a5565b506020830151613b3960208601826128a5565b506040830151613b4c60408601826128a5565b506060830151613b5f60608601826128a5565b506080830151613b7260808601826128a5565b5060a0830151613b8560a08601826128a5565b5060c0830151613b9860c08601826128a5565b5060e0830151613bab60e08601826128a5565b50610100830151613bc06101008601826130d2565b50610120830151613bd5610120860182613824565b50610140830151848203610140860152613bef8282612914565b915050610160830151848203610160860152613c0b8282612914565b915050610180830151848203610180860152613c278282612914565b9150506101a08301518482036101a0860152613c438282613132565b9150506101c08301518482036101c0860152613c5f8282613132565b9150508091505092915050565b60006020820190508181036000830152613c868184613b0d565b905092915050565b600061010083016000830151613ca760008601826128a5565b506020830151613cba60208601826130d2565b5060408301518482036040860152613cd28282612914565b91505060608301518482036060860152613cec8282612914565b91505060808301518482036080860152613d068282612914565b91505060a083015184820360a0860152613d208282612914565b91505060c083015184820360c0860152613d3a8282613132565b91505060e083015184820360e0860152613d548282613132565b9150508091505092915050565b60006020820190508181036000830152613d7b8184613c8e565b905092915050565b8082525050565b8082525050565b613d9a81612804565b82525050565b6000606082019050613db56000830186613d83565b613dc26020830185613d8a565b613dcf6040830184613d91565b949350505050565b600067ffffffffffffffff821115613df257613df1612a9f565b5b602082029050602081019050919050565b600080fd5b600080fd5b600080fd5b600081519050613e2181612c85565b92915050565b6000613e3a613e3584612b1a565b612aff565b905082815260208101848484011115613e5657613e55612a9a565b5b613e618482856128d0565b509392505050565b600082601f830112613e7e57613e7d612a95565b5b8151613e8e848260208601613e27565b91505092915050565b600060c08284031215613ead57613eac613e08565b5b613eb760c0612aff565b90506000613ec784828501613e12565b6000830152506020613edb84828501613e12565b6020830152506040613eef84828501613e12565b6040830152506060613f0384828501613e12565b606083015250608082015167ffffffffffffffff811115613f2757613f26613e0d565b5b613f3384828501613e69565b60808301525060a082015167ffffffffffffffff811115613f5757613f56613e0d565b5b613f6384828501613e69565b60a08301525092915050565b6000613f82613f7d84613dd7565b612aff565b90508083825260208201905060208402830185811115613fa557613fa4613e03565b5b835b81811015613fec57805167ffffffffffffffff811115613fca57613fc9612a95565b5b808601613fd78982613e97565b85526020850194505050602081019050613fa7565b5050509392505050565b600082601f83011261400b5761400a612a95565b5b815161401b848260208601613f6f565b91505092915050565b60006020828403121561403a576140396127da565b5b600082015167ffffffffffffffff811115614058576140576127df565b5b61406484828501613ff6565b91505092915050565b7f4f776e61626c653a2063616c6c6572206973206e6f7420746865206f776e6572600082015250565b60006140a3602083612ed8565b91506140ae8261406d565b602082019050919050565b600060208201905081810360008301526140d281614096565b9050919050565b7f4c276164726573736520647520646f6e617465757220646f697420c3aa74726560008201527f2064696666c3a972656e7465206465207ac3a9726f0000000000000000000000602082015250565b6000614135603583612ed8565b9150614140826140d9565b604082019050919050565b6000602082019050818103600083015261416481614128565b9050919050565b7f446f6e6f722064c3a96ac3a020656e72656769737472c3a90000000000000000600082015250565b60006141a1601883612ed8565b91506141ac8261416b565b602082019050919050565b600060208201905081810360008301526141d081614194565b9050919050565b7f4e487b7100000000000000000000000000000000000000000000000000000000600052601160045260246000fd5b60006142118261289b565b91507fffffffffffffffffffffffffffffffffffffffffffffffffffffffffffffffff821415614244576142436141d7565b5b600182019050919050565b60006060820190506142646000830186612eba565b6142716020830185612ec9565b81810360408301526142838184612ee9565b9050949350505050565b7f4e487b7100000000000000000000000000000000000000000000000000000000600052602260045260246000fd5b600060028204905060018216806142d457607f821691505b602082108114156142e8576142e761428d565b5b50919050565b7f566f7573206e27c3aa7465732070617320656e72656769737472c3a920656e2060008201527f74616e7420717565204e504f0000000000000000000000000000000000000000602082015250565b600061434a602c83612ed8565b9150614355826142ee565b604082019050919050565b600060208201905081810360008301526143798161433d565b9050919050565b7f4c6520746974726520657374206f626c696761746f6972650000000000000000600082015250565b60006143b6601883612ed8565b91506143c182614380565b602082019050919050565b600060208201905081810360008301526143e5816143a9565b9050919050565b7f4c61206465736372697074696f6e20657374206f626c696761746f6972650000600082015250565b6000614422601e83612ed8565b915061442d826143ec565b602082019050919050565b6000602082019050818103600083015261445181614415565b9050919050565b7f446174652064652064c3a96275742064652070726f6a6574206f626c6967617460008201527f6f69726500000000000000000000000000000000000000000000000000000000602082015250565b60006144b4602483612ed8565b91506144bf82614458565b604082019050919050565b600060208201905081810360008301526144e3816144a7565b9050919050565b7f446174652064652066696e2064652070726f6a6574206f626c696761746f697260008201527f6500000000000000000000000000000000000000000000000000000000000000602082015250565b6000614546602183612ed8565b9150614551826144ea565b604082019050919050565b6000602082019050818103600083015261457581614539565b9050919050565b7f4d6f6e74616e74206d696e696d616c206f626c696761746f6972650000000000600082015250565b60006145b2601b83612ed8565b91506145bd8261457c565b602082019050919050565b600060208201905081810360008301526145e1816145a5565b9050919050565b7f4d6f6e74616e74206d6178696d616c206f626c696761746f6972650000000000600082015250565b600061461e601b83612ed8565b9150614629826145e8565b602082019050919050565b6000602082019050818103600083015261464d81614611565b9050919050565b7f446174652064652064c3a96275742064652063616d7061676e65206f626c696760008201527f61746f6972650000000000000000000000000000000000000000000000000000602082015250565b60006146b0602683612ed8565b91506146bb82614654565b604082019050919050565b600060208201905081810360008301526146df816146a3565b9050919050565b7f447572c3a9652064652063616d7061676e65206f626c696761746f6972650000600082015250565b600061471c601e83612ed8565b9150614727826146e6565b602082019050919050565b6000602082019050818103600083015261474b8161470f565b9050919050565b7f4c6120646174652064c3a96275742064652070726f6a657420646f697420c3aa60008201527f747265206176616e74206c612066696e00000000000000000000000000000000602082015250565b60006147ae603083612ed8565b91506147b982614752565b604082019050919050565b600060208201905081810360008301526147dd816147a1565b9050919050565b7f4c65206d6f6e74616e74206d696e696d616c20646f697420c3aa74726520696e60008201527f66c3a97269657572206175206d6f6e74616e74206d6178696d616c0000000000602082015250565b6000614840603b83612ed8565b915061484b826147e4565b604082019050919050565b6000602082019050818103600083015261486f81614833565b9050919050565b600060c08201905061488b6000830189612eba565b818103602083015261489d8188612ee9565b90506148ac6040830187612eba565b6148b96060830186612eba565b6148c66080830185612eba565b6148d360a0830184612eba565b979650505050505050565b7f4c2761647265737365206475204e504f20646f697420c3aa747265206469666660008201527fc3a972656e7465206465207ac3a9726f00000000000000000000000000000000602082015250565b600061493a603083612ed8565b9150614945826148de565b604082019050919050565b600060208201905081810360008301526149698161492d565b9050919050565b7f4c612064c3a96e6f6d696e6174696f6e20657374206f626c696761746f697265600082015250565b60006149a6602083612ed8565b91506149b182614970565b602082019050919050565b600060208201905081810360008301526149d581614999565b9050919050565b7f4c276164726573736520657374206f626c696761746f69726500000000000000600082015250565b6000614a12601983612ed8565b9150614a1d826149dc565b602082019050919050565b60006020820190508181036000830152614a4181614a05565b9050919050565b7f4c276f626a657420657374206f626c696761746f697265000000000000000000600082015250565b6000614a7e601783612ed8565b9150614a8982614a48565b602082019050919050565b60006020820190508181036000830152614aad81614a71565b9050919050565b7f4c65207479706520657374206f626c696761746f697265000000000000000000600082015250565b6000614aea601783612ed8565b9150614af582614ab4565b602082019050919050565b60006020820190508181036000830152614b1981614add565b9050919050565b7f4e504f2064c3a96ac3a020656e72656769737472c3a900000000000000000000600082015250565b6000614b56601683612ed8565b9150614b6182614b20565b602082019050919050565b60006020820190508181036000830152614b8581614b49565b9050919050565b7f50726f6a657420696e636f6e6e75000000000000000000000000000000000000600082015250565b6000614bc2600e83612ed8565b9150614bcd82614b8c565b602082019050919050565b60006020820190508181036000830152614bf181614bb5565b9050919050565b7f42616c616e636520696e737566666973616e7465000000000000000000000000600082015250565b6000614c2e601483612ed8565b9150614c3982614bf8565b602082019050919050565b60006020820190508181036000830152614c5d81614c21565b9050919050565b6000614c6f8261289b565b9150614c7a8361289b565b9250817fffffffffffffffffffffffffffffffffffffffffffffffffffffffffffffffff0483118215151615614cb357614cb26141d7565b5b828202905092915050565b6000614cc98261289b565b9150614cd48361289b565b9250827fffffffffffffffffffffffffffffffffffffffffffffffffffffffffffffffff03821115614d0957614d086141d7565b5b828201905092915050565b7f4c612063616d7061676e65206e276573742070617320636f6d6d656e63c3a965600082015250565b6000614d4a602083612ed8565b9150614d5582614d14565b602082019050919050565b60006020820190508181036000830152614d7981614d3d565b9050919050565b6000614d8b8261289b565b9150614d968361289b565b925082821015614da957614da86141d7565b5b828203905092915050565b6000604082019050614dc96000830185612ec9565b614dd66020830184612eba565b9392505050565b60008115159050919050565b614df281614ddd565b8114614dfd57600080fd5b50565b600081519050614e0f81614de9565b92915050565b600060208284031215614e2b57614e2a6127da565b5b6000614e3984828501614e00565b91505092915050565b6000608082019050614e576000830187612eba565b614e646020830186612eba565b614e716040830185612eba565b614e7e6060830184612ec9565b95945050505050565b8082525050565b614e978161289b565b82525050565b6000606082019050614eb26000830186613d83565b614ebf6020830185614e87565b614ecc6040830184614e8e565b949350505050565b600067ffffffffffffffff821115614eef57614eee612a9f565b5b602082029050602081019050919050565b600081519050614f0f81612816565b92915050565b600067ffffffffffffffff821115614f3057614f2f612a9f565b5b602082029050602081019050919050565b6000614f54614f4f84614f15565b612aff565b90508083825260208201905060208402830185811115614f7757614f76613e03565b5b835b81811015614fa05780614f8c8882613e12565b845260208401935050602081019050614f79565b5050509392505050565b600082601f830112614fbf57614fbe612a95565b5b8151614fcf848260208601614f41565b91505092915050565b60006101008284031215614fef57614fee613e08565b5b614ffa610100612aff565b9050600061500a84828501613e12565b600083015250602061501e84828501614f00565b602083015250604082015167ffffffffffffffff81111561504257615041613e0d565b5b61504e84828501613e69565b604083015250606082015167ffffffffffffffff81111561507257615071613e0d565b5b61507e84828501613e69565b606083015250608082015167ffffffffffffffff8111156150a2576150a1613e0d565b5b6150ae84828501613e69565b60808301525060a082015167ffffffffffffffff8111156150d2576150d1613e0d565b5b6150de84828501613e69565b60a08301525060c082015167ffffffffffffffff81111561510257615101613e0d565b5b61510e84828501614faa565b60c08301525060e082015167ffffffffffffffff81111561513257615131613e0d565b5b61513e84828501614faa565b60e08301525092915050565b600061515d61515884614ed4565b612aff565b905080838252602082019050602084028301858111156151805761517f613e03565b5b835b818110156151c757805167ffffffffffffffff8111156151a5576151a4612a95565b5b8086016151b28982614fd8565b85526020850194505050602081019050615182565b5050509392505050565b600082601f8301126151e6576151e5612a95565b5b81516151f684826020860161514a565b91505092915050565b600060208284031215615215576152146127da565b5b600082015167ffffffffffffffff811115615233576152326127df565b5b61523f848285016151d1565b91505092915050565b600060408201905061525d6000830185613d8a565b61526a6020830184614e8e565b9392505050565b600060208284031215615287576152866127da565b5b600082015167ffffffffffffffff8111156152a5576152a46127df565b5b6152b184828501613e97565b91505092915050565b8082525050565b60006040820190506152d660008301856152ba565b6152e36020830184613d91565b9392505050565b600060c08284031215615300576152ff613e08565b5b61530a60c0612aff565b9050600061531a84828501613e12565b600083015250602061532e84828501614f00565b602083015250604082015167ffffffffffffffff81111561535257615351613e0d565b5b61535e84828501613e69565b604083015250606082015167ffffffffffffffff81111561538257615381613e0d565b5b61538e84828501613e69565b606083015250608082015167ffffffffffffffff8111156153b2576153b1613e0d565b5b6153be84828501613e69565b60808301525060a082015167ffffffffffffffff8111156153e2576153e1613e0d565b5b6153ee84828501614faa565b60a08301525092915050565b6000602082840312156154105761540f6127da565b5b600082015167ffffffffffffffff81111561542e5761542d6127df565b5b61543a848285016152ea565b91505092915050565b600060608201905061545860008301866152ba565b6154656020830185614e87565b6154726040830184614e8e565b949350505050565b600067ffffffffffffffff82111561549557615494612a9f565b5b602082029050602081019050919050565b60006154b96154b48461547a565b612aff565b905080838252602082019050602084028301858111156154dc576154db613e03565b5b835b8181101561552357805167ffffffffffffffff81111561550157615500612a95565b5b80860161550e89826152ea565b855260208501945050506020810190506154de565b5050509392505050565b600082601f83011261554257615541612a95565b5b81516155528482602086016154a6565b91505092915050565b600060208284031215615571576155706127da565b5b600082015167ffffffffffffffff81111561558f5761558e6127df565b5b61559b8482850161552d565b91505092915050565b8082525050565b60006060820190506155c060008301866152ba565b6155cd60208301856155a4565b6155da6040830184613d91565b949350505050565b600067ffffffffffffffff8211156155fd576155fc612a9f565b5b602082029050602081019050919050565b600060a0828403121561562457615623613e08565b5b61562e60a0612aff565b9050600061563e84828501613e12565b600083015250602061565284828501613e12565b602083015250604061566684828501613e12565b604083015250606061567a84828501613e12565b606083015250608061568e84828501613e12565b60808301525092915050565b60006156ad6156a8846155e2565b612aff565b90508083825260208201905060a084028301858111156156d0576156cf613e03565b5b835b818110156156f957806156e5888261560e565b84526020840193505060a0810190506156d2565b5050509392505050565b600082601f83011261571857615717612a95565b5b815161572884826020860161569a565b91505092915050565b600060208284031215615747576157466127da565b5b600082015167ffffffffffffffff811115615765576157646127df565b5b61577184828501615703565b91505092915050565b8082525050565b60006060820190506157966000830186613d83565b6157a3602083018561577a565b6157b06040830184613d91565b949350505050565b600067ffffffffffffffff8211156157d3576157d2612a9f565b5b602082029050602081019050919050565b600781106157f157600080fd5b50565b600081519050615803816157e4565b92915050565b60006101e082840312156158205761581f613e08565b5b61582b6101e0612aff565b9050600061583b84828501613e12565b600083015250602061584f84828501613e12565b602083015250604061586384828501613e12565b604083015250606061587784828501613e12565b606083015250608061588b84828501613e12565b60808301525060a061589f84828501613e12565b60a08301525060c06158b384828501613e12565b60c08301525060e06158c784828501613e12565b60e0830152506101006158dc84828501614f00565b610100830152506101206158f2848285016157f4565b6101208301525061014082015167ffffffffffffffff81111561591857615917613e0d565b5b61592484828501613e69565b6101408301525061016082015167ffffffffffffffff81111561594a57615949613e0d565b5b61595684828501613e69565b6101608301525061018082015167ffffffffffffffff81111561597c5761597b613e0d565b5b61598884828501613e69565b610180830152506101a082015167ffffffffffffffff8111156159ae576159ad613e0d565b5b6159ba84828501614faa565b6101a0830152506101c082015167ffffffffffffffff8111156159e0576159df613e0d565b5b6159ec84828501614faa565b6101c08301525092915050565b6000615a0c615a07846157b8565b612aff565b90508083825260208201905060208402830185811115615a2f57615a2e613e03565b5b835b81811015615a7657805167ffffffffffffffff811115615a5457615a53612a95565b5b808601615a618982615809565b85526020850194505050602081019050615a31565b5050509392505050565b600082601f830112615a9557615a94612a95565b5b8151615aa58482602086016159f9565b91505092915050565b600060208284031215615ac457615ac36127da565b5b600082015167ffffffffffffffff811115615ae257615ae16127df565b5b615aee84828501615a80565b91505092915050565b7f566f7573206e27c3aa7465732070617320656e72656769737472c3a920656e2060008201527f74616e742071756520646f6e6174657572000000000000000000000000000000602082015250565b6000615b53603183612ed8565b9150615b5e82615af7565b604082019050919050565b60006020820190508181036000830152615b8281615b46565b9050919050565b7f4c612063616d7061676e6520657374207465726d696ec3a96500000000000000600082015250565b6000615bbf601983612ed8565b9150615bca82615b89565b602082019050919050565b60006020820190508181036000830152615bee81615bb2565b9050919050565b6000606082019050615c0a6000830186612ec9565b615c176020830185612ec9565b615c246040830184612eba565b949350505050565b600060a082019050615c416000830188612eba565b615c4e6020830187612eba565b615c5b6040830186612eba565b615c686060830185612eba565b615c756080830184612eba565b9695505050505050565b6000604082019050615c94600083018561577a565b615ca16020830184614e8e565b9392505050565b6000604082019050615cbd60008301856155a4565b615cca6020830184614e8e565b9392505050565b600060a08284031215615ce757615ce66127da565b5b6000615cf58482850161560e565b91505092915050565b600060208284031215615d1457615d136127da565b5b600082015167ffffffffffffffff811115615d3257615d316127df565b5b615d3e84828501615809565b91505092915050565b7f4f776e61626c653a206e6577206f776e657220697320746865207a65726f206160008201527f6464726573730000000000000000000000000000000000000000000000000000602082015250565b6000615da3602683612ed8565b9150615dae82615d47565b604082019050919050565b60006020820190508181036000830152615dd281615d96565b9050919050565b6000604082019050615dee6000830185613d83565b615dfb6020830184613d91565b9392505050565b600060208284031215615e1857615e176127da565b5b600082015167ffffffffffffffff811115615e3657615e356127df565b5b615e4284828501614fd8565b9150509291505056fea264697066735822122051511756992cedd1f4f79609bacdbbb487cee248be81ba37510251f8f4d90c7264736f6c634300080b0033",
  "immutableReferences": {},
  "source": "// SPDX-License-Identifier: MIT\r\npragma solidity 0.8.11;\r\n \r\nimport \"@openzeppelin/contracts/token/ERC20/ERC20.sol\";\r\nimport \"@openzeppelin/contracts/access/Ownable.sol\";\r\nimport \"./EthicOnChainLib.sol\";\r\n\r\n/// @title EthicOnChain \r\n/// @author Lahcen E. Dev / Jrme Gauthier\r\n/// @notice EthicOnChain contract to manage NPOs, Projects and Donors\r\ncontract EthicOnChain is Ownable {\r\n    \r\n    enum ProjectCause {\r\n        LutteContreLaPauvreteEtExclusion,\r\n        EnvironnementEtLesAnimaux,\r\n        Education,\r\n        ArtEtLaCulture,\r\n        SanteEtLaRecherche,\r\n        DroitsDeLHomme,\r\n        InfrastructureRoutiere\r\n    }\r\n\r\n    enum ProjectStatus {\r\n        ProjectProposal, \r\n        WaitingOpening,\r\n        OpenFundRaising,\r\n        CloseFundRaising\r\n    }\r\n\r\n    // NPOs\r\n    mapping (address => EthicOnChainLib.NPO) public npoAddresses; //Mapping of all NPO \r\n    mapping (uint => address) private npoMap;\r\n    uint private npoCount; \r\n\r\n    // Donors\r\n    mapping (address => EthicOnChainLib.Donor) public donorAddresses; //Mapping of all donors \r\n    mapping (uint => address) private donorMap;\r\n    uint private donorCount; \r\n    \r\n    // Projects\r\n    mapping (uint => EthicOnChainLib.Project) projectMap;\r\n    uint projectCount;\r\n    \r\n    // Donations\r\n    mapping (uint => EthicOnChainLib.Donation) private donationMap;\r\n    uint private donationCount;\r\n\r\n    // Withdrawal Informations\r\n    mapping (uint => EthicOnChainLib.Withdrawal) private withdrawalMap;\r\n    uint private withdrawalCount;\r\n\r\n    // EOC Token address\r\n    address eocTokenAddress;\r\n\r\n    event NpoAdded(uint _poId, address _npoErc20Address, string _denomination);\r\n    event DonorAdded(uint _donorId, address _donorErc20Address, string _donorName);\r\n    event ProjectAdded(uint _projectId, string _title, uint _startDate, uint _endDate, uint _minAmount, uint _maxAmount);\r\n    event DonationAdded(uint _donationId, uint _projectId, uint _donorId, uint _donationDate, uint donationAmount);\r\n    event WithdrawalAdded(uint _withdrawalId ,uint _projectId, uint _amount, address _addressRecipent);\r\n    \r\n    /// @dev Initialise the deployed EOC token address for swap\r\n    /// @param _eocTokenAddress EOC Token address\r\n    constructor(address _eocTokenAddress) {\r\n       eocTokenAddress =  _eocTokenAddress;\r\n    }\r\n\r\n    /// @dev The administrator can add a new NPO\r\n    /// @param _npoErc20Address the ERC20 address of the npo\r\n    /// @param _denomination Demonination of the NPO\r\n    /// @param _postalAddress Postal address of the NPO\r\n    /// @param _object object of NPO\r\n    /// @param _npoType Type of npo organization\r\n    function addNpo(\r\n        address _npoErc20Address,\r\n        string memory _denomination,\r\n        string memory _postalAddress,\r\n        string memory _object,\r\n        string memory _npoType) public onlyOwner {\r\n        // Mandatory fields\r\n        require(_npoErc20Address > address(0), unicode\"L'adresse du NPO doit tre diffrente de zro\");\r\n        require(bytes(_denomination).length > 0, unicode\"La dnomination est obligatoire\");\r\n        require(bytes(_postalAddress).length > 0, \"L'adresse est obligatoire\");\r\n        require(bytes(_object).length > 0, \"L'objet est obligatoire\");\r\n        require(bytes(_npoType).length > 0, \"Le type est obligatoire\");\r\n        require(bytes(npoAddresses[_npoErc20Address].denomination).length == 0, unicode\"NPO dj enregistr\");\r\n        \r\n        EthicOnChainLib.NPO storage newNpo = npoAddresses[_npoErc20Address];\r\n        newNpo.npoId = npoCount;\r\n        newNpo.npoErc20Address = _npoErc20Address;\r\n        newNpo.denomination = _denomination;\r\n        newNpo.postalAddress = _postalAddress;\r\n        newNpo.object = _object;\r\n        newNpo.npoType = _npoType;\r\n        npoMap[npoCount] = _npoErc20Address;\r\n        npoCount++;\r\n        emit NpoAdded(newNpo.npoId, _npoErc20Address, _denomination);\r\n    }\r\n \r\n    /// @dev The administrator/contract can add a new Donor\r\n    /// @param _donorErc20Address ERC20 address of the donor\r\n    /// @param _name Name of the Donor\r\n    /// @param _surName Surname of the Donor\r\n    /// @param _postalAddress postal address of the donor\r\n    function addDonor(\r\n        address _donorErc20Address,\r\n        string memory _name,\r\n        string memory _surName,\r\n        string memory _postalAddress) public onlyOwner {\r\n        // Mandatory fields\r\n        require(_donorErc20Address > address(0), unicode\"L'adresse du donateur doit tre diffrente de zro\");\r\n        require(donorAddresses[_donorErc20Address].donorErc20Address == address(0), unicode\"Donor dj enregistr\");\r\n\r\n        EthicOnChainLib.Donor storage newDonor = donorAddresses[_donorErc20Address];\r\n        newDonor.donorId = donorCount;\r\n        newDonor.name = _name;\r\n        newDonor.surName = _surName;\r\n        newDonor.donorErc20Address=_donorErc20Address;\r\n        newDonor.postalAddress = _postalAddress;\r\n        donorMap[donorCount] = _donorErc20Address;\r\n        donorCount++;\r\n        emit DonorAdded(newDonor.donorId, _donorErc20Address, _name);\r\n    }\r\n \r\n    /// @dev This function will allow to add a project, the owner will be the one who calls the function. \r\n    /// @param _title The title of the project\r\n    /// @param _description description of the project\r\n    /// @param _geographicalArea the geographical area where the project will be located.\r\n    /// @param _startDate The start date of the project\r\n    /// @param _endDate The end of the project\r\n    /// @param _campaignStartDate the beginning of the collection of funds\r\n    /// @param _campaignDurationInDays the duration of the collection of funds\r\n    /// @param _minAmount The minimum price for the project to be valid\r\n    /// @param _maxAmount The maximum price to make the project a success \r\n    function addProject(\r\n        string memory _title,\r\n        string memory _description,\r\n        string memory _geographicalArea,\r\n        uint _startDate,\r\n        uint _endDate,\r\n        uint _campaignStartDate,\r\n        uint _campaignDurationInDays,\r\n        uint _minAmount,\r\n        uint _maxAmount\r\n    ) public {\r\n        EthicOnChainLib.NPO storage projectNpo = npoAddresses[msg.sender];\r\n        require(bytes(projectNpo.denomination).length != 0, unicode\"Vous n'tes pas enregistr en tant que NPO\");\r\n        // Mandatory fields\r\n        require(bytes(_title).length > 0, \"Le titre est obligatoire\");\r\n        require(bytes(_description).length > 0, \"La description est obligatoire\");\r\n        require(_startDate > 0, unicode\"Date de dbut de projet obligatoire\");\r\n        require(_endDate > 0, \"Date de fin de projet obligatoire\");\r\n        require(_minAmount > 0, \"Montant minimal obligatoire\");\r\n        require(_maxAmount > 0, \"Montant maximal obligatoire\");\r\n        require(_campaignStartDate > 0, unicode\"Date de dbut de campagne obligatoire\");\r\n        require(_campaignDurationInDays > 0, unicode\"Dure de campagne obligatoire\");\r\n        // Comparisons\r\n        require(_startDate < _endDate, unicode\"La date dbut de projet doit tre avant la fin\");\r\n        require(_minAmount < _maxAmount, unicode\"Le montant minimal doit tre infrieur au montant maximal\");\r\n\r\n        EthicOnChainLib.Project storage newProject = projectMap[projectCount];\r\n        newProject.projectId = projectCount;\r\n        newProject.npoErc20Address = msg.sender;\r\n        newProject.title = _title;\r\n        // TODO = voir comment grer le Project Cause en fonction de son enum\r\n        newProject.description = _description;\r\n        newProject.geographicalArea = _geographicalArea;\r\n        newProject.startDate = _startDate;\r\n        newProject.endDate = _endDate;\r\n        newProject.campaignStartDate = _campaignStartDate;\r\n        newProject.campaignDurationInDays = _campaignDurationInDays;\r\n        newProject.minAmount = _minAmount;\r\n        newProject.maxAmount = _maxAmount;\r\n        projectNpo.projectIds.push(projectCount);\r\n\r\n        projectCount++;\r\n        emit ProjectAdded(newProject.projectId, _title,  _startDate, _endDate, _minAmount, _maxAmount);\r\n    } \r\n\r\n    /// @dev Add a Donation struct in global donationMap\r\n    /// @param _projectId id of the project for which the donation is done\r\n    /// @param _donationAmount amount of the donation in EOC tokens\r\n    function addDonation(uint _projectId, uint _donationAmount) public {\r\n        EthicOnChainLib.Donor storage donationDonor = donorAddresses[msg.sender];\r\n        require(donationDonor.donorErc20Address != address(0), unicode\"Vous n'tes pas enregistr en tant que donateur\"); // concept de KYC\r\n        EthicOnChainLib.Project storage donationProject = projectMap[_projectId];\r\n        require(bytes(donationProject.title).length != 0, \"Projet inconnu\");\r\n        // donation possible seulement si dans priode de campagne\r\n        uint campaignEndDate = donationProject.campaignStartDate + donationProject.campaignDurationInDays * 1 days;\r\n        require(block.timestamp > donationProject.campaignStartDate, unicode\"La campagne n'est pas commence\");\r\n        require(block.timestamp < campaignEndDate, unicode\"La campagne est termine\");\r\n\r\n        EthicOnChainLib.Donation storage newDonation = donationMap[donationCount];\r\n        newDonation.donationId = donationCount;\r\n        newDonation.projectId = _projectId;\r\n        newDonation.donorId = donationDonor.donorId;\r\n        newDonation.donationDate = block.timestamp;\r\n        newDonation.donationAmount = _donationAmount;\r\n        \r\n        donationDonor.donationIds.push(donationCount); // mise  jour de l'historique des donations pour le donateur\r\n        \r\n        donationProject.projectBalance += _donationAmount; // mise  jour de la balance du projet\r\n        donationProject.donationIds.push(donationCount); // mise  jour de l'historique des donations pour le projet\r\n        donationCount++;\r\n        \r\n        // transfert de la donation du donateur vers le contrat\r\n        // le donateur devra avoir pralablement approuv (fonction approve du token - un minimum = le montant  transfrer)\r\n        // le contrat  transfrer les tokens de l'addresse du donateur vers l'adresse du contrat\r\n        IERC20(eocTokenAddress).transferFrom(msg.sender, address(this), _donationAmount);\r\n        //TODO PLUS TARD creation d'un escrow contract pour ne pas verser tous les tokens dans le mme contrat gnral\r\n        emit DonationAdded(newDonation.donationId, newDonation.projectId, newDonation.donorId, newDonation.donationDate, newDonation.donationAmount);\r\n    }\r\n\r\n    /// @dev Allows an NPO to withdraw funds from a project \r\n    /// @param _projectId project id \r\n    /// @param _amount Amount of withdrawal\r\n    /// @param _title title of the withdrawal\r\n    /// @param _description description of the withdrawal\r\n    function withdrawTokens (uint _projectId, uint _amount,string memory _title,string memory _description) public {\r\n        EthicOnChainLib.NPO storage withdrawalNpo = npoAddresses[msg.sender];\r\n        require(bytes(npoAddresses[msg.sender].denomination).length != 0, unicode\"Vous n'tes pas enregistr en tant que NPO\");\r\n        require(bytes(projectMap[_projectId].title).length != 0, \"Projet inconnu\");\r\n        uint256 balance = projectMap[_projectId].projectBalance;\r\n        require(balance >= _amount, \"Balance insuffisante\");\r\n        // Widthdraw possible si seulement la campagne est termine\r\n        uint campaignEndDate = projectMap[_projectId].campaignStartDate + projectMap[_projectId].campaignDurationInDays * 1 days;\r\n        require(block.timestamp > projectMap[_projectId].campaignStartDate, unicode\"La campagne n'est pas commence\");\r\n        // require(block.timestamp > campaignEndDate, unicode\"La campagne est toujours en cours\");\r\n\r\n        EthicOnChainLib.Withdrawal storage newWithdrawal = withdrawalMap[withdrawalCount];\r\n        newWithdrawal.withdrawalId = withdrawalCount;\r\n        newWithdrawal.projectId = _projectId;\r\n        newWithdrawal.title = _title;\r\n        newWithdrawal.amount = _amount;\r\n        newWithdrawal.withdrawalDate = block.timestamp;\r\n        newWithdrawal.description = _description;\r\n\r\n        withdrawalNpo.withdrawalIds.push(withdrawalCount); // mise  jour de l'historique des retraits pour le NPO\r\n        projectMap[_projectId].projectBalance -= _amount; // mise  jour de la balance du projet\r\n        projectMap[_projectId].withdrawalIds.push(withdrawalCount); // mise  jour de l'historique des retraits pour le projet\r\n        withdrawalCount++;\r\n        IERC20(eocTokenAddress).transfer(msg.sender,_amount);\r\n        emit WithdrawalAdded(newWithdrawal.withdrawalId,newWithdrawal.projectId,newWithdrawal.amount,msg.sender);\r\n    }\r\n\r\n\r\n    /// @dev  get an NPO via its erc20 address\r\n    /// @param _npoErc20Address erc20 address of the NPO\r\n    /// @return returns the corresponding NPO struct\r\n    function getNpo(address _npoErc20Address) public view returns(EthicOnChainLib.NPO memory) {\r\n        return EthicOnChainLib.libGetNpo(npoAddresses, _npoErc20Address);\r\n    }\r\n\r\n    /// @dev  get an NPO via its id\r\n    /// @param _npoId id of the NPO\r\n    /// @return returns the corresponding NPO struct\r\n    function getNpoByIndex(uint _npoId) internal view returns(EthicOnChainLib.NPO memory) {\r\n        return EthicOnChainLib.libGetNpoByIndex(npoAddresses, npoMap, _npoId);\r\n    }\r\n\r\n    /// @dev  get all NPOs\r\n    /// @return returns an array of all NPOs\r\n    function getNpos() public view returns(EthicOnChainLib.NPO [] memory) {\r\n        return EthicOnChainLib.libGetNpos(npoAddresses, npoMap, npoCount);\r\n    }\r\n\r\n    /// @dev  get a Donor via its erc20 address\r\n    /// @param _donorErc20Address erc20 address of the Donor\r\n    /// @return returns the corresponding Donor struct\r\n    function getDonor(address _donorErc20Address) public view returns(EthicOnChainLib.Donor memory) {\r\n        return EthicOnChainLib.libGetDonor(donorAddresses, _donorErc20Address);\r\n    }\r\n\r\n    /// @dev  get a Donor via its id\r\n    /// @param _donorId id of the Donor\r\n    /// @return returns the corresponding Donor struct\r\n    function getDonorByIndex(uint _donorId) internal view returns(EthicOnChainLib.Donor memory) {\r\n        return EthicOnChainLib.libGetDonorByIndex(donorAddresses, donorMap, _donorId);\r\n    }\r\n\r\n    /// @dev  get all Donors\r\n    /// @return returns an array of all Donors\r\n    function getDonors() public view returns(EthicOnChainLib.Donor [] memory) {\r\n        return EthicOnChainLib.libGetDonors(donorAddresses, donorMap, donorCount);\r\n    }\r\n\r\n    /// @dev Returns a single Project\r\n    /// @param _projectId project unique id\r\n    /// @return the Project struct instance corresponding to _projectId\r\n    function getProject(uint _projectId) public view returns(EthicOnChainLib.Project memory) {\r\n        return EthicOnChainLib.libGetProject(projectMap, _projectId);\r\n    }\r\n\r\n    /// @dev  get all projects\r\n    /// @return returns an array of all Project\r\n    function getProjects() public view returns(EthicOnChainLib.Project [] memory) {\r\n        return EthicOnChainLib.libGetProjects(projectMap, projectCount);\r\n    }\r\n    \r\n    /// @dev Allows to know all the projects of a single NPO\r\n    /// @param _addressNpo id which represents the index\r\n    /// @return Returns an array of all projects of a single NPO\r\n    function getProjectsPerNpo(address _addressNpo) public view  returns(EthicOnChainLib.Project [] memory ) {\r\n        return EthicOnChainLib.libGetProjectsPerNpo(npoAddresses, projectMap, _addressNpo);\r\n    }\r\n\r\n    /// @dev  get Donation by id\r\n    /// param _id index pour retrouver la donation a retourner\r\n    /// @return a struct donation \r\n    function getDonation(uint _id) public view returns(EthicOnChainLib.Donation memory) {\r\n        return EthicOnChainLib.libGetDonation(donationMap, _id);\r\n    }\r\n\r\n    /// @dev Allows to know all the donations of a single donor\r\n    /// @param _addressNpo id which represents the index\r\n    /// @return Returns an array of all donation of a single donor\r\n    function getDonationPerDonor(address _addressNpo) public view  returns(EthicOnChainLib.Donation [] memory ) {\r\n        return EthicOnChainLib.libGetDonationPerDonor(donorAddresses, donationMap, _addressNpo);\r\n    }\r\n\r\n    /// @dev  get Withdrawal by id\r\n    /// param _id index pour retrouver le withdrawal a retourner\r\n    /// @return a struct retait \r\n    function getWithdrawal(uint _id) public view returns(EthicOnChainLib.Withdrawal memory) {\r\n        return EthicOnChainLib.libGetWithdrawal(withdrawalMap, _id);\r\n    }\r\n\r\n    /// @dev Allows to know all the donations of a single donor\r\n    /// @param _addressNpo id which represents the index\r\n    /// @return Returns an array of all donation of a single donor\r\n    function getWithdrawalPerNpo(address _addressNpo) public view  returns(EthicOnChainLib.Withdrawal [] memory ) {\r\n        return EthicOnChainLib.libGetWithdrawalPerNpo(npoAddresses, withdrawalMap, _addressNpo);\r\n    }\r\n\r\n}",
  "sourcePath": "D:\\DOCUMENTS\\ALYRA\\PROJET\\ethic-on-chain\\contracts\\EthicOnChain.sol",
  "compiler": {
    "name": "solc",
    "version": "0.8.11+commit.d7f03943.Emscripten.clang"
  },
  "schemaVersion": "3.4.4",
  "updatedAt": "2022-01-08T16:24:22.434Z",
  "networkType": "ethereum",
  "devdoc": {
    "author": "Lahcen E. Dev / Jrme Gauthier",
    "kind": "dev",
    "methods": {
      "addDonation(uint256,uint256)": {
        "details": "Add a Donation struct in global donationMap",
        "params": {
          "_donationAmount": "amount of the donation in EOC tokens",
          "_projectId": "id of the project for which the donation is done"
        }
      },
      "addDonor(address,string,string,string)": {
        "details": "The administrator/contract can add a new Donor",
        "params": {
          "_donorErc20Address": "ERC20 address of the donor",
          "_name": "Name of the Donor",
          "_postalAddress": "postal address of the donor",
          "_surName": "Surname of the Donor"
        }
      },
      "addNpo(address,string,string,string,string)": {
        "details": "The administrator can add a new NPO",
        "params": {
          "_denomination": "Demonination of the NPO",
          "_npoErc20Address": "the ERC20 address of the npo",
          "_npoType": "Type of npo organization",
          "_object": "object of NPO",
          "_postalAddress": "Postal address of the NPO"
        }
      },
      "addProject(string,string,string,uint256,uint256,uint256,uint256,uint256,uint256)": {
        "details": "This function will allow to add a project, the owner will be the one who calls the function. ",
        "params": {
          "_campaignDurationInDays": "the duration of the collection of funds",
          "_campaignStartDate": "the beginning of the collection of funds",
          "_description": "description of the project",
          "_endDate": "The end of the project",
          "_geographicalArea": "the geographical area where the project will be located.",
          "_maxAmount": "The maximum price to make the project a success ",
          "_minAmount": "The minimum price for the project to be valid",
          "_startDate": "The start date of the project",
          "_title": "The title of the project"
        }
      },
      "constructor": {
        "details": "Initialise the deployed EOC token address for swap",
        "params": {
          "_eocTokenAddress": "EOC Token address"
        }
      },
      "getDonation(uint256)": {
        "details": "get Donation by id param _id index pour retrouver la donation a retourner",
        "returns": {
          "_0": "a struct donation "
        }
      },
      "getDonationPerDonor(address)": {
        "details": "Allows to know all the donations of a single donor",
        "params": {
          "_addressNpo": "id which represents the index"
        },
        "returns": {
          "_0": "Returns an array of all donation of a single donor"
        }
      },
      "getDonor(address)": {
        "details": "get a Donor via its erc20 address",
        "params": {
          "_donorErc20Address": "erc20 address of the Donor"
        },
        "returns": {
          "_0": "returns the corresponding Donor struct"
        }
      },
      "getDonors()": {
        "details": "get all Donors",
        "returns": {
          "_0": "returns an array of all Donors"
        }
      },
      "getNpo(address)": {
        "details": "get an NPO via its erc20 address",
        "params": {
          "_npoErc20Address": "erc20 address of the NPO"
        },
        "returns": {
          "_0": "returns the corresponding NPO struct"
        }
      },
      "getNpos()": {
        "details": "get all NPOs",
        "returns": {
          "_0": "returns an array of all NPOs"
        }
      },
      "getProject(uint256)": {
        "details": "Returns a single Project",
        "params": {
          "_projectId": "project unique id"
        },
        "returns": {
          "_0": "the Project struct instance corresponding to _projectId"
        }
      },
      "getProjects()": {
        "details": "get all projects",
        "returns": {
          "_0": "returns an array of all Project"
        }
      },
      "getProjectsPerNpo(address)": {
        "details": "Allows to know all the projects of a single NPO",
        "params": {
          "_addressNpo": "id which represents the index"
        },
        "returns": {
          "_0": "Returns an array of all projects of a single NPO"
        }
      },
      "getWithdrawal(uint256)": {
        "details": "get Withdrawal by id param _id index pour retrouver le withdrawal a retourner",
        "returns": {
          "_0": "a struct retait "
        }
      },
      "getWithdrawalPerNpo(address)": {
        "details": "Allows to know all the donations of a single donor",
        "params": {
          "_addressNpo": "id which represents the index"
        },
        "returns": {
          "_0": "Returns an array of all donation of a single donor"
        }
      },
      "owner()": {
        "details": "Returns the address of the current owner."
      },
      "renounceOwnership()": {
        "details": "Leaves the contract without owner. It will not be possible to call `onlyOwner` functions anymore. Can only be called by the current owner. NOTE: Renouncing ownership will leave the contract without an owner, thereby removing any functionality that is only available to the owner."
      },
      "transferOwnership(address)": {
        "details": "Transfers ownership of the contract to a new account (`newOwner`). Can only be called by the current owner."
      },
      "withdrawTokens(uint256,uint256,string,string)": {
        "details": "Allows an NPO to withdraw funds from a project ",
        "params": {
          "_amount": "Amount of withdrawal",
          "_description": "description of the withdrawal",
          "_projectId": "project id ",
          "_title": "title of the withdrawal"
        }
      }
    },
    "title": "EthicOnChain ",
    "version": 1
  },
  "userdoc": {
    "kind": "user",
    "methods": {},
    "notice": "EthicOnChain contract to manage NPOs, Projects and Donors",
    "version": 1
  }
}