{
  "contractName": "EthicOnChainLib",
  "abi": [
    {
      "inputs": [],
      "name": "libGetTime",
      "outputs": [
        {
          "internalType": "uint256",
          "name": "",
          "type": "uint256"
        }
      ],
      "stateMutability": "view",
      "type": "function",
      "constant": true
    }
  ],
  "bytecode": "0x613589610053600b82828239805160001a607314610046577f4e487b7100000000000000000000000000000000000000000000000000000000600052600060045260246000fd5b30600052607381538281f3fe73000000000000000000000000000000000000000030146080604052600436106100be5760003560e01c806381e9c89b1161007b57806381e9c89b146101e357806388439ce4146102135780638d85a16914610243578063923aa962146102735780639bed724814610291578063e17414e7146102c1576100be565b806304ae0c65146100c35780632c77488e146100f35780635454999f1461012357806357ee7aae14610153578063599ed591146101835780637f9824d0146101b3575b600080fd5b6100dd60048036038101906100d89190612194565b6102f1565b6040516100ea91906125ef565b60405180910390f35b61010d60048036038101906101089190612647565b61044a565b60405161011a91906127ec565b60405180910390f35b61013d6004803603810190610138919061283a565b6105a3565b60405161014a919061290a565b60405180910390f35b61016d60048036038101906101689190612962565b61071c565b60405161017a9190612a40565b60405180910390f35b61019d60048036038101906101989190612a98565b6109e3565b6040516101aa9190612b40565b60405180910390f35b6101cd60048036038101906101c89190612b5b565b610a42565b6040516101da9190612cfa565b60405180910390f35b6101fd60048036038101906101f89190612d1c565b610db7565b60405161020a9190612e86565b60405180910390f35b61022d60048036038101906102289190612b5b565b610f10565b60405161023a91906125ef565b60405180910390f35b61025d60048036038101906102589190612ede565b61131c565b60405161026a9190613091565b60405180910390f35b61027b6113cf565b60405161028891906130c2565b60405180910390f35b6102ab60048036038101906102a691906130dd565b6113d7565b6040516102b891906131f0565b60405180910390f35b6102db60048036038101906102d69190613212565b611789565b6040516102e891906133fa565b60405180910390f35b606060008460008473ffffffffffffffffffffffffffffffffffffffff1673ffffffffffffffffffffffffffffffffffffffff16815260200190815260200160002060060180549050905060008167ffffffffffffffff8111156103585761035761341c565b5b60405190808252806020026020018201604052801561039157816020015b61037e611f1b565b8152602001906001900390816103765790505b50905060005b8281101561043d5760008760008773ffffffffffffffffffffffffffffffffffffffff1673ffffffffffffffffffffffffffffffffffffffff16815260200190815260200160002060060182815481106103f4576103f361344b565b5b9060005260206000200154905061040b8782610a42565b83838151811061041e5761041d61344b565b5b6020026020010181905250508080610435906134a9565b915050610397565b5080925050509392505050565b606060008460008473ffffffffffffffffffffffffffffffffffffffff1673ffffffffffffffffffffffffffffffffffffffff16815260200190815260200160002060070180549050905060008167ffffffffffffffff8111156104b1576104b061341c565b5b6040519080825280602002602001820160405280156104ea57816020015b6104d7611fb9565b8152602001906001900390816104cf5790505b50905060005b828110156105965760008760008773ffffffffffffffffffffffffffffffffffffffff1673ffffffffffffffffffffffffffffffffffffffff168152602001908152602001600020600701828154811061054d5761054c61344b565b5b9060005260206000200154905061056487826105a3565b8383815181106105775761057661344b565b5b602002602001018190525050808061058e906134a9565b9150506104f0565b5080925050509392505050565b6105ab611fb9565b8260008381526020019081526020016000206040518060c00160405290816000820154815260200160018201548152602001600282015481526020016003820154815260200160048201805461060090613521565b80601f016020809104026020016040519081016040528092919081815260200182805461062c90613521565b80156106795780601f1061064e57610100808354040283529160200191610679565b820191906000526020600020905b81548152906001019060200180831161065c57829003601f168201915b5050505050815260200160058201805461069290613521565b80601f01602080910402602001604051908101604052809291908181526020018280546106be90613521565b801561070b5780601f106106e05761010080835404028352916020019161070b565b820191906000526020600020905b8154815290600101906020018083116106ee57829003601f168201915b505050505081525050905092915050565b610724611fef565b8260008373ffffffffffffffffffffffffffffffffffffffff1673ffffffffffffffffffffffffffffffffffffffff1681526020019081526020016000206040518060c0016040529081600082015481526020016001820160009054906101000a900473ffffffffffffffffffffffffffffffffffffffff1673ffffffffffffffffffffffffffffffffffffffff1673ffffffffffffffffffffffffffffffffffffffff1681526020016002820180546107dd90613521565b80601f016020809104026020016040519081016040528092919081815260200182805461080990613521565b80156108565780601f1061082b57610100808354040283529160200191610856565b820191906000526020600020905b81548152906001019060200180831161083957829003601f168201915b5050505050815260200160038201805461086f90613521565b80601f016020809104026020016040519081016040528092919081815260200182805461089b90613521565b80156108e85780601f106108bd576101008083540402835291602001916108e8565b820191906000526020600020905b8154815290600101906020018083116108cb57829003601f168201915b5050505050815260200160048201805461090190613521565b80601f016020809104026020016040519081016040528092919081815260200182805461092d90613521565b801561097a5780601f1061094f5761010080835404028352916020019161097a565b820191906000526020600020905b81548152906001019060200180831161095d57829003601f168201915b50505050508152602001600582018054806020026020016040519081016040528092919081815260200182805480156109d257602002820191906000526020600020905b8154815260200190600101908083116109be575b505050505081525050905092915050565b6109eb61203b565b8260008381526020019081526020016000206040518060a001604052908160008201548152602001600182015481526020016002820154815260200160038201548152602001600482015481525050905092915050565b610a4a611f1b565b826000838152602001908152602001600020604051806101e001604052908160008201548152602001600182015481526020016002820154815260200160038201548152602001600482015481526020016005820154815260200160068201548152602001600782015481526020016008820160009054906101000a900473ffffffffffffffffffffffffffffffffffffffff1673ffffffffffffffffffffffffffffffffffffffff1673ffffffffffffffffffffffffffffffffffffffff1681526020016008820160149054906101000a900460ff166006811115610b3357610b3261223b565b5b6006811115610b4557610b4461223b565b5b8152602001600982018054610b5990613521565b80601f0160208091040260200160405190810160405280929190818152602001828054610b8590613521565b8015610bd25780601f10610ba757610100808354040283529160200191610bd2565b820191906000526020600020905b815481529060010190602001808311610bb557829003601f168201915b50505050508152602001600a82018054610beb90613521565b80601f0160208091040260200160405190810160405280929190818152602001828054610c1790613521565b8015610c645780601f10610c3957610100808354040283529160200191610c64565b820191906000526020600020905b815481529060010190602001808311610c4757829003601f168201915b50505050508152602001600b82018054610c7d90613521565b80601f0160208091040260200160405190810160405280929190818152602001828054610ca990613521565b8015610cf65780601f10610ccb57610100808354040283529160200191610cf6565b820191906000526020600020905b815481529060010190602001808311610cd957829003601f168201915b50505050508152602001600c8201805480602002602001604051908101604052809291908181526020018280548015610d4e57602002820191906000526020600020905b815481526020019060010190808311610d3a575b50505050508152602001600d8201805480602002602001604051908101604052809291908181526020018280548015610da657602002820191906000526020600020905b815481526020019060010190808311610d92575b505050505081525050905092915050565b606060008460008473ffffffffffffffffffffffffffffffffffffffff1673ffffffffffffffffffffffffffffffffffffffff16815260200190815260200160002060050180549050905060008167ffffffffffffffff811115610e1e57610e1d61341c565b5b604051908082528060200260200182016040528015610e5757816020015b610e4461203b565b815260200190600190039081610e3c5790505b50905060005b82811015610f035760008760008773ffffffffffffffffffffffffffffffffffffffff1673ffffffffffffffffffffffffffffffffffffffff1681526020019081526020016000206005018281548110610eba57610eb961344b565b5b90600052602060002001549050610ed187826109e3565b838381518110610ee457610ee361344b565b5b6020026020010181905250508080610efb906134a9565b915050610e5d565b5080925050509392505050565b6060600082905060008167ffffffffffffffff811115610f3357610f3261341c565b5b604051908082528060200260200182016040528015610f6c57816020015b610f59611f1b565b815260200190600190039081610f515790505b50905060005b8281101561131057856000828152602001908152602001600020604051806101e001604052908160008201548152602001600182015481526020016002820154815260200160038201548152602001600482015481526020016005820154815260200160068201548152602001600782015481526020016008820160009054906101000a900473ffffffffffffffffffffffffffffffffffffffff1673ffffffffffffffffffffffffffffffffffffffff1673ffffffffffffffffffffffffffffffffffffffff1681526020016008820160149054906101000a900460ff1660068111156110635761106261223b565b5b60068111156110755761107461223b565b5b815260200160098201805461108990613521565b80601f01602080910402602001604051908101604052809291908181526020018280546110b590613521565b80156111025780601f106110d757610100808354040283529160200191611102565b820191906000526020600020905b8154815290600101906020018083116110e557829003601f168201915b50505050508152602001600a8201805461111b90613521565b80601f016020809104026020016040519081016040528092919081815260200182805461114790613521565b80156111945780601f1061116957610100808354040283529160200191611194565b820191906000526020600020905b81548152906001019060200180831161117757829003601f168201915b50505050508152602001600b820180546111ad90613521565b80601f01602080910402602001604051908101604052809291908181526020018280546111d990613521565b80156112265780601f106111fb57610100808354040283529160200191611226565b820191906000526020600020905b81548152906001019060200180831161120957829003601f168201915b50505050508152602001600c820180548060200260200160405190810160405280929190818152602001828054801561127e57602002820191906000526020600020905b81548152602001906001019080831161126a575b50505050508152602001600d82018054806020026020016040519081016040528092919081815260200182805480156112d657602002820191906000526020600020905b8154815260200190600101908083116112c2575b5050505050815250508282815181106112f2576112f161344b565b5b60200260200101819052508080611308906134a9565b915050610f72565b50809250505092915050565b6060600082905060008167ffffffffffffffff81111561133f5761133e61341c565b5b60405190808252806020026020018201604052801561137857816020015b611365611fef565b81526020019060019003908161135d5790505b50905060005b828110156113c25761139187878361183c565b8282815181106113a4576113a361344b565b5b602002602001018190525080806113ba906134a9565b91505061137e565b5080925050509392505050565b600042905090565b6113df61206a565b8260008373ffffffffffffffffffffffffffffffffffffffff1673ffffffffffffffffffffffffffffffffffffffff16815260200190815260200160002060405180610100016040529081600082015481526020016001820160009054906101000a900473ffffffffffffffffffffffffffffffffffffffff1673ffffffffffffffffffffffffffffffffffffffff1673ffffffffffffffffffffffffffffffffffffffff16815260200160028201805461149990613521565b80601f01602080910402602001604051908101604052809291908181526020018280546114c590613521565b80156115125780601f106114e757610100808354040283529160200191611512565b820191906000526020600020905b8154815290600101906020018083116114f557829003601f168201915b5050505050815260200160038201805461152b90613521565b80601f016020809104026020016040519081016040528092919081815260200182805461155790613521565b80156115a45780601f10611579576101008083540402835291602001916115a4565b820191906000526020600020905b81548152906001019060200180831161158757829003601f168201915b505050505081526020016004820180546115bd90613521565b80601f01602080910402602001604051908101604052809291908181526020018280546115e990613521565b80156116365780601f1061160b57610100808354040283529160200191611636565b820191906000526020600020905b81548152906001019060200180831161161957829003601f168201915b5050505050815260200160058201805461164f90613521565b80601f016020809104026020016040519081016040528092919081815260200182805461167b90613521565b80156116c85780601f1061169d576101008083540402835291602001916116c8565b820191906000526020600020905b8154815290600101906020018083116116ab57829003601f168201915b505050505081526020016006820180548060200260200160405190810160405280929190818152602001828054801561172057602002820191906000526020600020905b81548152602001906001019080831161170c575b505050505081526020016007820180548060200260200160405190810160405280929190818152602001828054801561177857602002820191906000526020600020905b815481526020019060010190808311611764575b505050505081525050905092915050565b6060600082905060008167ffffffffffffffff8111156117ac576117ab61341c565b5b6040519080825280602002602001820160405280156117e557816020015b6117d261206a565b8152602001906001900390816117ca5790505b50905060005b8281101561182f576117fe878783611b36565b8282815181106118115761181061344b565b5b60200260200101819052508080611827906134a9565b9150506117eb565b5080925050509392505050565b611844611fef565b83600084600085815260200190815260200160002060009054906101000a900473ffffffffffffffffffffffffffffffffffffffff1673ffffffffffffffffffffffffffffffffffffffff1673ffffffffffffffffffffffffffffffffffffffff1681526020019081526020016000206040518060c0016040529081600082015481526020016001820160009054906101000a900473ffffffffffffffffffffffffffffffffffffffff1673ffffffffffffffffffffffffffffffffffffffff1673ffffffffffffffffffffffffffffffffffffffff16815260200160028201805461192f90613521565b80601f016020809104026020016040519081016040528092919081815260200182805461195b90613521565b80156119a85780601f1061197d576101008083540402835291602001916119a8565b820191906000526020600020905b81548152906001019060200180831161198b57829003601f168201915b505050505081526020016003820180546119c190613521565b80601f01602080910402602001604051908101604052809291908181526020018280546119ed90613521565b8015611a3a5780601f10611a0f57610100808354040283529160200191611a3a565b820191906000526020600020905b815481529060010190602001808311611a1d57829003601f168201915b50505050508152602001600482018054611a5390613521565b80601f0160208091040260200160405190810160405280929190818152602001828054611a7f90613521565b8015611acc5780601f10611aa157610100808354040283529160200191611acc565b820191906000526020600020905b815481529060010190602001808311611aaf57829003601f168201915b5050505050815260200160058201805480602002602001604051908101604052809291908181526020018280548015611b2457602002820191906000526020600020905b815481526020019060010190808311611b10575b50505050508152505090509392505050565b611b3e61206a565b83600084600085815260200190815260200160002060009054906101000a900473ffffffffffffffffffffffffffffffffffffffff1673ffffffffffffffffffffffffffffffffffffffff1673ffffffffffffffffffffffffffffffffffffffff16815260200190815260200160002060405180610100016040529081600082015481526020016001820160009054906101000a900473ffffffffffffffffffffffffffffffffffffffff1673ffffffffffffffffffffffffffffffffffffffff1673ffffffffffffffffffffffffffffffffffffffff168152602001600282018054611c2a90613521565b80601f0160208091040260200160405190810160405280929190818152602001828054611c5690613521565b8015611ca35780601f10611c7857610100808354040283529160200191611ca3565b820191906000526020600020905b815481529060010190602001808311611c8657829003601f168201915b50505050508152602001600382018054611cbc90613521565b80601f0160208091040260200160405190810160405280929190818152602001828054611ce890613521565b8015611d355780601f10611d0a57610100808354040283529160200191611d35565b820191906000526020600020905b815481529060010190602001808311611d1857829003601f168201915b50505050508152602001600482018054611d4e90613521565b80601f0160208091040260200160405190810160405280929190818152602001828054611d7a90613521565b8015611dc75780601f10611d9c57610100808354040283529160200191611dc7565b820191906000526020600020905b815481529060010190602001808311611daa57829003601f168201915b50505050508152602001600582018054611de090613521565b80601f0160208091040260200160405190810160405280929190818152602001828054611e0c90613521565b8015611e595780601f10611e2e57610100808354040283529160200191611e59565b820191906000526020600020905b815481529060010190602001808311611e3c57829003601f168201915b5050505050815260200160068201805480602002602001604051908101604052809291908181526020018280548015611eb157602002820191906000526020600020905b815481526020019060010190808311611e9d575b5050505050815260200160078201805480602002602001604051908101604052809291908181526020018280548015611f0957602002820191906000526020600020905b815481526020019060010190808311611ef5575b50505050508152505090509392505050565b604051806101e001604052806000815260200160008152602001600081526020016000815260200160008152602001600081526020016000815260200160008152602001600073ffffffffffffffffffffffffffffffffffffffff16815260200160006006811115611f9057611f8f61223b565b5b815260200160608152602001606081526020016060815260200160608152602001606081525090565b6040518060c001604052806000815260200160008152602001600081526020016000815260200160608152602001606081525090565b6040518060c0016040528060008152602001600073ffffffffffffffffffffffffffffffffffffffff168152602001606081526020016060815260200160608152602001606081525090565b6040518060a0016040528060008152602001600081526020016000815260200160008152602001600081525090565b60405180610100016040528060008152602001600073ffffffffffffffffffffffffffffffffffffffff1681526020016060815260200160608152602001606081526020016060815260200160608152602001606081525090565b600080fd5b6000819050919050565b6120dd816120ca565b81146120e857600080fd5b50565b6000813590506120fa816120d4565b92915050565b6000819050919050565b61211381612100565b811461211e57600080fd5b50565b6000813590506121308161210a565b92915050565b600073ffffffffffffffffffffffffffffffffffffffff82169050919050565b600061216182612136565b9050919050565b61217181612156565b811461217c57600080fd5b50565b60008135905061218e81612168565b92915050565b6000806000606084860312156121ad576121ac6120c5565b5b60006121bb868287016120eb565b93505060206121cc86828701612121565b92505060406121dd8682870161217f565b9150509250925092565b600081519050919050565b600082825260208201905092915050565b6000819050602082019050919050565b6000819050919050565b61222681612213565b82525050565b61223581612156565b82525050565b7f4e487b7100000000000000000000000000000000000000000000000000000000600052602160045260246000fd5b6007811061227b5761227a61223b565b5b50565b600081905061228c8261226a565b919050565b600061229c8261227e565b9050919050565b6122ac81612291565b82525050565b600081519050919050565b600082825260208201905092915050565b60005b838110156122ec5780820151818401526020810190506122d1565b838111156122fb576000848401525b50505050565b6000601f19601f8301169050919050565b600061231d826122b2565b61232781856122bd565b93506123378185602086016122ce565b61234081612301565b840191505092915050565b600081519050919050565b600082825260208201905092915050565b6000819050602082019050919050565b6000612383838361221d565b60208301905092915050565b6000602082019050919050565b60006123a78261234b565b6123b18185612356565b93506123bc83612367565b8060005b838110156123ed5781516123d48882612377565b97506123df8361238f565b9250506001810190506123c0565b5085935050505092915050565b60006101e083016000830151612413600086018261221d565b506020830151612426602086018261221d565b506040830151612439604086018261221d565b50606083015161244c606086018261221d565b50608083015161245f608086018261221d565b5060a083015161247260a086018261221d565b5060c083015161248560c086018261221d565b5060e083015161249860e086018261221d565b506101008301516124ad61010086018261222c565b506101208301516124c26101208601826122a3565b506101408301518482036101408601526124dc8282612312565b9150506101608301518482036101608601526124f88282612312565b9150506101808301518482036101808601526125148282612312565b9150506101a08301518482036101a0860152612530828261239c565b9150506101c08301518482036101c086015261254c828261239c565b9150508091505092915050565b600061256583836123fa565b905092915050565b6000602082019050919050565b6000612585826121e7565b61258f81856121f2565b9350836020820285016125a185612203565b8060005b858110156125dd57848403895281516125be8582612559565b94506125c98361256d565b925060208a019950506001810190506125a5565b50829750879550505050505092915050565b60006020820190508181036000830152612609818461257a565b905092915050565b6000819050919050565b61262481612611565b811461262f57600080fd5b50565b6000813590506126418161261b565b92915050565b6000806000606084860312156126605761265f6120c5565b5b600061266e868287016120eb565b935050602061267f86828701612632565b92505060406126908682870161217f565b9150509250925092565b600081519050919050565b600082825260208201905092915050565b6000819050602082019050919050565b600060c0830160008301516126de600086018261221d565b5060208301516126f1602086018261221d565b506040830151612704604086018261221d565b506060830151612717606086018261221d565b506080830151848203608086015261272f8282612312565b91505060a083015184820360a08601526127498282612312565b9150508091505092915050565b600061276283836126c6565b905092915050565b6000602082019050919050565b60006127828261269a565b61278c81856126a5565b93508360208202850161279e856126b6565b8060005b858110156127da57848403895281516127bb8582612756565b94506127c68361276a565b925060208a019950506001810190506127a2565b50829750879550505050505092915050565b600060208201905081810360008301526128068184612777565b905092915050565b61281781612213565b811461282257600080fd5b50565b6000813590506128348161280e565b92915050565b60008060408385031215612851576128506120c5565b5b600061285f85828601612632565b925050602061287085828601612825565b9150509250929050565b600060c083016000830151612892600086018261221d565b5060208301516128a5602086018261221d565b5060408301516128b8604086018261221d565b5060608301516128cb606086018261221d565b50608083015184820360808601526128e38282612312565b91505060a083015184820360a08601526128fd8282612312565b9150508091505092915050565b60006020820190508181036000830152612924818461287a565b905092915050565b6000819050919050565b61293f8161292c565b811461294a57600080fd5b50565b60008135905061295c81612936565b92915050565b60008060408385031215612979576129786120c5565b5b60006129878582860161294d565b92505060206129988582860161217f565b9150509250929050565b600060c0830160008301516129ba600086018261221d565b5060208301516129cd602086018261222c565b50604083015184820360408601526129e58282612312565b915050606083015184820360608601526129ff8282612312565b91505060808301518482036080860152612a198282612312565b91505060a083015184820360a0860152612a33828261239c565b9150508091505092915050565b60006020820190508181036000830152612a5a81846129a2565b905092915050565b6000819050919050565b612a7581612a62565b8114612a8057600080fd5b50565b600081359050612a9281612a6c565b92915050565b60008060408385031215612aaf57612aae6120c5565b5b6000612abd85828601612a83565b9250506020612ace85828601612825565b9150509250929050565b60a082016000820151612aee600085018261221d565b506020820151612b01602085018261221d565b506040820151612b14604085018261221d565b506060820151612b27606085018261221d565b506080820151612b3a608085018261221d565b50505050565b600060a082019050612b556000830184612ad8565b92915050565b60008060408385031215612b7257612b716120c5565b5b6000612b8085828601612121565b9250506020612b9185828601612825565b9150509250929050565b60006101e083016000830151612bb4600086018261221d565b506020830151612bc7602086018261221d565b506040830151612bda604086018261221d565b506060830151612bed606086018261221d565b506080830151612c00608086018261221d565b5060a0830151612c1360a086018261221d565b5060c0830151612c2660c086018261221d565b5060e0830151612c3960e086018261221d565b50610100830151612c4e61010086018261222c565b50610120830151612c636101208601826122a3565b50610140830151848203610140860152612c7d8282612312565b915050610160830151848203610160860152612c998282612312565b915050610180830151848203610180860152612cb58282612312565b9150506101a08301518482036101a0860152612cd1828261239c565b9150506101c08301518482036101c0860152612ced828261239c565b9150508091505092915050565b60006020820190508181036000830152612d148184612b9b565b905092915050565b600080600060608486031215612d3557612d346120c5565b5b6000612d438682870161294d565b9350506020612d5486828701612a83565b9250506040612d658682870161217f565b9150509250925092565b600081519050919050565b600082825260208201905092915050565b6000819050602082019050919050565b60a082016000820151612db1600085018261221d565b506020820151612dc4602085018261221d565b506040820151612dd7604085018261221d565b506060820151612dea606085018261221d565b506080820151612dfd608085018261221d565b50505050565b6000612e0f8383612d9b565b60a08301905092915050565b6000602082019050919050565b6000612e3382612d6f565b612e3d8185612d7a565b9350612e4883612d8b565b8060005b83811015612e79578151612e608882612e03565b9750612e6b83612e1b565b925050600181019050612e4c565b5085935050505092915050565b60006020820190508181036000830152612ea08184612e28565b905092915050565b6000819050919050565b612ebb81612ea8565b8114612ec657600080fd5b50565b600081359050612ed881612eb2565b92915050565b600080600060608486031215612ef757612ef66120c5565b5b6000612f058682870161294d565b9350506020612f1686828701612ec9565b9250506040612f2786828701612825565b9150509250925092565b600081519050919050565b600082825260208201905092915050565b6000819050602082019050919050565b600060c083016000830151612f75600086018261221d565b506020830151612f88602086018261222c565b5060408301518482036040860152612fa08282612312565b91505060608301518482036060860152612fba8282612312565b91505060808301518482036080860152612fd48282612312565b91505060a083015184820360a0860152612fee828261239c565b9150508091505092915050565b60006130078383612f5d565b905092915050565b6000602082019050919050565b600061302782612f31565b6130318185612f3c565b93508360208202850161304385612f4d565b8060005b8581101561307f57848403895281516130608582612ffb565b945061306b8361300f565b925060208a01995050600181019050613047565b50829750879550505050505092915050565b600060208201905081810360008301526130ab818461301c565b905092915050565b6130bc81612213565b82525050565b60006020820190506130d760008301846130b3565b92915050565b600080604083850312156130f4576130f36120c5565b5b6000613102858286016120eb565b92505060206131138582860161217f565b9150509250929050565b600061010083016000830151613136600086018261221d565b506020830151613149602086018261222c565b50604083015184820360408601526131618282612312565b9150506060830151848203606086015261317b8282612312565b915050608083015184820360808601526131958282612312565b91505060a083015184820360a08601526131af8282612312565b91505060c083015184820360c08601526131c9828261239c565b91505060e083015184820360e08601526131e3828261239c565b9150508091505092915050565b6000602082019050818103600083015261320a818461311d565b905092915050565b60008060006060848603121561322b5761322a6120c5565b5b6000613239868287016120eb565b935050602061324a86828701612ec9565b925050604061325b86828701612825565b9150509250925092565b600081519050919050565b600082825260208201905092915050565b6000819050602082019050919050565b6000610100830160008301516132aa600086018261221d565b5060208301516132bd602086018261222c565b50604083015184820360408601526132d58282612312565b915050606083015184820360608601526132ef8282612312565b915050608083015184820360808601526133098282612312565b91505060a083015184820360a08601526133238282612312565b91505060c083015184820360c086015261333d828261239c565b91505060e083015184820360e0860152613357828261239c565b9150508091505092915050565b60006133708383613291565b905092915050565b6000602082019050919050565b600061339082613265565b61339a8185613270565b9350836020820285016133ac85613281565b8060005b858110156133e857848403895281516133c98582613364565b94506133d483613378565b925060208a019950506001810190506133b0565b50829750879550505050505092915050565b600060208201905081810360008301526134148184613385565b905092915050565b7f4e487b7100000000000000000000000000000000000000000000000000000000600052604160045260246000fd5b7f4e487b7100000000000000000000000000000000000000000000000000000000600052603260045260246000fd5b7f4e487b7100000000000000000000000000000000000000000000000000000000600052601160045260246000fd5b60006134b482612213565b91507fffffffffffffffffffffffffffffffffffffffffffffffffffffffffffffffff8214156134e7576134e661347a565b5b600182019050919050565b7f4e487b7100000000000000000000000000000000000000000000000000000000600052602260045260246000fd5b6000600282049050600182168061353957607f821691505b6020821081141561354d5761354c6134f2565b5b5091905056fea2646970667358221220c66e831dab874d3812b843ca41d17a1e74fb171da0a8deef7ab2647e318cae7564736f6c634300080b0033",
  "immutableReferences": {},
  "source": "// SPDX-License-Identifier: MIT\r\npragma solidity 0.8.11;\r\n \r\n/// @title EthicOnChainLib \r\n/// @author Lahcen E. Dev / Jrme Gauthier\r\n/// @notice EthicOnChain library to manage struct and getters\r\nlibrary EthicOnChainLib {\r\n    \r\n    struct NPO {\r\n        uint npoId;\r\n        address npoErc20Address;\r\n        string denomination;\r\n        string postalAddress;\r\n        string object;\r\n        string npoType;\r\n        uint[] projectIds;\r\n        uint[] withdrawalIds;\r\n    }\r\n\r\n    struct Donor {\r\n        uint donorId;\r\n        address donorErc20Address;\r\n        string name;\r\n        string surName;\r\n        string postalAddress;\r\n        uint[] donationIds;\r\n    }\r\n\r\n    struct Project {\r\n        uint projectId; // cl primaire\r\n        uint startDate;\r\n        uint endDate;\r\n        uint campaignStartDate;\r\n        uint campaignDurationInDays;\r\n        uint minAmount;\r\n        uint maxAmount;\r\n        uint projectBalance;\r\n        address npoErc20Address;\r\n        ProjectCause cause;\r\n        string title;\r\n        string description;\r\n        string geographicalArea;\r\n        uint[] donationIds;\r\n        uint[] withdrawalIds;\r\n    } \r\n\r\n    struct Donation {\r\n        uint donationId; // cl primaire\r\n        uint projectId;\r\n        uint donorId;\r\n        uint donationDate;\r\n        uint donationAmount;\r\n    }     \r\n\r\n    struct Withdrawal {\r\n        uint withdrawalId;\r\n        uint projectId;\r\n        uint amount;\r\n        uint withdrawalDate;\r\n        string title;\r\n        string description;\r\n    }\r\n\r\n    enum ProjectCause {\r\n        LutteContreLaPauvreteEtExclusion,\r\n        EnvironnementEtLesAnimaux,\r\n        Education,\r\n        ArtEtLaCulture,\r\n        SanteEtLaRecherche,\r\n        DroitsDeLHomme,\r\n        InfrastructureRoutiere\r\n    }\r\n\r\n    enum ProjectStatus {\r\n        ProjectProposal, \r\n        WaitingOpening,\r\n        OpenFundRaising,\r\n        CloseFundRaising\r\n    }\r\n\r\n    /// @dev Get an NPO via its erc20 address\r\n    /// @param _npoAddresses mapping of NPO addresses to NPO Struct\r\n    /// @param _npoErc20Address erc20 address of the NPO Struct\r\n    /// @return returns the corresponding NPO struct\r\n    function libGetNpo(mapping (address => NPO) storage _npoAddresses, address _npoErc20Address) public view returns(NPO memory) {\r\n        return _npoAddresses[_npoErc20Address];\r\n    }\r\n    \r\n    /// @dev Get an NPO via its id\r\n    /// @param _npoAddresses mapping of NPO addresses to NPO Struct\r\n    /// @param _npoMap mapping of NPO id to NPO Struct\r\n    /// @param _npoId id of the NPO\r\n    /// @return returns the corresponding NPO struct\r\n    function libGetNpoByIndex(mapping (address => NPO) storage _npoAddresses, mapping (uint => address) storage _npoMap, uint _npoId) internal view returns(NPO memory) {\r\n        return _npoAddresses[_npoMap[_npoId]];\r\n    }\r\n\r\n    /// @dev Get all NPOs\r\n    /// @param _npoAddresses mapping of NPO addresses to NPO Struct\r\n    /// @param _npoMap mapping of NPO id to NPO Struct\r\n    /// @param _npoCount current index for NPO = total count of NPOs\r\n    /// @return returns an array of all NPOs\r\n    function libGetNpos(mapping (address => NPO) storage _npoAddresses, mapping (uint => address) storage _npoMap, uint _npoCount) public view returns(NPO [] memory) {\r\n        uint arraySize = _npoCount;\r\n        NPO [] memory result= new NPO[](arraySize);\r\n        for(uint i; i < arraySize; i++) {\r\n            result[i] = libGetNpoByIndex(_npoAddresses, _npoMap, i);     \r\n        }\r\n        return result;\r\n    }\r\n\r\n    /// @dev  get a Donor via its erc20 address\r\n    /// @param _donorAddresses mapping of Donors addresses to Donor Struct\r\n    /// @param _donorErc20Address erc20 address of the Donor\r\n    /// @return returns the corresponding Donor struct\r\n    function libGetDonor(mapping (address => Donor) storage _donorAddresses, address _donorErc20Address) public view returns(Donor memory) {\r\n        return _donorAddresses[_donorErc20Address];\r\n    }\r\n\r\n    /// @dev  get a Donor via its id\r\n    /// @param _donorAddresses mapping of Donors addresses to Donor Struct\r\n    /// @param _donorMap mapping of Donor id to Donor Struct\r\n    /// @param _donorId id of the Donor\r\n    /// @return returns the corresponding Donor struct\r\n    function libGetDonorByIndex(mapping (address => Donor) storage _donorAddresses, mapping (uint => address) storage _donorMap, uint _donorId) internal view returns(Donor memory) {\r\n        return _donorAddresses[_donorMap[_donorId]];\r\n    }\r\n\r\n    /// @dev  get all Donors\r\n    /// @param _donorAddresses mapping of Donors addresses to Donor Struct\r\n    /// @param _donorMap mapping of Donor id to Donor Struct\r\n    /// @param _donorCount current index for Donor = total count of Donors\r\n    /// @return returns an array of all Donors\r\n    function libGetDonors(mapping (address => Donor) storage _donorAddresses, mapping (uint => address) storage _donorMap, uint _donorCount) public view returns(Donor [] memory) {\r\n        uint arraySize = _donorCount;\r\n        Donor [] memory result = new Donor[](arraySize);\r\n        for(uint i; i < arraySize; i++) {\r\n            result[i] = libGetDonorByIndex(_donorAddresses, _donorMap, i);\r\n        }\r\n        return result;\r\n    }\r\n\r\n    /// @dev Returns a single Project\r\n    /// @param _projectMap mapping of Project id to Project Struct\r\n    /// @param _projectId project unique id\r\n    /// @return the Project struct instance corresponding to _projectId\r\n    function libGetProject(mapping (uint => Project) storage _projectMap, uint _projectId) public view returns(Project memory) {\r\n        return _projectMap[_projectId];\r\n    }\r\n\r\n    /// @dev  get all projects\r\n    /// @param _projectMap mapping of Project id to Project Struct\r\n    /// @param _projectCount current index for Project = total count of Projects\r\n    /// @return returns an array of all Project\r\n    function libGetProjects(mapping (uint => Project) storage _projectMap, uint _projectCount) public view returns(Project [] memory) {\r\n        uint arraySize = _projectCount;\r\n        Project [] memory result= new Project[](arraySize);\r\n        for(uint i; i < arraySize; i++) {\r\n            result[i] = _projectMap[i];     \r\n        }\r\n        return result;\r\n    }\r\n    \r\n    /// @dev Allows to know all the projects of a single NPO\r\n    /// @param _npoAddresses mapping of NPO addresses to NPO Struct\r\n    /// @param _projectMap mapping of Project id to Project Struct\r\n    /// @param _addressNpo id which represents the index\r\n    /// @return Returns an array of all projects of a single NPO\r\n    function libGetProjectsPerNpo(mapping (address => NPO) storage _npoAddresses, mapping (uint => Project) storage _projectMap, address _addressNpo) public view  returns(Project [] memory ) {\r\n        uint arraySize = _npoAddresses[_addressNpo].projectIds.length;\r\n        Project [] memory result= new Project[](arraySize);\r\n        for(uint i; i < arraySize; i++) {\r\n            uint index = _npoAddresses[_addressNpo].projectIds[i];\r\n            result[i] = libGetProject(_projectMap, index);     \r\n        }\r\n        return result;\r\n    }\r\n\r\n    /// @dev  get Donation by id\r\n    /// @param _donationMap mapping of Donation id to Donation Struct\r\n    /// @param _id index pour retrouver la donation a retourner\r\n    /// @return a struct donation \r\n    function libGetDonation(mapping (uint => Donation) storage _donationMap, uint _id) public view returns(Donation memory) {\r\n        return _donationMap[_id];\r\n    }\r\n\r\n    /// @dev Allows to know all the donations of a single donor\r\n    /// @param _donorAddresses mapping of Donors addresses to Donor Struct\r\n    /// @param _donationMap mapping of Donation id to Donation Struct\r\n    /// @param _addressNpo id which represents the index\r\n    /// @return Returns an array of all donation of a single donor\r\n    function libGetDonationPerDonor(mapping (address => Donor) storage _donorAddresses, mapping (uint => Donation) storage _donationMap, address _addressNpo) public view  returns(Donation [] memory ) {\r\n        uint arraySize = _donorAddresses[_addressNpo].donationIds.length;\r\n        Donation [] memory result= new Donation[](arraySize);\r\n        for(uint i; i < arraySize; i++) {\r\n            uint index = _donorAddresses[_addressNpo].donationIds[i];\r\n            result[i] = libGetDonation(_donationMap, index);     \r\n        }\r\n        return result;\r\n    }\r\n\r\n    /// @dev  get Withdrawal by id\r\n    /// @param _withdrawalMap mapping of Withdrawal id to Withdrawal Struct\r\n    /// @param _id index pour retrouver le withdrawal a retourner\r\n    /// @return a struct retait \r\n    function libGetWithdrawal(mapping (uint => Withdrawal) storage _withdrawalMap, uint _id) public view returns(Withdrawal memory) {\r\n        return _withdrawalMap[_id];\r\n    }\r\n\r\n    /// @dev Allows to know all the donations of a single donor\r\n    /// @param _npoAddresses mapping of NPO addresses to NPO Struct\r\n    /// @param _withdrawalMap mapping of Withdrawal id to Withdrawal Struct\r\n    /// @param _addressNpo id which represents the index\r\n    /// @return Returns an array of all donation of a single donor\r\n    function libGetWithdrawalPerNpo(mapping (address => NPO) storage _npoAddresses, mapping (uint => Withdrawal) storage _withdrawalMap, address _addressNpo) public view  returns(Withdrawal [] memory ) {\r\n        uint arraySize = _npoAddresses[_addressNpo].withdrawalIds.length;\r\n        Withdrawal [] memory result= new Withdrawal[](arraySize);\r\n        for(uint i; i < arraySize; i++) {\r\n            uint index = _npoAddresses[_addressNpo].withdrawalIds[i];\r\n            result[i] = libGetWithdrawal(_withdrawalMap, index);     \r\n        }\r\n        return result;\r\n    }\r\n\r\n\r\n    function libGetTime () public view returns(uint){\r\n        return block.timestamp;\r\n    }\r\n\r\n}",
  "sourcePath": "D:\\DOCUMENTS\\ALYRA\\PROJET\\ethic-on-chain\\contracts\\EthicOnChainLib.sol",
  "compiler": {
    "name": "solc",
    "version": "0.8.11+commit.d7f03943.Emscripten.clang"
  },
  "schemaVersion": "3.4.4",
  "updatedAt": "2022-01-05T19:04:38.859Z",
  "networkType": "ethereum",
  "devdoc": {
    "author": "Lahcen E. Dev / Jrme Gauthier",
    "kind": "dev",
    "methods": {
      "libGetDonation(mapping(uint256 => EthicOnChainLib.Donation) storage,uint256)": {
        "details": "get Donation by id",
        "params": {
          "_donationMap": "mapping of Donation id to Donation Struct",
          "_id": "index pour retrouver la donation a retourner"
        },
        "returns": {
          "_0": "a struct donation "
        }
      },
      "libGetDonationPerDonor(mapping(address => EthicOnChainLib.Donor) storage,mapping(uint256 => EthicOnChainLib.Donation) storage,address)": {
        "details": "Allows to know all the donations of a single donor",
        "params": {
          "_addressNpo": "id which represents the index",
          "_donationMap": "mapping of Donation id to Donation Struct",
          "_donorAddresses": "mapping of Donors addresses to Donor Struct"
        },
        "returns": {
          "_0": "Returns an array of all donation of a single donor"
        }
      },
      "libGetDonor(mapping(address => EthicOnChainLib.Donor) storage,address)": {
        "details": "get a Donor via its erc20 address",
        "params": {
          "_donorAddresses": "mapping of Donors addresses to Donor Struct",
          "_donorErc20Address": "erc20 address of the Donor"
        },
        "returns": {
          "_0": "returns the corresponding Donor struct"
        }
      },
      "libGetDonors(mapping(address => EthicOnChainLib.Donor) storage,mapping(uint256 => address) storage,uint256)": {
        "details": "get all Donors",
        "params": {
          "_donorAddresses": "mapping of Donors addresses to Donor Struct",
          "_donorCount": "current index for Donor = total count of Donors",
          "_donorMap": "mapping of Donor id to Donor Struct"
        },
        "returns": {
          "_0": "returns an array of all Donors"
        }
      },
      "libGetNpo(mapping(address => EthicOnChainLib.NPO) storage,address)": {
        "details": "Get an NPO via its erc20 address",
        "params": {
          "_npoAddresses": "mapping of NPO addresses to NPO Struct",
          "_npoErc20Address": "erc20 address of the NPO Struct"
        },
        "returns": {
          "_0": "returns the corresponding NPO struct"
        }
      },
      "libGetNpos(mapping(address => EthicOnChainLib.NPO) storage,mapping(uint256 => address) storage,uint256)": {
        "details": "Get all NPOs",
        "params": {
          "_npoAddresses": "mapping of NPO addresses to NPO Struct",
          "_npoCount": "current index for NPO = total count of NPOs",
          "_npoMap": "mapping of NPO id to NPO Struct"
        },
        "returns": {
          "_0": "returns an array of all NPOs"
        }
      },
      "libGetProject(mapping(uint256 => EthicOnChainLib.Project) storage,uint256)": {
        "details": "Returns a single Project",
        "params": {
          "_projectId": "project unique id",
          "_projectMap": "mapping of Project id to Project Struct"
        },
        "returns": {
          "_0": "the Project struct instance corresponding to _projectId"
        }
      },
      "libGetProjects(mapping(uint256 => EthicOnChainLib.Project) storage,uint256)": {
        "details": "get all projects",
        "params": {
          "_projectCount": "current index for Project = total count of Projects",
          "_projectMap": "mapping of Project id to Project Struct"
        },
        "returns": {
          "_0": "returns an array of all Project"
        }
      },
      "libGetProjectsPerNpo(mapping(address => EthicOnChainLib.NPO) storage,mapping(uint256 => EthicOnChainLib.Project) storage,address)": {
        "details": "Allows to know all the projects of a single NPO",
        "params": {
          "_addressNpo": "id which represents the index",
          "_npoAddresses": "mapping of NPO addresses to NPO Struct",
          "_projectMap": "mapping of Project id to Project Struct"
        },
        "returns": {
          "_0": "Returns an array of all projects of a single NPO"
        }
      },
      "libGetWithdrawal(mapping(uint256 => EthicOnChainLib.Withdrawal) storage,uint256)": {
        "details": "get Withdrawal by id",
        "params": {
          "_id": "index pour retrouver le withdrawal a retourner",
          "_withdrawalMap": "mapping of Withdrawal id to Withdrawal Struct"
        },
        "returns": {
          "_0": "a struct retait "
        }
      },
      "libGetWithdrawalPerNpo(mapping(address => EthicOnChainLib.NPO) storage,mapping(uint256 => EthicOnChainLib.Withdrawal) storage,address)": {
        "details": "Allows to know all the donations of a single donor",
        "params": {
          "_addressNpo": "id which represents the index",
          "_npoAddresses": "mapping of NPO addresses to NPO Struct",
          "_withdrawalMap": "mapping of Withdrawal id to Withdrawal Struct"
        },
        "returns": {
          "_0": "Returns an array of all donation of a single donor"
        }
      }
    },
    "title": "EthicOnChainLib ",
    "version": 1
  },
  "userdoc": {
    "kind": "user",
    "methods": {},
    "notice": "EthicOnChain library to manage struct and getters",
    "version": 1
  }
}