{
  "contractName": "EthicOnChain",
  "abi": [
    {
      "anonymous": false,
      "inputs": [
        {
          "indexed": false,
          "internalType": "address",
          "name": "_addressNpo",
          "type": "address"
        },
        {
          "indexed": false,
          "internalType": "string",
          "name": "_name",
          "type": "string"
        }
      ],
      "name": "NpoAdded",
      "type": "event"
    },
    {
      "anonymous": false,
      "inputs": [
        {
          "indexed": false,
          "internalType": "string",
          "name": "_title",
          "type": "string"
        },
        {
          "indexed": false,
          "internalType": "uint256",
          "name": "_startDate",
          "type": "uint256"
        },
        {
          "indexed": false,
          "internalType": "uint256",
          "name": "_endDate",
          "type": "uint256"
        },
        {
          "indexed": false,
          "internalType": "uint256",
          "name": "_minAmount",
          "type": "uint256"
        },
        {
          "indexed": false,
          "internalType": "uint256",
          "name": "_maxAmount",
          "type": "uint256"
        }
      ],
      "name": "ProjectAdded",
      "type": "event"
    },
    {
      "inputs": [
        {
          "internalType": "address",
          "name": "",
          "type": "address"
        }
      ],
      "name": "npoAddresses",
      "outputs": [
        {
          "internalType": "string",
          "name": "denomination",
          "type": "string"
        },
        {
          "internalType": "string",
          "name": "npoAddress",
          "type": "string"
        },
        {
          "internalType": "string",
          "name": "object",
          "type": "string"
        },
        {
          "internalType": "string",
          "name": "npoType",
          "type": "string"
        },
        {
          "internalType": "uint256",
          "name": "projectCount",
          "type": "uint256"
        }
      ],
      "stateMutability": "view",
      "type": "function"
    },
    {
      "inputs": [
        {
          "internalType": "string",
          "name": "_denomination",
          "type": "string"
        },
        {
          "internalType": "string",
          "name": "_npoAddress",
          "type": "string"
        },
        {
          "internalType": "string",
          "name": "_object",
          "type": "string"
        },
        {
          "internalType": "string",
          "name": "_npoType",
          "type": "string"
        },
        {
          "internalType": "address",
          "name": "_address",
          "type": "address"
        }
      ],
      "name": "addNpo",
      "outputs": [],
      "stateMutability": "nonpayable",
      "type": "function"
    },
    {
      "inputs": [
        {
          "internalType": "string",
          "name": "_title",
          "type": "string"
        },
        {
          "internalType": "string",
          "name": "_description",
          "type": "string"
        },
        {
          "internalType": "string",
          "name": "_city",
          "type": "string"
        },
        {
          "internalType": "uint256",
          "name": "_startDate",
          "type": "uint256"
        },
        {
          "internalType": "uint256",
          "name": "_endDate",
          "type": "uint256"
        },
        {
          "internalType": "uint256",
          "name": "_campaignStartDate",
          "type": "uint256"
        },
        {
          "internalType": "uint256",
          "name": "_campaignDurationInDays",
          "type": "uint256"
        },
        {
          "internalType": "uint32",
          "name": "_minAmount",
          "type": "uint32"
        },
        {
          "internalType": "uint32",
          "name": "_maxAmount",
          "type": "uint32"
        }
      ],
      "name": "addProject",
      "outputs": [],
      "stateMutability": "nonpayable",
      "type": "function"
    },
    {
      "inputs": [
        {
          "internalType": "uint256",
          "name": "_id",
          "type": "uint256"
        },
        {
          "internalType": "address",
          "name": "_addressNpo",
          "type": "address"
        }
      ],
      "name": "getProject",
      "outputs": [
        {
          "components": [
            {
              "internalType": "enum EthicOnChain.ProjectCause",
              "name": "cause",
              "type": "uint8"
            },
            {
              "internalType": "string",
              "name": "title",
              "type": "string"
            },
            {
              "internalType": "string",
              "name": "description",
              "type": "string"
            },
            {
              "internalType": "string",
              "name": "city",
              "type": "string"
            },
            {
              "internalType": "uint256",
              "name": "startDate",
              "type": "uint256"
            },
            {
              "internalType": "uint256",
              "name": "endDate",
              "type": "uint256"
            },
            {
              "internalType": "uint256",
              "name": "campaignStartDate",
              "type": "uint256"
            },
            {
              "internalType": "uint256",
              "name": "campaignDurationInDays",
              "type": "uint256"
            },
            {
              "internalType": "uint32",
              "name": "minAmount",
              "type": "uint32"
            },
            {
              "internalType": "uint32",
              "name": "maxAmount",
              "type": "uint32"
            }
          ],
          "internalType": "struct EthicOnChain.Project",
          "name": "",
          "type": "tuple"
        }
      ],
      "stateMutability": "view",
      "type": "function"
    }
  ],
  "bytecode": "0x608060405234801561001057600080fd5b506115a6806100206000396000f3fe608060405234801561001057600080fd5b506004361061004c5760003560e01c806324cf025d146100515780634913cdb01461006d57806353388ad1146100a1578063d6541c3c146100bd575b600080fd5b61006b60048036038101906100669190610dd3565b6100ed565b005b61008760048036038101906100829190610f4f565b610388565b604051610098959493929190611013565b60405180910390f35b6100bb60048036038101906100b69190611082565b6105de565b005b6100d760048036038101906100d2919061116d565b610820565b6040516100e49190611374565b60405180910390f35b6040518061014001604052806000600681111561010d5761010c6111ad565b5b81526020018a81526020018981526020018881526020018781526020018681526020018581526020018481526020018363ffffffff1681526020018263ffffffff168152506000803373ffffffffffffffffffffffffffffffffffffffff1673ffffffffffffffffffffffffffffffffffffffff16815260200190815260200160002060040160008060003373ffffffffffffffffffffffffffffffffffffffff1673ffffffffffffffffffffffffffffffffffffffff16815260200190815260200160002060050154815260200190815260200160002060008201518160000160006101000a81548160ff021916908360068111156102105761020f6111ad565b5b02179055506020820151816001019080519060200190610231929190610af3565b50604082015181600201908051906020019061024e929190610af3565b50606082015181600301908051906020019061026b929190610af3565b506080820151816004015560a0820151816005015560c0820151816006015560e082015181600701556101008201518160080160006101000a81548163ffffffff021916908363ffffffff1602179055506101208201518160080160046101000a81548163ffffffff021916908363ffffffff1602179055509050506000803373ffffffffffffffffffffffffffffffffffffffff1673ffffffffffffffffffffffffffffffffffffffff1681526020019081526020016000206005016000815480929190610339906113c5565b91905055507fe12a0991ed99358266fd00becae8b030807d7d81940b28f4f4878e1fbdc4bead8987878585604051610375959493929190611449565b60405180910390a1505050505050505050565b60006020528060005260406000206000915090508060000180546103ab906114d2565b80601f01602080910402602001604051908101604052809291908181526020018280546103d7906114d2565b80156104245780601f106103f957610100808354040283529160200191610424565b820191906000526020600020905b81548152906001019060200180831161040757829003601f168201915b505050505090806001018054610439906114d2565b80601f0160208091040260200160405190810160405280929190818152602001828054610465906114d2565b80156104b25780601f10610487576101008083540402835291602001916104b2565b820191906000526020600020905b81548152906001019060200180831161049557829003601f168201915b5050505050908060020180546104c7906114d2565b80601f01602080910402602001604051908101604052809291908181526020018280546104f3906114d2565b80156105405780601f1061051557610100808354040283529160200191610540565b820191906000526020600020905b81548152906001019060200180831161052357829003601f168201915b505050505090806003018054610555906114d2565b80601f0160208091040260200160405190810160405280929190818152602001828054610581906114d2565b80156105ce5780601f106105a3576101008083540402835291602001916105ce565b820191906000526020600020905b8154815290600101906020018083116105b157829003601f168201915b5050505050908060050154905085565b846000808373ffffffffffffffffffffffffffffffffffffffff1673ffffffffffffffffffffffffffffffffffffffff1681526020019081526020016000206000019080519060200190610633929190610af3565b50836000808373ffffffffffffffffffffffffffffffffffffffff1673ffffffffffffffffffffffffffffffffffffffff1681526020019081526020016000206001019080519060200190610689929190610af3565b50826000808373ffffffffffffffffffffffffffffffffffffffff1673ffffffffffffffffffffffffffffffffffffffff16815260200190815260200160002060020190805190602001906106df929190610af3565b50816000808373ffffffffffffffffffffffffffffffffffffffff1673ffffffffffffffffffffffffffffffffffffffff1681526020019081526020016000206003019080519060200190610735929190610af3565b508060016000600260009054906101000a900463ffffffff1663ffffffff16815260200190815260200160002060006101000a81548173ffffffffffffffffffffffffffffffffffffffff021916908373ffffffffffffffffffffffffffffffffffffffff1602179055506002600081819054906101000a900463ffffffff16809291906107c290611504565b91906101000a81548163ffffffff021916908363ffffffff160217905550507e1d5f981dd0c1edf0e70e39227d6832c9031559f98076de006e1bf7a19a01a08186604051610811929190611540565b60405180910390a15050505050565b610828610b79565b6000808373ffffffffffffffffffffffffffffffffffffffff1673ffffffffffffffffffffffffffffffffffffffff1681526020019081526020016000206004016000848152602001908152602001600020604051806101400160405290816000820160009054906101000a900460ff1660068111156108ab576108aa6111ad565b5b60068111156108bd576108bc6111ad565b5b81526020016001820180546108d1906114d2565b80601f01602080910402602001604051908101604052809291908181526020018280546108fd906114d2565b801561094a5780601f1061091f5761010080835404028352916020019161094a565b820191906000526020600020905b81548152906001019060200180831161092d57829003601f168201915b50505050508152602001600282018054610963906114d2565b80601f016020809104026020016040519081016040528092919081815260200182805461098f906114d2565b80156109dc5780601f106109b1576101008083540402835291602001916109dc565b820191906000526020600020905b8154815290600101906020018083116109bf57829003601f168201915b505050505081526020016003820180546109f5906114d2565b80601f0160208091040260200160405190810160405280929190818152602001828054610a21906114d2565b8015610a6e5780601f10610a4357610100808354040283529160200191610a6e565b820191906000526020600020905b815481529060010190602001808311610a5157829003601f168201915b50505050508152602001600482015481526020016005820154815260200160068201548152602001600782015481526020016008820160009054906101000a900463ffffffff1663ffffffff1663ffffffff1681526020016008820160049054906101000a900463ffffffff1663ffffffff1663ffffffff1681525050905092915050565b828054610aff906114d2565b90600052602060002090601f016020900481019282610b215760008555610b68565b82601f10610b3a57805160ff1916838001178555610b68565b82800160010185558215610b68579182015b82811115610b67578251825591602001919060010190610b4c565b5b509050610b759190610bea565b5090565b60405180610140016040528060006006811115610b9957610b986111ad565b5b815260200160608152602001606081526020016060815260200160008152602001600081526020016000815260200160008152602001600063ffffffff168152602001600063ffffffff1681525090565b5b80821115610c03576000816000905550600101610beb565b5090565b6000604051905090565b600080fd5b600080fd5b600080fd5b600080fd5b6000601f19601f8301169050919050565b7f4e487b7100000000000000000000000000000000000000000000000000000000600052604160045260246000fd5b610c6e82610c25565b810181811067ffffffffffffffff82111715610c8d57610c8c610c36565b5b80604052505050565b6000610ca0610c07565b9050610cac8282610c65565b919050565b600067ffffffffffffffff821115610ccc57610ccb610c36565b5b610cd582610c25565b9050602081019050919050565b82818337600083830152505050565b6000610d04610cff84610cb1565b610c96565b905082815260208101848484011115610d2057610d1f610c20565b5b610d2b848285610ce2565b509392505050565b600082601f830112610d4857610d47610c1b565b5b8135610d58848260208601610cf1565b91505092915050565b6000819050919050565b610d7481610d61565b8114610d7f57600080fd5b50565b600081359050610d9181610d6b565b92915050565b600063ffffffff82169050919050565b610db081610d97565b8114610dbb57600080fd5b50565b600081359050610dcd81610da7565b92915050565b60008060008060008060008060006101208a8c031215610df657610df5610c11565b5b60008a013567ffffffffffffffff811115610e1457610e13610c16565b5b610e208c828d01610d33565b99505060208a013567ffffffffffffffff811115610e4157610e40610c16565b5b610e4d8c828d01610d33565b98505060408a013567ffffffffffffffff811115610e6e57610e6d610c16565b5b610e7a8c828d01610d33565b9750506060610e8b8c828d01610d82565b9650506080610e9c8c828d01610d82565b95505060a0610ead8c828d01610d82565b94505060c0610ebe8c828d01610d82565b93505060e0610ecf8c828d01610dbe565b925050610100610ee18c828d01610dbe565b9150509295985092959850929598565b600073ffffffffffffffffffffffffffffffffffffffff82169050919050565b6000610f1c82610ef1565b9050919050565b610f2c81610f11565b8114610f3757600080fd5b50565b600081359050610f4981610f23565b92915050565b600060208284031215610f6557610f64610c11565b5b6000610f7384828501610f3a565b91505092915050565b600081519050919050565b600082825260208201905092915050565b60005b83811015610fb6578082015181840152602081019050610f9b565b83811115610fc5576000848401525b50505050565b6000610fd682610f7c565b610fe08185610f87565b9350610ff0818560208601610f98565b610ff981610c25565b840191505092915050565b61100d81610d61565b82525050565b600060a082019050818103600083015261102d8188610fcb565b905081810360208301526110418187610fcb565b905081810360408301526110558186610fcb565b905081810360608301526110698185610fcb565b90506110786080830184611004565b9695505050505050565b600080600080600060a0868803121561109e5761109d610c11565b5b600086013567ffffffffffffffff8111156110bc576110bb610c16565b5b6110c888828901610d33565b955050602086013567ffffffffffffffff8111156110e9576110e8610c16565b5b6110f588828901610d33565b945050604086013567ffffffffffffffff81111561111657611115610c16565b5b61112288828901610d33565b935050606086013567ffffffffffffffff81111561114357611142610c16565b5b61114f88828901610d33565b925050608061116088828901610f3a565b9150509295509295909350565b6000806040838503121561118457611183610c11565b5b600061119285828601610d82565b92505060206111a385828601610f3a565b9150509250929050565b7f4e487b7100000000000000000000000000000000000000000000000000000000600052602160045260246000fd5b600781106111ed576111ec6111ad565b5b50565b60008190506111fe826111dc565b919050565b600061120e826111f0565b9050919050565b61121e81611203565b82525050565b600082825260208201905092915050565b600061124082610f7c565b61124a8185611224565b935061125a818560208601610f98565b61126381610c25565b840191505092915050565b61127781610d61565b82525050565b61128681610d97565b82525050565b6000610140830160008301516112a56000860182611215565b50602083015184820360208601526112bd8282611235565b915050604083015184820360408601526112d78282611235565b915050606083015184820360608601526112f18282611235565b9150506080830151611306608086018261126e565b5060a083015161131960a086018261126e565b5060c083015161132c60c086018261126e565b5060e083015161133f60e086018261126e565b5061010083015161135461010086018261127d565b5061012083015161136961012086018261127d565b508091505092915050565b6000602082019050818103600083015261138e818461128c565b905092915050565b7f4e487b7100000000000000000000000000000000000000000000000000000000600052601160045260246000fd5b60006113d082610d61565b91507fffffffffffffffffffffffffffffffffffffffffffffffffffffffffffffffff82141561140357611402611396565b5b600182019050919050565b6000819050919050565b600061143361142e61142984610d97565b61140e565b610d61565b9050919050565b61144381611418565b82525050565b600060a08201905081810360008301526114638188610fcb565b90506114726020830187611004565b61147f6040830186611004565b61148c606083018561143a565b611499608083018461143a565b9695505050505050565b7f4e487b7100000000000000000000000000000000000000000000000000000000600052602260045260246000fd5b600060028204905060018216806114ea57607f821691505b602082108114156114fe576114fd6114a3565b5b50919050565b600061150f82610d97565b915063ffffffff82141561152657611525611396565b5b600182019050919050565b61153a81610f11565b82525050565b60006040820190506115556000830185611531565b81810360208301526115678184610fcb565b9050939250505056fea26469706673582212209b4db47d6e1164d1bc0137700a0a06affe009ba9420726626704fb54250c9c0264736f6c634300080a0033",
  "immutableReferences": {},
  "source": "// SPDX-License-Identifier: MIT\r\npragma solidity 0.8.10;\r\n \r\nimport \"@openzeppelin/contracts/token/ERC20/ERC20.sol\";\r\n\r\n\r\n/// @title EthicOnChain \r\n/// @author Lahcen E. Dev\r\n/// @notice EthicOnChain contract to manage NPOs, Projects and Donors\r\ncontract EthicOnChain {\r\n    \r\n    struct NPO {\r\n        string denomination;\r\n        string npoAddress;\r\n        string object;\r\n        string npoType;\r\n        mapping (uint => Project) projects;\r\n        uint projectCount;\r\n    }\r\n\r\n    struct Donor {\r\n        string name;\r\n        string surName;\r\n        string addressDonor;\r\n    }\r\n\r\n    struct Project {\r\n        ProjectCause cause;\r\n        string title;\r\n        string description;\r\n        string city;\r\n        uint startDate;\r\n        uint endDate;\r\n        uint campaignStartDate;\r\n        uint campaignDurationInDays;\r\n        uint32 minAmount;\r\n        uint32 maxAmount;\r\n    }      \r\n\r\n    enum ProjectCause {\r\n        LutteContreLapauvreteEtExclusion,\r\n        EnvironnementEtLesAnimaux,\r\n        Education,\r\n        ArtEtLaCulture,\r\n        SanteEtLaRecherche,\r\n        DroitsDeLHomme,\r\n        InfrastructureRoutiere\r\n    }\r\n\r\n    enum ProjectStatus {\r\n        ProjectProposal, \r\n        WaitingOpening,\r\n        OpenFundRaising,\r\n        CloseFundRaising\r\n    }\r\n\r\n    mapping (address => NPO) public npoAddresses; //Mapping of all NPO \r\n    mapping (uint => address) private npoMap;\r\n    uint32 private npoCount; \r\n    \r\n    event NpoAdded(address _addressNpo,string _name);\r\n    event ProjectAdded(string _title, uint _startDate,uint _endDate,uint _minAmount,uint _maxAmount);\r\n    \r\n    /// @dev The administrator can add a new NPO\r\n    /// @param _denomination Demonination of the NPO\r\n    /// @param _npoAddress Postal address of the NPO\r\n    /// @param _object object of NPO\r\n    /// @param _npoType Type of npo organization\r\n    /// @param _address the ERC20 address of the npo\r\n    function addNpo(\r\n        string memory _denomination,\r\n        string memory _npoAddress,\r\n        string memory _object,string memory _npoType,address _address) public {\r\n        \r\n        npoAddresses[_address].denomination=_denomination;\r\n        npoAddresses[_address].npoAddress=_npoAddress;\r\n        npoAddresses[_address].object=_object;\r\n        npoAddresses[_address].npoType=_npoType;\r\n        npoMap[npoCount]=_address;\r\n        npoCount++;\r\n        emit NpoAdded(_address,_denomination);\r\n    }\r\n \r\n    /// @dev This function will allow to add a project, the owner will be the one who calls the function. \r\n    /// @param _title The title of the project\r\n    /// @param _description description of the project\r\n    /// @param _city the city where the project will be located.\r\n    /// @param _startDate The start date of the project\r\n    /// @param _endDate The end of the project\r\n    /// @param _campaignStartDate the beginning of the collection of funds\r\n    /// @param _campaignDurationInDays the duration of the collection of funds\r\n    /// @param _minAmount The minimum price for the project to be valid\r\n    /// @param _maxAmount The maximum price to make the project a success \r\n    function addProject(\r\n        string memory _title,\r\n        string memory _description,\r\n        string memory _city,\r\n        uint _startDate,\r\n        uint _endDate,\r\n        uint _campaignStartDate,\r\n        uint _campaignDurationInDays,\r\n        uint32 _minAmount,\r\n        uint32 _maxAmount\r\n    ) public {\r\n        \r\n        npoAddresses[msg.sender].projects[npoAddresses[msg.sender].projectCount]=Project(\r\n            ProjectCause.LutteContreLapauvreteEtExclusion,\r\n            _title,\r\n            _description,\r\n            _city,\r\n            _startDate,\r\n            _endDate,\r\n            _campaignStartDate,\r\n            _campaignDurationInDays,\r\n            _minAmount,\r\n            _maxAmount\r\n        );\r\n        npoAddresses[msg.sender].projectCount++;\r\n        emit ProjectAdded( _title,  _startDate,_endDate,_minAmount, _maxAmount);\r\n    } \r\n\r\n    /// @dev This function allows to return a project of type Project according to the ERC address of the NPO and the index.\r\n    /// @param _id index of the project list that the address has\r\n    /// @param _addressNpo NPO's ERC20 address\r\n    /// @return Documents the return variables of a contracts function state variable\r\n\r\n    function getProject(uint _id, address _addressNpo) public view returns(Project memory) {\r\n        return npoAddresses[_addressNpo].projects[_id];\r\n    }\r\n\r\n}",
  "sourcePath": "C:\\Appli.crypto\\ethic-on-chain\\contracts\\EthicOnChain.sol",
  "compiler": {
    "name": "solc",
    "version": "0.8.10+commit.fc410830.Emscripten.clang"
  },
  "schemaVersion": "3.4.4",
  "updatedAt": "2021-12-21T08:58:47.318Z",
  "devdoc": {
    "author": "Lahcen E. Dev",
    "kind": "dev",
    "methods": {
      "addNpo(string,string,string,string,address)": {
        "details": "The administrator can add a new NPO",
        "params": {
          "_address": "the ERC20 address of the npo",
          "_denomination": "Demonination of the NPO",
          "_npoAddress": "Postal address of the NPO",
          "_npoType": "Type of npo organization",
          "_object": "object of NPO"
        }
      },
      "addProject(string,string,string,uint256,uint256,uint256,uint256,uint32,uint32)": {
        "details": "This function will allow to add a project, the owner will be the one who calls the function. ",
        "params": {
          "_campaignDurationInDays": "the duration of the collection of funds",
          "_campaignStartDate": "the beginning of the collection of funds",
          "_city": "the city where the project will be located.",
          "_description": "description of the project",
          "_endDate": "The end of the project",
          "_maxAmount": "The maximum price to make the project a success ",
          "_minAmount": "The minimum price for the project to be valid",
          "_startDate": "The start date of the project",
          "_title": "The title of the project"
        }
      },
      "getProject(uint256,address)": {
        "details": "This function allows to return a project of type Project according to the ERC address of the NPO and the index.",
        "params": {
          "_addressNpo": "NPO's ERC20 address",
          "_id": "index of the project list that the address has"
        },
        "returns": {
          "_0": "Documents the return variables of a contracts function state variable"
        }
      }
    },
    "title": "EthicOnChain ",
    "version": 1
  },
  "userdoc": {
    "kind": "user",
    "methods": {},
    "notice": "EthicOnChain contract to manage NPOs, Projects and Donors",
    "version": 1
  }
}